{
  "_format": "hh-sol-artifact-1",
  "contractName": "AIAnalysisOracle",
  "sourceName": "contracts/AIAnalysisOracle.sol",
  "abi": [
    {
      "inputs": [
        {
          "internalType": "address",
          "name": "_immunityLayer",
          "type": "address"
        }
      ],
      "stateMutability": "nonpayable",
      "type": "constructor"
    },
    {
      "anonymous": false,
      "inputs": [
        {
          "indexed": true,
          "internalType": "bytes32",
          "name": "threatId",
          "type": "bytes32"
        },
        {
          "indexed": false,
          "internalType": "string",
          "name": "aiAnalysis",
          "type": "string"
        },
        {
          "indexed": false,
          "internalType": "string",
          "name": "suggestedAction",
          "type": "string"
        },
        {
          "indexed": false,
          "internalType": "bool",
          "name": "isCritical",
          "type": "bool"
        }
      ],
      "name": "AnalysisCompleted",
      "type": "event"
    },
    {
      "anonymous": false,
      "inputs": [
        {
          "indexed": true,
          "internalType": "bytes32",
          "name": "threatId",
          "type": "bytes32"
        },
        {
          "indexed": true,
          "internalType": "address",
          "name": "targetContract",
          "type": "address"
        },
        {
          "indexed": true,
          "internalType": "address",
          "name": "caller",
          "type": "address"
        }
      ],
      "name": "AnalysisRequested",
      "type": "event"
    },
    {
      "inputs": [
        {
          "internalType": "bytes32",
          "name": "",
          "type": "bytes32"
        }
      ],
      "name": "analysisRequests",
      "outputs": [
        {
          "internalType": "bytes32",
          "name": "threatId",
          "type": "bytes32"
        },
        {
          "internalType": "address",
          "name": "targetContract",
          "type": "address"
        },
        {
          "internalType": "address",
          "name": "caller",
          "type": "address"
        },
        {
          "internalType": "bytes",
          "name": "data",
          "type": "bytes"
        },
        {
          "internalType": "uint256",
          "name": "timestamp",
          "type": "uint256"
        },
        {
          "internalType": "bool",
          "name": "completed",
          "type": "bool"
        },
        {
          "internalType": "string",
          "name": "aiAnalysis",
          "type": "string"
        },
        {
          "internalType": "string",
          "name": "suggestedAction",
          "type": "string"
        }
      ],
      "stateMutability": "view",
      "type": "function"
    },
    {
      "inputs": [
        {
          "internalType": "bytes32",
          "name": "_threatId",
          "type": "bytes32"
        }
      ],
      "name": "getAnalysis",
      "outputs": [
        {
          "internalType": "string",
          "name": "analysis",
          "type": "string"
        },
        {
          "internalType": "string",
          "name": "suggestedAction",
          "type": "string"
        },
        {
          "internalType": "bool",
          "name": "completed",
          "type": "bool"
        }
      ],
      "stateMutability": "view",
      "type": "function"
    },
    {
      "inputs": [],
      "name": "immunityLayer",
      "outputs": [
        {
          "internalType": "address",
          "name": "",
          "type": "address"
        }
      ],
      "stateMutability": "view",
      "type": "function"
    },
    {
      "inputs": [],
      "name": "owner",
      "outputs": [
        {
          "internalType": "address",
          "name": "",
          "type": "address"
        }
      ],
      "stateMutability": "view",
      "type": "function"
    },
    {
      "inputs": [
        {
          "internalType": "bytes32",
          "name": "_threatId",
          "type": "bytes32"
        },
        {
          "internalType": "address",
          "name": "_targetContract",
          "type": "address"
        },
        {
          "internalType": "address",
          "name": "_caller",
          "type": "address"
        },
        {
          "internalType": "bytes",
          "name": "_data",
          "type": "bytes"
        }
      ],
      "name": "requestAnalysis",
      "outputs": [],
      "stateMutability": "nonpayable",
      "type": "function"
    },
    {
      "inputs": [
        {
          "internalType": "bytes32",
          "name": "_threatId",
          "type": "bytes32"
        },
        {
          "internalType": "string",
          "name": "_analysis",
          "type": "string"
        },
        {
          "internalType": "string",
          "name": "_suggestedAction",
          "type": "string"
        },
        {
          "internalType": "bool",
          "name": "_isCritical",
          "type": "bool"
        }
      ],
      "name": "submitAnalysis",
      "outputs": [],
      "stateMutability": "nonpayable",
      "type": "function"
    }
  ],
  "bytecode": "0x60803461007c57601f610d2e38819003918201601f19168301916001600160401b038311848410176100815780849260209460405283398101031261007c57516001600160a01b0381169081900361007c5760018060a01b03199081600054161760005533906001541617600155604051610c9690816100988239f35b600080fd5b634e487b7160e01b600052604160045260246000fdfe608080604052600436101561001357600080fd5b60003560e01c9081631730121c14610a2e57508063327939fa14610940578063528a394d146106285780637986b037146101985780638da5cb5b1461016f5763d0906d7c1461006157600080fd5b3461016a57602036600319011261016a576004356000526002602052610152604060002061012f6101606040519261009884610b22565b8054845260018060a01b0380600183015416602086015260028201541660408501526040516100d5816100ce8160038601610a8c565b0382610b5b565b606085015260048101546080850152600760e060ff6005840154169560a08101961515875261013660405194610119866101128160068501610a8c565b0387610b5b565b60c0830195865260405197888096819301610a8c565b0384610b5b565b0152519251151591604051948594606086526060860190610b7d565b908482036020860152610b7d565b9060408301520390f35b600080fd5b3461016a57600036600319011261016a576001546040516001600160a01b039091168152602090f35b3461016a57608036600319011261016a576024356001600160a01b038116810361016a57604435906001600160a01b038216820361016a5760643567ffffffffffffffff811161016a576101f0903690600401610bbd565b600054909391906001600160a01b031633036105e3576040519361021385610b22565b60043585526001600160a01b0384811660208701528316604086015267ffffffffffffffff81116104e55760405191610256601f8301601f191660200184610b5b565b818352368282011161016a578160009260209283860137830101526060840152426080840152600060a084015260405161028f81610b3f565b6000815260c08401526040516102a481610b3f565b6000815260e08401526004356000526002602052604060002092805184556001840160018060a01b03602083015116906bffffffffffffffffffffffff60a01b9182825416179055600285019060018060a01b036040840151169082541617905560608101519384519467ffffffffffffffff86116104e5576003958087840192610339826103338654610a52565b86610beb565b602090601f831160011461057e57600092610573575b50508160011b9160001990891b1c19161790555b608082015160048201556005810160a0830151151560ff801983541691161790556006810160c083015180519067ffffffffffffffff82116104e5576103b3826103ad8554610a52565b85610beb565b602090601f83116001146105065791806007949260e096946000926104fb575b50508160011b91600019908b1b1c19161790555b019101519384519067ffffffffffffffff82116104e55761040c826103ad8554610a52565b6020601f831160011461047b578293949596600093610470575b50508260011b92600019911b1c19161790555b6001600160a01b0390811691166004357fd3887a738aaa15c0bcb4c3a5f4e8ee19bb5dc46eb191313573806b2ef22ecff8600080a4005b015191508680610426565b90601f198316918460005260206000209260005b8181106104cd57509784600196979899106104b3575b50505050811b019055610439565b01519060f884600019921b161c19169055858080806104a5565b9193602060018192878d01518155019501920161048f565b634e487b7160e01b600052604160045260246000fd5b015190508a806103d3565b90601f198316918460005260206000209260005b81811061055b575092600192859260e098966007989610610543575b505050811b0190556103e7565b0151600019838d1b60f8161c191690558a8080610536565b9293602060018192878601518155019501930161051a565b01519050888061034f565b6000858152602081209350601f198516905b8181106105cb57509084600195949392106105b3575b505050811b019055610363565b0151600019838b1b60f8161c191690558880806105a6565b92936020600181928786015181550195019301610590565b60405162461bcd60e51b815260206004820152601c60248201527f4f6e6c7920496d6d756e697479204c617965722063616e2063616c6c000000006044820152606490fd5b3461016a57608036600319011261016a5767ffffffffffffffff60043560243582811161016a5761065d903690600401610bbd565b60443584811161016a57610675903690600401610bbd565b6064359182151580930361016a57600180549097906001600160a01b0316330361090e57866000526020976002895260ff600560406000200154166108c957876000526002895260066040600020600581018360ff19825416179055018287116104e5576106ed876106e78354610a52565b83610beb565b866000601f821160011461086357600091610858575b50600019600389901b1c191687831b1790555b876000526002895260076040600020019184116104e5576107418461073b8454610a52565b84610beb565b6000601f85116001146107ce579184807f91835154ccbe750aa69196cfc23ddac21c39baaeef0b53f3c7ba30355e7715769a9b95936107b897956000936107c3575b501b906000198560031b1c19161790555b6107ab604051978897606089526060890191610c3f565b9286840390870152610c3f565b9060408301520390a2005b85013592508d610783565b601f19851690836000528a6000209160005b8181106108435750917f91835154ccbe750aa69196cfc23ddac21c39baaeef0b53f3c7ba30355e7715769a9b959391876107b898969410610829575b505083811b019055610794565b840135600019600387901b60f8161c191690558b8061081c565b86830135845592840192918c01918c016107e0565b90508801358b610703565b60008381528c81209290601f198216908e878e5b8484106108b0575050505010610896575b50508187811b019055610716565b89013560001960038a901b60f8161c191690558a80610888565b860135875590950194938401938c9350018e878e610877565b60405162461bcd60e51b8152600481018a9052601a60248201527f416e616c7973697320616c726561647920636f6d706c657465640000000000006044820152606490fd5b60405162461bcd60e51b815260206004820152600a60248201526927b7363c9037bbb732b960b11b6044820152606490fd5b3461016a57602036600319011261016a57600435600052600260205260406000208054610a2a6007610a1c60018060a01b0394856001820154169560028201541690604051916109978361012f8160038601610a8c565b610a0260048301549360ff600585015416926109df604051956109c8876109c18160068501610a8c565b0388610b5b565b6109d8604051809b819301610a8c565b0389610b5b565b6040519a8b9a8b5260208b015260408a01526101008060608b0152890190610b7d565b926080880152151560a087015285820360c0870152610b7d565b9083820360e0850152610b7d565b0390f35b3461016a57600036600319011261016a576000546001600160a01b03168152602090f35b90600182811c92168015610a82575b6020831014610a6c57565b634e487b7160e01b600052602260045260246000fd5b91607f1691610a61565b9060009291805491610a9d83610a52565b918282526001938481169081600014610aff5750600114610abf575b50505050565b90919394506000526020928360002092846000945b838610610aeb575050505001019038808080610ab9565b805485870183015294019385908201610ad4565b9294505050602093945060ff191683830152151560051b01019038808080610ab9565b610100810190811067ffffffffffffffff8211176104e557604052565b6020810190811067ffffffffffffffff8211176104e557604052565b90601f8019910116810190811067ffffffffffffffff8211176104e557604052565b919082519283825260005b848110610ba9575050826000602080949584010152601f8019910116010190565b602081830181015184830182015201610b88565b9181601f8401121561016a5782359167ffffffffffffffff831161016a576020838186019501011161016a57565b90601f8111610bf957505050565b600091825260208220906020601f850160051c83019410610c35575b601f0160051c01915b828110610c2a57505050565b818155600101610c1e565b9092508290610c15565b908060209392818452848401376000828201840152601f01601f191601019056fea2646970667358221220fe1d278e9053b967b428dff614ff1caf29e02fc9248ba89757cc0fde789422d464736f6c63430008130033",
  "linkReferences": {},
  "deployedLinkReferences": {}
}