{"contracts/TestVulnerable.sol":{"TestVulnerable":{"abi":[{"inputs":[{"internalType":"address","name":"","type":"address"}],"name":"balances","outputs":[{"internalType":"uint256","name":"","type":"uint256"}],"stateMutability":"view","type":"function"},{"inputs":[],"name":"deposit","outputs":[],"stateMutability":"payable","type":"function"},{"inputs":[],"name":"getBalance","outputs":[{"internalType":"uint256","name":"","type":"uint256"}],"stateMutability":"view","type":"function"},{"inputs":[{"internalType":"uint256","name":"_amount","type":"uint256"}],"name":"safeWithdraw","outputs":[],"stateMutability":"nonpayable","type":"function"},{"inputs":[{"internalType":"uint256","name":"_amount","type":"uint256"}],"name":"withdraw","outputs":[],"stateMutability":"nonpayable","type":"function"}],"evm":{"bytecode":{"linkReferences":{},"object":"60808060405234610016576102e2908161001c8239f35b600080fdfe60806040818152600436101561001457600080fd5b600091823560e01c90816312065fe01461018d5750806327e235e31461014f5780632e1a7d4d146100f7578063b0fd035b146100965763d0e30db01461005957600080fd5b816003193601126100925733825281602052812080549034820180921161007e575580f35b634e487b7160e01b83526011600452602483fd5b5080fd5b5034610092578160203660031901126100f4578080806100f19460043590338352826020526100ca828285205410156101a7565b3383528260205282206100de828254610289565b9055335af16100eb6101ea565b5061024b565b80f35b80fd5b50346100925760203660031901126100925761014a6004359133845283602052610126838286205410156101a7565b6101398480808087335af16100eb6101ea565b338452836020528320918254610289565b905580f35b5034610092576020366003190112610092576004356001600160a01b03811690819003610189578282916020945280845220549051908152f35b8280fd5b839034610092578160031936011261009257602090478152f35b156101ae57565b60405162461bcd60e51b8152602060048201526014602482015273496e73756666696369656e742062616c616e636560601b6044820152606490fd5b3d156102465767ffffffffffffffff903d8281116102305760405192601f8201601f19908116603f01168401908111848210176102305760405282523d6000602084013e565b634e487b7160e01b600052604160045260246000fd5b606090565b1561025257565b60405162461bcd60e51b815260206004820152600f60248201526e151c985b9cd9995c8819985a5b1959608a1b6044820152606490fd5b9190820391821161029657565b634e487b7160e01b600052601160045260246000fdfea264697066735822122017f30c272084ee3077061fb6b9bcf13067b85a35f8d37acffccf8758b038fd3064736f6c63430008130033","opcodes":"PUSH1 0x80 DUP1 PUSH1 0x40 MSTORE CALLVALUE PUSH2 0x16 JUMPI PUSH2 0x2E2 SWAP1 DUP2 PUSH2 0x1C DUP3 CODECOPY RETURN JUMPDEST PUSH1 0x0 DUP1 REVERT INVALID PUSH1 0x80 PUSH1 0x40 DUP2 DUP2 MSTORE PUSH1 0x4 CALLDATASIZE LT ISZERO PUSH2 0x14 JUMPI PUSH1 0x0 DUP1 REVERT JUMPDEST PUSH1 0x0 SWAP2 DUP3 CALLDATALOAD PUSH1 0xE0 SHR SWAP1 DUP2 PUSH4 0x12065FE0 EQ PUSH2 0x18D JUMPI POP DUP1 PUSH4 0x27E235E3 EQ PUSH2 0x14F JUMPI DUP1 PUSH4 0x2E1A7D4D EQ PUSH2 0xF7 JUMPI DUP1 PUSH4 0xB0FD035B EQ PUSH2 0x96 JUMPI PUSH4 0xD0E30DB0 EQ PUSH2 0x59 JUMPI PUSH1 0x0 DUP1 REVERT JUMPDEST DUP2 PUSH1 0x3 NOT CALLDATASIZE ADD SLT PUSH2 0x92 JUMPI CALLER DUP3 MSTORE DUP2 PUSH1 0x20 MSTORE DUP2 KECCAK256 DUP1 SLOAD SWAP1 CALLVALUE DUP3 ADD DUP1 SWAP3 GT PUSH2 0x7E JUMPI SSTORE DUP1 RETURN JUMPDEST PUSH4 0x4E487B71 PUSH1 0xE0 SHL DUP4 MSTORE PUSH1 0x11 PUSH1 0x4 MSTORE PUSH1 0x24 DUP4 REVERT JUMPDEST POP DUP1 REVERT JUMPDEST POP CALLVALUE PUSH2 0x92 JUMPI DUP2 PUSH1 0x20 CALLDATASIZE PUSH1 0x3 NOT ADD SLT PUSH2 0xF4 JUMPI DUP1 DUP1 DUP1 PUSH2 0xF1 SWAP5 PUSH1 0x4 CALLDATALOAD SWAP1 CALLER DUP4 MSTORE DUP3 PUSH1 0x20 MSTORE PUSH2 0xCA DUP3 DUP3 DUP6 KECCAK256 SLOAD LT ISZERO PUSH2 0x1A7 JUMP JUMPDEST CALLER DUP4 MSTORE DUP3 PUSH1 0x20 MSTORE DUP3 KECCAK256 PUSH2 0xDE DUP3 DUP3 SLOAD PUSH2 0x289 JUMP JUMPDEST SWAP1 SSTORE CALLER GAS CALL PUSH2 0xEB PUSH2 0x1EA JUMP JUMPDEST POP PUSH2 0x24B JUMP JUMPDEST DUP1 RETURN JUMPDEST DUP1 REVERT JUMPDEST POP CALLVALUE PUSH2 0x92 JUMPI PUSH1 0x20 CALLDATASIZE PUSH1 0x3 NOT ADD SLT PUSH2 0x92 JUMPI PUSH2 0x14A PUSH1 0x4 CALLDATALOAD SWAP2 CALLER DUP5 MSTORE DUP4 PUSH1 0x20 MSTORE PUSH2 0x126 DUP4 DUP3 DUP7 KECCAK256 SLOAD LT ISZERO PUSH2 0x1A7 JUMP JUMPDEST PUSH2 0x139 DUP5 DUP1 DUP1 DUP1 DUP8 CALLER GAS CALL PUSH2 0xEB PUSH2 0x1EA JUMP JUMPDEST CALLER DUP5 MSTORE DUP4 PUSH1 0x20 MSTORE DUP4 KECCAK256 SWAP2 DUP3 SLOAD PUSH2 0x289 JUMP JUMPDEST SWAP1 SSTORE DUP1 RETURN JUMPDEST POP CALLVALUE PUSH2 0x92 JUMPI PUSH1 0x20 CALLDATASIZE PUSH1 0x3 NOT ADD SLT PUSH2 0x92 JUMPI PUSH1 0x4 CALLDATALOAD PUSH1 0x1 PUSH1 0x1 PUSH1 0xA0 SHL SUB DUP2 AND SWAP1 DUP2 SWAP1 SUB PUSH2 0x189 JUMPI DUP3 DUP3 SWAP2 PUSH1 0x20 SWAP5 MSTORE DUP1 DUP5 MSTORE KECCAK256 SLOAD SWAP1 MLOAD SWAP1 DUP2 MSTORE RETURN JUMPDEST DUP3 DUP1 REVERT JUMPDEST DUP4 SWAP1 CALLVALUE PUSH2 0x92 JUMPI DUP2 PUSH1 0x3 NOT CALLDATASIZE ADD SLT PUSH2 0x92 JUMPI PUSH1 0x20 SWAP1 SELFBALANCE DUP2 MSTORE RETURN JUMPDEST ISZERO PUSH2 0x1AE JUMPI JUMP JUMPDEST PUSH1 0x40 MLOAD PUSH3 0x461BCD PUSH1 0xE5 SHL DUP2 MSTORE PUSH1 0x20 PUSH1 0x4 DUP3 ADD MSTORE PUSH1 0x14 PUSH1 0x24 DUP3 ADD MSTORE PUSH20 0x496E73756666696369656E742062616C616E6365 PUSH1 0x60 SHL PUSH1 0x44 DUP3 ADD MSTORE PUSH1 0x64 SWAP1 REVERT JUMPDEST RETURNDATASIZE ISZERO PUSH2 0x246 JUMPI PUSH8 0xFFFFFFFFFFFFFFFF SWAP1 RETURNDATASIZE DUP3 DUP2 GT PUSH2 0x230 JUMPI PUSH1 0x40 MLOAD SWAP3 PUSH1 0x1F DUP3 ADD PUSH1 0x1F NOT SWAP1 DUP2 AND PUSH1 0x3F ADD AND DUP5 ADD SWAP1 DUP2 GT DUP5 DUP3 LT OR PUSH2 0x230 JUMPI PUSH1 0x40 MSTORE DUP3 MSTORE RETURNDATASIZE PUSH1 0x0 PUSH1 0x20 DUP5 ADD RETURNDATACOPY JUMP JUMPDEST PUSH4 0x4E487B71 PUSH1 0xE0 SHL PUSH1 0x0 MSTORE PUSH1 0x41 PUSH1 0x4 MSTORE PUSH1 0x24 PUSH1 0x0 REVERT JUMPDEST PUSH1 0x60 SWAP1 JUMP JUMPDEST ISZERO PUSH2 0x252 JUMPI JUMP JUMPDEST PUSH1 0x40 MLOAD PUSH3 0x461BCD PUSH1 0xE5 SHL DUP2 MSTORE PUSH1 0x20 PUSH1 0x4 DUP3 ADD MSTORE PUSH1 0xF PUSH1 0x24 DUP3 ADD MSTORE PUSH15 0x151C985B9CD9995C8819985A5B1959 PUSH1 0x8A SHL PUSH1 0x44 DUP3 ADD MSTORE PUSH1 0x64 SWAP1 REVERT JUMPDEST SWAP2 SWAP1 DUP3 SUB SWAP2 DUP3 GT PUSH2 0x296 JUMPI JUMP JUMPDEST PUSH4 0x4E487B71 PUSH1 0xE0 SHL PUSH1 0x0 MSTORE PUSH1 0x11 PUSH1 0x4 MSTORE PUSH1 0x24 PUSH1 0x0 REVERT INVALID LOG2 PUSH5 0x6970667358 0x22 SLT KECCAK256 OR RETURN 0xC 0x27 KECCAK256 DUP5 0xEE ADDRESS PUSH24 0x61FB6B9BCF13067B85A35F8D37ACFFCCF8758B038FD3064 PUSH20 0x6F6C634300081300330000000000000000000000 "},"methodIdentifiers":{"balances(address)":"27e235e3","deposit()":"d0e30db0","getBalance()":"12065fe0","safeWithdraw(uint256)":"b0fd035b","withdraw(uint256)":"2e1a7d4d"}}}}}