{"contracts/VulnerableBank.sol":{"VulnerableBank":{"abi":[{"inputs":[{"internalType":"address","name":"_immunityLayer","type":"address"}],"stateMutability":"nonpayable","type":"constructor"},{"inputs":[{"internalType":"address","name":"","type":"address"}],"name":"balances","outputs":[{"internalType":"uint256","name":"","type":"uint256"}],"stateMutability":"view","type":"function"},{"inputs":[],"name":"contractOwner","outputs":[{"internalType":"address","name":"","type":"address"}],"stateMutability":"view","type":"function"},{"inputs":[],"name":"deposit","outputs":[],"stateMutability":"payable","type":"function"},{"inputs":[],"name":"getBalance","outputs":[{"internalType":"uint256","name":"","type":"uint256"}],"stateMutability":"view","type":"function"},{"inputs":[],"name":"immunityLayer","outputs":[{"internalType":"address","name":"","type":"address"}],"stateMutability":"view","type":"function"},{"inputs":[{"internalType":"uint256","name":"_amount","type":"uint256"}],"name":"safeWithdraw","outputs":[],"stateMutability":"nonpayable","type":"function"},{"inputs":[{"internalType":"address","name":"_immunityLayer","type":"address"}],"name":"setImmunityLayer","outputs":[],"stateMutability":"nonpayable","type":"function"},{"inputs":[{"internalType":"uint256","name":"_amount","type":"uint256"}],"name":"withdraw","outputs":[],"stateMutability":"nonpayable","type":"function"}],"evm":{"bytecode":{"linkReferences":{},"object":"60803461007c57601f6104f338819003918201601f19168301916001600160401b038311848410176100815780849260209460405283398101031261007c57516001600160a01b0381169081900361007c5760018060a01b0319908160005416176000553390600154161760015560405161045b90816100988239f35b600080fd5b634e487b7160e01b600052604160045260246000fdfe608060408181526004908136101561001657600080fd5b600092833560e01c90816312065fe0146102c1575080631730121c1461029957806327e235e31461025f5780632e1a7d4d146101ee57806377fcf07b1461017357838163b0fd035b146100ff57508063ce606ee0146100d25763d0e30db01461007e57600080fd5b826003193601126100ce57825461009f906001600160a01b031615156102db565b338352600260205282208054913483018093116100bb57505580f35b634e487b7160e01b845260119052602483fd5b8280fd5b8382346100fb57816003193601126100fb5760015490516001600160a01b039091168152602090f35b5080fd5b828185346100fb5760203660031901126100fb578180610170948193359061013160018060a01b0384541615156102db565b338352600260205261014882828520541015610320565b3383526002602052822061015d828254610402565b9055335af161016a610363565b506103c4565b80f35b5090346100ce5760203660031901126100ce5780356001600160a01b0381811693918490036101ea576001541633036101ba57505081546001600160a01b03191617815580f35b906020606492519162461bcd60e51b8352820152600a60248201526927b7363c9037bbb732b960b11b6044820152fd5b8480fd5b5090346100ce5760203660031901126100ce57825490359161025a9161021e906001600160a01b031615156102db565b338452600260205261023583828620541015610320565b6102488480808087335af161016a610363565b33845260026020528320918254610402565b905580f35b5090346100ce5760203660031901126100ce57356001600160a01b038116908190036100ce57828291602094526002845220549051908152f35b8382346100fb57816003193601126100fb57905490516001600160a01b039091168152602090f35b8490346100fb57816003193601126100fb57602090478152f35b156102e257565b60405162461bcd60e51b8152602060048201526016602482015275125b5b5d5b9a5d1e481b185e595c881b9bdd081cd95d60521b6044820152606490fd5b1561032757565b60405162461bcd60e51b8152602060048201526014602482015273496e73756666696369656e742062616c616e636560601b6044820152606490fd5b3d156103bf5767ffffffffffffffff903d8281116103a95760405192601f8201601f19908116603f01168401908111848210176103a95760405282523d6000602084013e565b634e487b7160e01b600052604160045260246000fd5b606090565b156103cb57565b60405162461bcd60e51b815260206004820152600f60248201526e151c985b9cd9995c8819985a5b1959608a1b6044820152606490fd5b9190820391821161040f57565b634e487b7160e01b600052601160045260246000fdfea26469706673582212200d9084c2db7a9c84d02c8c397d61e84385ad6f78e93cc49af734b460f468d23c64736f6c63430008130033","opcodes":"PUSH1 0x80 CALLVALUE PUSH2 0x7C JUMPI PUSH1 0x1F PUSH2 0x4F3 CODESIZE DUP2 SWAP1 SUB SWAP2 DUP3 ADD PUSH1 0x1F NOT AND DUP4 ADD SWAP2 PUSH1 0x1 PUSH1 0x1 PUSH1 0x40 SHL SUB DUP4 GT DUP5 DUP5 LT OR PUSH2 0x81 JUMPI DUP1 DUP5 SWAP3 PUSH1 0x20 SWAP5 PUSH1 0x40 MSTORE DUP4 CODECOPY DUP2 ADD SUB SLT PUSH2 0x7C JUMPI MLOAD PUSH1 0x1 PUSH1 0x1 PUSH1 0xA0 SHL SUB DUP2 AND SWAP1 DUP2 SWAP1 SUB PUSH2 0x7C JUMPI PUSH1 0x1 DUP1 PUSH1 0xA0 SHL SUB NOT SWAP1 DUP2 PUSH1 0x0 SLOAD AND OR PUSH1 0x0 SSTORE CALLER SWAP1 PUSH1 0x1 SLOAD AND OR PUSH1 0x1 SSTORE PUSH1 0x40 MLOAD PUSH2 0x45B SWAP1 DUP2 PUSH2 0x98 DUP3 CODECOPY RETURN JUMPDEST PUSH1 0x0 DUP1 REVERT JUMPDEST PUSH4 0x4E487B71 PUSH1 0xE0 SHL PUSH1 0x0 MSTORE PUSH1 0x41 PUSH1 0x4 MSTORE PUSH1 0x24 PUSH1 0x0 REVERT INVALID PUSH1 0x80 PUSH1 0x40 DUP2 DUP2 MSTORE PUSH1 0x4 SWAP1 DUP2 CALLDATASIZE LT ISZERO PUSH2 0x16 JUMPI PUSH1 0x0 DUP1 REVERT JUMPDEST PUSH1 0x0 SWAP3 DUP4 CALLDATALOAD PUSH1 0xE0 SHR SWAP1 DUP2 PUSH4 0x12065FE0 EQ PUSH2 0x2C1 JUMPI POP DUP1 PUSH4 0x1730121C EQ PUSH2 0x299 JUMPI DUP1 PUSH4 0x27E235E3 EQ PUSH2 0x25F JUMPI DUP1 PUSH4 0x2E1A7D4D EQ PUSH2 0x1EE JUMPI DUP1 PUSH4 0x77FCF07B EQ PUSH2 0x173 JUMPI DUP4 DUP2 PUSH4 0xB0FD035B EQ PUSH2 0xFF JUMPI POP DUP1 PUSH4 0xCE606EE0 EQ PUSH2 0xD2 JUMPI PUSH4 0xD0E30DB0 EQ PUSH2 0x7E JUMPI PUSH1 0x0 DUP1 REVERT JUMPDEST DUP3 PUSH1 0x3 NOT CALLDATASIZE ADD SLT PUSH2 0xCE JUMPI DUP3 SLOAD PUSH2 0x9F SWAP1 PUSH1 0x1 PUSH1 0x1 PUSH1 0xA0 SHL SUB AND ISZERO ISZERO PUSH2 0x2DB JUMP JUMPDEST CALLER DUP4 MSTORE PUSH1 0x2 PUSH1 0x20 MSTORE DUP3 KECCAK256 DUP1 SLOAD SWAP2 CALLVALUE DUP4 ADD DUP1 SWAP4 GT PUSH2 0xBB JUMPI POP SSTORE DUP1 RETURN JUMPDEST PUSH4 0x4E487B71 PUSH1 0xE0 SHL DUP5 MSTORE PUSH1 0x11 SWAP1 MSTORE PUSH1 0x24 DUP4 REVERT JUMPDEST DUP3 DUP1 REVERT JUMPDEST DUP4 DUP3 CALLVALUE PUSH2 0xFB JUMPI DUP2 PUSH1 0x3 NOT CALLDATASIZE ADD SLT PUSH2 0xFB JUMPI PUSH1 0x1 SLOAD SWAP1 MLOAD PUSH1 0x1 PUSH1 0x1 PUSH1 0xA0 SHL SUB SWAP1 SWAP2 AND DUP2 MSTORE PUSH1 0x20 SWAP1 RETURN JUMPDEST POP DUP1 REVERT JUMPDEST DUP3 DUP2 DUP6 CALLVALUE PUSH2 0xFB JUMPI PUSH1 0x20 CALLDATASIZE PUSH1 0x3 NOT ADD SLT PUSH2 0xFB JUMPI DUP2 DUP1 PUSH2 0x170 SWAP5 DUP2 SWAP4 CALLDATALOAD SWAP1 PUSH2 0x131 PUSH1 0x1 DUP1 PUSH1 0xA0 SHL SUB DUP5 SLOAD AND ISZERO ISZERO PUSH2 0x2DB JUMP JUMPDEST CALLER DUP4 MSTORE PUSH1 0x2 PUSH1 0x20 MSTORE PUSH2 0x148 DUP3 DUP3 DUP6 KECCAK256 SLOAD LT ISZERO PUSH2 0x320 JUMP JUMPDEST CALLER DUP4 MSTORE PUSH1 0x2 PUSH1 0x20 MSTORE DUP3 KECCAK256 PUSH2 0x15D DUP3 DUP3 SLOAD PUSH2 0x402 JUMP JUMPDEST SWAP1 SSTORE CALLER GAS CALL PUSH2 0x16A PUSH2 0x363 JUMP JUMPDEST POP PUSH2 0x3C4 JUMP JUMPDEST DUP1 RETURN JUMPDEST POP SWAP1 CALLVALUE PUSH2 0xCE JUMPI PUSH1 0x20 CALLDATASIZE PUSH1 0x3 NOT ADD SLT PUSH2 0xCE JUMPI DUP1 CALLDATALOAD PUSH1 0x1 PUSH1 0x1 PUSH1 0xA0 SHL SUB DUP2 DUP2 AND SWAP4 SWAP2 DUP5 SWAP1 SUB PUSH2 0x1EA JUMPI PUSH1 0x1 SLOAD AND CALLER SUB PUSH2 0x1BA JUMPI POP POP DUP2 SLOAD PUSH1 0x1 PUSH1 0x1 PUSH1 0xA0 SHL SUB NOT AND OR DUP2 SSTORE DUP1 RETURN JUMPDEST SWAP1 PUSH1 0x20 PUSH1 0x64 SWAP3 MLOAD SWAP2 PUSH3 0x461BCD PUSH1 0xE5 SHL DUP4 MSTORE DUP3 ADD MSTORE PUSH1 0xA PUSH1 0x24 DUP3 ADD MSTORE PUSH10 0x27B7363C9037BBB732B9 PUSH1 0xB1 SHL PUSH1 0x44 DUP3 ADD MSTORE REVERT JUMPDEST DUP5 DUP1 REVERT JUMPDEST POP SWAP1 CALLVALUE PUSH2 0xCE JUMPI PUSH1 0x20 CALLDATASIZE PUSH1 0x3 NOT ADD SLT PUSH2 0xCE JUMPI DUP3 SLOAD SWAP1 CALLDATALOAD SWAP2 PUSH2 0x25A SWAP2 PUSH2 0x21E SWAP1 PUSH1 0x1 PUSH1 0x1 PUSH1 0xA0 SHL SUB AND ISZERO ISZERO PUSH2 0x2DB JUMP JUMPDEST CALLER DUP5 MSTORE PUSH1 0x2 PUSH1 0x20 MSTORE PUSH2 0x235 DUP4 DUP3 DUP7 KECCAK256 SLOAD LT ISZERO PUSH2 0x320 JUMP JUMPDEST PUSH2 0x248 DUP5 DUP1 DUP1 DUP1 DUP8 CALLER GAS CALL PUSH2 0x16A PUSH2 0x363 JUMP JUMPDEST CALLER DUP5 MSTORE PUSH1 0x2 PUSH1 0x20 MSTORE DUP4 KECCAK256 SWAP2 DUP3 SLOAD PUSH2 0x402 JUMP JUMPDEST SWAP1 SSTORE DUP1 RETURN JUMPDEST POP SWAP1 CALLVALUE PUSH2 0xCE JUMPI PUSH1 0x20 CALLDATASIZE PUSH1 0x3 NOT ADD SLT PUSH2 0xCE JUMPI CALLDATALOAD PUSH1 0x1 PUSH1 0x1 PUSH1 0xA0 SHL SUB DUP2 AND SWAP1 DUP2 SWAP1 SUB PUSH2 0xCE JUMPI DUP3 DUP3 SWAP2 PUSH1 0x20 SWAP5 MSTORE PUSH1 0x2 DUP5 MSTORE KECCAK256 SLOAD SWAP1 MLOAD SWAP1 DUP2 MSTORE RETURN JUMPDEST DUP4 DUP3 CALLVALUE PUSH2 0xFB JUMPI DUP2 PUSH1 0x3 NOT CALLDATASIZE ADD SLT PUSH2 0xFB JUMPI SWAP1 SLOAD SWAP1 MLOAD PUSH1 0x1 PUSH1 0x1 PUSH1 0xA0 SHL SUB SWAP1 SWAP2 AND DUP2 MSTORE PUSH1 0x20 SWAP1 RETURN JUMPDEST DUP5 SWAP1 CALLVALUE PUSH2 0xFB JUMPI DUP2 PUSH1 0x3 NOT CALLDATASIZE ADD SLT PUSH2 0xFB JUMPI PUSH1 0x20 SWAP1 SELFBALANCE DUP2 MSTORE RETURN JUMPDEST ISZERO PUSH2 0x2E2 JUMPI JUMP JUMPDEST PUSH1 0x40 MLOAD PUSH3 0x461BCD PUSH1 0xE5 SHL DUP2 MSTORE PUSH1 0x20 PUSH1 0x4 DUP3 ADD MSTORE PUSH1 0x16 PUSH1 0x24 DUP3 ADD MSTORE PUSH22 0x125B5B5D5B9A5D1E481B185E595C881B9BDD081CD95D PUSH1 0x52 SHL PUSH1 0x44 DUP3 ADD MSTORE PUSH1 0x64 SWAP1 REVERT JUMPDEST ISZERO PUSH2 0x327 JUMPI JUMP JUMPDEST PUSH1 0x40 MLOAD PUSH3 0x461BCD PUSH1 0xE5 SHL DUP2 MSTORE PUSH1 0x20 PUSH1 0x4 DUP3 ADD MSTORE PUSH1 0x14 PUSH1 0x24 DUP3 ADD MSTORE PUSH20 0x496E73756666696369656E742062616C616E6365 PUSH1 0x60 SHL PUSH1 0x44 DUP3 ADD MSTORE PUSH1 0x64 SWAP1 REVERT JUMPDEST RETURNDATASIZE ISZERO PUSH2 0x3BF JUMPI PUSH8 0xFFFFFFFFFFFFFFFF SWAP1 RETURNDATASIZE DUP3 DUP2 GT PUSH2 0x3A9 JUMPI PUSH1 0x40 MLOAD SWAP3 PUSH1 0x1F DUP3 ADD PUSH1 0x1F NOT SWAP1 DUP2 AND PUSH1 0x3F ADD AND DUP5 ADD SWAP1 DUP2 GT DUP5 DUP3 LT OR PUSH2 0x3A9 JUMPI PUSH1 0x40 MSTORE DUP3 MSTORE RETURNDATASIZE PUSH1 0x0 PUSH1 0x20 DUP5 ADD RETURNDATACOPY JUMP JUMPDEST PUSH4 0x4E487B71 PUSH1 0xE0 SHL PUSH1 0x0 MSTORE PUSH1 0x41 PUSH1 0x4 MSTORE PUSH1 0x24 PUSH1 0x0 REVERT JUMPDEST PUSH1 0x60 SWAP1 JUMP JUMPDEST ISZERO PUSH2 0x3CB JUMPI JUMP JUMPDEST PUSH1 0x40 MLOAD PUSH3 0x461BCD PUSH1 0xE5 SHL DUP2 MSTORE PUSH1 0x20 PUSH1 0x4 DUP3 ADD MSTORE PUSH1 0xF PUSH1 0x24 DUP3 ADD MSTORE PUSH15 0x151C985B9CD9995C8819985A5B1959 PUSH1 0x8A SHL PUSH1 0x44 DUP3 ADD MSTORE PUSH1 0x64 SWAP1 REVERT JUMPDEST SWAP2 SWAP1 DUP3 SUB SWAP2 DUP3 GT PUSH2 0x40F JUMPI JUMP JUMPDEST PUSH4 0x4E487B71 PUSH1 0xE0 SHL PUSH1 0x0 MSTORE PUSH1 0x11 PUSH1 0x4 MSTORE PUSH1 0x24 PUSH1 0x0 REVERT INVALID LOG2 PUSH5 0x6970667358 0x22 SLT KECCAK256 0xD SWAP1 DUP5 0xC2 0xDB PUSH27 0x9C84D02C8C397D61E84385AD6F78E93CC49AF734B460F468D23C64 PUSH20 0x6F6C634300081300330000000000000000000000 "},"methodIdentifiers":{"balances(address)":"27e235e3","contractOwner()":"ce606ee0","deposit()":"d0e30db0","getBalance()":"12065fe0","immunityLayer()":"1730121c","safeWithdraw(uint256)":"b0fd035b","setImmunityLayer(address)":"77fcf07b","withdraw(uint256)":"2e1a7d4d"}}}}}