{"contracts/mocks/MockMalicious.sol":{"ReentrancyTester":{"abi":[{"inputs":[{"internalType":"address","name":"_immunityLayer","type":"address"}],"stateMutability":"nonpayable","type":"constructor"},{"inputs":[],"name":"immunityLayer","outputs":[{"internalType":"address","name":"","type":"address"}],"stateMutability":"view","type":"function"},{"inputs":[],"name":"testReentrancy","outputs":[],"stateMutability":"nonpayable","type":"function"}],"evm":{"bytecode":{"linkReferences":{},"object":"60803461007457601f6102ec38819003918201601f19168301916001600160401b038311848410176100795780849260209460405283398101031261007457516001600160a01b0381169081900361007457600080546001600160a01b03191691909117905560405161025c90816100908239f35b600080fd5b634e487b7160e01b600052604160045260246000fdfe608080604052600436101561001357600080fd5b600090813560e01c9081631730121c14610186575063f4006b861461003757600080fd5b34610183578060031936011261018357805460408051630e9991db60e11b60208201818152306024840152604483019390935260006064808401919091528252926001600160a01b0392601f19928692839290861691839061009a6084826101ae565b51925af16100a66101e6565b501561014a578392838093815416926100f76040519160208301948552826100eb306024830160609160018060a01b0316815260406020820152600060408201520190565b039081018352826101ae565b51925af16101036101e6565b501561010c5780f35b60405162461bcd60e51b81526020600482015260166024820152751499595b9d1c985b98de4818d85b1b0819985a5b195960521b6044820152606490fd5b60405162461bcd60e51b8152602060048201526011602482015270119a5c9cdd0818d85b1b0819985a5b1959607a1b6044820152606490fd5b80fd5b9050346101aa57816003193601126101aa5790546001600160a01b03168152602090f35b5080fd5b90601f8019910116810190811067ffffffffffffffff8211176101d057604052565b634e487b7160e01b600052604160045260246000fd5b3d15610221573d9067ffffffffffffffff82116101d05760405191610215601f8201601f1916602001846101ae565b82523d6000602084013e565b60609056fea2646970667358221220875e2aa1f4944e4c0aab30c743ae97a4be8cb9996c36ac531d0029f0fc4e403364736f6c63430008130033","opcodes":"PUSH1 0x80 CALLVALUE PUSH2 0x74 JUMPI PUSH1 0x1F PUSH2 0x2EC CODESIZE DUP2 SWAP1 SUB SWAP2 DUP3 ADD PUSH1 0x1F NOT AND DUP4 ADD SWAP2 PUSH1 0x1 PUSH1 0x1 PUSH1 0x40 SHL SUB DUP4 GT DUP5 DUP5 LT OR PUSH2 0x79 JUMPI DUP1 DUP5 SWAP3 PUSH1 0x20 SWAP5 PUSH1 0x40 MSTORE DUP4 CODECOPY DUP2 ADD SUB SLT PUSH2 0x74 JUMPI MLOAD PUSH1 0x1 PUSH1 0x1 PUSH1 0xA0 SHL SUB DUP2 AND SWAP1 DUP2 SWAP1 SUB PUSH2 0x74 JUMPI PUSH1 0x0 DUP1 SLOAD PUSH1 0x1 PUSH1 0x1 PUSH1 0xA0 SHL SUB NOT AND SWAP2 SWAP1 SWAP2 OR SWAP1 SSTORE PUSH1 0x40 MLOAD PUSH2 0x25C SWAP1 DUP2 PUSH2 0x90 DUP3 CODECOPY RETURN JUMPDEST PUSH1 0x0 DUP1 REVERT JUMPDEST PUSH4 0x4E487B71 PUSH1 0xE0 SHL PUSH1 0x0 MSTORE PUSH1 0x41 PUSH1 0x4 MSTORE PUSH1 0x24 PUSH1 0x0 REVERT INVALID PUSH1 0x80 DUP1 PUSH1 0x40 MSTORE PUSH1 0x4 CALLDATASIZE LT ISZERO PUSH2 0x13 JUMPI PUSH1 0x0 DUP1 REVERT JUMPDEST PUSH1 0x0 SWAP1 DUP2 CALLDATALOAD PUSH1 0xE0 SHR SWAP1 DUP2 PUSH4 0x1730121C EQ PUSH2 0x186 JUMPI POP PUSH4 0xF4006B86 EQ PUSH2 0x37 JUMPI PUSH1 0x0 DUP1 REVERT JUMPDEST CALLVALUE PUSH2 0x183 JUMPI DUP1 PUSH1 0x3 NOT CALLDATASIZE ADD SLT PUSH2 0x183 JUMPI DUP1 SLOAD PUSH1 0x40 DUP1 MLOAD PUSH4 0xE9991DB PUSH1 0xE1 SHL PUSH1 0x20 DUP3 ADD DUP2 DUP2 MSTORE ADDRESS PUSH1 0x24 DUP5 ADD MSTORE PUSH1 0x44 DUP4 ADD SWAP4 SWAP1 SWAP4 MSTORE PUSH1 0x0 PUSH1 0x64 DUP1 DUP5 ADD SWAP2 SWAP1 SWAP2 MSTORE DUP3 MSTORE SWAP3 PUSH1 0x1 PUSH1 0x1 PUSH1 0xA0 SHL SUB SWAP3 PUSH1 0x1F NOT SWAP3 DUP7 SWAP3 DUP4 SWAP3 SWAP1 DUP7 AND SWAP2 DUP4 SWAP1 PUSH2 0x9A PUSH1 0x84 DUP3 PUSH2 0x1AE JUMP JUMPDEST MLOAD SWAP3 GAS CALL PUSH2 0xA6 PUSH2 0x1E6 JUMP JUMPDEST POP ISZERO PUSH2 0x14A JUMPI DUP4 SWAP3 DUP4 DUP1 SWAP4 DUP2 SLOAD AND SWAP3 PUSH2 0xF7 PUSH1 0x40 MLOAD SWAP2 PUSH1 0x20 DUP4 ADD SWAP5 DUP6 MSTORE DUP3 PUSH2 0xEB ADDRESS PUSH1 0x24 DUP4 ADD PUSH1 0x60 SWAP2 PUSH1 0x1 DUP1 PUSH1 0xA0 SHL SUB AND DUP2 MSTORE PUSH1 0x40 PUSH1 0x20 DUP3 ADD MSTORE PUSH1 0x0 PUSH1 0x40 DUP3 ADD MSTORE ADD SWAP1 JUMP JUMPDEST SUB SWAP1 DUP2 ADD DUP4 MSTORE DUP3 PUSH2 0x1AE JUMP JUMPDEST MLOAD SWAP3 GAS CALL PUSH2 0x103 PUSH2 0x1E6 JUMP JUMPDEST POP ISZERO PUSH2 0x10C JUMPI DUP1 RETURN JUMPDEST PUSH1 0x40 MLOAD PUSH3 0x461BCD PUSH1 0xE5 SHL DUP2 MSTORE PUSH1 0x20 PUSH1 0x4 DUP3 ADD MSTORE PUSH1 0x16 PUSH1 0x24 DUP3 ADD MSTORE PUSH22 0x1499595B9D1C985B98DE4818D85B1B0819985A5B1959 PUSH1 0x52 SHL PUSH1 0x44 DUP3 ADD MSTORE PUSH1 0x64 SWAP1 REVERT JUMPDEST PUSH1 0x40 MLOAD PUSH3 0x461BCD PUSH1 0xE5 SHL DUP2 MSTORE PUSH1 0x20 PUSH1 0x4 DUP3 ADD MSTORE PUSH1 0x11 PUSH1 0x24 DUP3 ADD MSTORE PUSH17 0x119A5C9CDD0818D85B1B0819985A5B1959 PUSH1 0x7A SHL PUSH1 0x44 DUP3 ADD MSTORE PUSH1 0x64 SWAP1 REVERT JUMPDEST DUP1 REVERT JUMPDEST SWAP1 POP CALLVALUE PUSH2 0x1AA JUMPI DUP2 PUSH1 0x3 NOT CALLDATASIZE ADD SLT PUSH2 0x1AA JUMPI SWAP1 SLOAD PUSH1 0x1 PUSH1 0x1 PUSH1 0xA0 SHL SUB AND DUP2 MSTORE PUSH1 0x20 SWAP1 RETURN JUMPDEST POP DUP1 REVERT JUMPDEST SWAP1 PUSH1 0x1F DUP1 NOT SWAP2 ADD AND DUP2 ADD SWAP1 DUP2 LT PUSH8 0xFFFFFFFFFFFFFFFF DUP3 GT OR PUSH2 0x1D0 JUMPI PUSH1 0x40 MSTORE JUMP JUMPDEST PUSH4 0x4E487B71 PUSH1 0xE0 SHL PUSH1 0x0 MSTORE PUSH1 0x41 PUSH1 0x4 MSTORE PUSH1 0x24 PUSH1 0x0 REVERT JUMPDEST RETURNDATASIZE ISZERO PUSH2 0x221 JUMPI RETURNDATASIZE SWAP1 PUSH8 0xFFFFFFFFFFFFFFFF DUP3 GT PUSH2 0x1D0 JUMPI PUSH1 0x40 MLOAD SWAP2 PUSH2 0x215 PUSH1 0x1F DUP3 ADD PUSH1 0x1F NOT AND PUSH1 0x20 ADD DUP5 PUSH2 0x1AE JUMP JUMPDEST DUP3 MSTORE RETURNDATASIZE PUSH1 0x0 PUSH1 0x20 DUP5 ADD RETURNDATACOPY JUMP JUMPDEST PUSH1 0x60 SWAP1 JUMP INVALID LOG2 PUSH5 0x6970667358 0x22 SLT KECCAK256 DUP8 0x5E 0x2A LOG1 DELEGATECALL SWAP5 0x4E 0x4C EXP 0xAB ADDRESS 0xC7 NUMBER 0xAE SWAP8 LOG4 0xBE DUP13 0xB9 SWAP10 PUSH13 0x36AC531D0029F0FC4E40336473 PUSH16 0x6C634300081300330000000000000000 "},"methodIdentifiers":{"immunityLayer()":"1730121c","testReentrancy()":"f4006b86"}}}}}