{"contracts/mocks/MockMalicious.sol":{"FlashLoanSimulator":{"abi":[{"inputs":[{"internalType":"address","name":"_target","type":"address"}],"stateMutability":"nonpayable","type":"constructor"},{"inputs":[],"name":"executeFlashLoanAttack","outputs":[],"stateMutability":"nonpayable","type":"function"},{"inputs":[],"name":"target","outputs":[{"internalType":"address","name":"","type":"address"}],"stateMutability":"view","type":"function"},{"stateMutability":"payable","type":"receive"}],"evm":{"bytecode":{"linkReferences":{},"object":"60803461007457601f61026638819003918201601f19168301916001600160401b038311848410176100795780849260209460405283398101031261007457516001600160a01b0381169081900361007457600080546001600160a01b0319169190911790556040516101d690816100908239f35b600080fd5b634e487b7160e01b600052604160045260246000fdfe6080604090808252600480361015610022575b505050361561002057600080fd5b005b600091823560e01c908163d4b839921461017c575063da74027d036100125734610178578160031936011261017857815b6005811061005f578280f35b82548451629032ff60e51b60208083019182528583529267ffffffffffffffff926001600160a01b0390911691908089018181108582111761016557895251879283929083905af1903d1561015f573d81811161014c57875191601f8201601f19908116603f0116830190811183821017610139578852815285833d92013e5b15610109575060001981146100f657600101610053565b634e487b7160e01b835260118252602483fd5b8260649186519162461bcd60e51b8352820152600b60248201526a10d85b1b0819985a5b195960aa1b6044820152fd5b634e487b7160e01b885260418752602488fd5b634e487b7160e01b875260418652602487fd5b506100df565b634e487b7160e01b895260418852602489fd5b5080fd5b83903461017857816003193601126101785790546001600160a01b03168152602090f3fea2646970667358221220c674b9ce33b92876e2ea598d6b70d54d93e7c6481f337c83915f5925dbab9d3a64736f6c63430008130033","opcodes":"PUSH1 0x80 CALLVALUE PUSH2 0x74 JUMPI PUSH1 0x1F PUSH2 0x266 CODESIZE DUP2 SWAP1 SUB SWAP2 DUP3 ADD PUSH1 0x1F NOT AND DUP4 ADD SWAP2 PUSH1 0x1 PUSH1 0x1 PUSH1 0x40 SHL SUB DUP4 GT DUP5 DUP5 LT OR PUSH2 0x79 JUMPI DUP1 DUP5 SWAP3 PUSH1 0x20 SWAP5 PUSH1 0x40 MSTORE DUP4 CODECOPY DUP2 ADD SUB SLT PUSH2 0x74 JUMPI MLOAD PUSH1 0x1 PUSH1 0x1 PUSH1 0xA0 SHL SUB DUP2 AND SWAP1 DUP2 SWAP1 SUB PUSH2 0x74 JUMPI PUSH1 0x0 DUP1 SLOAD PUSH1 0x1 PUSH1 0x1 PUSH1 0xA0 SHL SUB NOT AND SWAP2 SWAP1 SWAP2 OR SWAP1 SSTORE PUSH1 0x40 MLOAD PUSH2 0x1D6 SWAP1 DUP2 PUSH2 0x90 DUP3 CODECOPY RETURN JUMPDEST PUSH1 0x0 DUP1 REVERT JUMPDEST PUSH4 0x4E487B71 PUSH1 0xE0 SHL PUSH1 0x0 MSTORE PUSH1 0x41 PUSH1 0x4 MSTORE PUSH1 0x24 PUSH1 0x0 REVERT INVALID PUSH1 0x80 PUSH1 0x40 SWAP1 DUP1 DUP3 MSTORE PUSH1 0x4 DUP1 CALLDATASIZE LT ISZERO PUSH2 0x22 JUMPI JUMPDEST POP POP POP CALLDATASIZE ISZERO PUSH2 0x20 JUMPI PUSH1 0x0 DUP1 REVERT JUMPDEST STOP JUMPDEST PUSH1 0x0 SWAP2 DUP3 CALLDATALOAD PUSH1 0xE0 SHR SWAP1 DUP2 PUSH4 0xD4B83992 EQ PUSH2 0x17C JUMPI POP PUSH4 0xDA74027D SUB PUSH2 0x12 JUMPI CALLVALUE PUSH2 0x178 JUMPI DUP2 PUSH1 0x3 NOT CALLDATASIZE ADD SLT PUSH2 0x178 JUMPI DUP2 JUMPDEST PUSH1 0x5 DUP2 LT PUSH2 0x5F JUMPI DUP3 DUP1 RETURN JUMPDEST DUP3 SLOAD DUP5 MLOAD PUSH3 0x9032FF PUSH1 0xE5 SHL PUSH1 0x20 DUP1 DUP4 ADD SWAP2 DUP3 MSTORE DUP6 DUP4 MSTORE SWAP3 PUSH8 0xFFFFFFFFFFFFFFFF SWAP3 PUSH1 0x1 PUSH1 0x1 PUSH1 0xA0 SHL SUB SWAP1 SWAP2 AND SWAP2 SWAP1 DUP1 DUP10 ADD DUP2 DUP2 LT DUP6 DUP3 GT OR PUSH2 0x165 JUMPI DUP10 MSTORE MLOAD DUP8 SWAP3 DUP4 SWAP3 SWAP1 DUP4 SWAP1 GAS CALL SWAP1 RETURNDATASIZE ISZERO PUSH2 0x15F JUMPI RETURNDATASIZE DUP2 DUP2 GT PUSH2 0x14C JUMPI DUP8 MLOAD SWAP2 PUSH1 0x1F DUP3 ADD PUSH1 0x1F NOT SWAP1 DUP2 AND PUSH1 0x3F ADD AND DUP4 ADD SWAP1 DUP2 GT DUP4 DUP3 LT OR PUSH2 0x139 JUMPI DUP9 MSTORE DUP2 MSTORE DUP6 DUP4 RETURNDATASIZE SWAP3 ADD RETURNDATACOPY JUMPDEST ISZERO PUSH2 0x109 JUMPI POP PUSH1 0x0 NOT DUP2 EQ PUSH2 0xF6 JUMPI PUSH1 0x1 ADD PUSH2 0x53 JUMP JUMPDEST PUSH4 0x4E487B71 PUSH1 0xE0 SHL DUP4 MSTORE PUSH1 0x11 DUP3 MSTORE PUSH1 0x24 DUP4 REVERT JUMPDEST DUP3 PUSH1 0x64 SWAP2 DUP7 MLOAD SWAP2 PUSH3 0x461BCD PUSH1 0xE5 SHL DUP4 MSTORE DUP3 ADD MSTORE PUSH1 0xB PUSH1 0x24 DUP3 ADD MSTORE PUSH11 0x10D85B1B0819985A5B1959 PUSH1 0xAA SHL PUSH1 0x44 DUP3 ADD MSTORE REVERT JUMPDEST PUSH4 0x4E487B71 PUSH1 0xE0 SHL DUP9 MSTORE PUSH1 0x41 DUP8 MSTORE PUSH1 0x24 DUP9 REVERT JUMPDEST PUSH4 0x4E487B71 PUSH1 0xE0 SHL DUP8 MSTORE PUSH1 0x41 DUP7 MSTORE PUSH1 0x24 DUP8 REVERT JUMPDEST POP PUSH2 0xDF JUMP JUMPDEST PUSH4 0x4E487B71 PUSH1 0xE0 SHL DUP10 MSTORE PUSH1 0x41 DUP9 MSTORE PUSH1 0x24 DUP10 REVERT JUMPDEST POP DUP1 REVERT JUMPDEST DUP4 SWAP1 CALLVALUE PUSH2 0x178 JUMPI DUP2 PUSH1 0x3 NOT CALLDATASIZE ADD SLT PUSH2 0x178 JUMPI SWAP1 SLOAD PUSH1 0x1 PUSH1 0x1 PUSH1 0xA0 SHL SUB AND DUP2 MSTORE PUSH1 0x20 SWAP1 RETURN INVALID LOG2 PUSH5 0x6970667358 0x22 SLT KECCAK256 0xC6 PUSH21 0xB9CE33B92876E2EA598D6B70D54D93E7C6481F337C DUP4 SWAP2 0x5F MSIZE 0x25 0xDB 0xAB SWAP14 GASPRICE PUSH5 0x736F6C6343 STOP ADDMOD SGT STOP CALLER "},"methodIdentifiers":{"executeFlashLoanAttack()":"da74027d","target()":"d4b83992"}}}}}