{"contracts/mocks/MockMalicious.sol":{"MockMalicious":{"abi":[{"inputs":[{"internalType":"address","name":"_target","type":"address"}],"stateMutability":"nonpayable","type":"constructor"},{"inputs":[],"name":"attackCount","outputs":[{"internalType":"uint256","name":"","type":"uint256"}],"stateMutability":"view","type":"function"},{"inputs":[{"internalType":"uint256","name":"_amount","type":"uint256"}],"name":"executeReentrancy","outputs":[],"stateMutability":"nonpayable","type":"function"},{"inputs":[],"name":"maxAttacks","outputs":[{"internalType":"uint256","name":"","type":"uint256"}],"stateMutability":"view","type":"function"},{"inputs":[{"internalType":"uint256","name":"_max","type":"uint256"}],"name":"setMaxAttacks","outputs":[],"stateMutability":"nonpayable","type":"function"},{"inputs":[],"name":"simulateAttack","outputs":[],"stateMutability":"nonpayable","type":"function"},{"inputs":[{"internalType":"uint256","name":"_amount","type":"uint256"}],"name":"startReentrancyAttack","outputs":[],"stateMutability":"nonpayable","type":"function"},{"inputs":[],"name":"target","outputs":[{"internalType":"contract IVulnerableBank","name":"","type":"address"}],"stateMutability":"view","type":"function"},{"stateMutability":"payable","type":"receive"}],"evm":{"bytecode":{"linkReferences":{},"object":"60803461007957601f61033a38819003918201601f19168301916001600160401b0383118484101761007e5780849260209460405283398101031261007957516001600160a01b03811690819003610079576005600255600080546001600160a01b0319169190911790556040516102a590816100958239f35b600080fd5b634e487b7160e01b600052604160045260246000fdfe60808060405260043610156100ac575b50361561001b57600080fd5b600154600254811080610096575b61002f57005b6100389061024a565b6001556000805481906001600160a01b0316803b15610093578190602460405180958193632e1a7d4d60e01b83523460048401525af1908115610087575061007c57005b61008590610220565b005b604051903d90823e3d90fd5b50fd5b506000546001600160a01b031631341115610029565b600090813560e01c908163407c28211461018b5750806354d764be1461016b578063617a09d71461017057806384c8a54f1461016b578063a37573d61461014d578063d2cacac21461012b5763d4b839920361000f5734610128578060031936011261012857546040516001600160a01b039091168152602090f35b80fd5b503461012857806003193601126101285761014760015461024a565b60015580f35b50346101285780600319360112610128576020600254604051908152f35b6101ab565b50346101285760203660031901126101285760043560025580f35b9050346101a757816003193601126101a7576020906001548152f35b5080fd5b3461021b57602036600319011261021b5760006001819055805481906001600160a01b0316803b15610093578190602460405180948193632e1a7d4d60e01b835260043560048401525af1801561021057610204575080f35b61020d90610220565b80f35b6040513d84823e3d90fd5b600080fd5b67ffffffffffffffff811161023457604052565b634e487b7160e01b600052604160045260246000fd5b60001981146102595760010190565b634e487b7160e01b600052601160045260246000fdfea2646970667358221220f42af2d16b1a29779715e1500991c99f330b3d2d635933fab054c0749a3ce18164736f6c63430008130033","opcodes":"PUSH1 0x80 CALLVALUE PUSH2 0x79 JUMPI PUSH1 0x1F PUSH2 0x33A CODESIZE DUP2 SWAP1 SUB SWAP2 DUP3 ADD PUSH1 0x1F NOT AND DUP4 ADD SWAP2 PUSH1 0x1 PUSH1 0x1 PUSH1 0x40 SHL SUB DUP4 GT DUP5 DUP5 LT OR PUSH2 0x7E JUMPI DUP1 DUP5 SWAP3 PUSH1 0x20 SWAP5 PUSH1 0x40 MSTORE DUP4 CODECOPY DUP2 ADD SUB SLT PUSH2 0x79 JUMPI MLOAD PUSH1 0x1 PUSH1 0x1 PUSH1 0xA0 SHL SUB DUP2 AND SWAP1 DUP2 SWAP1 SUB PUSH2 0x79 JUMPI PUSH1 0x5 PUSH1 0x2 SSTORE PUSH1 0x0 DUP1 SLOAD PUSH1 0x1 PUSH1 0x1 PUSH1 0xA0 SHL SUB NOT AND SWAP2 SWAP1 SWAP2 OR SWAP1 SSTORE PUSH1 0x40 MLOAD PUSH2 0x2A5 SWAP1 DUP2 PUSH2 0x95 DUP3 CODECOPY RETURN JUMPDEST PUSH1 0x0 DUP1 REVERT JUMPDEST PUSH4 0x4E487B71 PUSH1 0xE0 SHL PUSH1 0x0 MSTORE PUSH1 0x41 PUSH1 0x4 MSTORE PUSH1 0x24 PUSH1 0x0 REVERT INVALID PUSH1 0x80 DUP1 PUSH1 0x40 MSTORE PUSH1 0x4 CALLDATASIZE LT ISZERO PUSH2 0xAC JUMPI JUMPDEST POP CALLDATASIZE ISZERO PUSH2 0x1B JUMPI PUSH1 0x0 DUP1 REVERT JUMPDEST PUSH1 0x1 SLOAD PUSH1 0x2 SLOAD DUP2 LT DUP1 PUSH2 0x96 JUMPI JUMPDEST PUSH2 0x2F JUMPI STOP JUMPDEST PUSH2 0x38 SWAP1 PUSH2 0x24A JUMP JUMPDEST PUSH1 0x1 SSTORE PUSH1 0x0 DUP1 SLOAD DUP2 SWAP1 PUSH1 0x1 PUSH1 0x1 PUSH1 0xA0 SHL SUB AND DUP1 EXTCODESIZE ISZERO PUSH2 0x93 JUMPI DUP2 SWAP1 PUSH1 0x24 PUSH1 0x40 MLOAD DUP1 SWAP6 DUP2 SWAP4 PUSH4 0x2E1A7D4D PUSH1 0xE0 SHL DUP4 MSTORE CALLVALUE PUSH1 0x4 DUP5 ADD MSTORE GAS CALL SWAP1 DUP2 ISZERO PUSH2 0x87 JUMPI POP PUSH2 0x7C JUMPI STOP JUMPDEST PUSH2 0x85 SWAP1 PUSH2 0x220 JUMP JUMPDEST STOP JUMPDEST PUSH1 0x40 MLOAD SWAP1 RETURNDATASIZE SWAP1 DUP3 RETURNDATACOPY RETURNDATASIZE SWAP1 REVERT JUMPDEST POP REVERT JUMPDEST POP PUSH1 0x0 SLOAD PUSH1 0x1 PUSH1 0x1 PUSH1 0xA0 SHL SUB AND BALANCE CALLVALUE GT ISZERO PUSH2 0x29 JUMP JUMPDEST PUSH1 0x0 SWAP1 DUP2 CALLDATALOAD PUSH1 0xE0 SHR SWAP1 DUP2 PUSH4 0x407C2821 EQ PUSH2 0x18B JUMPI POP DUP1 PUSH4 0x54D764BE EQ PUSH2 0x16B JUMPI DUP1 PUSH4 0x617A09D7 EQ PUSH2 0x170 JUMPI DUP1 PUSH4 0x84C8A54F EQ PUSH2 0x16B JUMPI DUP1 PUSH4 0xA37573D6 EQ PUSH2 0x14D JUMPI DUP1 PUSH4 0xD2CACAC2 EQ PUSH2 0x12B JUMPI PUSH4 0xD4B83992 SUB PUSH2 0xF JUMPI CALLVALUE PUSH2 0x128 JUMPI DUP1 PUSH1 0x3 NOT CALLDATASIZE ADD SLT PUSH2 0x128 JUMPI SLOAD PUSH1 0x40 MLOAD PUSH1 0x1 PUSH1 0x1 PUSH1 0xA0 SHL SUB SWAP1 SWAP2 AND DUP2 MSTORE PUSH1 0x20 SWAP1 RETURN JUMPDEST DUP1 REVERT JUMPDEST POP CALLVALUE PUSH2 0x128 JUMPI DUP1 PUSH1 0x3 NOT CALLDATASIZE ADD SLT PUSH2 0x128 JUMPI PUSH2 0x147 PUSH1 0x1 SLOAD PUSH2 0x24A JUMP JUMPDEST PUSH1 0x1 SSTORE DUP1 RETURN JUMPDEST POP CALLVALUE PUSH2 0x128 JUMPI DUP1 PUSH1 0x3 NOT CALLDATASIZE ADD SLT PUSH2 0x128 JUMPI PUSH1 0x20 PUSH1 0x2 SLOAD PUSH1 0x40 MLOAD SWAP1 DUP2 MSTORE RETURN JUMPDEST PUSH2 0x1AB JUMP JUMPDEST POP CALLVALUE PUSH2 0x128 JUMPI PUSH1 0x20 CALLDATASIZE PUSH1 0x3 NOT ADD SLT PUSH2 0x128 JUMPI PUSH1 0x4 CALLDATALOAD PUSH1 0x2 SSTORE DUP1 RETURN JUMPDEST SWAP1 POP CALLVALUE PUSH2 0x1A7 JUMPI DUP2 PUSH1 0x3 NOT CALLDATASIZE ADD SLT PUSH2 0x1A7 JUMPI PUSH1 0x20 SWAP1 PUSH1 0x1 SLOAD DUP2 MSTORE RETURN JUMPDEST POP DUP1 REVERT JUMPDEST CALLVALUE PUSH2 0x21B JUMPI PUSH1 0x20 CALLDATASIZE PUSH1 0x3 NOT ADD SLT PUSH2 0x21B JUMPI PUSH1 0x0 PUSH1 0x1 DUP2 SWAP1 SSTORE DUP1 SLOAD DUP2 SWAP1 PUSH1 0x1 PUSH1 0x1 PUSH1 0xA0 SHL SUB AND DUP1 EXTCODESIZE ISZERO PUSH2 0x93 JUMPI DUP2 SWAP1 PUSH1 0x24 PUSH1 0x40 MLOAD DUP1 SWAP5 DUP2 SWAP4 PUSH4 0x2E1A7D4D PUSH1 0xE0 SHL DUP4 MSTORE PUSH1 0x4 CALLDATALOAD PUSH1 0x4 DUP5 ADD MSTORE GAS CALL DUP1 ISZERO PUSH2 0x210 JUMPI PUSH2 0x204 JUMPI POP DUP1 RETURN JUMPDEST PUSH2 0x20D SWAP1 PUSH2 0x220 JUMP JUMPDEST DUP1 RETURN JUMPDEST PUSH1 0x40 MLOAD RETURNDATASIZE DUP5 DUP3 RETURNDATACOPY RETURNDATASIZE SWAP1 REVERT JUMPDEST PUSH1 0x0 DUP1 REVERT JUMPDEST PUSH8 0xFFFFFFFFFFFFFFFF DUP2 GT PUSH2 0x234 JUMPI PUSH1 0x40 MSTORE JUMP JUMPDEST PUSH4 0x4E487B71 PUSH1 0xE0 SHL PUSH1 0x0 MSTORE PUSH1 0x41 PUSH1 0x4 MSTORE PUSH1 0x24 PUSH1 0x0 REVERT JUMPDEST PUSH1 0x0 NOT DUP2 EQ PUSH2 0x259 JUMPI PUSH1 0x1 ADD SWAP1 JUMP JUMPDEST PUSH4 0x4E487B71 PUSH1 0xE0 SHL PUSH1 0x0 MSTORE PUSH1 0x11 PUSH1 0x4 MSTORE PUSH1 0x24 PUSH1 0x0 REVERT INVALID LOG2 PUSH5 0x6970667358 0x22 SLT KECCAK256 DELEGATECALL 0x2A CALLCODE 0xD1 PUSH12 0x1A29779715E1500991C99F33 SIGNEXTEND RETURNDATASIZE 0x2D PUSH4 0x5933FAB0 SLOAD 0xC0 PUSH21 0x9A3CE18164736F6C63430008130033000000000000 "},"methodIdentifiers":{"attackCount()":"407c2821","executeReentrancy(uint256)":"84c8a54f","maxAttacks()":"a37573d6","setMaxAttacks(uint256)":"617a09d7","simulateAttack()":"d2cacac2","startReentrancyAttack(uint256)":"54d764be","target()":"d4b83992"}}}}}