{"contracts/ContractImmunityLayer.sol":{"ContractImmunityLayer":{"abi":[{"inputs":[],"stateMutability":"nonpayable","type":"constructor"},{"anonymous":false,"inputs":[{"indexed":true,"internalType":"bytes32","name":"threatId","type":"bytes32"},{"indexed":true,"internalType":"bytes32","name":"simulationId","type":"bytes32"},{"indexed":true,"internalType":"address","name":"targetContract","type":"address"}],"name":"AISimulationRequested","type":"event"},{"anonymous":false,"inputs":[{"indexed":true,"internalType":"address","name":"contractAddress","type":"address"},{"indexed":true,"internalType":"address","name":"owner","type":"address"},{"indexed":false,"internalType":"uint256","name":"protectionLevel","type":"uint256"},{"indexed":false,"internalType":"uint256","name":"timestamp","type":"uint256"}],"name":"ContractProtected","type":"event"},{"anonymous":false,"inputs":[{"indexed":true,"internalType":"address","name":"contractAddress","type":"address"},{"indexed":true,"internalType":"address","name":"owner","type":"address"},{"indexed":false,"internalType":"uint256","name":"timestamp","type":"uint256"}],"name":"ContractUnprotected","type":"event"},{"anonymous":false,"inputs":[{"indexed":true,"internalType":"address","name":"activatedBy","type":"address"},{"indexed":false,"internalType":"uint256","name":"timestamp","type":"uint256"},{"indexed":false,"internalType":"string","name":"reason","type":"string"}],"name":"EmergencyStopActivated","type":"event"},{"anonymous":false,"inputs":[{"indexed":true,"internalType":"address","name":"deactivatedBy","type":"address"},{"indexed":false,"internalType":"uint256","name":"timestamp","type":"uint256"}],"name":"EmergencyStopDeactivated","type":"event"},{"anonymous":false,"inputs":[{"indexed":true,"internalType":"bytes32","name":"threatId","type":"bytes32"},{"indexed":true,"internalType":"address","name":"targetContract","type":"address"},{"indexed":false,"internalType":"bool","name":"success","type":"bool"},{"indexed":false,"internalType":"string","name":"action","type":"string"},{"indexed":false,"internalType":"bytes","name":"result","type":"bytes"}],"name":"MitigationExecuted","type":"event"},{"anonymous":false,"inputs":[{"indexed":true,"internalType":"address","name":"previousOwner","type":"address"},{"indexed":true,"internalType":"address","name":"newOwner","type":"address"}],"name":"OwnershipTransferred","type":"event"},{"anonymous":false,"inputs":[{"indexed":true,"internalType":"bytes32","name":"threatId","type":"bytes32"},{"indexed":true,"internalType":"address","name":"targetContract","type":"address"},{"indexed":true,"internalType":"address","name":"caller","type":"address"},{"indexed":false,"internalType":"enum ContractImmunityLayer.ThreatLevel","name":"level","type":"uint8"},{"indexed":false,"internalType":"enum ContractImmunityLayer.VulnerabilityType","name":"vulnType","type":"uint8"},{"indexed":false,"internalType":"string","name":"reason","type":"string"}],"name":"ThreatDetected","type":"event"},{"anonymous":false,"inputs":[{"indexed":true,"internalType":"bytes32","name":"threatId","type":"bytes32"},{"indexed":true,"internalType":"address","name":"targetContract","type":"address"},{"indexed":true,"internalType":"address","name":"caller","type":"address"},{"indexed":false,"internalType":"uint256","name":"level","type":"uint256"},{"indexed":false,"internalType":"uint256","name":"vulnType","type":"uint256"},{"indexed":false,"internalType":"string","name":"reason","type":"string"}],"name":"ThreatLogged","type":"event"},{"anonymous":false,"inputs":[{"indexed":true,"internalType":"bytes32","name":"threatId","type":"bytes32"},{"indexed":true,"internalType":"address","name":"targetContract","type":"address"},{"indexed":true,"internalType":"address","name":"caller","type":"address"},{"indexed":false,"internalType":"uint256","name":"freezeUntilBlock","type":"uint256"},{"indexed":false,"internalType":"enum ContractImmunityLayer.ThreatLevel","name":"level","type":"uint8"}],"name":"TransactionFrozen","type":"event"},{"stateMutability":"payable","type":"fallback"},{"inputs":[{"internalType":"string","name":"_reason","type":"string"}],"name":"activateEmergencyStop","outputs":[],"stateMutability":"nonpayable","type":"function"},{"inputs":[{"internalType":"address","name":"_contract","type":"address"},{"internalType":"uint256","name":"_protectionLevel","type":"uint256"}],"name":"addContractProtection","outputs":[],"stateMutability":"nonpayable","type":"function"},{"inputs":[],"name":"aiOracle","outputs":[{"internalType":"address","name":"","type":"address"}],"stateMutability":"view","type":"function"},{"inputs":[{"internalType":"address","name":"","type":"address"}],"name":"contractAverageDeposit","outputs":[{"internalType":"uint256","name":"","type":"uint256"}],"stateMutability":"view","type":"function"},{"inputs":[{"internalType":"address","name":"","type":"address"}],"name":"contractDepositCount","outputs":[{"internalType":"uint256","name":"","type":"uint256"}],"stateMutability":"view","type":"function"},{"inputs":[],"name":"deactivateEmergencyStop","outputs":[],"stateMutability":"nonpayable","type":"function"},{"inputs":[],"name":"emergencyStop","outputs":[{"internalType":"bool","name":"","type":"bool"}],"stateMutability":"view","type":"function"},{"inputs":[{"internalType":"bytes32","name":"_threatId","type":"bytes32"},{"internalType":"string","name":"_action","type":"string"}],"name":"executeOwnerOverride","outputs":[],"stateMutability":"nonpayable","type":"function"},{"inputs":[],"name":"freezeDuration","outputs":[{"internalType":"uint256","name":"","type":"uint256"}],"stateMutability":"view","type":"function"},{"inputs":[{"internalType":"bytes32","name":"","type":"bytes32"}],"name":"frozenTransactions","outputs":[{"internalType":"bytes32","name":"threatId","type":"bytes32"},{"internalType":"address","name":"initiator","type":"address"},{"internalType":"uint256","name":"frozenAt","type":"uint256"},{"internalType":"uint256","name":"freezeUntil","type":"uint256"},{"internalType":"bool","name":"executed","type":"bool"},{"internalType":"bool","name":"cancelled","type":"bool"},{"internalType":"uint256","name":"value","type":"uint256"}],"stateMutability":"view","type":"function"},{"inputs":[],"name":"gasPriceThreshold","outputs":[{"internalType":"uint256","name":"","type":"uint256"}],"stateMutability":"view","type":"function"},{"inputs":[{"internalType":"address","name":"_contract","type":"address"}],"name":"getProtectionLevel","outputs":[{"internalType":"uint256","name":"","type":"uint256"}],"stateMutability":"view","type":"function"},{"inputs":[],"name":"getStats","outputs":[{"internalType":"uint256","name":"threatsDetected","type":"uint256"},{"internalType":"uint256","name":"threatsMitigated","type":"uint256"},{"internalType":"uint256","name":"lossPrevented","type":"uint256"}],"stateMutability":"view","type":"function"},{"inputs":[{"internalType":"bytes32","name":"_threatId","type":"bytes32"}],"name":"getThreatDetails","outputs":[{"internalType":"address","name":"caller","type":"address"},{"internalType":"address","name":"target","type":"address"},{"internalType":"uint256","name":"timestamp","type":"uint256"},{"internalType":"uint256","name":"level","type":"uint256"},{"internalType":"uint256","name":"vulnType","type":"uint256"},{"internalType":"string","name":"reason","type":"string"},{"internalType":"bool","name":"isFrozen","type":"bool"},{"internalType":"bool","name":"isMitigated","type":"bool"},{"internalType":"uint256","name":"freezeUntil","type":"uint256"}],"stateMutability":"view","type":"function"},{"inputs":[{"internalType":"address","name":"_addr","type":"address"}],"name":"isAddressSuspicious","outputs":[{"internalType":"bool","name":"","type":"bool"}],"stateMutability":"view","type":"function"},{"inputs":[{"internalType":"address","name":"_contract","type":"address"}],"name":"isContractProtected","outputs":[{"internalType":"bool","name":"","type":"bool"}],"stateMutability":"view","type":"function"},{"inputs":[],"name":"largeWithdrawalMultiplier","outputs":[{"internalType":"uint256","name":"","type":"uint256"}],"stateMutability":"view","type":"function"},{"inputs":[{"internalType":"address","name":"","type":"address"}],"name":"lastInteractionBlock","outputs":[{"internalType":"uint256","name":"","type":"uint256"}],"stateMutability":"view","type":"function"},{"inputs":[{"internalType":"address","name":"","type":"address"}],"name":"lastWithdrawalAmount","outputs":[{"internalType":"uint256","name":"","type":"uint256"}],"stateMutability":"view","type":"function"},{"inputs":[{"internalType":"address","name":"","type":"address"}],"name":"lastWithdrawalTime","outputs":[{"internalType":"uint256","name":"","type":"uint256"}],"stateMutability":"view","type":"function"},{"inputs":[],"name":"maxCallDepth","outputs":[{"internalType":"uint256","name":"","type":"uint256"}],"stateMutability":"view","type":"function"},{"inputs":[],"name":"maxWithdrawalAmount","outputs":[{"internalType":"uint256","name":"","type":"uint256"}],"stateMutability":"view","type":"function"},{"inputs":[],"name":"minBalanceThreshold","outputs":[{"internalType":"uint256","name":"","type":"uint256"}],"stateMutability":"view","type":"function"},{"inputs":[],"name":"owner","outputs":[{"internalType":"address","name":"","type":"address"}],"stateMutability":"view","type":"function"},{"inputs":[],"name":"patternAnalysisWindow","outputs":[{"internalType":"uint256","name":"","type":"uint256"}],"stateMutability":"view","type":"function"},{"inputs":[],"name":"priceOracle","outputs":[{"internalType":"address","name":"","type":"address"}],"stateMutability":"view","type":"function"},{"inputs":[{"internalType":"address","name":"_target","type":"address"},{"internalType":"bytes","name":"_data","type":"bytes"}],"name":"protectedCall","outputs":[{"internalType":"bytes","name":"","type":"bytes"}],"stateMutability":"payable","type":"function"},{"inputs":[{"internalType":"address","name":"","type":"address"}],"name":"protectedContracts","outputs":[{"internalType":"address","name":"contractAddress","type":"address"},{"internalType":"bool","name":"isProtected","type":"bool"},{"internalType":"uint256","name":"protectionLevel","type":"uint256"},{"internalType":"uint256","name":"lastAuditTimestamp","type":"uint256"}],"stateMutability":"view","type":"function"},{"inputs":[],"name":"rapidWithdrawalThreshold","outputs":[{"internalType":"uint256","name":"","type":"uint256"}],"stateMutability":"view","type":"function"},{"inputs":[{"internalType":"bytes32","name":"_threatId","type":"bytes32"},{"internalType":"bool","name":"_isDangerous","type":"bool"},{"internalType":"uint256","name":"_estimatedLoss","type":"uint256"},{"internalType":"string","name":"_rootCause","type":"string"},{"internalType":"string","name":"_suggestedMitigation","type":"string"}],"name":"receiveAISimulationResult","outputs":[],"stateMutability":"nonpayable","type":"function"},{"inputs":[{"internalType":"address","name":"_contract","type":"address"}],"name":"removeContractProtection","outputs":[],"stateMutability":"nonpayable","type":"function"},{"inputs":[],"name":"renounceOwnership","outputs":[],"stateMutability":"nonpayable","type":"function"},{"inputs":[{"internalType":"address","name":"_aiOracle","type":"address"}],"name":"setAIOracle","outputs":[],"stateMutability":"nonpayable","type":"function"},{"inputs":[{"internalType":"uint256","name":"_duration","type":"uint256"}],"name":"setFreezeDuration","outputs":[],"stateMutability":"nonpayable","type":"function"},{"inputs":[{"internalType":"uint256","name":"_threshold","type":"uint256"}],"name":"setGasPriceThreshold","outputs":[],"stateMutability":"nonpayable","type":"function"},{"inputs":[{"internalType":"uint256","name":"_multiplier","type":"uint256"}],"name":"setLargeWithdrawalMultiplier","outputs":[],"stateMutability":"nonpayable","type":"function"},{"inputs":[{"internalType":"uint256","name":"_depth","type":"uint256"}],"name":"setMaxCallDepth","outputs":[],"stateMutability":"nonpayable","type":"function"},{"inputs":[{"internalType":"uint256","name":"_amount","type":"uint256"}],"name":"setMaxWithdrawalAmount","outputs":[],"stateMutability":"nonpayable","type":"function"},{"inputs":[{"internalType":"uint256","name":"_threshold","type":"uint256"}],"name":"setMinBalanceThreshold","outputs":[],"stateMutability":"nonpayable","type":"function"},{"inputs":[{"internalType":"uint256","name":"_blocks","type":"uint256"}],"name":"setPatternAnalysisWindow","outputs":[],"stateMutability":"nonpayable","type":"function"},{"inputs":[{"internalType":"address","name":"_oracle","type":"address"}],"name":"setPriceOracle","outputs":[],"stateMutability":"nonpayable","type":"function"},{"inputs":[{"internalType":"uint256","name":"_threshold","type":"uint256"}],"name":"setRapidWithdrawalThreshold","outputs":[],"stateMutability":"nonpayable","type":"function"},{"inputs":[{"internalType":"uint256","name":"_threshold","type":"uint256"}],"name":"setSuspiciousCallThreshold","outputs":[],"stateMutability":"nonpayable","type":"function"},{"inputs":[{"internalType":"address","name":"_target","type":"address"},{"internalType":"bytes","name":"_data","type":"bytes"}],"name":"simulateWithdrawal","outputs":[{"internalType":"bool","name":"wouldSucceed","type":"bool"},{"internalType":"uint256","name":"estimatedBalance","type":"uint256"},{"internalType":"uint256","name":"riskLevel","type":"uint256"}],"stateMutability":"view","type":"function"},{"inputs":[{"internalType":"bytes32","name":"","type":"bytes32"}],"name":"simulationResults","outputs":[{"internalType":"bool","name":"isDangerous","type":"bool"},{"internalType":"uint256","name":"estimatedLoss","type":"uint256"},{"internalType":"string","name":"rootCause","type":"string"},{"internalType":"string","name":"suggestedMitigation","type":"string"},{"internalType":"bytes32","name":"simulationId","type":"bytes32"}],"stateMutability":"view","type":"function"},{"inputs":[{"internalType":"address","name":"","type":"address"}],"name":"suspiciousAddressCount","outputs":[{"internalType":"uint256","name":"","type":"uint256"}],"stateMutability":"view","type":"function"},{"inputs":[],"name":"suspiciousCallThreshold","outputs":[{"internalType":"uint256","name":"","type":"uint256"}],"stateMutability":"view","type":"function"},{"inputs":[{"internalType":"bytes32","name":"","type":"bytes32"}],"name":"threatDetections","outputs":[{"internalType":"address","name":"suspiciousCaller","type":"address"},{"internalType":"address","name":"targetContract","type":"address"},{"internalType":"bytes","name":"originalCalldata","type":"bytes"},{"internalType":"uint256","name":"timestamp","type":"uint256"},{"internalType":"enum ContractImmunityLayer.ThreatLevel","name":"level","type":"uint8"},{"internalType":"enum ContractImmunityLayer.VulnerabilityType","name":"vulnType","type":"uint8"},{"internalType":"string","name":"reason","type":"string"},{"internalType":"uint256","name":"blockNumber","type":"uint256"},{"internalType":"bool","name":"isMitigated","type":"bool"},{"internalType":"bytes","name":"mitigationResult","type":"bytes"},{"internalType":"uint256","name":"freezeUntilBlock","type":"uint256"}],"stateMutability":"view","type":"function"},{"inputs":[],"name":"totalLossPrevented","outputs":[{"internalType":"uint256","name":"","type":"uint256"}],"stateMutability":"view","type":"function"},{"inputs":[],"name":"totalThreatsDetected","outputs":[{"internalType":"uint256","name":"","type":"uint256"}],"stateMutability":"view","type":"function"},{"inputs":[],"name":"totalThreatsMitigated","outputs":[{"internalType":"uint256","name":"","type":"uint256"}],"stateMutability":"view","type":"function"},{"inputs":[{"internalType":"address","name":"newOwner","type":"address"}],"name":"transferOwnership","outputs":[],"stateMutability":"nonpayable","type":"function"},{"inputs":[{"internalType":"address","name":"","type":"address"},{"internalType":"address","name":"","type":"address"}],"name":"userAverageDeposit","outputs":[{"internalType":"uint256","name":"","type":"uint256"}],"stateMutability":"view","type":"function"},{"inputs":[{"internalType":"address","name":"","type":"address"},{"internalType":"address","name":"","type":"address"}],"name":"userDepositCount","outputs":[{"internalType":"uint256","name":"","type":"uint256"}],"stateMutability":"view","type":"function"},{"inputs":[{"internalType":"bytes32","name":"_threatId","type":"bytes32"},{"internalType":"string","name":"_action","type":"string"}],"name":"userResolveThreat","outputs":[],"stateMutability":"nonpayable","type":"function"},{"stateMutability":"payable","type":"receive"}],"evm":{"bytecode":{"linkReferences":{},"object":"6080806040523461009f5760008054336001600160a01b0319821681178355916001600160a01b03909116907f8be0079c531659141344cd1fd0a4f28419497f9722a3daafe3b4186f6b6457e09080a360018055601e60115567016345785d8a00006012556003601355600560145564174876e800601555600a601655683635c9adc5dea000006017556064601855600360195561456390816100a58239f35b600080fdfe60806040526004361015610015575b36613fb757005b60003560e01c806302a517ab14610385578063054bd9de14610380578063116d4ac51461037b57806311c33d491461037657806317f83e5c146103715780631aa632b31461036c5780631b480467146103675780631d3323b6146103625780631ec01d711461035d57806325303a73146103585780632609be4e146103535780632630c12f1461034e5780632c64b8461461034957806331b221cd146103445780633da846aa1461033f57806340034b7a1461033a57806340af6ad414610335578063440991bd1461033057806346b76ccc1461032b5780634838b5b6146103265780634de5120e14610321578063530e784f1461031c57806354349ed01461031757806363a599a4146103125780636616de771461030d5780636ca2aa95146103085780636e2d919f14610303578063715018a6146102fe5780637914d864146102f95780637994e28a146102f4578063892a51c5146102ef5780638da5cb5b146102ea5780638fa50574146102e55780639950e052146102e05780639c38944b146102db578063a7fd17f3146102d6578063ab470715146102d1578063b135a7f8146102cc578063b5338586146102c7578063bc00fd67146102c2578063c0c9b949146102bd578063c59d4847146102b8578063c5aae677146102b3578063ccc470cb146102ae578063ccd12cd2146102a9578063ce11d0ae146102a4578063ce1e2d9e1461029f578063db6582151461029a578063dfde44cf14610295578063e849705514610290578063e976d4311461028b578063ea02ffac14610286578063eafcd1ae14610281578063f2fde38b1461027c5763f6c9446a0361000e57611cf2565b611c2f565b611b88565b611ae3565b611ac5565b611a76565b611a3c565b611a0e565b611966565b6116d7565b61169d565b611620565b611602565b6115d3565b611591565b611537565b611516565b6114a4565b61146a565b611412565b611096565b610fb7565b610f36565b610f0d565b610eef565b610ed1565b610eb3565b610e55565b610e37565b610dc4565b610d50565b610d2a565b610d0c565b610cc9565b610c8f565b610bfd565b610b89565b610b6b565b610b3f565b610b21565b610b03565b610ada565b610abc565b610a93565b61092f565b61090e565b6108ad565b610880565b6107c3565b610736565b610718565b6106bb565b610476565b61040a565b346103d95760003660031901126103d95761039e611d2c565b60ff60a01b19601b5416601b556040514281527f6a7365fcd12e17aa9aa076d2d2b88ef9aa06259f908fea374bcd9b7c5633f85760203392a2005b600080fd5b600435906001600160a01b03821682036103d957565b602435906001600160a01b03821682036103d957565b346103d95760203660031901126103d9576001600160a01b0361042b6103de565b16600052600560205260206040600020546014541115604051908152f35b9181601f840112156103d9578235916001600160401b0383116103d957602083818601950101116103d957565b346103d95760a03660031901126103d957600480356024359182151583036103d9576001600160401b03926064358481116103d9576104b89036908401610449565b9290946084359081116103d9576104d29036908301610449565b601a5491969094916001600160a01b031633036106775761063890610520610510856105088a6000526003602052604060002090565b015460ff1690565b610519816118af565b15156125a5565b604051926105cf602085018561055633428d859160549391835260208301526001600160601b03199060601b1660408201520190565b039561056a601f199788810183528261185b565b5190206105ca610578612985565b91610581612147565b8a15158152926044356020850152604084015261059f368688612230565b60608401526105af368c8f612230565b60808401528060a08401526000526007602052604060002090565b6129dc565b6106336105e6896000526003602052604060002090565b9460058601926106276040519586926106216106056020860189612847565b6f0103e1020a49020b730b63cb9b4b99d160851b815260100190565b91611dc9565b0390810184528361185b565b611e73565b8261065d575b505061064657005b61065b92610655913691612230565b90613da5565b005b81015490915060ff1661066f816118af565b14388061063e565b60405162461bcd60e51b8152602081850152601760248201527f4f6e6c79204149204f7261636c652063616e2063616c6c0000000000000000006044820152606490fd5b346103d95760203660031901126103d9576004356106d7611d2c565b80156106e257601855005b60405162461bcd60e51b815260206004820152600e60248201526d496e76616c69642077696e646f7760901b6044820152606490fd5b346103d95760003660031901126103d9576020601854604051908152f35b346103d95760203660031901126103d95761074f6103de565b610757611d2c565b6001600160a01b0316801561077e576001600160601b0360a01b601a541617601a55600080f35b60405162461bcd60e51b815260206004820152601960248201527f496e76616c6964204149204f7261636c652061646472657373000000000000006044820152606490fd5b346103d95760203660031901126103d9576001600160a01b036107e46103de565b16600052600b6020526020604060002054604051908152f35b9060406003198301126103d9576004356001600160a01b03811681036103d95791602435906001600160401b0382116103d95761083c91600401610449565b9091565b919082519283825260005b84811061086c575050826000602080949584010152601f8019910116010190565b60208183018101518483018201520161084b565b6108a961089561088f366107fd565b91612267565b604051918291602083526020830190610840565b0390f35b346103d95760203660031901126103d95760806001600160a01b03806108d16103de565b166000526002602052604060002080549060ff6002600183015492015492604051948116855260a01c161515602084015260408301526060820152f35b346103d95760203660031901126103d957610927611d2c565b600435601755005b346103d95760403660031901126103d9576109486103de565b60243590610954611d2c565b6001600160a01b038116908115610a4e57610a0890600184101580610a43575b61097d90612559565b6109c06109886120fc565b6001600160a01b0383168152916001602084015285604084015242606084015260018060a01b03166000526002602052604060002090565b8151815460208401516001600160a01b039092166001600160a81b03199091161790151560a01b60ff60a01b1617815560408201516001820155606090910151600290910155565b6040805192835242602084015233927fa8eebf5927f6d87370415763214abcd978f4075f38446adf78d8b4ccaf33944d91819081015b0390a3005b506005841115610974565b60405162461bcd60e51b815260206004820152601860248201527f496e76616c696420636f6e7472616374206164647265737300000000000000006044820152606490fd5b346103d95760003660031901126103d957601b546040516001600160a01b039091168152602090f35b346103d95760003660031901126103d9576020600e54604051908152f35b346103d95760003660031901126103d957601a546040516001600160a01b039091168152602090f35b346103d95760003660031901126103d9576020601054604051908152f35b346103d95760003660031901126103d9576020601654604051908152f35b346103d95760203660031901126103d957600435610b5b611d2c565b610b66811515612945565b601555005b346103d95760003660031901126103d9576020601154604051908152f35b346103d95760203660031901126103d957600435610ba5611d2c565b80151580610bf2575b15610bb857601355005b60405162461bcd60e51b8152602060048201526012602482015271092dcecc2d8d2c840c6c2d8d840c8cae0e8d60731b6044820152606490fd5b50600a811115610bae565b346103d95760203660031901126103d957610c166103de565b610c1e611d2c565b6001600160a01b0316600081815260026020526040812054909190610c489060a01c60ff16611d84565b808252600260209081526040808420805460ff60a01b19169055514281523392917fd2f536eb2cd870954219b9d794c2aaef19134127e1c44017e1037b9a49b5636991a380f35b346103d95760203660031901126103d9576001600160a01b03610cb06103de565b16600052600d6020526020604060002054604051908152f35b346103d95760203660031901126103d957610ce26103de565b610cea611d2c565b601b80546001600160a01b0319166001600160a01b0392909216919091179055005b346103d95760003660031901126103d9576020601454604051908152f35b346103d95760003660031901126103d957602060ff601b5460a01c166040519015158152f35b346103d95760203660031901126103d957600435610d6c611d2c565b80151580610db9575b15610d7f57601655005b60405162461bcd60e51b815260206004820152601260248201527124b73b30b634b21036bab63a34b83634b2b960711b6044820152606490fd5b506064811115610d75565b346103d95760203660031901126103d957600435610de0611d2c565b80151580610e2b575b15610df357601155005b60405162461bcd60e51b815260206004820152601060248201526f24b73b30b634b210323ab930ba34b7b760811b6044820152606490fd5b506103e8811115610de9565b346103d95760003660031901126103d9576020600f54604051908152f35b346103d957600080600319360112610eb057610e6f611d2c565b80546001600160a01b03198116825581906001600160a01b03167f8be0079c531659141344cd1fd0a4f28419497f9722a3daafe3b4186f6b6457e08280a380f35b80fd5b346103d95760003660031901126103d9576020601254604051908152f35b346103d95760003660031901126103d9576020601354604051908152f35b346103d95760003660031901126103d9576020601554604051908152f35b346103d95760003660031901126103d9576000546040516001600160a01b039091168152602090f35b346103d95760203660031901126103d957600435610f52611d2c565b610f5d811515612945565b601455005b9592610fa49491610100989b9a99969360018060a01b0380921689521660208801526040870152606086015260808501526101208060a0860152840190610840565b95151560c0830152151560e08201520152565b346103d95760203660031901126103d957600435806000526003602052610fe16040600020612739565b80516020820151606083015160808401516001600160a01b0392831695939092169390916005811015611062576108a99361101b826118af565b60a0830151611029816118c6565b611032816118c6565b61104060c085015192613f98565b92610140611052610100870151151590565b95015195604051998a998a610f62565b611899565b9060406003198301126103d95760043591602435906001600160401b0382116103d95761083c91600401610449565b346103d9576110a436611067565b6110af929192611d2c565b6110cb6105106004610508856000526003602052604060002090565b6110ed60026110e4846000526004602052604060002090565b015415156125e3565b611101826000526003602052604060002090565b90611116836000526004602052604060002090565b9361114260036004870196611138885460ff8116159081611403575b50612628565b0154431115612674565b61114d368383612230565b91825160208094012061115e6126b8565b8051908501200361121a5750505060018101805490939060009081906001600160a01b031660405182816111958160028a01612847565b03925af1936111a26128c9565b946111a957005b6111ed610a3e926111e0876008876111da600760008051602061450e8339815191529a01600160ff19825416179055565b01611e73565b805460ff19166001179055565b6112006111fb600f546127f8565b600f55565b546001600160a01b039081161693604051918291826128f9565b61122995929395368284612230565b8481519101206112376126db565b8051908601200361135a57505060008051602061450e83398151915291611341610a3e9261130960018861127860076113359b01600160ff19825416179055565b6112ed604051946112de866112c18a820160609060208152601d60208201527f5472616e73616374696f6e207265766572746564206279206f776e657200000060408201520190565b03966112d5601f199889810183528261185b565b60088501611e73565b805461ff001916610100179055565b6112fb6111fb600f546127f8565b01546001600160a01b031690565b92604051978891820160609060208152600860208201526714995d995c9d195960c21b60408201520190565b0390810187528661185b565b6040516001600160a01b03909116949091829182612807565b61136692503691612230565b818151910120906113756126fd565b8051910120036113cd5761138b61139192612739565b90613ce6565b60405162461bcd60e51b815260206004820152601460248201527314da5b5d5b185d1a5bdb881c995c5d595cdd195960621b6044820152606490fd5b60405162461bcd60e51b815260206004820152600e60248201526d24b73b30b634b21030b1ba34b7b760911b6044820152606490fd5b60ff915060081c161538611132565b346103d95760403660031901126103d95760206114616114306103de565b6114386103f4565b6001600160a01b0391821660009081526008855260408082209290931681526020919091522090565b54604051908152f35b346103d95760203660031901126103d9576001600160a01b0361148b6103de565b1660005260056020526020604060002054604051908152f35b346103d9576114b236611067565b906002600154146114d1576114cb926002600155614123565b60018055005b60405162461bcd60e51b815260206004820152601f60248201527f5265656e7472616e637947756172643a207265656e7472616e742063616c6c006044820152606490fd5b346103d95760203660031901126103d95761152f611d2c565b600435601255005b346103d95760203660031901126103d9576001600160a01b036115586103de565b1680600052600260205261157660ff60406000205460a01c16611d84565b60005260026020526020600160406000200154604051908152f35b346103d95760203660031901126103d9576001600160a01b036115b26103de565b166000526002602052602060ff60406000205460a01c166040519015158152f35b346103d95760003660031901126103d9576060600e54600f546010549060405192835260208301526040820152f35b346103d95760003660031901126103d9576020601954604051908152f35b346103d95760203660031901126103d957600435600052600460205260e0604060002080549060ff60018060a01b0360018301541691600281015460038201549060056004840154930154946040519687526020870152604086015260608501528181161515608085015260081c16151560a083015260c0820152f35b346103d95760203660031901126103d9576001600160a01b036116be6103de565b1660005260066020526020604060002054604051908152f35b346103d95760203660031901126103d9576004356116f3611d2c565b6116fe811515612945565b601955005b90600182811c92168015611733575b602083101461171d57565b634e487b7160e01b600052602260045260246000fd5b91607f1691611712565b906000929180549161174e83611703565b9182825260019384811690816000146117b05750600114611770575b50505050565b90919394506000526020928360002092846000945b83861061179c57505050500101903880808061176a565b805485870183015294019385908201611785565b9294505050602093945060ff191683830152151560051b0101903880808061176a565b634e487b7160e01b600052604160045260246000fd5b61016081019081106001600160401b0382111761180557604052565b6117d3565b602081019081106001600160401b0382111761180557604052565b604081019081106001600160401b0382111761180557604052565b606081019081106001600160401b0382111761180557604052565b90601f801991011681019081106001600160401b0382111761180557604052565b90611897611890926040519384809261173d565b038361185b565b565b634e487b7160e01b600052602160045260246000fd5b6005111561106257565b9060058210156110625752565b600d111561106257565b90600d8210156110625752565b9b9a999561192e6101409a9660808f6119216119459998611938976119619f9e9960018060a01b038092168552166020840152610160806040850152830190610840565b97606082015201906118b9565b60a08d01906118d0565b8a820360c08c0152610840565b9260e08901521515610100880152868203610120880152610840565b930152565b346103d95760203660031901126103d9576004356000526003602052604060002060018060a01b036108a9818354169160018401541691604051936119b9856119b2816002850161173d565b038661185b565b60038101549160048201546119d06005840161187c565b6006840154916119e4600786015460ff1690565b9360096119f36008880161187c565b960154966040519a8b9a60ff808660081c169516938c6118dd565b346103d9576060611a27611a21366107fd565b91613c1e565b90604051921515835260208301526040820152f35b346103d95760203660031901126103d9576001600160a01b03611a5d6103de565b16600052600c6020526020604060002054604051908152f35b346103d95760403660031901126103d9576020611461611a946103de565b611a9c6103f4565b6001600160a01b0391821660009081526009855260408082209290931681526020919091522090565b346103d95760003660031901126103d9576020601754604051908152f35b346103d95760203660031901126103d9576004356001600160401b0381116103d957611b347f961d556f025c07db81e2659d606c508d6496c37b355a276d308068e8fda3f235913690600401610449565b9190611b3e611d2c565b600160a01b60ff60a01b19601b541617601b5582604051914283526040602084015281604084015260608301376000606084830101526060813394601f80199101168101030190a2005b346103d95760203660031901126103d9576004356000526007602052604060002060ff815416600182015491611c2560405191611bd383611bcc816003850161173d565b038461185b565b611c17600560405192611bf484611bed816004850161173d565b038561185b565b01549360405196879615158752602087015260a0604087015260a0860190610840565b908482036060860152610840565b9060808301520390f35b346103d95760203660031901126103d957611c486103de565b611c50611d2c565b6001600160a01b039081168015611c9e57600080546001600160a01b03198116831782559092167f8be0079c531659141344cd1fd0a4f28419497f9722a3daafe3b4186f6b6457e08380a380f35b60405162461bcd60e51b815260206004820152602660248201527f4f776e61626c653a206e6577206f776e657220697320746865207a65726f206160448201526564647265737360d01b6064820152608490fd5b346103d95760203660031901126103d9576001600160a01b03611d136103de565b16600052600a6020526020604060002054604051908152f35b6000546001600160a01b03163303611d4057565b606460405162461bcd60e51b815260206004820152602060248201527f4f776e61626c653a2063616c6c6572206973206e6f7420746865206f776e65726044820152fd5b15611d8b57565b60405162461bcd60e51b815260206004820152601660248201527510dbdb9d1c9858dd081b9bdd081c1c9bdd1958dd195960521b6044820152606490fd5b908092918237016000815290565b9192849391608898969795926001600160601b0319809260601b16855260601b166014840152602883013701926028840152604883015260688201520190565b818110611e22575050565b60008155600101611e17565b9190601f8111611e3d57505050565b611897926000526020600020906020601f840160051c83019310611e69575b601f0160051c0190611e17565b9091508190611e5c565b91909182516001600160401b03811161180557611e9a81611e948454611703565b84611e2e565b602080601f8311600114611ed6575081929394600092611ecb575b50508160011b916000199060031b1c1916179055565b015190503880611eb5565b90601f19831695611eec85600052602060002090565b926000905b888210611f2957505083600195969710611f10575b505050811b019055565b015160001960f88460031b161c19169055388080611f06565b80600185968294968601518155019501930190611ef1565b9060058110156110625760ff80198354169116179055565b90600d81101561106257815461ff00191660089190911b61ff0016179055565b815190916009916101409190611faf906001600160a01b03165b85546001600160a01b0319166001600160a01b03909116178555565b60208101516001850180546001600160a01b0319166001600160a01b03909216919091179055611fe6604082015160028601611e73565b606081015160038501556120226004850161200e6080840151612008816118af565b82611f41565b60a08301519061201d826118c6565b611f59565b61203360c082015160058601611e73565b60e0810151600685015561206361204e610100830151151590565b600786019060ff801983541691151516179055565b61207561012082015160088601611e73565b0151910155565b6120989392606092825260208201528160408201520190610840565b90565b634e487b7160e01b600052601160045260246000fd5b90600182018092116120bf57565b61209b565b919082018092116120bf57565b6120ef61209894936120e5836060956118b9565b60208301906118d0565b8160408201520190610840565b60405190608082018281106001600160401b0382111761180557604052565b6040519060e082018281106001600160401b0382111761180557604052565b60405190611897826117e9565b6040519060c082018281106001600160401b0382111761180557604052565b8151815560208201516001820180546001600160a01b0319166001600160a01b03929092169190911790559060059060c0906040810151600285015560608101516003850155600484016121cc60808301511515829060ff801983541691151516179055565b60a0820151815461ff00191690151560081b61ff00161790550151910155565b90815260408101929161189791602001906118b9565b6001600160401b03811161180557601f01601f191660200190565b6040519061222a8261180a565b60008252565b92919261223c82612202565b9161224a604051938461185b565b8294818452818301116103d9578281602093846000960137010152565b9161229961229461228a8560018060a01b03166000526002602052604060002090565b5460a01c60ff1690565b611d84565b6122a63482843387612e12565b9160405160208101906122d2816122c442433489898d33908b611dd7565b03601f19810183528261185b565b519020926080810180516122e5816118af565b6122ee816118af565b61230c575b5050926123066120989434933691612230565b90613eb3565b61232982612324876000526003602052604060002090565b611f79565b6123338286613f72565b60038151612340816118af565b612349816118af565b106124e3575b6003815161235c816118af565b612365816118af565b106122f35791509291506124db93612386612381600e546120b1565b600e55565b815190612392826118af565b60a0850151916123a1836118c6565b847f7192da0ca79d523bc321e5c866837be94b2e471f2c36ecb9b68edbe4739145316123e460c089015160405191829160018060a01b03988933991697846120d1565b0390a4827fe158b61799005a0bde2d74805d7436ec8bd217764d814019e1597b65460e27fc612415601154436120c4565b9283600961242d856000526003602052604060002090565b01558651612497906001600160a01b031661245e61244961211b565b8681526001600160a01b039092166020830152565b42604082015285606082015260006080820152600060a08201523460c0820152612492856000526004602052604060002090565b612166565b60208701516001600160a01b031687519095906124d3906001600160a01b031691516124c2816118af565b8360405194859416981696836121ec565b0390a4613ce6565b61209861221d565b8581516124ef816118af565b6124f8816118af565b867fef4c1543ed76a80da301f342fdf8ed9a402e1fa7270f818fbbc6e22b5e71d47d60a0860151612528816118c6565b612531816118c6565b60c087015190612551604051928392339860018060a01b0316978461207c565b0390a461234f565b1561256057565b60405162461bcd60e51b815260206004820152601860248201527f496e76616c69642070726f74656374696f6e206c6576656c00000000000000006044820152606490fd5b156125ac57565b60405162461bcd60e51b815260206004820152600f60248201526e139bc81d1a1c99585d08199bdd5b99608a1b6044820152606490fd5b156125ea57565b60405162461bcd60e51b81526020600482015260166024820152752a3930b739b0b1ba34b7b7103737ba10333937bd32b760511b6044820152606490fd5b1561262f57565b60405162461bcd60e51b815260206004820152601d60248201527f5472616e73616374696f6e20616c72656164792070726f6365737365640000006044820152606490fd5b1561267b57565b60405162461bcd60e51b8152602060048201526015602482015274119c99595e99481c195c9a5bd908195e1c1a5c9959605a1b6044820152606490fd5b604051906126c582611825565b60078252666578656375746560c81b6020830152565b604051906126e882611825565b60068252651c995d995c9d60d21b6020830152565b6040519061270a82611825565b600882526773696d756c61746560c01b6020830152565b60058210156110625752565b600d8210156110625752565b90600961274461213a565b83546001600160a01b031681529260018101546001600160a01b031660208501526127716002820161187c565b6040850152600381015460608501526127a660ff600483015461279982821660808901612721565b60081c1660a0860161272d565b6127b26005820161187c565b60c0850152600681015460e08501526127dc6127d2600783015460ff1690565b1515610100860152565b6127e86008820161187c565b6101208501520154610140830152565b60001981146120bf5760010190565b9060a061209892600181526060602082015260116060820152702932bb32b93a32b210313c9037bbb732b960791b60808201528160408201520190610840565b60009291815461285681611703565b926001918083169081156128ae57506001146128725750505050565b90919293945060005260209081600020906000915b85831061289d575050505001903880808061176a565b805485840152918301918101612887565b60ff191684525050508115159091020191503880808061176a565b3d156128f4573d906128da82612202565b916128e8604051938461185b565b82523d6000602084013e565b606090565b9060a0612098926001815260606020820152601c60608201527f45786563757465642077697468206f776e6572206f766572726964650000000060808201528160408201520190610840565b1561294c57565b60405162461bcd60e51b8152602060048201526011602482015270125b9d985b1a59081d1a1c995cda1bdb19607a1b6044820152606490fd5b6040516129918161180a565b60008152906000368137565b908160011b91808304600214901517156120bf57565b906005820291808304600514901517156120bf57565b818102929181159184041417156120bf57565b906129f681511515839060ff801983541691151516179055565b6020808201519060019182850155600284016040840151918251926001600160401b038411611805576801000000000000000084116118055781908354858555808610612a9a575b500191600052806000209060005b848110612a805750505050505060a081612a6f6060600594015160038601611e73565b612075608082015160048601611e73565b83516001600160a01b031683820155928101928501612a4c565b612ab1908560005286846000209182019101611e17565b38612a3e565b6040519061016082018281106001600160401b038211176118055760405281610140600091828152826020820152606060408201528260608201528260808201528260a0820152606060c08201528260e08201528261010082015260606101208201520152565b60405190612b2b82611825565b601882527f556e757375616c6c7920686967682067617320707269636500000000000000006020830152565b60405190612b6482611840565b602682526564647265737360d01b6040837f48696768206672657175656e63792063616c6c732066726f6d2073616d65206160208201520152565b60405190612bac82611840565b60218252603760f91b6040837f506f737369626c652061636365737320636f6e74726f6c2076696f6c6174696f60208201520152565b60405190612bef82611825565b601d82527f556e736166652065787465726e616c2063616c6c2064657465637465640000006020830152565b60405190612c2882611825565b601f82527f556e657870656374656420455448207472616e73666572207061747465726e006020830152565b60405190612c6182611840565b60258252643a3a32b93760d91b6040837f537573706963696f7573207374617465206d616e6970756c6174696f6e20706160208201520152565b60405190612ca882611840565b602882526719195d1958dd195960c21b6040837f466c617368206c6f616e206d616e6970756c6174696f6e207061747465726e2060208201520152565b60405190612cf282611840565b602b82526a1c9b8819195d1958dd195960aa1b6040837f506f737369626c65207265656e7472616e63792061747461636b20706174746560208201520152565b60405190612d3f82611840565b6027825266195d1958dd195960ca1b6040837f537573706963696f75732061646d696e2066756e6374696f6e2063616c6c206460208201520152565b60405190612d8882611840565b60218252601960fa1b6040837f5261706964207769746864726177616c207061747465726e206465746563746560208201520152565b60405190612dcb82611840565b603282527174656420283e31307820617665726167652960701b6040837f556e757375616c6c79206c61726765207769746864726177616c20646574656360208201520152565b909392612e1d612ab7565b50600092600c612e2b61221d565b94612e3784848761373b565b15612ee4575050612eb8935090612e9b612eaf92600392612e94600896612e6a612e5f612dbe565b9a5b8c8587856139c6565b612e84612e7561213a565b6001600160a01b03909c168c52565b6001600160a01b031660208b0152565b3691612230565b604087015242606087015260808601612721565b60a0840161272d565b60c08201524360e08201526000610100820152612ed361221d565b610120820152600061014082015290565b612eed85613800565b15612f1b575050612eb8935090612e9b612eaf92600292612e94600996612e6a612f15612d7b565b9a612e61565b612f26888585613855565b15612f4e575050612eb8935090612e9b612eaf92600492612e94600a96612e6a612f15612d32565b612f5988858561329c565b15612f81575050612eb8935090612e9b612eaf92600392612e94600096612e6a612f15612ce5565b612f8b8789613428565b15612fb3575050612eb8935090612e9b612eaf92600392612e94600196612e6a612f15612c9b565b612fbc88613490565b15612fe3575050612eb8935090612e9b612eaf92600292612e948496612e6a612f15612c54565b612fee87858561351e565b15613016575050612eb8935090612e9b612eaf92600292612e94600396612e6a612f15612c1b565b6130208484613558565b15613048575050612eb8935090612e9b612eaf92600192612e94600496612e6a612f15612be2565b61305284846135f3565b1561307a575050612eb8935090612e9b612eaf92600392612e94600596612e6a612f15612b9f565b61308788959492956136ef565b156130ac5750612eb89450612eaf9291612e9b91612e94600194612e6a612f15612b57565b926015543a116130d1575b91612e9b91612e94612eaf9594612e6a612eb8999a612e61565b91612eb89550612eaf9350612e9b91612e94600194612e6a6130f1612b1e565b995050929495505091506130b7565b906004116103d95790600490565b6001600160e01b0319903581811693926004811061312b57505050565b60040360031b82901b16169150565b60405190613147826117e9565b600a8252610140366020840137565b6040519061012082018281106001600160401b038211176118055760405260088252610100366020840137565b604051906101a082018281106001600160401b0382111761180557604052600c8252610180366020840137565b8051156131bd5760200190565b634e487b7160e01b600052603260045260246000fd5b8051600110156131bd5760400190565b8051600210156131bd5760600190565b8051600310156131bd5760800190565b8051600410156131bd5760a00190565b8051600510156131bd5760c00190565b8051600610156131bd5760e00190565b8051600710156131bd576101000190565b8051600810156131bd576101200190565b8051600910156131bd576101400190565b8051600a10156131bd576101600190565b8051600b10156131bd576101800190565b80518210156131bd5760209160051b010190565b90913b156132ae5760048210156132b5575b5050600090565b6132c8916132c291613100565b9061310e565b6132d061313a565b906132e96132dd836131b0565b63a9059cbb60e01b9052565b6133016132f5836131d3565b63095ea7b360e01b9052565b61331961330d836131e3565b6323b872dd60e01b9052565b613331613325836131f3565b6340c10f1960e01b9052565b61334961333d83613203565b632770a7eb60e21b9052565b61336161335583613213565b630852cd8d60e31b9052565b61337961336d83613223565b63079cc67960e41b9052565b61339161338583613233565b6340e58ee560e01b9052565b6133a961339d83613244565b632e1a7d4d60e01b9052565b6133c16133b583613255565b633ccfd60b60e01b9052565b6001600160e01b03191660005b825181101561341e576134026133f56133e78386613288565b516001600160e01b03191690565b6001600160e01b03191690565b821461341657613411906127f8565b6133ce565b505050600190565b50505038806132ae565b803b15159081613482575b8161346e575b5061346857678ac7230489e80000108061345c575b61345757600090565b600190565b50620186a05a1061344e565b50600190565b6001600160a01b0316321415905038613439565b809150316012541190613433565b6001600160a01b0381166000908152600660205260409020805443036134fd57506001600160a01b03811660009081526005602052604090206134f491906134d881546127f8565b90556001600160a01b0316600090815260056020526040902090565b54601454111590565b4390556001600160a01b031660009081526005602052604081206001905590565b9115158061354f575b613532575050600090565b6004116103d957356001600160e01b0319166134575738806132ae565b50801515613527565b906004811015613569575050600090565b6004116103d9576001600160e01b0319903516635c60da1b60e01b81149081156135e2575b81156135d1575b81156135c0575b81156135af575b506134575738806132ae565b6303e1469160e61b149050386135a3565b6308f2839760e41b8114915061359c565b63278f794360e11b81149150613595565b631b2ce7f360e11b8114915061358e565b6004821015613603575050600090565b613610916132c291613100565b613618613156565b90613631613625836131b0565b63f2fde38b60e01b9052565b61364961363d836131d3565b638da5cb5b60e01b9052565b613661613655836131e3565b63a6f9dae160e01b9052565b61367961366d836131f3565b633cebb82360e01b9052565b61369161368583613203565b633825b60160e11b9052565b61369d61332583613213565b6136a961335583613223565b6136b561333d83613233565b6001600160e01b03191660005b825181101561341e576136db6133f56133e78386613288565b8214613416576136ea906127f8565b6136c2565b6001600160a01b03166000818152600660205260408120549091904314613714575090565b600391604091600560205282822061372c81546127f8565b90558152600560205220541190565b91602481106137dc576004116103d9576001600160e01b0319813516632e1a7d4d60e01b81149081156137cb575b50613775575050600090565b60046137969101359160018060a01b0316600052600a602052604060002090565b5480151590816137b5575b5061346857601754106134575738806132ae565b6137c39150601654906129c9565b8111386137a1565b63b0fd035b60e01b14905038613769565b505050600090565b6000198101919082116120bf57565b919082039182116120bf57565b6001600160a01b03166000908152600d6020526040902054801515908161382c575b5061345757600090565b905042034281116120bf5760185490600c820291808304600c14901517156120bf571038613822565b600482106137dc5761386a916132c291613100565b90613873613183565b91613880613625846131b0565b61388c613655846131d3565b61389861366d846131e3565b6138a4613685846131f3565b6138b061332584613203565b6138bc61335584613213565b6138c861333d84613223565b6138e06138d484613233565b631b2ce7f360e11b9052565b6138f86138ec84613244565b63278f794360e11b9052565b61391061390484613255565b6308f2839760e41b9052565b61392861391c84613266565b635c60da1b60e01b9052565b61394061393484613277565b6303e1469160e61b9052565b6001600160e01b03191660005b835181101561399d576139666133f56133e78387613288565b821461397b575b613976906127f8565b61394d565b823b6139945761398c60155461299d565b3a111561396d575b50505050600190565b50505050600090565b81156139b0570490565b634e487b7160e01b600052601260045260246000fd5b93909260048310613c17576139ee6139de8486613100565b6001600160e01b0319929161310e565b1691630d0e30db60e41b831480613c0e575b613a7d575b5050632e1a7d4d60e01b8114908115613a6c575b50613a2357505050565b60241115613a2f575050565b60040135613a4f8260018060a01b0316600052600c602052604060002090565b556001600160a01b03166000908152600d60205260409020429055565b63b0fd035b60e01b14905038613a19565b613be6613bc3613c0692613aa38960018060a01b0316600052600b602052604060002090565b613aad81546127f8565b9055613b2a613b0a82613b058c613aff613af9613adc8360018060a01b0316600052600a602052604060002090565b546001600160a01b039093166000908152600b6020526040902090565b546137e4565b906129c9565b6120c4565b6001600160a01b038b166000908152600b602052604090205b54906139a6565b6001600160a01b038a166000908152600a60209081526040808320939093556009905220613b6c9086905b9060018060a01b0316600052602052604060002090565b613b7681546127f8565b9055613b0589613aff613af988613b55613ba682613b558760018060a01b03166000526008602052604060002090565b546001600160a01b03909516600090815260096020526040902090565b6001600160a01b0388166000908152600960205260409020613b23908590613b55565b6001600160a01b0387166000908152600860205260409020909290613b55565b553880613a05565b50801515613a00565b5050505050565b91602411613cd95781319060040135600081831115613cd05750613c61613c4582846137f3565b6001600160a01b039094166000908152600a6020526040902090565b54801515908180613cbc575b15613c7c575050600391101592565b81613caa575b5015613c9057600291101592565b601754811115613ca257600491101592565b600191101592565b613cb491506129b3565b811138613c82565b50613cc9601654826129c9565b8311613c6d565b613c6190613c45565b5050600090600090600090565b601a549091906001600160a01b03908116801561176a57602090604051613d34816122c485820194428a879160549391835260208301526001600160601b03199060601b1660408201520190565b51902092015116917f70afdc8e41469e3529709d2c5289ca9593a88f93ee8d999b31a9e9fbf1558478600080a4565b9060a061209892600181526060602082015260136060820152724175746f2d726576657274656420627920414960681b60808201528160408201520190610840565b613db9816000526003602052604060002090565b9160208151910120613dc96126db565b6020815191012014613dd9575050565b60078201805460ff1916600117905560008051602061450e833981519152613eae613e636001604051956112ed87613e466020820160609060208152601c60208201527f4175746f2d726576657274656420627920414920616e616c797369730000000060408201520190565b0397613e5a601f19998a810183528261185b565b60088301611e73565b613e9560405195866113356020820160609060208152600860208201526714995d995c9d195960c21b60408201520190565b6040516001600160a01b03909116949091829182613d63565b0390a3565b90600092918392602083519301915af190613ecc6128c9565b9115613f3a578060005260036020528160ff60046040600020015416613ef1816118af565b613efa57505090565b60086111da83613f2a6007613f1c612098976000526003602052604060002090565b01805460ff19166001179055565b6000526003602052604060002090565b60405162461bcd60e51b815260206004820152601060248201526f115e1958dd5d1a5bdb8819985a5b195960821b6044820152606490fd5b60005260036020526009610140604060002092611faf611f93825160018060a01b031690565b6000526003602052610140613fb06040600020612739565b0151431090565b60405162461bcd60e51b815260206004820152601860248201527f4469726563742063616c6c73206e6f7420616c6c6f77656400000000000000006044820152606490fd5b1561400357565b60405162461bcd60e51b8152602060048201526011602482015270105b1c9958591e481c1c9bd8d95cdcd959607a1b6044820152606490fd5b1561404357565b60405162461bcd60e51b815260206004820152600e60248201526d139bdd08185d5d1a1bdc9a5e995960921b6044820152606490fd5b9060c0612098926001815260606020820152602660608201527f557365722f4f776e65722065786563757465642066726f7a656e207472616e7360808201526530b1ba34b7b760d11b60a08201528160408201520190610840565b61209891600182526060602083015261411560608301604090601781527621b0b731b2b63632b210313c903ab9b2b917b7bbb732b960491b60208201520190565b916040818403910152610840565b9091614139826000526003602052604060002090565b61414a610510600483015460ff1690565b61418d614161846000526004602052604060002090565b94614171600287015415156125e3565b6004860193612e94855460ff81161590816144fe575b50613ffc565b602081519101207fa69dff78c971e101863084ec5c1dbe35bfadbf66d9b878605b3b33a719fe14f781146144ac576001850180549091906141de906001600160a01b03165b6001600160a01b031690565b33148015614489575b6141f09061403c565b7fc640060cdb34fcc260f41eac7474ee1d7c80b7e3607daff9ac67c7ea2ebb1c448114614398577fa6de185cadd5025ad112692ff4c6e4d195daa4aeca2980b12e73362933d065f2146142735760405162461bcd60e51b815260206004820152600e60248201526d24b73b30b634b21030b1ba34b7b760911b6044820152606490fd5b6001613eae926143269261429f60008051602061450e8339815191529661010061ff0019825416179055565b60078201805460ff1916600117905560056040519861430d8a6142f06020820160208082526017908201527621b0b731b2b63632b210313c903ab9b2b917b7bbb732b960491b604082015260600190565b039a614304601f199c8d810183528261185b565b60088601611e73565b01549081614372575b50506112fb6111fb600f546127f8565b61435960405195866113356020820160609060208152600960208201526810d85b98d95b1b195960ba1b60408201520190565b6040516001600160a01b039091169490918291826140d4565b546000918291829182916001600160a01b03165af1506143906128c9565b503880614316565b50506001810180549294909260009182916005906001600160a01b031691015460405190816143ca8160028901612847565b03925af1936143d76128c9565b9415614444579161441c856008613eae9461440860008051602061450e83398151915297600160ff19825416179055565b60078101805460ff191660011790556111da565b61442a6111fb600f546127f8565b546001600160a01b03908116169360405191829182614079565b845185816144845760405162461bcd60e51b815260206004820152601060248201526f115e1958dd5d1a5bdb8819985a5b195960821b6044820152606490fd5b602001fd5b506000546141f0906144a3906001600160a01b03166141d2565b331490506141e7565b6144b98461138b84612739565b60405162461bcd60e51b815260206004820152601760248201527f41492073696d756c6174696f6e207265717565737465640000000000000000006044820152606490fd5b60ff915060081c16153861418756fe8938bdaafb8d8ba10b2417522eeb22e7535d89d5fe80d15940dafeb01f7185eca26469706673582212204b9ac026579498de1817daf7e51a1c10441fbe87c0ff230264dd1af1a84e146e64736f6c63430008130033","opcodes":"PUSH1 0x80 DUP1 PUSH1 0x40 MSTORE CALLVALUE PUSH2 0x9F JUMPI PUSH1 0x0 DUP1 SLOAD CALLER PUSH1 0x1 PUSH1 0x1 PUSH1 0xA0 SHL SUB NOT DUP3 AND DUP2 OR DUP4 SSTORE SWAP2 PUSH1 0x1 PUSH1 0x1 PUSH1 0xA0 SHL SUB SWAP1 SWAP2 AND SWAP1 PUSH32 0x8BE0079C531659141344CD1FD0A4F28419497F9722A3DAAFE3B4186F6B6457E0 SWAP1 DUP1 LOG3 PUSH1 0x1 DUP1 SSTORE PUSH1 0x1E PUSH1 0x11 SSTORE PUSH8 0x16345785D8A0000 PUSH1 0x12 SSTORE PUSH1 0x3 PUSH1 0x13 SSTORE PUSH1 0x5 PUSH1 0x14 SSTORE PUSH5 0x174876E800 PUSH1 0x15 SSTORE PUSH1 0xA PUSH1 0x16 SSTORE PUSH9 0x3635C9ADC5DEA00000 PUSH1 0x17 SSTORE PUSH1 0x64 PUSH1 0x18 SSTORE PUSH1 0x3 PUSH1 0x19 SSTORE PUSH2 0x4563 SWAP1 DUP2 PUSH2 0xA5 DUP3 CODECOPY RETURN JUMPDEST PUSH1 0x0 DUP1 REVERT INVALID PUSH1 0x80 PUSH1 0x40 MSTORE PUSH1 0x4 CALLDATASIZE LT ISZERO PUSH2 0x15 JUMPI JUMPDEST CALLDATASIZE PUSH2 0x3FB7 JUMPI STOP JUMPDEST PUSH1 0x0 CALLDATALOAD PUSH1 0xE0 SHR DUP1 PUSH4 0x2A517AB EQ PUSH2 0x385 JUMPI DUP1 PUSH4 0x54BD9DE EQ PUSH2 0x380 JUMPI DUP1 PUSH4 0x116D4AC5 EQ PUSH2 0x37B JUMPI DUP1 PUSH4 0x11C33D49 EQ PUSH2 0x376 JUMPI DUP1 PUSH4 0x17F83E5C EQ PUSH2 0x371 JUMPI DUP1 PUSH4 0x1AA632B3 EQ PUSH2 0x36C JUMPI DUP1 PUSH4 0x1B480467 EQ PUSH2 0x367 JUMPI DUP1 PUSH4 0x1D3323B6 EQ PUSH2 0x362 JUMPI DUP1 PUSH4 0x1EC01D71 EQ PUSH2 0x35D JUMPI DUP1 PUSH4 0x25303A73 EQ PUSH2 0x358 JUMPI DUP1 PUSH4 0x2609BE4E EQ PUSH2 0x353 JUMPI DUP1 PUSH4 0x2630C12F EQ PUSH2 0x34E JUMPI DUP1 PUSH4 0x2C64B846 EQ PUSH2 0x349 JUMPI DUP1 PUSH4 0x31B221CD EQ PUSH2 0x344 JUMPI DUP1 PUSH4 0x3DA846AA EQ PUSH2 0x33F JUMPI DUP1 PUSH4 0x40034B7A EQ PUSH2 0x33A JUMPI DUP1 PUSH4 0x40AF6AD4 EQ PUSH2 0x335 JUMPI DUP1 PUSH4 0x440991BD EQ PUSH2 0x330 JUMPI DUP1 PUSH4 0x46B76CCC EQ PUSH2 0x32B JUMPI DUP1 PUSH4 0x4838B5B6 EQ PUSH2 0x326 JUMPI DUP1 PUSH4 0x4DE5120E EQ PUSH2 0x321 JUMPI DUP1 PUSH4 0x530E784F EQ PUSH2 0x31C JUMPI DUP1 PUSH4 0x54349ED0 EQ PUSH2 0x317 JUMPI DUP1 PUSH4 0x63A599A4 EQ PUSH2 0x312 JUMPI DUP1 PUSH4 0x6616DE77 EQ PUSH2 0x30D JUMPI DUP1 PUSH4 0x6CA2AA95 EQ PUSH2 0x308 JUMPI DUP1 PUSH4 0x6E2D919F EQ PUSH2 0x303 JUMPI DUP1 PUSH4 0x715018A6 EQ PUSH2 0x2FE JUMPI DUP1 PUSH4 0x7914D864 EQ PUSH2 0x2F9 JUMPI DUP1 PUSH4 0x7994E28A EQ PUSH2 0x2F4 JUMPI DUP1 PUSH4 0x892A51C5 EQ PUSH2 0x2EF JUMPI DUP1 PUSH4 0x8DA5CB5B EQ PUSH2 0x2EA JUMPI DUP1 PUSH4 0x8FA50574 EQ PUSH2 0x2E5 JUMPI DUP1 PUSH4 0x9950E052 EQ PUSH2 0x2E0 JUMPI DUP1 PUSH4 0x9C38944B EQ PUSH2 0x2DB JUMPI DUP1 PUSH4 0xA7FD17F3 EQ PUSH2 0x2D6 JUMPI DUP1 PUSH4 0xAB470715 EQ PUSH2 0x2D1 JUMPI DUP1 PUSH4 0xB135A7F8 EQ PUSH2 0x2CC JUMPI DUP1 PUSH4 0xB5338586 EQ PUSH2 0x2C7 JUMPI DUP1 PUSH4 0xBC00FD67 EQ PUSH2 0x2C2 JUMPI DUP1 PUSH4 0xC0C9B949 EQ PUSH2 0x2BD JUMPI DUP1 PUSH4 0xC59D4847 EQ PUSH2 0x2B8 JUMPI DUP1 PUSH4 0xC5AAE677 EQ PUSH2 0x2B3 JUMPI DUP1 PUSH4 0xCCC470CB EQ PUSH2 0x2AE JUMPI DUP1 PUSH4 0xCCD12CD2 EQ PUSH2 0x2A9 JUMPI DUP1 PUSH4 0xCE11D0AE EQ PUSH2 0x2A4 JUMPI DUP1 PUSH4 0xCE1E2D9E EQ PUSH2 0x29F JUMPI DUP1 PUSH4 0xDB658215 EQ PUSH2 0x29A JUMPI DUP1 PUSH4 0xDFDE44CF EQ PUSH2 0x295 JUMPI DUP1 PUSH4 0xE8497055 EQ PUSH2 0x290 JUMPI DUP1 PUSH4 0xE976D431 EQ PUSH2 0x28B JUMPI DUP1 PUSH4 0xEA02FFAC EQ PUSH2 0x286 JUMPI DUP1 PUSH4 0xEAFCD1AE EQ PUSH2 0x281 JUMPI DUP1 PUSH4 0xF2FDE38B EQ PUSH2 0x27C JUMPI PUSH4 0xF6C9446A SUB PUSH2 0xE JUMPI PUSH2 0x1CF2 JUMP JUMPDEST PUSH2 0x1C2F JUMP JUMPDEST PUSH2 0x1B88 JUMP JUMPDEST PUSH2 0x1AE3 JUMP JUMPDEST PUSH2 0x1AC5 JUMP JUMPDEST PUSH2 0x1A76 JUMP JUMPDEST PUSH2 0x1A3C JUMP JUMPDEST PUSH2 0x1A0E JUMP JUMPDEST PUSH2 0x1966 JUMP JUMPDEST PUSH2 0x16D7 JUMP JUMPDEST PUSH2 0x169D JUMP JUMPDEST PUSH2 0x1620 JUMP JUMPDEST PUSH2 0x1602 JUMP JUMPDEST PUSH2 0x15D3 JUMP JUMPDEST PUSH2 0x1591 JUMP JUMPDEST PUSH2 0x1537 JUMP JUMPDEST PUSH2 0x1516 JUMP JUMPDEST PUSH2 0x14A4 JUMP JUMPDEST PUSH2 0x146A JUMP JUMPDEST PUSH2 0x1412 JUMP JUMPDEST PUSH2 0x1096 JUMP JUMPDEST PUSH2 0xFB7 JUMP JUMPDEST PUSH2 0xF36 JUMP JUMPDEST PUSH2 0xF0D JUMP JUMPDEST PUSH2 0xEEF JUMP JUMPDEST PUSH2 0xED1 JUMP JUMPDEST PUSH2 0xEB3 JUMP JUMPDEST PUSH2 0xE55 JUMP JUMPDEST PUSH2 0xE37 JUMP JUMPDEST PUSH2 0xDC4 JUMP JUMPDEST PUSH2 0xD50 JUMP JUMPDEST PUSH2 0xD2A JUMP JUMPDEST PUSH2 0xD0C JUMP JUMPDEST PUSH2 0xCC9 JUMP JUMPDEST PUSH2 0xC8F JUMP JUMPDEST PUSH2 0xBFD JUMP JUMPDEST PUSH2 0xB89 JUMP JUMPDEST PUSH2 0xB6B JUMP JUMPDEST PUSH2 0xB3F JUMP JUMPDEST PUSH2 0xB21 JUMP JUMPDEST PUSH2 0xB03 JUMP JUMPDEST PUSH2 0xADA JUMP JUMPDEST PUSH2 0xABC JUMP JUMPDEST PUSH2 0xA93 JUMP JUMPDEST PUSH2 0x92F JUMP JUMPDEST PUSH2 0x90E JUMP JUMPDEST PUSH2 0x8AD JUMP JUMPDEST PUSH2 0x880 JUMP JUMPDEST PUSH2 0x7C3 JUMP JUMPDEST PUSH2 0x736 JUMP JUMPDEST PUSH2 0x718 JUMP JUMPDEST PUSH2 0x6BB JUMP JUMPDEST PUSH2 0x476 JUMP JUMPDEST PUSH2 0x40A JUMP JUMPDEST CALLVALUE PUSH2 0x3D9 JUMPI PUSH1 0x0 CALLDATASIZE PUSH1 0x3 NOT ADD SLT PUSH2 0x3D9 JUMPI PUSH2 0x39E PUSH2 0x1D2C JUMP JUMPDEST PUSH1 0xFF PUSH1 0xA0 SHL NOT PUSH1 0x1B SLOAD AND PUSH1 0x1B SSTORE PUSH1 0x40 MLOAD TIMESTAMP DUP2 MSTORE PUSH32 0x6A7365FCD12E17AA9AA076D2D2B88EF9AA06259F908FEA374BCD9B7C5633F857 PUSH1 0x20 CALLER SWAP3 LOG2 STOP JUMPDEST PUSH1 0x0 DUP1 REVERT JUMPDEST PUSH1 0x4 CALLDATALOAD SWAP1 PUSH1 0x1 PUSH1 0x1 PUSH1 0xA0 SHL SUB DUP3 AND DUP3 SUB PUSH2 0x3D9 JUMPI JUMP JUMPDEST PUSH1 0x24 CALLDATALOAD SWAP1 PUSH1 0x1 PUSH1 0x1 PUSH1 0xA0 SHL SUB DUP3 AND DUP3 SUB PUSH2 0x3D9 JUMPI JUMP JUMPDEST CALLVALUE PUSH2 0x3D9 JUMPI PUSH1 0x20 CALLDATASIZE PUSH1 0x3 NOT ADD SLT PUSH2 0x3D9 JUMPI PUSH1 0x1 PUSH1 0x1 PUSH1 0xA0 SHL SUB PUSH2 0x42B PUSH2 0x3DE JUMP JUMPDEST AND PUSH1 0x0 MSTORE PUSH1 0x5 PUSH1 0x20 MSTORE PUSH1 0x20 PUSH1 0x40 PUSH1 0x0 KECCAK256 SLOAD PUSH1 0x14 SLOAD GT ISZERO PUSH1 0x40 MLOAD SWAP1 DUP2 MSTORE RETURN JUMPDEST SWAP2 DUP2 PUSH1 0x1F DUP5 ADD SLT ISZERO PUSH2 0x3D9 JUMPI DUP3 CALLDATALOAD SWAP2 PUSH1 0x1 PUSH1 0x1 PUSH1 0x40 SHL SUB DUP4 GT PUSH2 0x3D9 JUMPI PUSH1 0x20 DUP4 DUP2 DUP7 ADD SWAP6 ADD ADD GT PUSH2 0x3D9 JUMPI JUMP JUMPDEST CALLVALUE PUSH2 0x3D9 JUMPI PUSH1 0xA0 CALLDATASIZE PUSH1 0x3 NOT ADD SLT PUSH2 0x3D9 JUMPI PUSH1 0x4 DUP1 CALLDATALOAD PUSH1 0x24 CALLDATALOAD SWAP2 DUP3 ISZERO ISZERO DUP4 SUB PUSH2 0x3D9 JUMPI PUSH1 0x1 PUSH1 0x1 PUSH1 0x40 SHL SUB SWAP3 PUSH1 0x64 CALLDATALOAD DUP5 DUP2 GT PUSH2 0x3D9 JUMPI PUSH2 0x4B8 SWAP1 CALLDATASIZE SWAP1 DUP5 ADD PUSH2 0x449 JUMP JUMPDEST SWAP3 SWAP1 SWAP5 PUSH1 0x84 CALLDATALOAD SWAP1 DUP2 GT PUSH2 0x3D9 JUMPI PUSH2 0x4D2 SWAP1 CALLDATASIZE SWAP1 DUP4 ADD PUSH2 0x449 JUMP JUMPDEST PUSH1 0x1A SLOAD SWAP2 SWAP7 SWAP1 SWAP5 SWAP2 PUSH1 0x1 PUSH1 0x1 PUSH1 0xA0 SHL SUB AND CALLER SUB PUSH2 0x677 JUMPI PUSH2 0x638 SWAP1 PUSH2 0x520 PUSH2 0x510 DUP6 PUSH2 0x508 DUP11 PUSH1 0x0 MSTORE PUSH1 0x3 PUSH1 0x20 MSTORE PUSH1 0x40 PUSH1 0x0 KECCAK256 SWAP1 JUMP JUMPDEST ADD SLOAD PUSH1 0xFF AND SWAP1 JUMP JUMPDEST PUSH2 0x519 DUP2 PUSH2 0x18AF JUMP JUMPDEST ISZERO ISZERO PUSH2 0x25A5 JUMP JUMPDEST PUSH1 0x40 MLOAD SWAP3 PUSH2 0x5CF PUSH1 0x20 DUP6 ADD DUP6 PUSH2 0x556 CALLER TIMESTAMP DUP14 DUP6 SWAP2 PUSH1 0x54 SWAP4 SWAP2 DUP4 MSTORE PUSH1 0x20 DUP4 ADD MSTORE PUSH1 0x1 PUSH1 0x1 PUSH1 0x60 SHL SUB NOT SWAP1 PUSH1 0x60 SHL AND PUSH1 0x40 DUP3 ADD MSTORE ADD SWAP1 JUMP JUMPDEST SUB SWAP6 PUSH2 0x56A PUSH1 0x1F NOT SWAP8 DUP9 DUP2 ADD DUP4 MSTORE DUP3 PUSH2 0x185B JUMP JUMPDEST MLOAD SWAP1 KECCAK256 PUSH2 0x5CA PUSH2 0x578 PUSH2 0x2985 JUMP JUMPDEST SWAP2 PUSH2 0x581 PUSH2 0x2147 JUMP JUMPDEST DUP11 ISZERO ISZERO DUP2 MSTORE SWAP3 PUSH1 0x44 CALLDATALOAD PUSH1 0x20 DUP6 ADD MSTORE PUSH1 0x40 DUP5 ADD MSTORE PUSH2 0x59F CALLDATASIZE DUP7 DUP9 PUSH2 0x2230 JUMP JUMPDEST PUSH1 0x60 DUP5 ADD MSTORE PUSH2 0x5AF CALLDATASIZE DUP13 DUP16 PUSH2 0x2230 JUMP JUMPDEST PUSH1 0x80 DUP5 ADD MSTORE DUP1 PUSH1 0xA0 DUP5 ADD MSTORE PUSH1 0x0 MSTORE PUSH1 0x7 PUSH1 0x20 MSTORE PUSH1 0x40 PUSH1 0x0 KECCAK256 SWAP1 JUMP JUMPDEST PUSH2 0x29DC JUMP JUMPDEST PUSH2 0x633 PUSH2 0x5E6 DUP10 PUSH1 0x0 MSTORE PUSH1 0x3 PUSH1 0x20 MSTORE PUSH1 0x40 PUSH1 0x0 KECCAK256 SWAP1 JUMP JUMPDEST SWAP5 PUSH1 0x5 DUP7 ADD SWAP3 PUSH2 0x627 PUSH1 0x40 MLOAD SWAP6 DUP7 SWAP3 PUSH2 0x621 PUSH2 0x605 PUSH1 0x20 DUP7 ADD DUP10 PUSH2 0x2847 JUMP JUMPDEST PUSH16 0x103E1020A49020B730B63CB9B4B99D1 PUSH1 0x85 SHL DUP2 MSTORE PUSH1 0x10 ADD SWAP1 JUMP JUMPDEST SWAP2 PUSH2 0x1DC9 JUMP JUMPDEST SUB SWAP1 DUP2 ADD DUP5 MSTORE DUP4 PUSH2 0x185B JUMP JUMPDEST PUSH2 0x1E73 JUMP JUMPDEST DUP3 PUSH2 0x65D JUMPI JUMPDEST POP POP PUSH2 0x646 JUMPI STOP JUMPDEST PUSH2 0x65B SWAP3 PUSH2 0x655 SWAP2 CALLDATASIZE SWAP2 PUSH2 0x2230 JUMP JUMPDEST SWAP1 PUSH2 0x3DA5 JUMP JUMPDEST STOP JUMPDEST DUP2 ADD SLOAD SWAP1 SWAP2 POP PUSH1 0xFF AND PUSH2 0x66F DUP2 PUSH2 0x18AF JUMP JUMPDEST EQ CODESIZE DUP1 PUSH2 0x63E JUMP JUMPDEST PUSH1 0x40 MLOAD PUSH3 0x461BCD PUSH1 0xE5 SHL DUP2 MSTORE PUSH1 0x20 DUP2 DUP6 ADD MSTORE PUSH1 0x17 PUSH1 0x24 DUP3 ADD MSTORE PUSH32 0x4F6E6C79204149204F7261636C652063616E2063616C6C000000000000000000 PUSH1 0x44 DUP3 ADD MSTORE PUSH1 0x64 SWAP1 REVERT JUMPDEST CALLVALUE PUSH2 0x3D9 JUMPI PUSH1 0x20 CALLDATASIZE PUSH1 0x3 NOT ADD SLT PUSH2 0x3D9 JUMPI PUSH1 0x4 CALLDATALOAD PUSH2 0x6D7 PUSH2 0x1D2C JUMP JUMPDEST DUP1 ISZERO PUSH2 0x6E2 JUMPI PUSH1 0x18 SSTORE STOP JUMPDEST PUSH1 0x40 MLOAD PUSH3 0x461BCD PUSH1 0xE5 SHL DUP2 MSTORE PUSH1 0x20 PUSH1 0x4 DUP3 ADD MSTORE PUSH1 0xE PUSH1 0x24 DUP3 ADD MSTORE PUSH14 0x496E76616C69642077696E646F77 PUSH1 0x90 SHL PUSH1 0x44 DUP3 ADD MSTORE PUSH1 0x64 SWAP1 REVERT JUMPDEST CALLVALUE PUSH2 0x3D9 JUMPI PUSH1 0x0 CALLDATASIZE PUSH1 0x3 NOT ADD SLT PUSH2 0x3D9 JUMPI PUSH1 0x20 PUSH1 0x18 SLOAD PUSH1 0x40 MLOAD SWAP1 DUP2 MSTORE RETURN JUMPDEST CALLVALUE PUSH2 0x3D9 JUMPI PUSH1 0x20 CALLDATASIZE PUSH1 0x3 NOT ADD SLT PUSH2 0x3D9 JUMPI PUSH2 0x74F PUSH2 0x3DE JUMP JUMPDEST PUSH2 0x757 PUSH2 0x1D2C JUMP JUMPDEST PUSH1 0x1 PUSH1 0x1 PUSH1 0xA0 SHL SUB AND DUP1 ISZERO PUSH2 0x77E JUMPI PUSH1 0x1 PUSH1 0x1 PUSH1 0x60 SHL SUB PUSH1 0xA0 SHL PUSH1 0x1A SLOAD AND OR PUSH1 0x1A SSTORE PUSH1 0x0 DUP1 RETURN JUMPDEST PUSH1 0x40 MLOAD PUSH3 0x461BCD PUSH1 0xE5 SHL DUP2 MSTORE PUSH1 0x20 PUSH1 0x4 DUP3 ADD MSTORE PUSH1 0x19 PUSH1 0x24 DUP3 ADD MSTORE PUSH32 0x496E76616C6964204149204F7261636C65206164647265737300000000000000 PUSH1 0x44 DUP3 ADD MSTORE PUSH1 0x64 SWAP1 REVERT JUMPDEST CALLVALUE PUSH2 0x3D9 JUMPI PUSH1 0x20 CALLDATASIZE PUSH1 0x3 NOT ADD SLT PUSH2 0x3D9 JUMPI PUSH1 0x1 PUSH1 0x1 PUSH1 0xA0 SHL SUB PUSH2 0x7E4 PUSH2 0x3DE JUMP JUMPDEST AND PUSH1 0x0 MSTORE PUSH1 0xB PUSH1 0x20 MSTORE PUSH1 0x20 PUSH1 0x40 PUSH1 0x0 KECCAK256 SLOAD PUSH1 0x40 MLOAD SWAP1 DUP2 MSTORE RETURN JUMPDEST SWAP1 PUSH1 0x40 PUSH1 0x3 NOT DUP4 ADD SLT PUSH2 0x3D9 JUMPI PUSH1 0x4 CALLDATALOAD PUSH1 0x1 PUSH1 0x1 PUSH1 0xA0 SHL SUB DUP2 AND DUP2 SUB PUSH2 0x3D9 JUMPI SWAP2 PUSH1 0x24 CALLDATALOAD SWAP1 PUSH1 0x1 PUSH1 0x1 PUSH1 0x40 SHL SUB DUP3 GT PUSH2 0x3D9 JUMPI PUSH2 0x83C SWAP2 PUSH1 0x4 ADD PUSH2 0x449 JUMP JUMPDEST SWAP1 SWAP2 JUMP JUMPDEST SWAP2 SWAP1 DUP3 MLOAD SWAP3 DUP4 DUP3 MSTORE PUSH1 0x0 JUMPDEST DUP5 DUP2 LT PUSH2 0x86C JUMPI POP POP DUP3 PUSH1 0x0 PUSH1 0x20 DUP1 SWAP5 SWAP6 DUP5 ADD ADD MSTORE PUSH1 0x1F DUP1 NOT SWAP2 ADD AND ADD ADD SWAP1 JUMP JUMPDEST PUSH1 0x20 DUP2 DUP4 ADD DUP2 ADD MLOAD DUP5 DUP4 ADD DUP3 ADD MSTORE ADD PUSH2 0x84B JUMP JUMPDEST PUSH2 0x8A9 PUSH2 0x895 PUSH2 0x88F CALLDATASIZE PUSH2 0x7FD JUMP JUMPDEST SWAP2 PUSH2 0x2267 JUMP JUMPDEST PUSH1 0x40 MLOAD SWAP2 DUP3 SWAP2 PUSH1 0x20 DUP4 MSTORE PUSH1 0x20 DUP4 ADD SWAP1 PUSH2 0x840 JUMP JUMPDEST SUB SWAP1 RETURN JUMPDEST CALLVALUE PUSH2 0x3D9 JUMPI PUSH1 0x20 CALLDATASIZE PUSH1 0x3 NOT ADD SLT PUSH2 0x3D9 JUMPI PUSH1 0x80 PUSH1 0x1 PUSH1 0x1 PUSH1 0xA0 SHL SUB DUP1 PUSH2 0x8D1 PUSH2 0x3DE JUMP JUMPDEST AND PUSH1 0x0 MSTORE PUSH1 0x2 PUSH1 0x20 MSTORE PUSH1 0x40 PUSH1 0x0 KECCAK256 DUP1 SLOAD SWAP1 PUSH1 0xFF PUSH1 0x2 PUSH1 0x1 DUP4 ADD SLOAD SWAP3 ADD SLOAD SWAP3 PUSH1 0x40 MLOAD SWAP5 DUP2 AND DUP6 MSTORE PUSH1 0xA0 SHR AND ISZERO ISZERO PUSH1 0x20 DUP5 ADD MSTORE PUSH1 0x40 DUP4 ADD MSTORE PUSH1 0x60 DUP3 ADD MSTORE RETURN JUMPDEST CALLVALUE PUSH2 0x3D9 JUMPI PUSH1 0x20 CALLDATASIZE PUSH1 0x3 NOT ADD SLT PUSH2 0x3D9 JUMPI PUSH2 0x927 PUSH2 0x1D2C JUMP JUMPDEST PUSH1 0x4 CALLDATALOAD PUSH1 0x17 SSTORE STOP JUMPDEST CALLVALUE PUSH2 0x3D9 JUMPI PUSH1 0x40 CALLDATASIZE PUSH1 0x3 NOT ADD SLT PUSH2 0x3D9 JUMPI PUSH2 0x948 PUSH2 0x3DE JUMP JUMPDEST PUSH1 0x24 CALLDATALOAD SWAP1 PUSH2 0x954 PUSH2 0x1D2C JUMP JUMPDEST PUSH1 0x1 PUSH1 0x1 PUSH1 0xA0 SHL SUB DUP2 AND SWAP1 DUP2 ISZERO PUSH2 0xA4E JUMPI PUSH2 0xA08 SWAP1 PUSH1 0x1 DUP5 LT ISZERO DUP1 PUSH2 0xA43 JUMPI JUMPDEST PUSH2 0x97D SWAP1 PUSH2 0x2559 JUMP JUMPDEST PUSH2 0x9C0 PUSH2 0x988 PUSH2 0x20FC JUMP JUMPDEST PUSH1 0x1 PUSH1 0x1 PUSH1 0xA0 SHL SUB DUP4 AND DUP2 MSTORE SWAP2 PUSH1 0x1 PUSH1 0x20 DUP5 ADD MSTORE DUP6 PUSH1 0x40 DUP5 ADD MSTORE TIMESTAMP PUSH1 0x60 DUP5 ADD MSTORE PUSH1 0x1 DUP1 PUSH1 0xA0 SHL SUB AND PUSH1 0x0 MSTORE PUSH1 0x2 PUSH1 0x20 MSTORE PUSH1 0x40 PUSH1 0x0 KECCAK256 SWAP1 JUMP JUMPDEST DUP2 MLOAD DUP2 SLOAD PUSH1 0x20 DUP5 ADD MLOAD PUSH1 0x1 PUSH1 0x1 PUSH1 0xA0 SHL SUB SWAP1 SWAP3 AND PUSH1 0x1 PUSH1 0x1 PUSH1 0xA8 SHL SUB NOT SWAP1 SWAP2 AND OR SWAP1 ISZERO ISZERO PUSH1 0xA0 SHL PUSH1 0xFF PUSH1 0xA0 SHL AND OR DUP2 SSTORE PUSH1 0x40 DUP3 ADD MLOAD PUSH1 0x1 DUP3 ADD SSTORE PUSH1 0x60 SWAP1 SWAP2 ADD MLOAD PUSH1 0x2 SWAP1 SWAP2 ADD SSTORE JUMP JUMPDEST PUSH1 0x40 DUP1 MLOAD SWAP3 DUP4 MSTORE TIMESTAMP PUSH1 0x20 DUP5 ADD MSTORE CALLER SWAP3 PUSH32 0xA8EEBF5927F6D87370415763214ABCD978F4075F38446ADF78D8B4CCAF33944D SWAP2 DUP2 SWAP1 DUP2 ADD JUMPDEST SUB SWAP1 LOG3 STOP JUMPDEST POP PUSH1 0x5 DUP5 GT ISZERO PUSH2 0x974 JUMP JUMPDEST PUSH1 0x40 MLOAD PUSH3 0x461BCD PUSH1 0xE5 SHL DUP2 MSTORE PUSH1 0x20 PUSH1 0x4 DUP3 ADD MSTORE PUSH1 0x18 PUSH1 0x24 DUP3 ADD MSTORE PUSH32 0x496E76616C696420636F6E747261637420616464726573730000000000000000 PUSH1 0x44 DUP3 ADD MSTORE PUSH1 0x64 SWAP1 REVERT JUMPDEST CALLVALUE PUSH2 0x3D9 JUMPI PUSH1 0x0 CALLDATASIZE PUSH1 0x3 NOT ADD SLT PUSH2 0x3D9 JUMPI PUSH1 0x1B SLOAD PUSH1 0x40 MLOAD PUSH1 0x1 PUSH1 0x1 PUSH1 0xA0 SHL SUB SWAP1 SWAP2 AND DUP2 MSTORE PUSH1 0x20 SWAP1 RETURN JUMPDEST CALLVALUE PUSH2 0x3D9 JUMPI PUSH1 0x0 CALLDATASIZE PUSH1 0x3 NOT ADD SLT PUSH2 0x3D9 JUMPI PUSH1 0x20 PUSH1 0xE SLOAD PUSH1 0x40 MLOAD SWAP1 DUP2 MSTORE RETURN JUMPDEST CALLVALUE PUSH2 0x3D9 JUMPI PUSH1 0x0 CALLDATASIZE PUSH1 0x3 NOT ADD SLT PUSH2 0x3D9 JUMPI PUSH1 0x1A SLOAD PUSH1 0x40 MLOAD PUSH1 0x1 PUSH1 0x1 PUSH1 0xA0 SHL SUB SWAP1 SWAP2 AND DUP2 MSTORE PUSH1 0x20 SWAP1 RETURN JUMPDEST CALLVALUE PUSH2 0x3D9 JUMPI PUSH1 0x0 CALLDATASIZE PUSH1 0x3 NOT ADD SLT PUSH2 0x3D9 JUMPI PUSH1 0x20 PUSH1 0x10 SLOAD PUSH1 0x40 MLOAD SWAP1 DUP2 MSTORE RETURN JUMPDEST CALLVALUE PUSH2 0x3D9 JUMPI PUSH1 0x0 CALLDATASIZE PUSH1 0x3 NOT ADD SLT PUSH2 0x3D9 JUMPI PUSH1 0x20 PUSH1 0x16 SLOAD PUSH1 0x40 MLOAD SWAP1 DUP2 MSTORE RETURN JUMPDEST CALLVALUE PUSH2 0x3D9 JUMPI PUSH1 0x20 CALLDATASIZE PUSH1 0x3 NOT ADD SLT PUSH2 0x3D9 JUMPI PUSH1 0x4 CALLDATALOAD PUSH2 0xB5B PUSH2 0x1D2C JUMP JUMPDEST PUSH2 0xB66 DUP2 ISZERO ISZERO PUSH2 0x2945 JUMP JUMPDEST PUSH1 0x15 SSTORE STOP JUMPDEST CALLVALUE PUSH2 0x3D9 JUMPI PUSH1 0x0 CALLDATASIZE PUSH1 0x3 NOT ADD SLT PUSH2 0x3D9 JUMPI PUSH1 0x20 PUSH1 0x11 SLOAD PUSH1 0x40 MLOAD SWAP1 DUP2 MSTORE RETURN JUMPDEST CALLVALUE PUSH2 0x3D9 JUMPI PUSH1 0x20 CALLDATASIZE PUSH1 0x3 NOT ADD SLT PUSH2 0x3D9 JUMPI PUSH1 0x4 CALLDATALOAD PUSH2 0xBA5 PUSH2 0x1D2C JUMP JUMPDEST DUP1 ISZERO ISZERO DUP1 PUSH2 0xBF2 JUMPI JUMPDEST ISZERO PUSH2 0xBB8 JUMPI PUSH1 0x13 SSTORE STOP JUMPDEST PUSH1 0x40 MLOAD PUSH3 0x461BCD PUSH1 0xE5 SHL DUP2 MSTORE PUSH1 0x20 PUSH1 0x4 DUP3 ADD MSTORE PUSH1 0x12 PUSH1 0x24 DUP3 ADD MSTORE PUSH18 0x92DCECC2D8D2C840C6C2D8D840C8CAE0E8D PUSH1 0x73 SHL PUSH1 0x44 DUP3 ADD MSTORE PUSH1 0x64 SWAP1 REVERT JUMPDEST POP PUSH1 0xA DUP2 GT ISZERO PUSH2 0xBAE JUMP JUMPDEST CALLVALUE PUSH2 0x3D9 JUMPI PUSH1 0x20 CALLDATASIZE PUSH1 0x3 NOT ADD SLT PUSH2 0x3D9 JUMPI PUSH2 0xC16 PUSH2 0x3DE JUMP JUMPDEST PUSH2 0xC1E PUSH2 0x1D2C JUMP JUMPDEST PUSH1 0x1 PUSH1 0x1 PUSH1 0xA0 SHL SUB AND PUSH1 0x0 DUP2 DUP2 MSTORE PUSH1 0x2 PUSH1 0x20 MSTORE PUSH1 0x40 DUP2 KECCAK256 SLOAD SWAP1 SWAP2 SWAP1 PUSH2 0xC48 SWAP1 PUSH1 0xA0 SHR PUSH1 0xFF AND PUSH2 0x1D84 JUMP JUMPDEST DUP1 DUP3 MSTORE PUSH1 0x2 PUSH1 0x20 SWAP1 DUP2 MSTORE PUSH1 0x40 DUP1 DUP5 KECCAK256 DUP1 SLOAD PUSH1 0xFF PUSH1 0xA0 SHL NOT AND SWAP1 SSTORE MLOAD TIMESTAMP DUP2 MSTORE CALLER SWAP3 SWAP2 PUSH32 0xD2F536EB2CD870954219B9D794C2AAEF19134127E1C44017E1037B9A49B56369 SWAP2 LOG3 DUP1 RETURN JUMPDEST CALLVALUE PUSH2 0x3D9 JUMPI PUSH1 0x20 CALLDATASIZE PUSH1 0x3 NOT ADD SLT PUSH2 0x3D9 JUMPI PUSH1 0x1 PUSH1 0x1 PUSH1 0xA0 SHL SUB PUSH2 0xCB0 PUSH2 0x3DE JUMP JUMPDEST AND PUSH1 0x0 MSTORE PUSH1 0xD PUSH1 0x20 MSTORE PUSH1 0x20 PUSH1 0x40 PUSH1 0x0 KECCAK256 SLOAD PUSH1 0x40 MLOAD SWAP1 DUP2 MSTORE RETURN JUMPDEST CALLVALUE PUSH2 0x3D9 JUMPI PUSH1 0x20 CALLDATASIZE PUSH1 0x3 NOT ADD SLT PUSH2 0x3D9 JUMPI PUSH2 0xCE2 PUSH2 0x3DE JUMP JUMPDEST PUSH2 0xCEA PUSH2 0x1D2C JUMP JUMPDEST PUSH1 0x1B DUP1 SLOAD PUSH1 0x1 PUSH1 0x1 PUSH1 0xA0 SHL SUB NOT AND PUSH1 0x1 PUSH1 0x1 PUSH1 0xA0 SHL SUB SWAP3 SWAP1 SWAP3 AND SWAP2 SWAP1 SWAP2 OR SWAP1 SSTORE STOP JUMPDEST CALLVALUE PUSH2 0x3D9 JUMPI PUSH1 0x0 CALLDATASIZE PUSH1 0x3 NOT ADD SLT PUSH2 0x3D9 JUMPI PUSH1 0x20 PUSH1 0x14 SLOAD PUSH1 0x40 MLOAD SWAP1 DUP2 MSTORE RETURN JUMPDEST CALLVALUE PUSH2 0x3D9 JUMPI PUSH1 0x0 CALLDATASIZE PUSH1 0x3 NOT ADD SLT PUSH2 0x3D9 JUMPI PUSH1 0x20 PUSH1 0xFF PUSH1 0x1B SLOAD PUSH1 0xA0 SHR AND PUSH1 0x40 MLOAD SWAP1 ISZERO ISZERO DUP2 MSTORE RETURN JUMPDEST CALLVALUE PUSH2 0x3D9 JUMPI PUSH1 0x20 CALLDATASIZE PUSH1 0x3 NOT ADD SLT PUSH2 0x3D9 JUMPI PUSH1 0x4 CALLDATALOAD PUSH2 0xD6C PUSH2 0x1D2C JUMP JUMPDEST DUP1 ISZERO ISZERO DUP1 PUSH2 0xDB9 JUMPI JUMPDEST ISZERO PUSH2 0xD7F JUMPI PUSH1 0x16 SSTORE STOP JUMPDEST PUSH1 0x40 MLOAD PUSH3 0x461BCD PUSH1 0xE5 SHL DUP2 MSTORE PUSH1 0x20 PUSH1 0x4 DUP3 ADD MSTORE PUSH1 0x12 PUSH1 0x24 DUP3 ADD MSTORE PUSH18 0x24B73B30B634B21036BAB63A34B83634B2B9 PUSH1 0x71 SHL PUSH1 0x44 DUP3 ADD MSTORE PUSH1 0x64 SWAP1 REVERT JUMPDEST POP PUSH1 0x64 DUP2 GT ISZERO PUSH2 0xD75 JUMP JUMPDEST CALLVALUE PUSH2 0x3D9 JUMPI PUSH1 0x20 CALLDATASIZE PUSH1 0x3 NOT ADD SLT PUSH2 0x3D9 JUMPI PUSH1 0x4 CALLDATALOAD PUSH2 0xDE0 PUSH2 0x1D2C JUMP JUMPDEST DUP1 ISZERO ISZERO DUP1 PUSH2 0xE2B JUMPI JUMPDEST ISZERO PUSH2 0xDF3 JUMPI PUSH1 0x11 SSTORE STOP JUMPDEST PUSH1 0x40 MLOAD PUSH3 0x461BCD PUSH1 0xE5 SHL DUP2 MSTORE PUSH1 0x20 PUSH1 0x4 DUP3 ADD MSTORE PUSH1 0x10 PUSH1 0x24 DUP3 ADD MSTORE PUSH16 0x24B73B30B634B210323AB930BA34B7B7 PUSH1 0x81 SHL PUSH1 0x44 DUP3 ADD MSTORE PUSH1 0x64 SWAP1 REVERT JUMPDEST POP PUSH2 0x3E8 DUP2 GT ISZERO PUSH2 0xDE9 JUMP JUMPDEST CALLVALUE PUSH2 0x3D9 JUMPI PUSH1 0x0 CALLDATASIZE PUSH1 0x3 NOT ADD SLT PUSH2 0x3D9 JUMPI PUSH1 0x20 PUSH1 0xF SLOAD PUSH1 0x40 MLOAD SWAP1 DUP2 MSTORE RETURN JUMPDEST CALLVALUE PUSH2 0x3D9 JUMPI PUSH1 0x0 DUP1 PUSH1 0x3 NOT CALLDATASIZE ADD SLT PUSH2 0xEB0 JUMPI PUSH2 0xE6F PUSH2 0x1D2C JUMP JUMPDEST DUP1 SLOAD PUSH1 0x1 PUSH1 0x1 PUSH1 0xA0 SHL SUB NOT DUP2 AND DUP3 SSTORE DUP2 SWAP1 PUSH1 0x1 PUSH1 0x1 PUSH1 0xA0 SHL SUB AND PUSH32 0x8BE0079C531659141344CD1FD0A4F28419497F9722A3DAAFE3B4186F6B6457E0 DUP3 DUP1 LOG3 DUP1 RETURN JUMPDEST DUP1 REVERT JUMPDEST CALLVALUE PUSH2 0x3D9 JUMPI PUSH1 0x0 CALLDATASIZE PUSH1 0x3 NOT ADD SLT PUSH2 0x3D9 JUMPI PUSH1 0x20 PUSH1 0x12 SLOAD PUSH1 0x40 MLOAD SWAP1 DUP2 MSTORE RETURN JUMPDEST CALLVALUE PUSH2 0x3D9 JUMPI PUSH1 0x0 CALLDATASIZE PUSH1 0x3 NOT ADD SLT PUSH2 0x3D9 JUMPI PUSH1 0x20 PUSH1 0x13 SLOAD PUSH1 0x40 MLOAD SWAP1 DUP2 MSTORE RETURN JUMPDEST CALLVALUE PUSH2 0x3D9 JUMPI PUSH1 0x0 CALLDATASIZE PUSH1 0x3 NOT ADD SLT PUSH2 0x3D9 JUMPI PUSH1 0x20 PUSH1 0x15 SLOAD PUSH1 0x40 MLOAD SWAP1 DUP2 MSTORE RETURN JUMPDEST CALLVALUE PUSH2 0x3D9 JUMPI PUSH1 0x0 CALLDATASIZE PUSH1 0x3 NOT ADD SLT PUSH2 0x3D9 JUMPI PUSH1 0x0 SLOAD PUSH1 0x40 MLOAD PUSH1 0x1 PUSH1 0x1 PUSH1 0xA0 SHL SUB SWAP1 SWAP2 AND DUP2 MSTORE PUSH1 0x20 SWAP1 RETURN JUMPDEST CALLVALUE PUSH2 0x3D9 JUMPI PUSH1 0x20 CALLDATASIZE PUSH1 0x3 NOT ADD SLT PUSH2 0x3D9 JUMPI PUSH1 0x4 CALLDATALOAD PUSH2 0xF52 PUSH2 0x1D2C JUMP JUMPDEST PUSH2 0xF5D DUP2 ISZERO ISZERO PUSH2 0x2945 JUMP JUMPDEST PUSH1 0x14 SSTORE STOP JUMPDEST SWAP6 SWAP3 PUSH2 0xFA4 SWAP5 SWAP2 PUSH2 0x100 SWAP9 SWAP12 SWAP11 SWAP10 SWAP7 SWAP4 PUSH1 0x1 DUP1 PUSH1 0xA0 SHL SUB DUP1 SWAP3 AND DUP10 MSTORE AND PUSH1 0x20 DUP9 ADD MSTORE PUSH1 0x40 DUP8 ADD MSTORE PUSH1 0x60 DUP7 ADD MSTORE PUSH1 0x80 DUP6 ADD MSTORE PUSH2 0x120 DUP1 PUSH1 0xA0 DUP7 ADD MSTORE DUP5 ADD SWAP1 PUSH2 0x840 JUMP JUMPDEST SWAP6 ISZERO ISZERO PUSH1 0xC0 DUP4 ADD MSTORE ISZERO ISZERO PUSH1 0xE0 DUP3 ADD MSTORE ADD MSTORE JUMP JUMPDEST CALLVALUE PUSH2 0x3D9 JUMPI PUSH1 0x20 CALLDATASIZE PUSH1 0x3 NOT ADD SLT PUSH2 0x3D9 JUMPI PUSH1 0x4 CALLDATALOAD DUP1 PUSH1 0x0 MSTORE PUSH1 0x3 PUSH1 0x20 MSTORE PUSH2 0xFE1 PUSH1 0x40 PUSH1 0x0 KECCAK256 PUSH2 0x2739 JUMP JUMPDEST DUP1 MLOAD PUSH1 0x20 DUP3 ADD MLOAD PUSH1 0x60 DUP4 ADD MLOAD PUSH1 0x80 DUP5 ADD MLOAD PUSH1 0x1 PUSH1 0x1 PUSH1 0xA0 SHL SUB SWAP3 DUP4 AND SWAP6 SWAP4 SWAP1 SWAP3 AND SWAP4 SWAP1 SWAP2 PUSH1 0x5 DUP2 LT ISZERO PUSH2 0x1062 JUMPI PUSH2 0x8A9 SWAP4 PUSH2 0x101B DUP3 PUSH2 0x18AF JUMP JUMPDEST PUSH1 0xA0 DUP4 ADD MLOAD PUSH2 0x1029 DUP2 PUSH2 0x18C6 JUMP JUMPDEST PUSH2 0x1032 DUP2 PUSH2 0x18C6 JUMP JUMPDEST PUSH2 0x1040 PUSH1 0xC0 DUP6 ADD MLOAD SWAP3 PUSH2 0x3F98 JUMP JUMPDEST SWAP3 PUSH2 0x140 PUSH2 0x1052 PUSH2 0x100 DUP8 ADD MLOAD ISZERO ISZERO SWAP1 JUMP JUMPDEST SWAP6 ADD MLOAD SWAP6 PUSH1 0x40 MLOAD SWAP10 DUP11 SWAP10 DUP11 PUSH2 0xF62 JUMP JUMPDEST PUSH2 0x1899 JUMP JUMPDEST SWAP1 PUSH1 0x40 PUSH1 0x3 NOT DUP4 ADD SLT PUSH2 0x3D9 JUMPI PUSH1 0x4 CALLDATALOAD SWAP2 PUSH1 0x24 CALLDATALOAD SWAP1 PUSH1 0x1 PUSH1 0x1 PUSH1 0x40 SHL SUB DUP3 GT PUSH2 0x3D9 JUMPI PUSH2 0x83C SWAP2 PUSH1 0x4 ADD PUSH2 0x449 JUMP JUMPDEST CALLVALUE PUSH2 0x3D9 JUMPI PUSH2 0x10A4 CALLDATASIZE PUSH2 0x1067 JUMP JUMPDEST PUSH2 0x10AF SWAP3 SWAP2 SWAP3 PUSH2 0x1D2C JUMP JUMPDEST PUSH2 0x10CB PUSH2 0x510 PUSH1 0x4 PUSH2 0x508 DUP6 PUSH1 0x0 MSTORE PUSH1 0x3 PUSH1 0x20 MSTORE PUSH1 0x40 PUSH1 0x0 KECCAK256 SWAP1 JUMP JUMPDEST PUSH2 0x10ED PUSH1 0x2 PUSH2 0x10E4 DUP5 PUSH1 0x0 MSTORE PUSH1 0x4 PUSH1 0x20 MSTORE PUSH1 0x40 PUSH1 0x0 KECCAK256 SWAP1 JUMP JUMPDEST ADD SLOAD ISZERO ISZERO PUSH2 0x25E3 JUMP JUMPDEST PUSH2 0x1101 DUP3 PUSH1 0x0 MSTORE PUSH1 0x3 PUSH1 0x20 MSTORE PUSH1 0x40 PUSH1 0x0 KECCAK256 SWAP1 JUMP JUMPDEST SWAP1 PUSH2 0x1116 DUP4 PUSH1 0x0 MSTORE PUSH1 0x4 PUSH1 0x20 MSTORE PUSH1 0x40 PUSH1 0x0 KECCAK256 SWAP1 JUMP JUMPDEST SWAP4 PUSH2 0x1142 PUSH1 0x3 PUSH1 0x4 DUP8 ADD SWAP7 PUSH2 0x1138 DUP9 SLOAD PUSH1 0xFF DUP2 AND ISZERO SWAP1 DUP2 PUSH2 0x1403 JUMPI JUMPDEST POP PUSH2 0x2628 JUMP JUMPDEST ADD SLOAD NUMBER GT ISZERO PUSH2 0x2674 JUMP JUMPDEST PUSH2 0x114D CALLDATASIZE DUP4 DUP4 PUSH2 0x2230 JUMP JUMPDEST SWAP2 DUP3 MLOAD PUSH1 0x20 DUP1 SWAP5 ADD KECCAK256 PUSH2 0x115E PUSH2 0x26B8 JUMP JUMPDEST DUP1 MLOAD SWAP1 DUP6 ADD KECCAK256 SUB PUSH2 0x121A JUMPI POP POP POP PUSH1 0x1 DUP2 ADD DUP1 SLOAD SWAP1 SWAP4 SWAP1 PUSH1 0x0 SWAP1 DUP2 SWAP1 PUSH1 0x1 PUSH1 0x1 PUSH1 0xA0 SHL SUB AND PUSH1 0x40 MLOAD DUP3 DUP2 PUSH2 0x1195 DUP2 PUSH1 0x2 DUP11 ADD PUSH2 0x2847 JUMP JUMPDEST SUB SWAP3 GAS CALL SWAP4 PUSH2 0x11A2 PUSH2 0x28C9 JUMP JUMPDEST SWAP5 PUSH2 0x11A9 JUMPI STOP JUMPDEST PUSH2 0x11ED PUSH2 0xA3E SWAP3 PUSH2 0x11E0 DUP8 PUSH1 0x8 DUP8 PUSH2 0x11DA PUSH1 0x7 PUSH1 0x0 DUP1 MLOAD PUSH1 0x20 PUSH2 0x450E DUP4 CODECOPY DUP2 MLOAD SWAP2 MSTORE SWAP11 ADD PUSH1 0x1 PUSH1 0xFF NOT DUP3 SLOAD AND OR SWAP1 SSTORE JUMP JUMPDEST ADD PUSH2 0x1E73 JUMP JUMPDEST DUP1 SLOAD PUSH1 0xFF NOT AND PUSH1 0x1 OR SWAP1 SSTORE JUMP JUMPDEST PUSH2 0x1200 PUSH2 0x11FB PUSH1 0xF SLOAD PUSH2 0x27F8 JUMP JUMPDEST PUSH1 0xF SSTORE JUMP JUMPDEST SLOAD PUSH1 0x1 PUSH1 0x1 PUSH1 0xA0 SHL SUB SWAP1 DUP2 AND AND SWAP4 PUSH1 0x40 MLOAD SWAP2 DUP3 SWAP2 DUP3 PUSH2 0x28F9 JUMP JUMPDEST PUSH2 0x1229 SWAP6 SWAP3 SWAP4 SWAP6 CALLDATASIZE DUP3 DUP5 PUSH2 0x2230 JUMP JUMPDEST DUP5 DUP2 MLOAD SWAP2 ADD KECCAK256 PUSH2 0x1237 PUSH2 0x26DB JUMP JUMPDEST DUP1 MLOAD SWAP1 DUP7 ADD KECCAK256 SUB PUSH2 0x135A JUMPI POP POP PUSH1 0x0 DUP1 MLOAD PUSH1 0x20 PUSH2 0x450E DUP4 CODECOPY DUP2 MLOAD SWAP2 MSTORE SWAP2 PUSH2 0x1341 PUSH2 0xA3E SWAP3 PUSH2 0x1309 PUSH1 0x1 DUP9 PUSH2 0x1278 PUSH1 0x7 PUSH2 0x1335 SWAP12 ADD PUSH1 0x1 PUSH1 0xFF NOT DUP3 SLOAD AND OR SWAP1 SSTORE JUMP JUMPDEST PUSH2 0x12ED PUSH1 0x40 MLOAD SWAP5 PUSH2 0x12DE DUP7 PUSH2 0x12C1 DUP11 DUP3 ADD PUSH1 0x60 SWAP1 PUSH1 0x20 DUP2 MSTORE PUSH1 0x1D PUSH1 0x20 DUP3 ADD MSTORE PUSH32 0x5472616E73616374696F6E207265766572746564206279206F776E6572000000 PUSH1 0x40 DUP3 ADD MSTORE ADD SWAP1 JUMP JUMPDEST SUB SWAP7 PUSH2 0x12D5 PUSH1 0x1F NOT SWAP9 DUP10 DUP2 ADD DUP4 MSTORE DUP3 PUSH2 0x185B JUMP JUMPDEST PUSH1 0x8 DUP6 ADD PUSH2 0x1E73 JUMP JUMPDEST DUP1 SLOAD PUSH2 0xFF00 NOT AND PUSH2 0x100 OR SWAP1 SSTORE JUMP JUMPDEST PUSH2 0x12FB PUSH2 0x11FB PUSH1 0xF SLOAD PUSH2 0x27F8 JUMP JUMPDEST ADD SLOAD PUSH1 0x1 PUSH1 0x1 PUSH1 0xA0 SHL SUB AND SWAP1 JUMP JUMPDEST SWAP3 PUSH1 0x40 MLOAD SWAP8 DUP9 SWAP2 DUP3 ADD PUSH1 0x60 SWAP1 PUSH1 0x20 DUP2 MSTORE PUSH1 0x8 PUSH1 0x20 DUP3 ADD MSTORE PUSH8 0x14995D995C9D1959 PUSH1 0xC2 SHL PUSH1 0x40 DUP3 ADD MSTORE ADD SWAP1 JUMP JUMPDEST SUB SWAP1 DUP2 ADD DUP8 MSTORE DUP7 PUSH2 0x185B JUMP JUMPDEST PUSH1 0x40 MLOAD PUSH1 0x1 PUSH1 0x1 PUSH1 0xA0 SHL SUB SWAP1 SWAP2 AND SWAP5 SWAP1 SWAP2 DUP3 SWAP2 DUP3 PUSH2 0x2807 JUMP JUMPDEST PUSH2 0x1366 SWAP3 POP CALLDATASIZE SWAP2 PUSH2 0x2230 JUMP JUMPDEST DUP2 DUP2 MLOAD SWAP2 ADD KECCAK256 SWAP1 PUSH2 0x1375 PUSH2 0x26FD JUMP JUMPDEST DUP1 MLOAD SWAP2 ADD KECCAK256 SUB PUSH2 0x13CD JUMPI PUSH2 0x138B PUSH2 0x1391 SWAP3 PUSH2 0x2739 JUMP JUMPDEST SWAP1 PUSH2 0x3CE6 JUMP JUMPDEST PUSH1 0x40 MLOAD PUSH3 0x461BCD PUSH1 0xE5 SHL DUP2 MSTORE PUSH1 0x20 PUSH1 0x4 DUP3 ADD MSTORE PUSH1 0x14 PUSH1 0x24 DUP3 ADD MSTORE PUSH20 0x14DA5B5D5B185D1A5BDB881C995C5D595CDD1959 PUSH1 0x62 SHL PUSH1 0x44 DUP3 ADD MSTORE PUSH1 0x64 SWAP1 REVERT JUMPDEST PUSH1 0x40 MLOAD PUSH3 0x461BCD PUSH1 0xE5 SHL DUP2 MSTORE PUSH1 0x20 PUSH1 0x4 DUP3 ADD MSTORE PUSH1 0xE PUSH1 0x24 DUP3 ADD MSTORE PUSH14 0x24B73B30B634B21030B1BA34B7B7 PUSH1 0x91 SHL PUSH1 0x44 DUP3 ADD MSTORE PUSH1 0x64 SWAP1 REVERT JUMPDEST PUSH1 0xFF SWAP2 POP PUSH1 0x8 SHR AND ISZERO CODESIZE PUSH2 0x1132 JUMP JUMPDEST CALLVALUE PUSH2 0x3D9 JUMPI PUSH1 0x40 CALLDATASIZE PUSH1 0x3 NOT ADD SLT PUSH2 0x3D9 JUMPI PUSH1 0x20 PUSH2 0x1461 PUSH2 0x1430 PUSH2 0x3DE JUMP JUMPDEST PUSH2 0x1438 PUSH2 0x3F4 JUMP JUMPDEST PUSH1 0x1 PUSH1 0x1 PUSH1 0xA0 SHL SUB SWAP2 DUP3 AND PUSH1 0x0 SWAP1 DUP2 MSTORE PUSH1 0x8 DUP6 MSTORE PUSH1 0x40 DUP1 DUP3 KECCAK256 SWAP3 SWAP1 SWAP4 AND DUP2 MSTORE PUSH1 0x20 SWAP2 SWAP1 SWAP2 MSTORE KECCAK256 SWAP1 JUMP JUMPDEST SLOAD PUSH1 0x40 MLOAD SWAP1 DUP2 MSTORE RETURN JUMPDEST CALLVALUE PUSH2 0x3D9 JUMPI PUSH1 0x20 CALLDATASIZE PUSH1 0x3 NOT ADD SLT PUSH2 0x3D9 JUMPI PUSH1 0x1 PUSH1 0x1 PUSH1 0xA0 SHL SUB PUSH2 0x148B PUSH2 0x3DE JUMP JUMPDEST AND PUSH1 0x0 MSTORE PUSH1 0x5 PUSH1 0x20 MSTORE PUSH1 0x20 PUSH1 0x40 PUSH1 0x0 KECCAK256 SLOAD PUSH1 0x40 MLOAD SWAP1 DUP2 MSTORE RETURN JUMPDEST CALLVALUE PUSH2 0x3D9 JUMPI PUSH2 0x14B2 CALLDATASIZE PUSH2 0x1067 JUMP JUMPDEST SWAP1 PUSH1 0x2 PUSH1 0x1 SLOAD EQ PUSH2 0x14D1 JUMPI PUSH2 0x14CB SWAP3 PUSH1 0x2 PUSH1 0x1 SSTORE PUSH2 0x4123 JUMP JUMPDEST PUSH1 0x1 DUP1 SSTORE STOP JUMPDEST PUSH1 0x40 MLOAD PUSH3 0x461BCD PUSH1 0xE5 SHL DUP2 MSTORE PUSH1 0x20 PUSH1 0x4 DUP3 ADD MSTORE PUSH1 0x1F PUSH1 0x24 DUP3 ADD MSTORE PUSH32 0x5265656E7472616E637947756172643A207265656E7472616E742063616C6C00 PUSH1 0x44 DUP3 ADD MSTORE PUSH1 0x64 SWAP1 REVERT JUMPDEST CALLVALUE PUSH2 0x3D9 JUMPI PUSH1 0x20 CALLDATASIZE PUSH1 0x3 NOT ADD SLT PUSH2 0x3D9 JUMPI PUSH2 0x152F PUSH2 0x1D2C JUMP JUMPDEST PUSH1 0x4 CALLDATALOAD PUSH1 0x12 SSTORE STOP JUMPDEST CALLVALUE PUSH2 0x3D9 JUMPI PUSH1 0x20 CALLDATASIZE PUSH1 0x3 NOT ADD SLT PUSH2 0x3D9 JUMPI PUSH1 0x1 PUSH1 0x1 PUSH1 0xA0 SHL SUB PUSH2 0x1558 PUSH2 0x3DE JUMP JUMPDEST AND DUP1 PUSH1 0x0 MSTORE PUSH1 0x2 PUSH1 0x20 MSTORE PUSH2 0x1576 PUSH1 0xFF PUSH1 0x40 PUSH1 0x0 KECCAK256 SLOAD PUSH1 0xA0 SHR AND PUSH2 0x1D84 JUMP JUMPDEST PUSH1 0x0 MSTORE PUSH1 0x2 PUSH1 0x20 MSTORE PUSH1 0x20 PUSH1 0x1 PUSH1 0x40 PUSH1 0x0 KECCAK256 ADD SLOAD PUSH1 0x40 MLOAD SWAP1 DUP2 MSTORE RETURN JUMPDEST CALLVALUE PUSH2 0x3D9 JUMPI PUSH1 0x20 CALLDATASIZE PUSH1 0x3 NOT ADD SLT PUSH2 0x3D9 JUMPI PUSH1 0x1 PUSH1 0x1 PUSH1 0xA0 SHL SUB PUSH2 0x15B2 PUSH2 0x3DE JUMP JUMPDEST AND PUSH1 0x0 MSTORE PUSH1 0x2 PUSH1 0x20 MSTORE PUSH1 0x20 PUSH1 0xFF PUSH1 0x40 PUSH1 0x0 KECCAK256 SLOAD PUSH1 0xA0 SHR AND PUSH1 0x40 MLOAD SWAP1 ISZERO ISZERO DUP2 MSTORE RETURN JUMPDEST CALLVALUE PUSH2 0x3D9 JUMPI PUSH1 0x0 CALLDATASIZE PUSH1 0x3 NOT ADD SLT PUSH2 0x3D9 JUMPI PUSH1 0x60 PUSH1 0xE SLOAD PUSH1 0xF SLOAD PUSH1 0x10 SLOAD SWAP1 PUSH1 0x40 MLOAD SWAP3 DUP4 MSTORE PUSH1 0x20 DUP4 ADD MSTORE PUSH1 0x40 DUP3 ADD MSTORE RETURN JUMPDEST CALLVALUE PUSH2 0x3D9 JUMPI PUSH1 0x0 CALLDATASIZE PUSH1 0x3 NOT ADD SLT PUSH2 0x3D9 JUMPI PUSH1 0x20 PUSH1 0x19 SLOAD PUSH1 0x40 MLOAD SWAP1 DUP2 MSTORE RETURN JUMPDEST CALLVALUE PUSH2 0x3D9 JUMPI PUSH1 0x20 CALLDATASIZE PUSH1 0x3 NOT ADD SLT PUSH2 0x3D9 JUMPI PUSH1 0x4 CALLDATALOAD PUSH1 0x0 MSTORE PUSH1 0x4 PUSH1 0x20 MSTORE PUSH1 0xE0 PUSH1 0x40 PUSH1 0x0 KECCAK256 DUP1 SLOAD SWAP1 PUSH1 0xFF PUSH1 0x1 DUP1 PUSH1 0xA0 SHL SUB PUSH1 0x1 DUP4 ADD SLOAD AND SWAP2 PUSH1 0x2 DUP2 ADD SLOAD PUSH1 0x3 DUP3 ADD SLOAD SWAP1 PUSH1 0x5 PUSH1 0x4 DUP5 ADD SLOAD SWAP4 ADD SLOAD SWAP5 PUSH1 0x40 MLOAD SWAP7 DUP8 MSTORE PUSH1 0x20 DUP8 ADD MSTORE PUSH1 0x40 DUP7 ADD MSTORE PUSH1 0x60 DUP6 ADD MSTORE DUP2 DUP2 AND ISZERO ISZERO PUSH1 0x80 DUP6 ADD MSTORE PUSH1 0x8 SHR AND ISZERO ISZERO PUSH1 0xA0 DUP4 ADD MSTORE PUSH1 0xC0 DUP3 ADD MSTORE RETURN JUMPDEST CALLVALUE PUSH2 0x3D9 JUMPI PUSH1 0x20 CALLDATASIZE PUSH1 0x3 NOT ADD SLT PUSH2 0x3D9 JUMPI PUSH1 0x1 PUSH1 0x1 PUSH1 0xA0 SHL SUB PUSH2 0x16BE PUSH2 0x3DE JUMP JUMPDEST AND PUSH1 0x0 MSTORE PUSH1 0x6 PUSH1 0x20 MSTORE PUSH1 0x20 PUSH1 0x40 PUSH1 0x0 KECCAK256 SLOAD PUSH1 0x40 MLOAD SWAP1 DUP2 MSTORE RETURN JUMPDEST CALLVALUE PUSH2 0x3D9 JUMPI PUSH1 0x20 CALLDATASIZE PUSH1 0x3 NOT ADD SLT PUSH2 0x3D9 JUMPI PUSH1 0x4 CALLDATALOAD PUSH2 0x16F3 PUSH2 0x1D2C JUMP JUMPDEST PUSH2 0x16FE DUP2 ISZERO ISZERO PUSH2 0x2945 JUMP JUMPDEST PUSH1 0x19 SSTORE STOP JUMPDEST SWAP1 PUSH1 0x1 DUP3 DUP2 SHR SWAP3 AND DUP1 ISZERO PUSH2 0x1733 JUMPI JUMPDEST PUSH1 0x20 DUP4 LT EQ PUSH2 0x171D JUMPI JUMP JUMPDEST PUSH4 0x4E487B71 PUSH1 0xE0 SHL PUSH1 0x0 MSTORE PUSH1 0x22 PUSH1 0x4 MSTORE PUSH1 0x24 PUSH1 0x0 REVERT JUMPDEST SWAP2 PUSH1 0x7F AND SWAP2 PUSH2 0x1712 JUMP JUMPDEST SWAP1 PUSH1 0x0 SWAP3 SWAP2 DUP1 SLOAD SWAP2 PUSH2 0x174E DUP4 PUSH2 0x1703 JUMP JUMPDEST SWAP2 DUP3 DUP3 MSTORE PUSH1 0x1 SWAP4 DUP5 DUP2 AND SWAP1 DUP2 PUSH1 0x0 EQ PUSH2 0x17B0 JUMPI POP PUSH1 0x1 EQ PUSH2 0x1770 JUMPI JUMPDEST POP POP POP POP JUMP JUMPDEST SWAP1 SWAP2 SWAP4 SWAP5 POP PUSH1 0x0 MSTORE PUSH1 0x20 SWAP3 DUP4 PUSH1 0x0 KECCAK256 SWAP3 DUP5 PUSH1 0x0 SWAP5 JUMPDEST DUP4 DUP7 LT PUSH2 0x179C JUMPI POP POP POP POP ADD ADD SWAP1 CODESIZE DUP1 DUP1 DUP1 PUSH2 0x176A JUMP JUMPDEST DUP1 SLOAD DUP6 DUP8 ADD DUP4 ADD MSTORE SWAP5 ADD SWAP4 DUP6 SWAP1 DUP3 ADD PUSH2 0x1785 JUMP JUMPDEST SWAP3 SWAP5 POP POP POP PUSH1 0x20 SWAP4 SWAP5 POP PUSH1 0xFF NOT AND DUP4 DUP4 ADD MSTORE ISZERO ISZERO PUSH1 0x5 SHL ADD ADD SWAP1 CODESIZE DUP1 DUP1 DUP1 PUSH2 0x176A JUMP JUMPDEST PUSH4 0x4E487B71 PUSH1 0xE0 SHL PUSH1 0x0 MSTORE PUSH1 0x41 PUSH1 0x4 MSTORE PUSH1 0x24 PUSH1 0x0 REVERT JUMPDEST PUSH2 0x160 DUP2 ADD SWAP1 DUP2 LT PUSH1 0x1 PUSH1 0x1 PUSH1 0x40 SHL SUB DUP3 GT OR PUSH2 0x1805 JUMPI PUSH1 0x40 MSTORE JUMP JUMPDEST PUSH2 0x17D3 JUMP JUMPDEST PUSH1 0x20 DUP2 ADD SWAP1 DUP2 LT PUSH1 0x1 PUSH1 0x1 PUSH1 0x40 SHL SUB DUP3 GT OR PUSH2 0x1805 JUMPI PUSH1 0x40 MSTORE JUMP JUMPDEST PUSH1 0x40 DUP2 ADD SWAP1 DUP2 LT PUSH1 0x1 PUSH1 0x1 PUSH1 0x40 SHL SUB DUP3 GT OR PUSH2 0x1805 JUMPI PUSH1 0x40 MSTORE JUMP JUMPDEST PUSH1 0x60 DUP2 ADD SWAP1 DUP2 LT PUSH1 0x1 PUSH1 0x1 PUSH1 0x40 SHL SUB DUP3 GT OR PUSH2 0x1805 JUMPI PUSH1 0x40 MSTORE JUMP JUMPDEST SWAP1 PUSH1 0x1F DUP1 NOT SWAP2 ADD AND DUP2 ADD SWAP1 DUP2 LT PUSH1 0x1 PUSH1 0x1 PUSH1 0x40 SHL SUB DUP3 GT OR PUSH2 0x1805 JUMPI PUSH1 0x40 MSTORE JUMP JUMPDEST SWAP1 PUSH2 0x1897 PUSH2 0x1890 SWAP3 PUSH1 0x40 MLOAD SWAP4 DUP5 DUP1 SWAP3 PUSH2 0x173D JUMP JUMPDEST SUB DUP4 PUSH2 0x185B JUMP JUMPDEST JUMP JUMPDEST PUSH4 0x4E487B71 PUSH1 0xE0 SHL PUSH1 0x0 MSTORE PUSH1 0x21 PUSH1 0x4 MSTORE PUSH1 0x24 PUSH1 0x0 REVERT JUMPDEST PUSH1 0x5 GT ISZERO PUSH2 0x1062 JUMPI JUMP JUMPDEST SWAP1 PUSH1 0x5 DUP3 LT ISZERO PUSH2 0x1062 JUMPI MSTORE JUMP JUMPDEST PUSH1 0xD GT ISZERO PUSH2 0x1062 JUMPI JUMP JUMPDEST SWAP1 PUSH1 0xD DUP3 LT ISZERO PUSH2 0x1062 JUMPI MSTORE JUMP JUMPDEST SWAP12 SWAP11 SWAP10 SWAP6 PUSH2 0x192E PUSH2 0x140 SWAP11 SWAP7 PUSH1 0x80 DUP16 PUSH2 0x1921 PUSH2 0x1945 SWAP10 SWAP9 PUSH2 0x1938 SWAP8 PUSH2 0x1961 SWAP16 SWAP15 SWAP10 PUSH1 0x1 DUP1 PUSH1 0xA0 SHL SUB DUP1 SWAP3 AND DUP6 MSTORE AND PUSH1 0x20 DUP5 ADD MSTORE PUSH2 0x160 DUP1 PUSH1 0x40 DUP6 ADD MSTORE DUP4 ADD SWAP1 PUSH2 0x840 JUMP JUMPDEST SWAP8 PUSH1 0x60 DUP3 ADD MSTORE ADD SWAP1 PUSH2 0x18B9 JUMP JUMPDEST PUSH1 0xA0 DUP14 ADD SWAP1 PUSH2 0x18D0 JUMP JUMPDEST DUP11 DUP3 SUB PUSH1 0xC0 DUP13 ADD MSTORE PUSH2 0x840 JUMP JUMPDEST SWAP3 PUSH1 0xE0 DUP10 ADD MSTORE ISZERO ISZERO PUSH2 0x100 DUP9 ADD MSTORE DUP7 DUP3 SUB PUSH2 0x120 DUP9 ADD MSTORE PUSH2 0x840 JUMP JUMPDEST SWAP4 ADD MSTORE JUMP JUMPDEST CALLVALUE PUSH2 0x3D9 JUMPI PUSH1 0x20 CALLDATASIZE PUSH1 0x3 NOT ADD SLT PUSH2 0x3D9 JUMPI PUSH1 0x4 CALLDATALOAD PUSH1 0x0 MSTORE PUSH1 0x3 PUSH1 0x20 MSTORE PUSH1 0x40 PUSH1 0x0 KECCAK256 PUSH1 0x1 DUP1 PUSH1 0xA0 SHL SUB PUSH2 0x8A9 DUP2 DUP4 SLOAD AND SWAP2 PUSH1 0x1 DUP5 ADD SLOAD AND SWAP2 PUSH1 0x40 MLOAD SWAP4 PUSH2 0x19B9 DUP6 PUSH2 0x19B2 DUP2 PUSH1 0x2 DUP6 ADD PUSH2 0x173D JUMP JUMPDEST SUB DUP7 PUSH2 0x185B JUMP JUMPDEST PUSH1 0x3 DUP2 ADD SLOAD SWAP2 PUSH1 0x4 DUP3 ADD SLOAD PUSH2 0x19D0 PUSH1 0x5 DUP5 ADD PUSH2 0x187C JUMP JUMPDEST PUSH1 0x6 DUP5 ADD SLOAD SWAP2 PUSH2 0x19E4 PUSH1 0x7 DUP7 ADD SLOAD PUSH1 0xFF AND SWAP1 JUMP JUMPDEST SWAP4 PUSH1 0x9 PUSH2 0x19F3 PUSH1 0x8 DUP9 ADD PUSH2 0x187C JUMP JUMPDEST SWAP7 ADD SLOAD SWAP7 PUSH1 0x40 MLOAD SWAP11 DUP12 SWAP11 PUSH1 0xFF DUP1 DUP7 PUSH1 0x8 SHR AND SWAP6 AND SWAP4 DUP13 PUSH2 0x18DD JUMP JUMPDEST CALLVALUE PUSH2 0x3D9 JUMPI PUSH1 0x60 PUSH2 0x1A27 PUSH2 0x1A21 CALLDATASIZE PUSH2 0x7FD JUMP JUMPDEST SWAP2 PUSH2 0x3C1E JUMP JUMPDEST SWAP1 PUSH1 0x40 MLOAD SWAP3 ISZERO ISZERO DUP4 MSTORE PUSH1 0x20 DUP4 ADD MSTORE PUSH1 0x40 DUP3 ADD MSTORE RETURN JUMPDEST CALLVALUE PUSH2 0x3D9 JUMPI PUSH1 0x20 CALLDATASIZE PUSH1 0x3 NOT ADD SLT PUSH2 0x3D9 JUMPI PUSH1 0x1 PUSH1 0x1 PUSH1 0xA0 SHL SUB PUSH2 0x1A5D PUSH2 0x3DE JUMP JUMPDEST AND PUSH1 0x0 MSTORE PUSH1 0xC PUSH1 0x20 MSTORE PUSH1 0x20 PUSH1 0x40 PUSH1 0x0 KECCAK256 SLOAD PUSH1 0x40 MLOAD SWAP1 DUP2 MSTORE RETURN JUMPDEST CALLVALUE PUSH2 0x3D9 JUMPI PUSH1 0x40 CALLDATASIZE PUSH1 0x3 NOT ADD SLT PUSH2 0x3D9 JUMPI PUSH1 0x20 PUSH2 0x1461 PUSH2 0x1A94 PUSH2 0x3DE JUMP JUMPDEST PUSH2 0x1A9C PUSH2 0x3F4 JUMP JUMPDEST PUSH1 0x1 PUSH1 0x1 PUSH1 0xA0 SHL SUB SWAP2 DUP3 AND PUSH1 0x0 SWAP1 DUP2 MSTORE PUSH1 0x9 DUP6 MSTORE PUSH1 0x40 DUP1 DUP3 KECCAK256 SWAP3 SWAP1 SWAP4 AND DUP2 MSTORE PUSH1 0x20 SWAP2 SWAP1 SWAP2 MSTORE KECCAK256 SWAP1 JUMP JUMPDEST CALLVALUE PUSH2 0x3D9 JUMPI PUSH1 0x0 CALLDATASIZE PUSH1 0x3 NOT ADD SLT PUSH2 0x3D9 JUMPI PUSH1 0x20 PUSH1 0x17 SLOAD PUSH1 0x40 MLOAD SWAP1 DUP2 MSTORE RETURN JUMPDEST CALLVALUE PUSH2 0x3D9 JUMPI PUSH1 0x20 CALLDATASIZE PUSH1 0x3 NOT ADD SLT PUSH2 0x3D9 JUMPI PUSH1 0x4 CALLDATALOAD PUSH1 0x1 PUSH1 0x1 PUSH1 0x40 SHL SUB DUP2 GT PUSH2 0x3D9 JUMPI PUSH2 0x1B34 PUSH32 0x961D556F025C07DB81E2659D606C508D6496C37B355A276D308068E8FDA3F235 SWAP2 CALLDATASIZE SWAP1 PUSH1 0x4 ADD PUSH2 0x449 JUMP JUMPDEST SWAP2 SWAP1 PUSH2 0x1B3E PUSH2 0x1D2C JUMP JUMPDEST PUSH1 0x1 PUSH1 0xA0 SHL PUSH1 0xFF PUSH1 0xA0 SHL NOT PUSH1 0x1B SLOAD AND OR PUSH1 0x1B SSTORE DUP3 PUSH1 0x40 MLOAD SWAP2 TIMESTAMP DUP4 MSTORE PUSH1 0x40 PUSH1 0x20 DUP5 ADD MSTORE DUP2 PUSH1 0x40 DUP5 ADD MSTORE PUSH1 0x60 DUP4 ADD CALLDATACOPY PUSH1 0x0 PUSH1 0x60 DUP5 DUP4 ADD ADD MSTORE PUSH1 0x60 DUP2 CALLER SWAP5 PUSH1 0x1F DUP1 NOT SWAP2 ADD AND DUP2 ADD SUB ADD SWAP1 LOG2 STOP JUMPDEST CALLVALUE PUSH2 0x3D9 JUMPI PUSH1 0x20 CALLDATASIZE PUSH1 0x3 NOT ADD SLT PUSH2 0x3D9 JUMPI PUSH1 0x4 CALLDATALOAD PUSH1 0x0 MSTORE PUSH1 0x7 PUSH1 0x20 MSTORE PUSH1 0x40 PUSH1 0x0 KECCAK256 PUSH1 0xFF DUP2 SLOAD AND PUSH1 0x1 DUP3 ADD SLOAD SWAP2 PUSH2 0x1C25 PUSH1 0x40 MLOAD SWAP2 PUSH2 0x1BD3 DUP4 PUSH2 0x1BCC DUP2 PUSH1 0x3 DUP6 ADD PUSH2 0x173D JUMP JUMPDEST SUB DUP5 PUSH2 0x185B JUMP JUMPDEST PUSH2 0x1C17 PUSH1 0x5 PUSH1 0x40 MLOAD SWAP3 PUSH2 0x1BF4 DUP5 PUSH2 0x1BED DUP2 PUSH1 0x4 DUP6 ADD PUSH2 0x173D JUMP JUMPDEST SUB DUP6 PUSH2 0x185B JUMP JUMPDEST ADD SLOAD SWAP4 PUSH1 0x40 MLOAD SWAP7 DUP8 SWAP7 ISZERO ISZERO DUP8 MSTORE PUSH1 0x20 DUP8 ADD MSTORE PUSH1 0xA0 PUSH1 0x40 DUP8 ADD MSTORE PUSH1 0xA0 DUP7 ADD SWAP1 PUSH2 0x840 JUMP JUMPDEST SWAP1 DUP5 DUP3 SUB PUSH1 0x60 DUP7 ADD MSTORE PUSH2 0x840 JUMP JUMPDEST SWAP1 PUSH1 0x80 DUP4 ADD MSTORE SUB SWAP1 RETURN JUMPDEST CALLVALUE PUSH2 0x3D9 JUMPI PUSH1 0x20 CALLDATASIZE PUSH1 0x3 NOT ADD SLT PUSH2 0x3D9 JUMPI PUSH2 0x1C48 PUSH2 0x3DE JUMP JUMPDEST PUSH2 0x1C50 PUSH2 0x1D2C JUMP JUMPDEST PUSH1 0x1 PUSH1 0x1 PUSH1 0xA0 SHL SUB SWAP1 DUP2 AND DUP1 ISZERO PUSH2 0x1C9E JUMPI PUSH1 0x0 DUP1 SLOAD PUSH1 0x1 PUSH1 0x1 PUSH1 0xA0 SHL SUB NOT DUP2 AND DUP4 OR DUP3 SSTORE SWAP1 SWAP3 AND PUSH32 0x8BE0079C531659141344CD1FD0A4F28419497F9722A3DAAFE3B4186F6B6457E0 DUP4 DUP1 LOG3 DUP1 RETURN JUMPDEST PUSH1 0x40 MLOAD PUSH3 0x461BCD PUSH1 0xE5 SHL DUP2 MSTORE PUSH1 0x20 PUSH1 0x4 DUP3 ADD MSTORE PUSH1 0x26 PUSH1 0x24 DUP3 ADD MSTORE PUSH32 0x4F776E61626C653A206E6577206F776E657220697320746865207A65726F2061 PUSH1 0x44 DUP3 ADD MSTORE PUSH6 0x646472657373 PUSH1 0xD0 SHL PUSH1 0x64 DUP3 ADD MSTORE PUSH1 0x84 SWAP1 REVERT JUMPDEST CALLVALUE PUSH2 0x3D9 JUMPI PUSH1 0x20 CALLDATASIZE PUSH1 0x3 NOT ADD SLT PUSH2 0x3D9 JUMPI PUSH1 0x1 PUSH1 0x1 PUSH1 0xA0 SHL SUB PUSH2 0x1D13 PUSH2 0x3DE JUMP JUMPDEST AND PUSH1 0x0 MSTORE PUSH1 0xA PUSH1 0x20 MSTORE PUSH1 0x20 PUSH1 0x40 PUSH1 0x0 KECCAK256 SLOAD PUSH1 0x40 MLOAD SWAP1 DUP2 MSTORE RETURN JUMPDEST PUSH1 0x0 SLOAD PUSH1 0x1 PUSH1 0x1 PUSH1 0xA0 SHL SUB AND CALLER SUB PUSH2 0x1D40 JUMPI JUMP JUMPDEST PUSH1 0x64 PUSH1 0x40 MLOAD PUSH3 0x461BCD PUSH1 0xE5 SHL DUP2 MSTORE PUSH1 0x20 PUSH1 0x4 DUP3 ADD MSTORE PUSH1 0x20 PUSH1 0x24 DUP3 ADD MSTORE PUSH32 0x4F776E61626C653A2063616C6C6572206973206E6F7420746865206F776E6572 PUSH1 0x44 DUP3 ADD MSTORE REVERT JUMPDEST ISZERO PUSH2 0x1D8B JUMPI JUMP JUMPDEST PUSH1 0x40 MLOAD PUSH3 0x461BCD PUSH1 0xE5 SHL DUP2 MSTORE PUSH1 0x20 PUSH1 0x4 DUP3 ADD MSTORE PUSH1 0x16 PUSH1 0x24 DUP3 ADD MSTORE PUSH22 0x10DBDB9D1C9858DD081B9BDD081C1C9BDD1958DD1959 PUSH1 0x52 SHL PUSH1 0x44 DUP3 ADD MSTORE PUSH1 0x64 SWAP1 REVERT JUMPDEST SWAP1 DUP1 SWAP3 SWAP2 DUP3 CALLDATACOPY ADD PUSH1 0x0 DUP2 MSTORE SWAP1 JUMP JUMPDEST SWAP2 SWAP3 DUP5 SWAP4 SWAP2 PUSH1 0x88 SWAP9 SWAP7 SWAP8 SWAP6 SWAP3 PUSH1 0x1 PUSH1 0x1 PUSH1 0x60 SHL SUB NOT DUP1 SWAP3 PUSH1 0x60 SHL AND DUP6 MSTORE PUSH1 0x60 SHL AND PUSH1 0x14 DUP5 ADD MSTORE PUSH1 0x28 DUP4 ADD CALLDATACOPY ADD SWAP3 PUSH1 0x28 DUP5 ADD MSTORE PUSH1 0x48 DUP4 ADD MSTORE PUSH1 0x68 DUP3 ADD MSTORE ADD SWAP1 JUMP JUMPDEST DUP2 DUP2 LT PUSH2 0x1E22 JUMPI POP POP JUMP JUMPDEST PUSH1 0x0 DUP2 SSTORE PUSH1 0x1 ADD PUSH2 0x1E17 JUMP JUMPDEST SWAP2 SWAP1 PUSH1 0x1F DUP2 GT PUSH2 0x1E3D JUMPI POP POP POP JUMP JUMPDEST PUSH2 0x1897 SWAP3 PUSH1 0x0 MSTORE PUSH1 0x20 PUSH1 0x0 KECCAK256 SWAP1 PUSH1 0x20 PUSH1 0x1F DUP5 ADD PUSH1 0x5 SHR DUP4 ADD SWAP4 LT PUSH2 0x1E69 JUMPI JUMPDEST PUSH1 0x1F ADD PUSH1 0x5 SHR ADD SWAP1 PUSH2 0x1E17 JUMP JUMPDEST SWAP1 SWAP2 POP DUP2 SWAP1 PUSH2 0x1E5C JUMP JUMPDEST SWAP2 SWAP1 SWAP2 DUP3 MLOAD PUSH1 0x1 PUSH1 0x1 PUSH1 0x40 SHL SUB DUP2 GT PUSH2 0x1805 JUMPI PUSH2 0x1E9A DUP2 PUSH2 0x1E94 DUP5 SLOAD PUSH2 0x1703 JUMP JUMPDEST DUP5 PUSH2 0x1E2E JUMP JUMPDEST PUSH1 0x20 DUP1 PUSH1 0x1F DUP4 GT PUSH1 0x1 EQ PUSH2 0x1ED6 JUMPI POP DUP2 SWAP3 SWAP4 SWAP5 PUSH1 0x0 SWAP3 PUSH2 0x1ECB JUMPI JUMPDEST POP POP DUP2 PUSH1 0x1 SHL SWAP2 PUSH1 0x0 NOT SWAP1 PUSH1 0x3 SHL SHR NOT AND OR SWAP1 SSTORE JUMP JUMPDEST ADD MLOAD SWAP1 POP CODESIZE DUP1 PUSH2 0x1EB5 JUMP JUMPDEST SWAP1 PUSH1 0x1F NOT DUP4 AND SWAP6 PUSH2 0x1EEC DUP6 PUSH1 0x0 MSTORE PUSH1 0x20 PUSH1 0x0 KECCAK256 SWAP1 JUMP JUMPDEST SWAP3 PUSH1 0x0 SWAP1 JUMPDEST DUP9 DUP3 LT PUSH2 0x1F29 JUMPI POP POP DUP4 PUSH1 0x1 SWAP6 SWAP7 SWAP8 LT PUSH2 0x1F10 JUMPI JUMPDEST POP POP POP DUP2 SHL ADD SWAP1 SSTORE JUMP JUMPDEST ADD MLOAD PUSH1 0x0 NOT PUSH1 0xF8 DUP5 PUSH1 0x3 SHL AND SHR NOT AND SWAP1 SSTORE CODESIZE DUP1 DUP1 PUSH2 0x1F06 JUMP JUMPDEST DUP1 PUSH1 0x1 DUP6 SWAP7 DUP3 SWAP5 SWAP7 DUP7 ADD MLOAD DUP2 SSTORE ADD SWAP6 ADD SWAP4 ADD SWAP1 PUSH2 0x1EF1 JUMP JUMPDEST SWAP1 PUSH1 0x5 DUP2 LT ISZERO PUSH2 0x1062 JUMPI PUSH1 0xFF DUP1 NOT DUP4 SLOAD AND SWAP2 AND OR SWAP1 SSTORE JUMP JUMPDEST SWAP1 PUSH1 0xD DUP2 LT ISZERO PUSH2 0x1062 JUMPI DUP2 SLOAD PUSH2 0xFF00 NOT AND PUSH1 0x8 SWAP2 SWAP1 SWAP2 SHL PUSH2 0xFF00 AND OR SWAP1 SSTORE JUMP JUMPDEST DUP2 MLOAD SWAP1 SWAP2 PUSH1 0x9 SWAP2 PUSH2 0x140 SWAP2 SWAP1 PUSH2 0x1FAF SWAP1 PUSH1 0x1 PUSH1 0x1 PUSH1 0xA0 SHL SUB AND JUMPDEST DUP6 SLOAD PUSH1 0x1 PUSH1 0x1 PUSH1 0xA0 SHL SUB NOT AND PUSH1 0x1 PUSH1 0x1 PUSH1 0xA0 SHL SUB SWAP1 SWAP2 AND OR DUP6 SSTORE JUMP JUMPDEST PUSH1 0x20 DUP2 ADD MLOAD PUSH1 0x1 DUP6 ADD DUP1 SLOAD PUSH1 0x1 PUSH1 0x1 PUSH1 0xA0 SHL SUB NOT AND PUSH1 0x1 PUSH1 0x1 PUSH1 0xA0 SHL SUB SWAP1 SWAP3 AND SWAP2 SWAP1 SWAP2 OR SWAP1 SSTORE PUSH2 0x1FE6 PUSH1 0x40 DUP3 ADD MLOAD PUSH1 0x2 DUP7 ADD PUSH2 0x1E73 JUMP JUMPDEST PUSH1 0x60 DUP2 ADD MLOAD PUSH1 0x3 DUP6 ADD SSTORE PUSH2 0x2022 PUSH1 0x4 DUP6 ADD PUSH2 0x200E PUSH1 0x80 DUP5 ADD MLOAD PUSH2 0x2008 DUP2 PUSH2 0x18AF JUMP JUMPDEST DUP3 PUSH2 0x1F41 JUMP JUMPDEST PUSH1 0xA0 DUP4 ADD MLOAD SWAP1 PUSH2 0x201D DUP3 PUSH2 0x18C6 JUMP JUMPDEST PUSH2 0x1F59 JUMP JUMPDEST PUSH2 0x2033 PUSH1 0xC0 DUP3 ADD MLOAD PUSH1 0x5 DUP7 ADD PUSH2 0x1E73 JUMP JUMPDEST PUSH1 0xE0 DUP2 ADD MLOAD PUSH1 0x6 DUP6 ADD SSTORE PUSH2 0x2063 PUSH2 0x204E PUSH2 0x100 DUP4 ADD MLOAD ISZERO ISZERO SWAP1 JUMP JUMPDEST PUSH1 0x7 DUP7 ADD SWAP1 PUSH1 0xFF DUP1 NOT DUP4 SLOAD AND SWAP2 ISZERO ISZERO AND OR SWAP1 SSTORE JUMP JUMPDEST PUSH2 0x2075 PUSH2 0x120 DUP3 ADD MLOAD PUSH1 0x8 DUP7 ADD PUSH2 0x1E73 JUMP JUMPDEST ADD MLOAD SWAP2 ADD SSTORE JUMP JUMPDEST PUSH2 0x2098 SWAP4 SWAP3 PUSH1 0x60 SWAP3 DUP3 MSTORE PUSH1 0x20 DUP3 ADD MSTORE DUP2 PUSH1 0x40 DUP3 ADD MSTORE ADD SWAP1 PUSH2 0x840 JUMP JUMPDEST SWAP1 JUMP JUMPDEST PUSH4 0x4E487B71 PUSH1 0xE0 SHL PUSH1 0x0 MSTORE PUSH1 0x11 PUSH1 0x4 MSTORE PUSH1 0x24 PUSH1 0x0 REVERT JUMPDEST SWAP1 PUSH1 0x1 DUP3 ADD DUP1 SWAP3 GT PUSH2 0x20BF JUMPI JUMP JUMPDEST PUSH2 0x209B JUMP JUMPDEST SWAP2 SWAP1 DUP3 ADD DUP1 SWAP3 GT PUSH2 0x20BF JUMPI JUMP JUMPDEST PUSH2 0x20EF PUSH2 0x2098 SWAP5 SWAP4 PUSH2 0x20E5 DUP4 PUSH1 0x60 SWAP6 PUSH2 0x18B9 JUMP JUMPDEST PUSH1 0x20 DUP4 ADD SWAP1 PUSH2 0x18D0 JUMP JUMPDEST DUP2 PUSH1 0x40 DUP3 ADD MSTORE ADD SWAP1 PUSH2 0x840 JUMP JUMPDEST PUSH1 0x40 MLOAD SWAP1 PUSH1 0x80 DUP3 ADD DUP3 DUP2 LT PUSH1 0x1 PUSH1 0x1 PUSH1 0x40 SHL SUB DUP3 GT OR PUSH2 0x1805 JUMPI PUSH1 0x40 MSTORE JUMP JUMPDEST PUSH1 0x40 MLOAD SWAP1 PUSH1 0xE0 DUP3 ADD DUP3 DUP2 LT PUSH1 0x1 PUSH1 0x1 PUSH1 0x40 SHL SUB DUP3 GT OR PUSH2 0x1805 JUMPI PUSH1 0x40 MSTORE JUMP JUMPDEST PUSH1 0x40 MLOAD SWAP1 PUSH2 0x1897 DUP3 PUSH2 0x17E9 JUMP JUMPDEST PUSH1 0x40 MLOAD SWAP1 PUSH1 0xC0 DUP3 ADD DUP3 DUP2 LT PUSH1 0x1 PUSH1 0x1 PUSH1 0x40 SHL SUB DUP3 GT OR PUSH2 0x1805 JUMPI PUSH1 0x40 MSTORE JUMP JUMPDEST DUP2 MLOAD DUP2 SSTORE PUSH1 0x20 DUP3 ADD MLOAD PUSH1 0x1 DUP3 ADD DUP1 SLOAD PUSH1 0x1 PUSH1 0x1 PUSH1 0xA0 SHL SUB NOT AND PUSH1 0x1 PUSH1 0x1 PUSH1 0xA0 SHL SUB SWAP3 SWAP1 SWAP3 AND SWAP2 SWAP1 SWAP2 OR SWAP1 SSTORE SWAP1 PUSH1 0x5 SWAP1 PUSH1 0xC0 SWAP1 PUSH1 0x40 DUP2 ADD MLOAD PUSH1 0x2 DUP6 ADD SSTORE PUSH1 0x60 DUP2 ADD MLOAD PUSH1 0x3 DUP6 ADD SSTORE PUSH1 0x4 DUP5 ADD PUSH2 0x21CC PUSH1 0x80 DUP4 ADD MLOAD ISZERO ISZERO DUP3 SWAP1 PUSH1 0xFF DUP1 NOT DUP4 SLOAD AND SWAP2 ISZERO ISZERO AND OR SWAP1 SSTORE JUMP JUMPDEST PUSH1 0xA0 DUP3 ADD MLOAD DUP2 SLOAD PUSH2 0xFF00 NOT AND SWAP1 ISZERO ISZERO PUSH1 0x8 SHL PUSH2 0xFF00 AND OR SWAP1 SSTORE ADD MLOAD SWAP2 ADD SSTORE JUMP JUMPDEST SWAP1 DUP2 MSTORE PUSH1 0x40 DUP2 ADD SWAP3 SWAP2 PUSH2 0x1897 SWAP2 PUSH1 0x20 ADD SWAP1 PUSH2 0x18B9 JUMP JUMPDEST PUSH1 0x1 PUSH1 0x1 PUSH1 0x40 SHL SUB DUP2 GT PUSH2 0x1805 JUMPI PUSH1 0x1F ADD PUSH1 0x1F NOT AND PUSH1 0x20 ADD SWAP1 JUMP JUMPDEST PUSH1 0x40 MLOAD SWAP1 PUSH2 0x222A DUP3 PUSH2 0x180A JUMP JUMPDEST PUSH1 0x0 DUP3 MSTORE JUMP JUMPDEST SWAP3 SWAP2 SWAP3 PUSH2 0x223C DUP3 PUSH2 0x2202 JUMP JUMPDEST SWAP2 PUSH2 0x224A PUSH1 0x40 MLOAD SWAP4 DUP5 PUSH2 0x185B JUMP JUMPDEST DUP3 SWAP5 DUP2 DUP5 MSTORE DUP2 DUP4 ADD GT PUSH2 0x3D9 JUMPI DUP3 DUP2 PUSH1 0x20 SWAP4 DUP5 PUSH1 0x0 SWAP7 ADD CALLDATACOPY ADD ADD MSTORE JUMP JUMPDEST SWAP2 PUSH2 0x2299 PUSH2 0x2294 PUSH2 0x228A DUP6 PUSH1 0x1 DUP1 PUSH1 0xA0 SHL SUB AND PUSH1 0x0 MSTORE PUSH1 0x2 PUSH1 0x20 MSTORE PUSH1 0x40 PUSH1 0x0 KECCAK256 SWAP1 JUMP JUMPDEST SLOAD PUSH1 0xA0 SHR PUSH1 0xFF AND SWAP1 JUMP JUMPDEST PUSH2 0x1D84 JUMP JUMPDEST PUSH2 0x22A6 CALLVALUE DUP3 DUP5 CALLER DUP8 PUSH2 0x2E12 JUMP JUMPDEST SWAP2 PUSH1 0x40 MLOAD PUSH1 0x20 DUP2 ADD SWAP1 PUSH2 0x22D2 DUP2 PUSH2 0x22C4 TIMESTAMP NUMBER CALLVALUE DUP10 DUP10 DUP14 CALLER SWAP1 DUP12 PUSH2 0x1DD7 JUMP JUMPDEST SUB PUSH1 0x1F NOT DUP2 ADD DUP4 MSTORE DUP3 PUSH2 0x185B JUMP JUMPDEST MLOAD SWAP1 KECCAK256 SWAP3 PUSH1 0x80 DUP2 ADD DUP1 MLOAD PUSH2 0x22E5 DUP2 PUSH2 0x18AF JUMP JUMPDEST PUSH2 0x22EE DUP2 PUSH2 0x18AF JUMP JUMPDEST PUSH2 0x230C JUMPI JUMPDEST POP POP SWAP3 PUSH2 0x2306 PUSH2 0x2098 SWAP5 CALLVALUE SWAP4 CALLDATASIZE SWAP2 PUSH2 0x2230 JUMP JUMPDEST SWAP1 PUSH2 0x3EB3 JUMP JUMPDEST PUSH2 0x2329 DUP3 PUSH2 0x2324 DUP8 PUSH1 0x0 MSTORE PUSH1 0x3 PUSH1 0x20 MSTORE PUSH1 0x40 PUSH1 0x0 KECCAK256 SWAP1 JUMP JUMPDEST PUSH2 0x1F79 JUMP JUMPDEST PUSH2 0x2333 DUP3 DUP7 PUSH2 0x3F72 JUMP JUMPDEST PUSH1 0x3 DUP2 MLOAD PUSH2 0x2340 DUP2 PUSH2 0x18AF JUMP JUMPDEST PUSH2 0x2349 DUP2 PUSH2 0x18AF JUMP JUMPDEST LT PUSH2 0x24E3 JUMPI JUMPDEST PUSH1 0x3 DUP2 MLOAD PUSH2 0x235C DUP2 PUSH2 0x18AF JUMP JUMPDEST PUSH2 0x2365 DUP2 PUSH2 0x18AF JUMP JUMPDEST LT PUSH2 0x22F3 JUMPI SWAP2 POP SWAP3 SWAP2 POP PUSH2 0x24DB SWAP4 PUSH2 0x2386 PUSH2 0x2381 PUSH1 0xE SLOAD PUSH2 0x20B1 JUMP JUMPDEST PUSH1 0xE SSTORE JUMP JUMPDEST DUP2 MLOAD SWAP1 PUSH2 0x2392 DUP3 PUSH2 0x18AF JUMP JUMPDEST PUSH1 0xA0 DUP6 ADD MLOAD SWAP2 PUSH2 0x23A1 DUP4 PUSH2 0x18C6 JUMP JUMPDEST DUP5 PUSH32 0x7192DA0CA79D523BC321E5C866837BE94B2E471F2C36ECB9B68EDBE473914531 PUSH2 0x23E4 PUSH1 0xC0 DUP10 ADD MLOAD PUSH1 0x40 MLOAD SWAP2 DUP3 SWAP2 PUSH1 0x1 DUP1 PUSH1 0xA0 SHL SUB SWAP9 DUP10 CALLER SWAP10 AND SWAP8 DUP5 PUSH2 0x20D1 JUMP JUMPDEST SUB SWAP1 LOG4 DUP3 PUSH32 0xE158B61799005A0BDE2D74805D7436EC8BD217764D814019E1597B65460E27FC PUSH2 0x2415 PUSH1 0x11 SLOAD NUMBER PUSH2 0x20C4 JUMP JUMPDEST SWAP3 DUP4 PUSH1 0x9 PUSH2 0x242D DUP6 PUSH1 0x0 MSTORE PUSH1 0x3 PUSH1 0x20 MSTORE PUSH1 0x40 PUSH1 0x0 KECCAK256 SWAP1 JUMP JUMPDEST ADD SSTORE DUP7 MLOAD PUSH2 0x2497 SWAP1 PUSH1 0x1 PUSH1 0x1 PUSH1 0xA0 SHL SUB AND PUSH2 0x245E PUSH2 0x2449 PUSH2 0x211B JUMP JUMPDEST DUP7 DUP2 MSTORE PUSH1 0x1 PUSH1 0x1 PUSH1 0xA0 SHL SUB SWAP1 SWAP3 AND PUSH1 0x20 DUP4 ADD MSTORE JUMP JUMPDEST TIMESTAMP PUSH1 0x40 DUP3 ADD MSTORE DUP6 PUSH1 0x60 DUP3 ADD MSTORE PUSH1 0x0 PUSH1 0x80 DUP3 ADD MSTORE PUSH1 0x0 PUSH1 0xA0 DUP3 ADD MSTORE CALLVALUE PUSH1 0xC0 DUP3 ADD MSTORE PUSH2 0x2492 DUP6 PUSH1 0x0 MSTORE PUSH1 0x4 PUSH1 0x20 MSTORE PUSH1 0x40 PUSH1 0x0 KECCAK256 SWAP1 JUMP JUMPDEST PUSH2 0x2166 JUMP JUMPDEST PUSH1 0x20 DUP8 ADD MLOAD PUSH1 0x1 PUSH1 0x1 PUSH1 0xA0 SHL SUB AND DUP8 MLOAD SWAP1 SWAP6 SWAP1 PUSH2 0x24D3 SWAP1 PUSH1 0x1 PUSH1 0x1 PUSH1 0xA0 SHL SUB AND SWAP2 MLOAD PUSH2 0x24C2 DUP2 PUSH2 0x18AF JUMP JUMPDEST DUP4 PUSH1 0x40 MLOAD SWAP5 DUP6 SWAP5 AND SWAP9 AND SWAP7 DUP4 PUSH2 0x21EC JUMP JUMPDEST SUB SWAP1 LOG4 PUSH2 0x3CE6 JUMP JUMPDEST PUSH2 0x2098 PUSH2 0x221D JUMP JUMPDEST DUP6 DUP2 MLOAD PUSH2 0x24EF DUP2 PUSH2 0x18AF JUMP JUMPDEST PUSH2 0x24F8 DUP2 PUSH2 0x18AF JUMP JUMPDEST DUP7 PUSH32 0xEF4C1543ED76A80DA301F342FDF8ED9A402E1FA7270F818FBBC6E22B5E71D47D PUSH1 0xA0 DUP7 ADD MLOAD PUSH2 0x2528 DUP2 PUSH2 0x18C6 JUMP JUMPDEST PUSH2 0x2531 DUP2 PUSH2 0x18C6 JUMP JUMPDEST PUSH1 0xC0 DUP8 ADD MLOAD SWAP1 PUSH2 0x2551 PUSH1 0x40 MLOAD SWAP3 DUP4 SWAP3 CALLER SWAP9 PUSH1 0x1 DUP1 PUSH1 0xA0 SHL SUB AND SWAP8 DUP5 PUSH2 0x207C JUMP JUMPDEST SUB SWAP1 LOG4 PUSH2 0x234F JUMP JUMPDEST ISZERO PUSH2 0x2560 JUMPI JUMP JUMPDEST PUSH1 0x40 MLOAD PUSH3 0x461BCD PUSH1 0xE5 SHL DUP2 MSTORE PUSH1 0x20 PUSH1 0x4 DUP3 ADD MSTORE PUSH1 0x18 PUSH1 0x24 DUP3 ADD MSTORE PUSH32 0x496E76616C69642070726F74656374696F6E206C6576656C0000000000000000 PUSH1 0x44 DUP3 ADD MSTORE PUSH1 0x64 SWAP1 REVERT JUMPDEST ISZERO PUSH2 0x25AC JUMPI JUMP JUMPDEST PUSH1 0x40 MLOAD PUSH3 0x461BCD PUSH1 0xE5 SHL DUP2 MSTORE PUSH1 0x20 PUSH1 0x4 DUP3 ADD MSTORE PUSH1 0xF PUSH1 0x24 DUP3 ADD MSTORE PUSH15 0x139BC81D1A1C99585D08199BDD5B99 PUSH1 0x8A SHL PUSH1 0x44 DUP3 ADD MSTORE PUSH1 0x64 SWAP1 REVERT JUMPDEST ISZERO PUSH2 0x25EA JUMPI JUMP JUMPDEST PUSH1 0x40 MLOAD PUSH3 0x461BCD PUSH1 0xE5 SHL DUP2 MSTORE PUSH1 0x20 PUSH1 0x4 DUP3 ADD MSTORE PUSH1 0x16 PUSH1 0x24 DUP3 ADD MSTORE PUSH22 0x2A3930B739B0B1BA34B7B7103737BA10333937BD32B7 PUSH1 0x51 SHL PUSH1 0x44 DUP3 ADD MSTORE PUSH1 0x64 SWAP1 REVERT JUMPDEST ISZERO PUSH2 0x262F JUMPI JUMP JUMPDEST PUSH1 0x40 MLOAD PUSH3 0x461BCD PUSH1 0xE5 SHL DUP2 MSTORE PUSH1 0x20 PUSH1 0x4 DUP3 ADD MSTORE PUSH1 0x1D PUSH1 0x24 DUP3 ADD MSTORE PUSH32 0x5472616E73616374696F6E20616C72656164792070726F636573736564000000 PUSH1 0x44 DUP3 ADD MSTORE PUSH1 0x64 SWAP1 REVERT JUMPDEST ISZERO PUSH2 0x267B JUMPI JUMP JUMPDEST PUSH1 0x40 MLOAD PUSH3 0x461BCD PUSH1 0xE5 SHL DUP2 MSTORE PUSH1 0x20 PUSH1 0x4 DUP3 ADD MSTORE PUSH1 0x15 PUSH1 0x24 DUP3 ADD MSTORE PUSH21 0x119C99595E99481C195C9A5BD908195E1C1A5C9959 PUSH1 0x5A SHL PUSH1 0x44 DUP3 ADD MSTORE PUSH1 0x64 SWAP1 REVERT JUMPDEST PUSH1 0x40 MLOAD SWAP1 PUSH2 0x26C5 DUP3 PUSH2 0x1825 JUMP JUMPDEST PUSH1 0x7 DUP3 MSTORE PUSH7 0x65786563757465 PUSH1 0xC8 SHL PUSH1 0x20 DUP4 ADD MSTORE JUMP JUMPDEST PUSH1 0x40 MLOAD SWAP1 PUSH2 0x26E8 DUP3 PUSH2 0x1825 JUMP JUMPDEST PUSH1 0x6 DUP3 MSTORE PUSH6 0x1C995D995C9D PUSH1 0xD2 SHL PUSH1 0x20 DUP4 ADD MSTORE JUMP JUMPDEST PUSH1 0x40 MLOAD SWAP1 PUSH2 0x270A DUP3 PUSH2 0x1825 JUMP JUMPDEST PUSH1 0x8 DUP3 MSTORE PUSH8 0x73696D756C617465 PUSH1 0xC0 SHL PUSH1 0x20 DUP4 ADD MSTORE JUMP JUMPDEST PUSH1 0x5 DUP3 LT ISZERO PUSH2 0x1062 JUMPI MSTORE JUMP JUMPDEST PUSH1 0xD DUP3 LT ISZERO PUSH2 0x1062 JUMPI MSTORE JUMP JUMPDEST SWAP1 PUSH1 0x9 PUSH2 0x2744 PUSH2 0x213A JUMP JUMPDEST DUP4 SLOAD PUSH1 0x1 PUSH1 0x1 PUSH1 0xA0 SHL SUB AND DUP2 MSTORE SWAP3 PUSH1 0x1 DUP2 ADD SLOAD PUSH1 0x1 PUSH1 0x1 PUSH1 0xA0 SHL SUB AND PUSH1 0x20 DUP6 ADD MSTORE PUSH2 0x2771 PUSH1 0x2 DUP3 ADD PUSH2 0x187C JUMP JUMPDEST PUSH1 0x40 DUP6 ADD MSTORE PUSH1 0x3 DUP2 ADD SLOAD PUSH1 0x60 DUP6 ADD MSTORE PUSH2 0x27A6 PUSH1 0xFF PUSH1 0x4 DUP4 ADD SLOAD PUSH2 0x2799 DUP3 DUP3 AND PUSH1 0x80 DUP10 ADD PUSH2 0x2721 JUMP JUMPDEST PUSH1 0x8 SHR AND PUSH1 0xA0 DUP7 ADD PUSH2 0x272D JUMP JUMPDEST PUSH2 0x27B2 PUSH1 0x5 DUP3 ADD PUSH2 0x187C JUMP JUMPDEST PUSH1 0xC0 DUP6 ADD MSTORE PUSH1 0x6 DUP2 ADD SLOAD PUSH1 0xE0 DUP6 ADD MSTORE PUSH2 0x27DC PUSH2 0x27D2 PUSH1 0x7 DUP4 ADD SLOAD PUSH1 0xFF AND SWAP1 JUMP JUMPDEST ISZERO ISZERO PUSH2 0x100 DUP7 ADD MSTORE JUMP JUMPDEST PUSH2 0x27E8 PUSH1 0x8 DUP3 ADD PUSH2 0x187C JUMP JUMPDEST PUSH2 0x120 DUP6 ADD MSTORE ADD SLOAD PUSH2 0x140 DUP4 ADD MSTORE JUMP JUMPDEST PUSH1 0x0 NOT DUP2 EQ PUSH2 0x20BF JUMPI PUSH1 0x1 ADD SWAP1 JUMP JUMPDEST SWAP1 PUSH1 0xA0 PUSH2 0x2098 SWAP3 PUSH1 0x1 DUP2 MSTORE PUSH1 0x60 PUSH1 0x20 DUP3 ADD MSTORE PUSH1 0x11 PUSH1 0x60 DUP3 ADD MSTORE PUSH17 0x2932BB32B93A32B210313C9037BBB732B9 PUSH1 0x79 SHL PUSH1 0x80 DUP3 ADD MSTORE DUP2 PUSH1 0x40 DUP3 ADD MSTORE ADD SWAP1 PUSH2 0x840 JUMP JUMPDEST PUSH1 0x0 SWAP3 SWAP2 DUP2 SLOAD PUSH2 0x2856 DUP2 PUSH2 0x1703 JUMP JUMPDEST SWAP3 PUSH1 0x1 SWAP2 DUP1 DUP4 AND SWAP1 DUP2 ISZERO PUSH2 0x28AE JUMPI POP PUSH1 0x1 EQ PUSH2 0x2872 JUMPI POP POP POP POP JUMP JUMPDEST SWAP1 SWAP2 SWAP3 SWAP4 SWAP5 POP PUSH1 0x0 MSTORE PUSH1 0x20 SWAP1 DUP2 PUSH1 0x0 KECCAK256 SWAP1 PUSH1 0x0 SWAP2 JUMPDEST DUP6 DUP4 LT PUSH2 0x289D JUMPI POP POP POP POP ADD SWAP1 CODESIZE DUP1 DUP1 DUP1 PUSH2 0x176A JUMP JUMPDEST DUP1 SLOAD DUP6 DUP5 ADD MSTORE SWAP2 DUP4 ADD SWAP2 DUP2 ADD PUSH2 0x2887 JUMP JUMPDEST PUSH1 0xFF NOT AND DUP5 MSTORE POP POP POP DUP2 ISZERO ISZERO SWAP1 SWAP2 MUL ADD SWAP2 POP CODESIZE DUP1 DUP1 DUP1 PUSH2 0x176A JUMP JUMPDEST RETURNDATASIZE ISZERO PUSH2 0x28F4 JUMPI RETURNDATASIZE SWAP1 PUSH2 0x28DA DUP3 PUSH2 0x2202 JUMP JUMPDEST SWAP2 PUSH2 0x28E8 PUSH1 0x40 MLOAD SWAP4 DUP5 PUSH2 0x185B JUMP JUMPDEST DUP3 MSTORE RETURNDATASIZE PUSH1 0x0 PUSH1 0x20 DUP5 ADD RETURNDATACOPY JUMP JUMPDEST PUSH1 0x60 SWAP1 JUMP JUMPDEST SWAP1 PUSH1 0xA0 PUSH2 0x2098 SWAP3 PUSH1 0x1 DUP2 MSTORE PUSH1 0x60 PUSH1 0x20 DUP3 ADD MSTORE PUSH1 0x1C PUSH1 0x60 DUP3 ADD MSTORE PUSH32 0x45786563757465642077697468206F776E6572206F7665727269646500000000 PUSH1 0x80 DUP3 ADD MSTORE DUP2 PUSH1 0x40 DUP3 ADD MSTORE ADD SWAP1 PUSH2 0x840 JUMP JUMPDEST ISZERO PUSH2 0x294C JUMPI JUMP JUMPDEST PUSH1 0x40 MLOAD PUSH3 0x461BCD PUSH1 0xE5 SHL DUP2 MSTORE PUSH1 0x20 PUSH1 0x4 DUP3 ADD MSTORE PUSH1 0x11 PUSH1 0x24 DUP3 ADD MSTORE PUSH17 0x125B9D985B1A59081D1A1C995CDA1BDB19 PUSH1 0x7A SHL PUSH1 0x44 DUP3 ADD MSTORE PUSH1 0x64 SWAP1 REVERT JUMPDEST PUSH1 0x40 MLOAD PUSH2 0x2991 DUP2 PUSH2 0x180A JUMP JUMPDEST PUSH1 0x0 DUP2 MSTORE SWAP1 PUSH1 0x0 CALLDATASIZE DUP2 CALLDATACOPY JUMP JUMPDEST SWAP1 DUP2 PUSH1 0x1 SHL SWAP2 DUP1 DUP4 DIV PUSH1 0x2 EQ SWAP1 ISZERO OR ISZERO PUSH2 0x20BF JUMPI JUMP JUMPDEST SWAP1 PUSH1 0x5 DUP3 MUL SWAP2 DUP1 DUP4 DIV PUSH1 0x5 EQ SWAP1 ISZERO OR ISZERO PUSH2 0x20BF JUMPI JUMP JUMPDEST DUP2 DUP2 MUL SWAP3 SWAP2 DUP2 ISZERO SWAP2 DUP5 DIV EQ OR ISZERO PUSH2 0x20BF JUMPI JUMP JUMPDEST SWAP1 PUSH2 0x29F6 DUP2 MLOAD ISZERO ISZERO DUP4 SWAP1 PUSH1 0xFF DUP1 NOT DUP4 SLOAD AND SWAP2 ISZERO ISZERO AND OR SWAP1 SSTORE JUMP JUMPDEST PUSH1 0x20 DUP1 DUP3 ADD MLOAD SWAP1 PUSH1 0x1 SWAP2 DUP3 DUP6 ADD SSTORE PUSH1 0x2 DUP5 ADD PUSH1 0x40 DUP5 ADD MLOAD SWAP2 DUP3 MLOAD SWAP3 PUSH1 0x1 PUSH1 0x1 PUSH1 0x40 SHL SUB DUP5 GT PUSH2 0x1805 JUMPI PUSH9 0x10000000000000000 DUP5 GT PUSH2 0x1805 JUMPI DUP2 SWAP1 DUP4 SLOAD DUP6 DUP6 SSTORE DUP1 DUP7 LT PUSH2 0x2A9A JUMPI JUMPDEST POP ADD SWAP2 PUSH1 0x0 MSTORE DUP1 PUSH1 0x0 KECCAK256 SWAP1 PUSH1 0x0 JUMPDEST DUP5 DUP2 LT PUSH2 0x2A80 JUMPI POP POP POP POP POP POP PUSH1 0xA0 DUP2 PUSH2 0x2A6F PUSH1 0x60 PUSH1 0x5 SWAP5 ADD MLOAD PUSH1 0x3 DUP7 ADD PUSH2 0x1E73 JUMP JUMPDEST PUSH2 0x2075 PUSH1 0x80 DUP3 ADD MLOAD PUSH1 0x4 DUP7 ADD PUSH2 0x1E73 JUMP JUMPDEST DUP4 MLOAD PUSH1 0x1 PUSH1 0x1 PUSH1 0xA0 SHL SUB AND DUP4 DUP3 ADD SSTORE SWAP3 DUP2 ADD SWAP3 DUP6 ADD PUSH2 0x2A4C JUMP JUMPDEST PUSH2 0x2AB1 SWAP1 DUP6 PUSH1 0x0 MSTORE DUP7 DUP5 PUSH1 0x0 KECCAK256 SWAP2 DUP3 ADD SWAP2 ADD PUSH2 0x1E17 JUMP JUMPDEST CODESIZE PUSH2 0x2A3E JUMP JUMPDEST PUSH1 0x40 MLOAD SWAP1 PUSH2 0x160 DUP3 ADD DUP3 DUP2 LT PUSH1 0x1 PUSH1 0x1 PUSH1 0x40 SHL SUB DUP3 GT OR PUSH2 0x1805 JUMPI PUSH1 0x40 MSTORE DUP2 PUSH2 0x140 PUSH1 0x0 SWAP2 DUP3 DUP2 MSTORE DUP3 PUSH1 0x20 DUP3 ADD MSTORE PUSH1 0x60 PUSH1 0x40 DUP3 ADD MSTORE DUP3 PUSH1 0x60 DUP3 ADD MSTORE DUP3 PUSH1 0x80 DUP3 ADD MSTORE DUP3 PUSH1 0xA0 DUP3 ADD MSTORE PUSH1 0x60 PUSH1 0xC0 DUP3 ADD MSTORE DUP3 PUSH1 0xE0 DUP3 ADD MSTORE DUP3 PUSH2 0x100 DUP3 ADD MSTORE PUSH1 0x60 PUSH2 0x120 DUP3 ADD MSTORE ADD MSTORE JUMP JUMPDEST PUSH1 0x40 MLOAD SWAP1 PUSH2 0x2B2B DUP3 PUSH2 0x1825 JUMP JUMPDEST PUSH1 0x18 DUP3 MSTORE PUSH32 0x556E757375616C6C792068696768206761732070726963650000000000000000 PUSH1 0x20 DUP4 ADD MSTORE JUMP JUMPDEST PUSH1 0x40 MLOAD SWAP1 PUSH2 0x2B64 DUP3 PUSH2 0x1840 JUMP JUMPDEST PUSH1 0x26 DUP3 MSTORE PUSH6 0x646472657373 PUSH1 0xD0 SHL PUSH1 0x40 DUP4 PUSH32 0x48696768206672657175656E63792063616C6C732066726F6D2073616D652061 PUSH1 0x20 DUP3 ADD MSTORE ADD MSTORE JUMP JUMPDEST PUSH1 0x40 MLOAD SWAP1 PUSH2 0x2BAC DUP3 PUSH2 0x1840 JUMP JUMPDEST PUSH1 0x21 DUP3 MSTORE PUSH1 0x37 PUSH1 0xF9 SHL PUSH1 0x40 DUP4 PUSH32 0x506F737369626C652061636365737320636F6E74726F6C2076696F6C6174696F PUSH1 0x20 DUP3 ADD MSTORE ADD MSTORE JUMP JUMPDEST PUSH1 0x40 MLOAD SWAP1 PUSH2 0x2BEF DUP3 PUSH2 0x1825 JUMP JUMPDEST PUSH1 0x1D DUP3 MSTORE PUSH32 0x556E736166652065787465726E616C2063616C6C206465746563746564000000 PUSH1 0x20 DUP4 ADD MSTORE JUMP JUMPDEST PUSH1 0x40 MLOAD SWAP1 PUSH2 0x2C28 DUP3 PUSH2 0x1825 JUMP JUMPDEST PUSH1 0x1F DUP3 MSTORE PUSH32 0x556E657870656374656420455448207472616E73666572207061747465726E00 PUSH1 0x20 DUP4 ADD MSTORE JUMP JUMPDEST PUSH1 0x40 MLOAD SWAP1 PUSH2 0x2C61 DUP3 PUSH2 0x1840 JUMP JUMPDEST PUSH1 0x25 DUP3 MSTORE PUSH5 0x3A3A32B937 PUSH1 0xD9 SHL PUSH1 0x40 DUP4 PUSH32 0x537573706963696F7573207374617465206D616E6970756C6174696F6E207061 PUSH1 0x20 DUP3 ADD MSTORE ADD MSTORE JUMP JUMPDEST PUSH1 0x40 MLOAD SWAP1 PUSH2 0x2CA8 DUP3 PUSH2 0x1840 JUMP JUMPDEST PUSH1 0x28 DUP3 MSTORE PUSH8 0x19195D1958DD1959 PUSH1 0xC2 SHL PUSH1 0x40 DUP4 PUSH32 0x466C617368206C6F616E206D616E6970756C6174696F6E207061747465726E20 PUSH1 0x20 DUP3 ADD MSTORE ADD MSTORE JUMP JUMPDEST PUSH1 0x40 MLOAD SWAP1 PUSH2 0x2CF2 DUP3 PUSH2 0x1840 JUMP JUMPDEST PUSH1 0x2B DUP3 MSTORE PUSH11 0x1C9B8819195D1958DD1959 PUSH1 0xAA SHL PUSH1 0x40 DUP4 PUSH32 0x506F737369626C65207265656E7472616E63792061747461636B207061747465 PUSH1 0x20 DUP3 ADD MSTORE ADD MSTORE JUMP JUMPDEST PUSH1 0x40 MLOAD SWAP1 PUSH2 0x2D3F DUP3 PUSH2 0x1840 JUMP JUMPDEST PUSH1 0x27 DUP3 MSTORE PUSH7 0x195D1958DD1959 PUSH1 0xCA SHL PUSH1 0x40 DUP4 PUSH32 0x537573706963696F75732061646D696E2066756E6374696F6E2063616C6C2064 PUSH1 0x20 DUP3 ADD MSTORE ADD MSTORE JUMP JUMPDEST PUSH1 0x40 MLOAD SWAP1 PUSH2 0x2D88 DUP3 PUSH2 0x1840 JUMP JUMPDEST PUSH1 0x21 DUP3 MSTORE PUSH1 0x19 PUSH1 0xFA SHL PUSH1 0x40 DUP4 PUSH32 0x5261706964207769746864726177616C207061747465726E2064657465637465 PUSH1 0x20 DUP3 ADD MSTORE ADD MSTORE JUMP JUMPDEST PUSH1 0x40 MLOAD SWAP1 PUSH2 0x2DCB DUP3 PUSH2 0x1840 JUMP JUMPDEST PUSH1 0x32 DUP3 MSTORE PUSH18 0x74656420283E313078206176657261676529 PUSH1 0x70 SHL PUSH1 0x40 DUP4 PUSH32 0x556E757375616C6C79206C61726765207769746864726177616C206465746563 PUSH1 0x20 DUP3 ADD MSTORE ADD MSTORE JUMP JUMPDEST SWAP1 SWAP4 SWAP3 PUSH2 0x2E1D PUSH2 0x2AB7 JUMP JUMPDEST POP PUSH1 0x0 SWAP3 PUSH1 0xC PUSH2 0x2E2B PUSH2 0x221D JUMP JUMPDEST SWAP5 PUSH2 0x2E37 DUP5 DUP5 DUP8 PUSH2 0x373B JUMP JUMPDEST ISZERO PUSH2 0x2EE4 JUMPI POP POP PUSH2 0x2EB8 SWAP4 POP SWAP1 PUSH2 0x2E9B PUSH2 0x2EAF SWAP3 PUSH1 0x3 SWAP3 PUSH2 0x2E94 PUSH1 0x8 SWAP7 PUSH2 0x2E6A PUSH2 0x2E5F PUSH2 0x2DBE JUMP JUMPDEST SWAP11 JUMPDEST DUP13 DUP6 DUP8 DUP6 PUSH2 0x39C6 JUMP JUMPDEST PUSH2 0x2E84 PUSH2 0x2E75 PUSH2 0x213A JUMP JUMPDEST PUSH1 0x1 PUSH1 0x1 PUSH1 0xA0 SHL SUB SWAP1 SWAP13 AND DUP13 MSTORE JUMP JUMPDEST PUSH1 0x1 PUSH1 0x1 PUSH1 0xA0 SHL SUB AND PUSH1 0x20 DUP12 ADD MSTORE JUMP JUMPDEST CALLDATASIZE SWAP2 PUSH2 0x2230 JUMP JUMPDEST PUSH1 0x40 DUP8 ADD MSTORE TIMESTAMP PUSH1 0x60 DUP8 ADD MSTORE PUSH1 0x80 DUP7 ADD PUSH2 0x2721 JUMP JUMPDEST PUSH1 0xA0 DUP5 ADD PUSH2 0x272D JUMP JUMPDEST PUSH1 0xC0 DUP3 ADD MSTORE NUMBER PUSH1 0xE0 DUP3 ADD MSTORE PUSH1 0x0 PUSH2 0x100 DUP3 ADD MSTORE PUSH2 0x2ED3 PUSH2 0x221D JUMP JUMPDEST PUSH2 0x120 DUP3 ADD MSTORE PUSH1 0x0 PUSH2 0x140 DUP3 ADD MSTORE SWAP1 JUMP JUMPDEST PUSH2 0x2EED DUP6 PUSH2 0x3800 JUMP JUMPDEST ISZERO PUSH2 0x2F1B JUMPI POP POP PUSH2 0x2EB8 SWAP4 POP SWAP1 PUSH2 0x2E9B PUSH2 0x2EAF SWAP3 PUSH1 0x2 SWAP3 PUSH2 0x2E94 PUSH1 0x9 SWAP7 PUSH2 0x2E6A PUSH2 0x2F15 PUSH2 0x2D7B JUMP JUMPDEST SWAP11 PUSH2 0x2E61 JUMP JUMPDEST PUSH2 0x2F26 DUP9 DUP6 DUP6 PUSH2 0x3855 JUMP JUMPDEST ISZERO PUSH2 0x2F4E JUMPI POP POP PUSH2 0x2EB8 SWAP4 POP SWAP1 PUSH2 0x2E9B PUSH2 0x2EAF SWAP3 PUSH1 0x4 SWAP3 PUSH2 0x2E94 PUSH1 0xA SWAP7 PUSH2 0x2E6A PUSH2 0x2F15 PUSH2 0x2D32 JUMP JUMPDEST PUSH2 0x2F59 DUP9 DUP6 DUP6 PUSH2 0x329C JUMP JUMPDEST ISZERO PUSH2 0x2F81 JUMPI POP POP PUSH2 0x2EB8 SWAP4 POP SWAP1 PUSH2 0x2E9B PUSH2 0x2EAF SWAP3 PUSH1 0x3 SWAP3 PUSH2 0x2E94 PUSH1 0x0 SWAP7 PUSH2 0x2E6A PUSH2 0x2F15 PUSH2 0x2CE5 JUMP JUMPDEST PUSH2 0x2F8B DUP8 DUP10 PUSH2 0x3428 JUMP JUMPDEST ISZERO PUSH2 0x2FB3 JUMPI POP POP PUSH2 0x2EB8 SWAP4 POP SWAP1 PUSH2 0x2E9B PUSH2 0x2EAF SWAP3 PUSH1 0x3 SWAP3 PUSH2 0x2E94 PUSH1 0x1 SWAP7 PUSH2 0x2E6A PUSH2 0x2F15 PUSH2 0x2C9B JUMP JUMPDEST PUSH2 0x2FBC DUP9 PUSH2 0x3490 JUMP JUMPDEST ISZERO PUSH2 0x2FE3 JUMPI POP POP PUSH2 0x2EB8 SWAP4 POP SWAP1 PUSH2 0x2E9B PUSH2 0x2EAF SWAP3 PUSH1 0x2 SWAP3 PUSH2 0x2E94 DUP5 SWAP7 PUSH2 0x2E6A PUSH2 0x2F15 PUSH2 0x2C54 JUMP JUMPDEST PUSH2 0x2FEE DUP8 DUP6 DUP6 PUSH2 0x351E JUMP JUMPDEST ISZERO PUSH2 0x3016 JUMPI POP POP PUSH2 0x2EB8 SWAP4 POP SWAP1 PUSH2 0x2E9B PUSH2 0x2EAF SWAP3 PUSH1 0x2 SWAP3 PUSH2 0x2E94 PUSH1 0x3 SWAP7 PUSH2 0x2E6A PUSH2 0x2F15 PUSH2 0x2C1B JUMP JUMPDEST PUSH2 0x3020 DUP5 DUP5 PUSH2 0x3558 JUMP JUMPDEST ISZERO PUSH2 0x3048 JUMPI POP POP PUSH2 0x2EB8 SWAP4 POP SWAP1 PUSH2 0x2E9B PUSH2 0x2EAF SWAP3 PUSH1 0x1 SWAP3 PUSH2 0x2E94 PUSH1 0x4 SWAP7 PUSH2 0x2E6A PUSH2 0x2F15 PUSH2 0x2BE2 JUMP JUMPDEST PUSH2 0x3052 DUP5 DUP5 PUSH2 0x35F3 JUMP JUMPDEST ISZERO PUSH2 0x307A JUMPI POP POP PUSH2 0x2EB8 SWAP4 POP SWAP1 PUSH2 0x2E9B PUSH2 0x2EAF SWAP3 PUSH1 0x3 SWAP3 PUSH2 0x2E94 PUSH1 0x5 SWAP7 PUSH2 0x2E6A PUSH2 0x2F15 PUSH2 0x2B9F JUMP JUMPDEST PUSH2 0x3087 DUP9 SWAP6 SWAP5 SWAP3 SWAP6 PUSH2 0x36EF JUMP JUMPDEST ISZERO PUSH2 0x30AC JUMPI POP PUSH2 0x2EB8 SWAP5 POP PUSH2 0x2EAF SWAP3 SWAP2 PUSH2 0x2E9B SWAP2 PUSH2 0x2E94 PUSH1 0x1 SWAP5 PUSH2 0x2E6A PUSH2 0x2F15 PUSH2 0x2B57 JUMP JUMPDEST SWAP3 PUSH1 0x15 SLOAD GASPRICE GT PUSH2 0x30D1 JUMPI JUMPDEST SWAP2 PUSH2 0x2E9B SWAP2 PUSH2 0x2E94 PUSH2 0x2EAF SWAP6 SWAP5 PUSH2 0x2E6A PUSH2 0x2EB8 SWAP10 SWAP11 PUSH2 0x2E61 JUMP JUMPDEST SWAP2 PUSH2 0x2EB8 SWAP6 POP PUSH2 0x2EAF SWAP4 POP PUSH2 0x2E9B SWAP2 PUSH2 0x2E94 PUSH1 0x1 SWAP5 PUSH2 0x2E6A PUSH2 0x30F1 PUSH2 0x2B1E JUMP JUMPDEST SWAP10 POP POP SWAP3 SWAP5 SWAP6 POP POP SWAP2 POP PUSH2 0x30B7 JUMP JUMPDEST SWAP1 PUSH1 0x4 GT PUSH2 0x3D9 JUMPI SWAP1 PUSH1 0x4 SWAP1 JUMP JUMPDEST PUSH1 0x1 PUSH1 0x1 PUSH1 0xE0 SHL SUB NOT SWAP1 CALLDATALOAD DUP2 DUP2 AND SWAP4 SWAP3 PUSH1 0x4 DUP2 LT PUSH2 0x312B JUMPI POP POP POP JUMP JUMPDEST PUSH1 0x4 SUB PUSH1 0x3 SHL DUP3 SWAP1 SHL AND AND SWAP2 POP JUMP JUMPDEST PUSH1 0x40 MLOAD SWAP1 PUSH2 0x3147 DUP3 PUSH2 0x17E9 JUMP JUMPDEST PUSH1 0xA DUP3 MSTORE PUSH2 0x140 CALLDATASIZE PUSH1 0x20 DUP5 ADD CALLDATACOPY JUMP JUMPDEST PUSH1 0x40 MLOAD SWAP1 PUSH2 0x120 DUP3 ADD DUP3 DUP2 LT PUSH1 0x1 PUSH1 0x1 PUSH1 0x40 SHL SUB DUP3 GT OR PUSH2 0x1805 JUMPI PUSH1 0x40 MSTORE PUSH1 0x8 DUP3 MSTORE PUSH2 0x100 CALLDATASIZE PUSH1 0x20 DUP5 ADD CALLDATACOPY JUMP JUMPDEST PUSH1 0x40 MLOAD SWAP1 PUSH2 0x1A0 DUP3 ADD DUP3 DUP2 LT PUSH1 0x1 PUSH1 0x1 PUSH1 0x40 SHL SUB DUP3 GT OR PUSH2 0x1805 JUMPI PUSH1 0x40 MSTORE PUSH1 0xC DUP3 MSTORE PUSH2 0x180 CALLDATASIZE PUSH1 0x20 DUP5 ADD CALLDATACOPY JUMP JUMPDEST DUP1 MLOAD ISZERO PUSH2 0x31BD JUMPI PUSH1 0x20 ADD SWAP1 JUMP JUMPDEST PUSH4 0x4E487B71 PUSH1 0xE0 SHL PUSH1 0x0 MSTORE PUSH1 0x32 PUSH1 0x4 MSTORE PUSH1 0x24 PUSH1 0x0 REVERT JUMPDEST DUP1 MLOAD PUSH1 0x1 LT ISZERO PUSH2 0x31BD JUMPI PUSH1 0x40 ADD SWAP1 JUMP JUMPDEST DUP1 MLOAD PUSH1 0x2 LT ISZERO PUSH2 0x31BD JUMPI PUSH1 0x60 ADD SWAP1 JUMP JUMPDEST DUP1 MLOAD PUSH1 0x3 LT ISZERO PUSH2 0x31BD JUMPI PUSH1 0x80 ADD SWAP1 JUMP JUMPDEST DUP1 MLOAD PUSH1 0x4 LT ISZERO PUSH2 0x31BD JUMPI PUSH1 0xA0 ADD SWAP1 JUMP JUMPDEST DUP1 MLOAD PUSH1 0x5 LT ISZERO PUSH2 0x31BD JUMPI PUSH1 0xC0 ADD SWAP1 JUMP JUMPDEST DUP1 MLOAD PUSH1 0x6 LT ISZERO PUSH2 0x31BD JUMPI PUSH1 0xE0 ADD SWAP1 JUMP JUMPDEST DUP1 MLOAD PUSH1 0x7 LT ISZERO PUSH2 0x31BD JUMPI PUSH2 0x100 ADD SWAP1 JUMP JUMPDEST DUP1 MLOAD PUSH1 0x8 LT ISZERO PUSH2 0x31BD JUMPI PUSH2 0x120 ADD SWAP1 JUMP JUMPDEST DUP1 MLOAD PUSH1 0x9 LT ISZERO PUSH2 0x31BD JUMPI PUSH2 0x140 ADD SWAP1 JUMP JUMPDEST DUP1 MLOAD PUSH1 0xA LT ISZERO PUSH2 0x31BD JUMPI PUSH2 0x160 ADD SWAP1 JUMP JUMPDEST DUP1 MLOAD PUSH1 0xB LT ISZERO PUSH2 0x31BD JUMPI PUSH2 0x180 ADD SWAP1 JUMP JUMPDEST DUP1 MLOAD DUP3 LT ISZERO PUSH2 0x31BD JUMPI PUSH1 0x20 SWAP2 PUSH1 0x5 SHL ADD ADD SWAP1 JUMP JUMPDEST SWAP1 SWAP2 EXTCODESIZE ISZERO PUSH2 0x32AE JUMPI PUSH1 0x4 DUP3 LT ISZERO PUSH2 0x32B5 JUMPI JUMPDEST POP POP PUSH1 0x0 SWAP1 JUMP JUMPDEST PUSH2 0x32C8 SWAP2 PUSH2 0x32C2 SWAP2 PUSH2 0x3100 JUMP JUMPDEST SWAP1 PUSH2 0x310E JUMP JUMPDEST PUSH2 0x32D0 PUSH2 0x313A JUMP JUMPDEST SWAP1 PUSH2 0x32E9 PUSH2 0x32DD DUP4 PUSH2 0x31B0 JUMP JUMPDEST PUSH4 0xA9059CBB PUSH1 0xE0 SHL SWAP1 MSTORE JUMP JUMPDEST PUSH2 0x3301 PUSH2 0x32F5 DUP4 PUSH2 0x31D3 JUMP JUMPDEST PUSH4 0x95EA7B3 PUSH1 0xE0 SHL SWAP1 MSTORE JUMP JUMPDEST PUSH2 0x3319 PUSH2 0x330D DUP4 PUSH2 0x31E3 JUMP JUMPDEST PUSH4 0x23B872DD PUSH1 0xE0 SHL SWAP1 MSTORE JUMP JUMPDEST PUSH2 0x3331 PUSH2 0x3325 DUP4 PUSH2 0x31F3 JUMP JUMPDEST PUSH4 0x40C10F19 PUSH1 0xE0 SHL SWAP1 MSTORE JUMP JUMPDEST PUSH2 0x3349 PUSH2 0x333D DUP4 PUSH2 0x3203 JUMP JUMPDEST PUSH4 0x2770A7EB PUSH1 0xE2 SHL SWAP1 MSTORE JUMP JUMPDEST PUSH2 0x3361 PUSH2 0x3355 DUP4 PUSH2 0x3213 JUMP JUMPDEST PUSH4 0x852CD8D PUSH1 0xE3 SHL SWAP1 MSTORE JUMP JUMPDEST PUSH2 0x3379 PUSH2 0x336D DUP4 PUSH2 0x3223 JUMP JUMPDEST PUSH4 0x79CC679 PUSH1 0xE4 SHL SWAP1 MSTORE JUMP JUMPDEST PUSH2 0x3391 PUSH2 0x3385 DUP4 PUSH2 0x3233 JUMP JUMPDEST PUSH4 0x40E58EE5 PUSH1 0xE0 SHL SWAP1 MSTORE JUMP JUMPDEST PUSH2 0x33A9 PUSH2 0x339D DUP4 PUSH2 0x3244 JUMP JUMPDEST PUSH4 0x2E1A7D4D PUSH1 0xE0 SHL SWAP1 MSTORE JUMP JUMPDEST PUSH2 0x33C1 PUSH2 0x33B5 DUP4 PUSH2 0x3255 JUMP JUMPDEST PUSH4 0x3CCFD60B PUSH1 0xE0 SHL SWAP1 MSTORE JUMP JUMPDEST PUSH1 0x1 PUSH1 0x1 PUSH1 0xE0 SHL SUB NOT AND PUSH1 0x0 JUMPDEST DUP3 MLOAD DUP2 LT ISZERO PUSH2 0x341E JUMPI PUSH2 0x3402 PUSH2 0x33F5 PUSH2 0x33E7 DUP4 DUP7 PUSH2 0x3288 JUMP JUMPDEST MLOAD PUSH1 0x1 PUSH1 0x1 PUSH1 0xE0 SHL SUB NOT AND SWAP1 JUMP JUMPDEST PUSH1 0x1 PUSH1 0x1 PUSH1 0xE0 SHL SUB NOT AND SWAP1 JUMP JUMPDEST DUP3 EQ PUSH2 0x3416 JUMPI PUSH2 0x3411 SWAP1 PUSH2 0x27F8 JUMP JUMPDEST PUSH2 0x33CE JUMP JUMPDEST POP POP POP PUSH1 0x1 SWAP1 JUMP JUMPDEST POP POP POP CODESIZE DUP1 PUSH2 0x32AE JUMP JUMPDEST DUP1 EXTCODESIZE ISZERO ISZERO SWAP1 DUP2 PUSH2 0x3482 JUMPI JUMPDEST DUP2 PUSH2 0x346E JUMPI JUMPDEST POP PUSH2 0x3468 JUMPI PUSH8 0x8AC7230489E80000 LT DUP1 PUSH2 0x345C JUMPI JUMPDEST PUSH2 0x3457 JUMPI PUSH1 0x0 SWAP1 JUMP JUMPDEST PUSH1 0x1 SWAP1 JUMP JUMPDEST POP PUSH3 0x186A0 GAS LT PUSH2 0x344E JUMP JUMPDEST POP PUSH1 0x1 SWAP1 JUMP JUMPDEST PUSH1 0x1 PUSH1 0x1 PUSH1 0xA0 SHL SUB AND ORIGIN EQ ISZERO SWAP1 POP CODESIZE PUSH2 0x3439 JUMP JUMPDEST DUP1 SWAP2 POP BALANCE PUSH1 0x12 SLOAD GT SWAP1 PUSH2 0x3433 JUMP JUMPDEST PUSH1 0x1 PUSH1 0x1 PUSH1 0xA0 SHL SUB DUP2 AND PUSH1 0x0 SWAP1 DUP2 MSTORE PUSH1 0x6 PUSH1 0x20 MSTORE PUSH1 0x40 SWAP1 KECCAK256 DUP1 SLOAD NUMBER SUB PUSH2 0x34FD JUMPI POP PUSH1 0x1 PUSH1 0x1 PUSH1 0xA0 SHL SUB DUP2 AND PUSH1 0x0 SWAP1 DUP2 MSTORE PUSH1 0x5 PUSH1 0x20 MSTORE PUSH1 0x40 SWAP1 KECCAK256 PUSH2 0x34F4 SWAP2 SWAP1 PUSH2 0x34D8 DUP2 SLOAD PUSH2 0x27F8 JUMP JUMPDEST SWAP1 SSTORE PUSH1 0x1 PUSH1 0x1 PUSH1 0xA0 SHL SUB AND PUSH1 0x0 SWAP1 DUP2 MSTORE PUSH1 0x5 PUSH1 0x20 MSTORE PUSH1 0x40 SWAP1 KECCAK256 SWAP1 JUMP JUMPDEST SLOAD PUSH1 0x14 SLOAD GT ISZERO SWAP1 JUMP JUMPDEST NUMBER SWAP1 SSTORE PUSH1 0x1 PUSH1 0x1 PUSH1 0xA0 SHL SUB AND PUSH1 0x0 SWAP1 DUP2 MSTORE PUSH1 0x5 PUSH1 0x20 MSTORE PUSH1 0x40 DUP2 KECCAK256 PUSH1 0x1 SWAP1 SSTORE SWAP1 JUMP JUMPDEST SWAP2 ISZERO ISZERO DUP1 PUSH2 0x354F JUMPI JUMPDEST PUSH2 0x3532 JUMPI POP POP PUSH1 0x0 SWAP1 JUMP JUMPDEST PUSH1 0x4 GT PUSH2 0x3D9 JUMPI CALLDATALOAD PUSH1 0x1 PUSH1 0x1 PUSH1 0xE0 SHL SUB NOT AND PUSH2 0x3457 JUMPI CODESIZE DUP1 PUSH2 0x32AE JUMP JUMPDEST POP DUP1 ISZERO ISZERO PUSH2 0x3527 JUMP JUMPDEST SWAP1 PUSH1 0x4 DUP2 LT ISZERO PUSH2 0x3569 JUMPI POP POP PUSH1 0x0 SWAP1 JUMP JUMPDEST PUSH1 0x4 GT PUSH2 0x3D9 JUMPI PUSH1 0x1 PUSH1 0x1 PUSH1 0xE0 SHL SUB NOT SWAP1 CALLDATALOAD AND PUSH4 0x5C60DA1B PUSH1 0xE0 SHL DUP2 EQ SWAP1 DUP2 ISZERO PUSH2 0x35E2 JUMPI JUMPDEST DUP2 ISZERO PUSH2 0x35D1 JUMPI JUMPDEST DUP2 ISZERO PUSH2 0x35C0 JUMPI JUMPDEST DUP2 ISZERO PUSH2 0x35AF JUMPI JUMPDEST POP PUSH2 0x3457 JUMPI CODESIZE DUP1 PUSH2 0x32AE JUMP JUMPDEST PUSH4 0x3E14691 PUSH1 0xE6 SHL EQ SWAP1 POP CODESIZE PUSH2 0x35A3 JUMP JUMPDEST PUSH4 0x8F28397 PUSH1 0xE4 SHL DUP2 EQ SWAP2 POP PUSH2 0x359C JUMP JUMPDEST PUSH4 0x278F7943 PUSH1 0xE1 SHL DUP2 EQ SWAP2 POP PUSH2 0x3595 JUMP JUMPDEST PUSH4 0x1B2CE7F3 PUSH1 0xE1 SHL DUP2 EQ SWAP2 POP PUSH2 0x358E JUMP JUMPDEST PUSH1 0x4 DUP3 LT ISZERO PUSH2 0x3603 JUMPI POP POP PUSH1 0x0 SWAP1 JUMP JUMPDEST PUSH2 0x3610 SWAP2 PUSH2 0x32C2 SWAP2 PUSH2 0x3100 JUMP JUMPDEST PUSH2 0x3618 PUSH2 0x3156 JUMP JUMPDEST SWAP1 PUSH2 0x3631 PUSH2 0x3625 DUP4 PUSH2 0x31B0 JUMP JUMPDEST PUSH4 0xF2FDE38B PUSH1 0xE0 SHL SWAP1 MSTORE JUMP JUMPDEST PUSH2 0x3649 PUSH2 0x363D DUP4 PUSH2 0x31D3 JUMP JUMPDEST PUSH4 0x8DA5CB5B PUSH1 0xE0 SHL SWAP1 MSTORE JUMP JUMPDEST PUSH2 0x3661 PUSH2 0x3655 DUP4 PUSH2 0x31E3 JUMP JUMPDEST PUSH4 0xA6F9DAE1 PUSH1 0xE0 SHL SWAP1 MSTORE JUMP JUMPDEST PUSH2 0x3679 PUSH2 0x366D DUP4 PUSH2 0x31F3 JUMP JUMPDEST PUSH4 0x3CEBB823 PUSH1 0xE0 SHL SWAP1 MSTORE JUMP JUMPDEST PUSH2 0x3691 PUSH2 0x3685 DUP4 PUSH2 0x3203 JUMP JUMPDEST PUSH4 0x3825B601 PUSH1 0xE1 SHL SWAP1 MSTORE JUMP JUMPDEST PUSH2 0x369D PUSH2 0x3325 DUP4 PUSH2 0x3213 JUMP JUMPDEST PUSH2 0x36A9 PUSH2 0x3355 DUP4 PUSH2 0x3223 JUMP JUMPDEST PUSH2 0x36B5 PUSH2 0x333D DUP4 PUSH2 0x3233 JUMP JUMPDEST PUSH1 0x1 PUSH1 0x1 PUSH1 0xE0 SHL SUB NOT AND PUSH1 0x0 JUMPDEST DUP3 MLOAD DUP2 LT ISZERO PUSH2 0x341E JUMPI PUSH2 0x36DB PUSH2 0x33F5 PUSH2 0x33E7 DUP4 DUP7 PUSH2 0x3288 JUMP JUMPDEST DUP3 EQ PUSH2 0x3416 JUMPI PUSH2 0x36EA SWAP1 PUSH2 0x27F8 JUMP JUMPDEST PUSH2 0x36C2 JUMP JUMPDEST PUSH1 0x1 PUSH1 0x1 PUSH1 0xA0 SHL SUB AND PUSH1 0x0 DUP2 DUP2 MSTORE PUSH1 0x6 PUSH1 0x20 MSTORE PUSH1 0x40 DUP2 KECCAK256 SLOAD SWAP1 SWAP2 SWAP1 NUMBER EQ PUSH2 0x3714 JUMPI POP SWAP1 JUMP JUMPDEST PUSH1 0x3 SWAP2 PUSH1 0x40 SWAP2 PUSH1 0x5 PUSH1 0x20 MSTORE DUP3 DUP3 KECCAK256 PUSH2 0x372C DUP2 SLOAD PUSH2 0x27F8 JUMP JUMPDEST SWAP1 SSTORE DUP2 MSTORE PUSH1 0x5 PUSH1 0x20 MSTORE KECCAK256 SLOAD GT SWAP1 JUMP JUMPDEST SWAP2 PUSH1 0x24 DUP2 LT PUSH2 0x37DC JUMPI PUSH1 0x4 GT PUSH2 0x3D9 JUMPI PUSH1 0x1 PUSH1 0x1 PUSH1 0xE0 SHL SUB NOT DUP2 CALLDATALOAD AND PUSH4 0x2E1A7D4D PUSH1 0xE0 SHL DUP2 EQ SWAP1 DUP2 ISZERO PUSH2 0x37CB JUMPI JUMPDEST POP PUSH2 0x3775 JUMPI POP POP PUSH1 0x0 SWAP1 JUMP JUMPDEST PUSH1 0x4 PUSH2 0x3796 SWAP2 ADD CALLDATALOAD SWAP2 PUSH1 0x1 DUP1 PUSH1 0xA0 SHL SUB AND PUSH1 0x0 MSTORE PUSH1 0xA PUSH1 0x20 MSTORE PUSH1 0x40 PUSH1 0x0 KECCAK256 SWAP1 JUMP JUMPDEST SLOAD DUP1 ISZERO ISZERO SWAP1 DUP2 PUSH2 0x37B5 JUMPI JUMPDEST POP PUSH2 0x3468 JUMPI PUSH1 0x17 SLOAD LT PUSH2 0x3457 JUMPI CODESIZE DUP1 PUSH2 0x32AE JUMP JUMPDEST PUSH2 0x37C3 SWAP2 POP PUSH1 0x16 SLOAD SWAP1 PUSH2 0x29C9 JUMP JUMPDEST DUP2 GT CODESIZE PUSH2 0x37A1 JUMP JUMPDEST PUSH4 0xB0FD035B PUSH1 0xE0 SHL EQ SWAP1 POP CODESIZE PUSH2 0x3769 JUMP JUMPDEST POP POP POP PUSH1 0x0 SWAP1 JUMP JUMPDEST PUSH1 0x0 NOT DUP2 ADD SWAP2 SWAP1 DUP3 GT PUSH2 0x20BF JUMPI JUMP JUMPDEST SWAP2 SWAP1 DUP3 SUB SWAP2 DUP3 GT PUSH2 0x20BF JUMPI JUMP JUMPDEST PUSH1 0x1 PUSH1 0x1 PUSH1 0xA0 SHL SUB AND PUSH1 0x0 SWAP1 DUP2 MSTORE PUSH1 0xD PUSH1 0x20 MSTORE PUSH1 0x40 SWAP1 KECCAK256 SLOAD DUP1 ISZERO ISZERO SWAP1 DUP2 PUSH2 0x382C JUMPI JUMPDEST POP PUSH2 0x3457 JUMPI PUSH1 0x0 SWAP1 JUMP JUMPDEST SWAP1 POP TIMESTAMP SUB TIMESTAMP DUP2 GT PUSH2 0x20BF JUMPI PUSH1 0x18 SLOAD SWAP1 PUSH1 0xC DUP3 MUL SWAP2 DUP1 DUP4 DIV PUSH1 0xC EQ SWAP1 ISZERO OR ISZERO PUSH2 0x20BF JUMPI LT CODESIZE PUSH2 0x3822 JUMP JUMPDEST PUSH1 0x4 DUP3 LT PUSH2 0x37DC JUMPI PUSH2 0x386A SWAP2 PUSH2 0x32C2 SWAP2 PUSH2 0x3100 JUMP JUMPDEST SWAP1 PUSH2 0x3873 PUSH2 0x3183 JUMP JUMPDEST SWAP2 PUSH2 0x3880 PUSH2 0x3625 DUP5 PUSH2 0x31B0 JUMP JUMPDEST PUSH2 0x388C PUSH2 0x3655 DUP5 PUSH2 0x31D3 JUMP JUMPDEST PUSH2 0x3898 PUSH2 0x366D DUP5 PUSH2 0x31E3 JUMP JUMPDEST PUSH2 0x38A4 PUSH2 0x3685 DUP5 PUSH2 0x31F3 JUMP JUMPDEST PUSH2 0x38B0 PUSH2 0x3325 DUP5 PUSH2 0x3203 JUMP JUMPDEST PUSH2 0x38BC PUSH2 0x3355 DUP5 PUSH2 0x3213 JUMP JUMPDEST PUSH2 0x38C8 PUSH2 0x333D DUP5 PUSH2 0x3223 JUMP JUMPDEST PUSH2 0x38E0 PUSH2 0x38D4 DUP5 PUSH2 0x3233 JUMP JUMPDEST PUSH4 0x1B2CE7F3 PUSH1 0xE1 SHL SWAP1 MSTORE JUMP JUMPDEST PUSH2 0x38F8 PUSH2 0x38EC DUP5 PUSH2 0x3244 JUMP JUMPDEST PUSH4 0x278F7943 PUSH1 0xE1 SHL SWAP1 MSTORE JUMP JUMPDEST PUSH2 0x3910 PUSH2 0x3904 DUP5 PUSH2 0x3255 JUMP JUMPDEST PUSH4 0x8F28397 PUSH1 0xE4 SHL SWAP1 MSTORE JUMP JUMPDEST PUSH2 0x3928 PUSH2 0x391C DUP5 PUSH2 0x3266 JUMP JUMPDEST PUSH4 0x5C60DA1B PUSH1 0xE0 SHL SWAP1 MSTORE JUMP JUMPDEST PUSH2 0x3940 PUSH2 0x3934 DUP5 PUSH2 0x3277 JUMP JUMPDEST PUSH4 0x3E14691 PUSH1 0xE6 SHL SWAP1 MSTORE JUMP JUMPDEST PUSH1 0x1 PUSH1 0x1 PUSH1 0xE0 SHL SUB NOT AND PUSH1 0x0 JUMPDEST DUP4 MLOAD DUP2 LT ISZERO PUSH2 0x399D JUMPI PUSH2 0x3966 PUSH2 0x33F5 PUSH2 0x33E7 DUP4 DUP8 PUSH2 0x3288 JUMP JUMPDEST DUP3 EQ PUSH2 0x397B JUMPI JUMPDEST PUSH2 0x3976 SWAP1 PUSH2 0x27F8 JUMP JUMPDEST PUSH2 0x394D JUMP JUMPDEST DUP3 EXTCODESIZE PUSH2 0x3994 JUMPI PUSH2 0x398C PUSH1 0x15 SLOAD PUSH2 0x299D JUMP JUMPDEST GASPRICE GT ISZERO PUSH2 0x396D JUMPI JUMPDEST POP POP POP POP PUSH1 0x1 SWAP1 JUMP JUMPDEST POP POP POP POP PUSH1 0x0 SWAP1 JUMP JUMPDEST DUP2 ISZERO PUSH2 0x39B0 JUMPI DIV SWAP1 JUMP JUMPDEST PUSH4 0x4E487B71 PUSH1 0xE0 SHL PUSH1 0x0 MSTORE PUSH1 0x12 PUSH1 0x4 MSTORE PUSH1 0x24 PUSH1 0x0 REVERT JUMPDEST SWAP4 SWAP1 SWAP3 PUSH1 0x4 DUP4 LT PUSH2 0x3C17 JUMPI PUSH2 0x39EE PUSH2 0x39DE DUP5 DUP7 PUSH2 0x3100 JUMP JUMPDEST PUSH1 0x1 PUSH1 0x1 PUSH1 0xE0 SHL SUB NOT SWAP3 SWAP2 PUSH2 0x310E JUMP JUMPDEST AND SWAP2 PUSH4 0xD0E30DB PUSH1 0xE4 SHL DUP4 EQ DUP1 PUSH2 0x3C0E JUMPI JUMPDEST PUSH2 0x3A7D JUMPI JUMPDEST POP POP PUSH4 0x2E1A7D4D PUSH1 0xE0 SHL DUP2 EQ SWAP1 DUP2 ISZERO PUSH2 0x3A6C JUMPI JUMPDEST POP PUSH2 0x3A23 JUMPI POP POP POP JUMP JUMPDEST PUSH1 0x24 GT ISZERO PUSH2 0x3A2F JUMPI POP POP JUMP JUMPDEST PUSH1 0x4 ADD CALLDATALOAD PUSH2 0x3A4F DUP3 PUSH1 0x1 DUP1 PUSH1 0xA0 SHL SUB AND PUSH1 0x0 MSTORE PUSH1 0xC PUSH1 0x20 MSTORE PUSH1 0x40 PUSH1 0x0 KECCAK256 SWAP1 JUMP JUMPDEST SSTORE PUSH1 0x1 PUSH1 0x1 PUSH1 0xA0 SHL SUB AND PUSH1 0x0 SWAP1 DUP2 MSTORE PUSH1 0xD PUSH1 0x20 MSTORE PUSH1 0x40 SWAP1 KECCAK256 TIMESTAMP SWAP1 SSTORE JUMP JUMPDEST PUSH4 0xB0FD035B PUSH1 0xE0 SHL EQ SWAP1 POP CODESIZE PUSH2 0x3A19 JUMP JUMPDEST PUSH2 0x3BE6 PUSH2 0x3BC3 PUSH2 0x3C06 SWAP3 PUSH2 0x3AA3 DUP10 PUSH1 0x1 DUP1 PUSH1 0xA0 SHL SUB AND PUSH1 0x0 MSTORE PUSH1 0xB PUSH1 0x20 MSTORE PUSH1 0x40 PUSH1 0x0 KECCAK256 SWAP1 JUMP JUMPDEST PUSH2 0x3AAD DUP2 SLOAD PUSH2 0x27F8 JUMP JUMPDEST SWAP1 SSTORE PUSH2 0x3B2A PUSH2 0x3B0A DUP3 PUSH2 0x3B05 DUP13 PUSH2 0x3AFF PUSH2 0x3AF9 PUSH2 0x3ADC DUP4 PUSH1 0x1 DUP1 PUSH1 0xA0 SHL SUB AND PUSH1 0x0 MSTORE PUSH1 0xA PUSH1 0x20 MSTORE PUSH1 0x40 PUSH1 0x0 KECCAK256 SWAP1 JUMP JUMPDEST SLOAD PUSH1 0x1 PUSH1 0x1 PUSH1 0xA0 SHL SUB SWAP1 SWAP4 AND PUSH1 0x0 SWAP1 DUP2 MSTORE PUSH1 0xB PUSH1 0x20 MSTORE PUSH1 0x40 SWAP1 KECCAK256 SWAP1 JUMP JUMPDEST SLOAD PUSH2 0x37E4 JUMP JUMPDEST SWAP1 PUSH2 0x29C9 JUMP JUMPDEST PUSH2 0x20C4 JUMP JUMPDEST PUSH1 0x1 PUSH1 0x1 PUSH1 0xA0 SHL SUB DUP12 AND PUSH1 0x0 SWAP1 DUP2 MSTORE PUSH1 0xB PUSH1 0x20 MSTORE PUSH1 0x40 SWAP1 KECCAK256 JUMPDEST SLOAD SWAP1 PUSH2 0x39A6 JUMP JUMPDEST PUSH1 0x1 PUSH1 0x1 PUSH1 0xA0 SHL SUB DUP11 AND PUSH1 0x0 SWAP1 DUP2 MSTORE PUSH1 0xA PUSH1 0x20 SWAP1 DUP2 MSTORE PUSH1 0x40 DUP1 DUP4 KECCAK256 SWAP4 SWAP1 SWAP4 SSTORE PUSH1 0x9 SWAP1 MSTORE KECCAK256 PUSH2 0x3B6C SWAP1 DUP7 SWAP1 JUMPDEST SWAP1 PUSH1 0x1 DUP1 PUSH1 0xA0 SHL SUB AND PUSH1 0x0 MSTORE PUSH1 0x20 MSTORE PUSH1 0x40 PUSH1 0x0 KECCAK256 SWAP1 JUMP JUMPDEST PUSH2 0x3B76 DUP2 SLOAD PUSH2 0x27F8 JUMP JUMPDEST SWAP1 SSTORE PUSH2 0x3B05 DUP10 PUSH2 0x3AFF PUSH2 0x3AF9 DUP9 PUSH2 0x3B55 PUSH2 0x3BA6 DUP3 PUSH2 0x3B55 DUP8 PUSH1 0x1 DUP1 PUSH1 0xA0 SHL SUB AND PUSH1 0x0 MSTORE PUSH1 0x8 PUSH1 0x20 MSTORE PUSH1 0x40 PUSH1 0x0 KECCAK256 SWAP1 JUMP JUMPDEST SLOAD PUSH1 0x1 PUSH1 0x1 PUSH1 0xA0 SHL SUB SWAP1 SWAP6 AND PUSH1 0x0 SWAP1 DUP2 MSTORE PUSH1 0x9 PUSH1 0x20 MSTORE PUSH1 0x40 SWAP1 KECCAK256 SWAP1 JUMP JUMPDEST PUSH1 0x1 PUSH1 0x1 PUSH1 0xA0 SHL SUB DUP9 AND PUSH1 0x0 SWAP1 DUP2 MSTORE PUSH1 0x9 PUSH1 0x20 MSTORE PUSH1 0x40 SWAP1 KECCAK256 PUSH2 0x3B23 SWAP1 DUP6 SWAP1 PUSH2 0x3B55 JUMP JUMPDEST PUSH1 0x1 PUSH1 0x1 PUSH1 0xA0 SHL SUB DUP8 AND PUSH1 0x0 SWAP1 DUP2 MSTORE PUSH1 0x8 PUSH1 0x20 MSTORE PUSH1 0x40 SWAP1 KECCAK256 SWAP1 SWAP3 SWAP1 PUSH2 0x3B55 JUMP JUMPDEST SSTORE CODESIZE DUP1 PUSH2 0x3A05 JUMP JUMPDEST POP DUP1 ISZERO ISZERO PUSH2 0x3A00 JUMP JUMPDEST POP POP POP POP POP JUMP JUMPDEST SWAP2 PUSH1 0x24 GT PUSH2 0x3CD9 JUMPI DUP2 BALANCE SWAP1 PUSH1 0x4 ADD CALLDATALOAD PUSH1 0x0 DUP2 DUP4 GT ISZERO PUSH2 0x3CD0 JUMPI POP PUSH2 0x3C61 PUSH2 0x3C45 DUP3 DUP5 PUSH2 0x37F3 JUMP JUMPDEST PUSH1 0x1 PUSH1 0x1 PUSH1 0xA0 SHL SUB SWAP1 SWAP5 AND PUSH1 0x0 SWAP1 DUP2 MSTORE PUSH1 0xA PUSH1 0x20 MSTORE PUSH1 0x40 SWAP1 KECCAK256 SWAP1 JUMP JUMPDEST SLOAD DUP1 ISZERO ISZERO SWAP1 DUP2 DUP1 PUSH2 0x3CBC JUMPI JUMPDEST ISZERO PUSH2 0x3C7C JUMPI POP POP PUSH1 0x3 SWAP2 LT ISZERO SWAP3 JUMP JUMPDEST DUP2 PUSH2 0x3CAA JUMPI JUMPDEST POP ISZERO PUSH2 0x3C90 JUMPI PUSH1 0x2 SWAP2 LT ISZERO SWAP3 JUMP JUMPDEST PUSH1 0x17 SLOAD DUP2 GT ISZERO PUSH2 0x3CA2 JUMPI PUSH1 0x4 SWAP2 LT ISZERO SWAP3 JUMP JUMPDEST PUSH1 0x1 SWAP2 LT ISZERO SWAP3 JUMP JUMPDEST PUSH2 0x3CB4 SWAP2 POP PUSH2 0x29B3 JUMP JUMPDEST DUP2 GT CODESIZE PUSH2 0x3C82 JUMP JUMPDEST POP PUSH2 0x3CC9 PUSH1 0x16 SLOAD DUP3 PUSH2 0x29C9 JUMP JUMPDEST DUP4 GT PUSH2 0x3C6D JUMP JUMPDEST PUSH2 0x3C61 SWAP1 PUSH2 0x3C45 JUMP JUMPDEST POP POP PUSH1 0x0 SWAP1 PUSH1 0x0 SWAP1 PUSH1 0x0 SWAP1 JUMP JUMPDEST PUSH1 0x1A SLOAD SWAP1 SWAP2 SWAP1 PUSH1 0x1 PUSH1 0x1 PUSH1 0xA0 SHL SUB SWAP1 DUP2 AND DUP1 ISZERO PUSH2 0x176A JUMPI PUSH1 0x20 SWAP1 PUSH1 0x40 MLOAD PUSH2 0x3D34 DUP2 PUSH2 0x22C4 DUP6 DUP3 ADD SWAP5 TIMESTAMP DUP11 DUP8 SWAP2 PUSH1 0x54 SWAP4 SWAP2 DUP4 MSTORE PUSH1 0x20 DUP4 ADD MSTORE PUSH1 0x1 PUSH1 0x1 PUSH1 0x60 SHL SUB NOT SWAP1 PUSH1 0x60 SHL AND PUSH1 0x40 DUP3 ADD MSTORE ADD SWAP1 JUMP JUMPDEST MLOAD SWAP1 KECCAK256 SWAP3 ADD MLOAD AND SWAP2 PUSH32 0x70AFDC8E41469E3529709D2C5289CA9593A88F93EE8D999B31A9E9FBF1558478 PUSH1 0x0 DUP1 LOG4 JUMP JUMPDEST SWAP1 PUSH1 0xA0 PUSH2 0x2098 SWAP3 PUSH1 0x1 DUP2 MSTORE PUSH1 0x60 PUSH1 0x20 DUP3 ADD MSTORE PUSH1 0x13 PUSH1 0x60 DUP3 ADD MSTORE PUSH19 0x4175746F2D7265766572746564206279204149 PUSH1 0x68 SHL PUSH1 0x80 DUP3 ADD MSTORE DUP2 PUSH1 0x40 DUP3 ADD MSTORE ADD SWAP1 PUSH2 0x840 JUMP JUMPDEST PUSH2 0x3DB9 DUP2 PUSH1 0x0 MSTORE PUSH1 0x3 PUSH1 0x20 MSTORE PUSH1 0x40 PUSH1 0x0 KECCAK256 SWAP1 JUMP JUMPDEST SWAP2 PUSH1 0x20 DUP2 MLOAD SWAP2 ADD KECCAK256 PUSH2 0x3DC9 PUSH2 0x26DB JUMP JUMPDEST PUSH1 0x20 DUP2 MLOAD SWAP2 ADD KECCAK256 EQ PUSH2 0x3DD9 JUMPI POP POP JUMP JUMPDEST PUSH1 0x7 DUP3 ADD DUP1 SLOAD PUSH1 0xFF NOT AND PUSH1 0x1 OR SWAP1 SSTORE PUSH1 0x0 DUP1 MLOAD PUSH1 0x20 PUSH2 0x450E DUP4 CODECOPY DUP2 MLOAD SWAP2 MSTORE PUSH2 0x3EAE PUSH2 0x3E63 PUSH1 0x1 PUSH1 0x40 MLOAD SWAP6 PUSH2 0x12ED DUP8 PUSH2 0x3E46 PUSH1 0x20 DUP3 ADD PUSH1 0x60 SWAP1 PUSH1 0x20 DUP2 MSTORE PUSH1 0x1C PUSH1 0x20 DUP3 ADD MSTORE PUSH32 0x4175746F2D726576657274656420627920414920616E616C7973697300000000 PUSH1 0x40 DUP3 ADD MSTORE ADD SWAP1 JUMP JUMPDEST SUB SWAP8 PUSH2 0x3E5A PUSH1 0x1F NOT SWAP10 DUP11 DUP2 ADD DUP4 MSTORE DUP3 PUSH2 0x185B JUMP JUMPDEST PUSH1 0x8 DUP4 ADD PUSH2 0x1E73 JUMP JUMPDEST PUSH2 0x3E95 PUSH1 0x40 MLOAD SWAP6 DUP7 PUSH2 0x1335 PUSH1 0x20 DUP3 ADD PUSH1 0x60 SWAP1 PUSH1 0x20 DUP2 MSTORE PUSH1 0x8 PUSH1 0x20 DUP3 ADD MSTORE PUSH8 0x14995D995C9D1959 PUSH1 0xC2 SHL PUSH1 0x40 DUP3 ADD MSTORE ADD SWAP1 JUMP JUMPDEST PUSH1 0x40 MLOAD PUSH1 0x1 PUSH1 0x1 PUSH1 0xA0 SHL SUB SWAP1 SWAP2 AND SWAP5 SWAP1 SWAP2 DUP3 SWAP2 DUP3 PUSH2 0x3D63 JUMP JUMPDEST SUB SWAP1 LOG3 JUMP JUMPDEST SWAP1 PUSH1 0x0 SWAP3 SWAP2 DUP4 SWAP3 PUSH1 0x20 DUP4 MLOAD SWAP4 ADD SWAP2 GAS CALL SWAP1 PUSH2 0x3ECC PUSH2 0x28C9 JUMP JUMPDEST SWAP2 ISZERO PUSH2 0x3F3A JUMPI DUP1 PUSH1 0x0 MSTORE PUSH1 0x3 PUSH1 0x20 MSTORE DUP2 PUSH1 0xFF PUSH1 0x4 PUSH1 0x40 PUSH1 0x0 KECCAK256 ADD SLOAD AND PUSH2 0x3EF1 DUP2 PUSH2 0x18AF JUMP JUMPDEST PUSH2 0x3EFA JUMPI POP POP SWAP1 JUMP JUMPDEST PUSH1 0x8 PUSH2 0x11DA DUP4 PUSH2 0x3F2A PUSH1 0x7 PUSH2 0x3F1C PUSH2 0x2098 SWAP8 PUSH1 0x0 MSTORE PUSH1 0x3 PUSH1 0x20 MSTORE PUSH1 0x40 PUSH1 0x0 KECCAK256 SWAP1 JUMP JUMPDEST ADD DUP1 SLOAD PUSH1 0xFF NOT AND PUSH1 0x1 OR SWAP1 SSTORE JUMP JUMPDEST PUSH1 0x0 MSTORE PUSH1 0x3 PUSH1 0x20 MSTORE PUSH1 0x40 PUSH1 0x0 KECCAK256 SWAP1 JUMP JUMPDEST PUSH1 0x40 MLOAD PUSH3 0x461BCD PUSH1 0xE5 SHL DUP2 MSTORE PUSH1 0x20 PUSH1 0x4 DUP3 ADD MSTORE PUSH1 0x10 PUSH1 0x24 DUP3 ADD MSTORE PUSH16 0x115E1958DD5D1A5BDB8819985A5B1959 PUSH1 0x82 SHL PUSH1 0x44 DUP3 ADD MSTORE PUSH1 0x64 SWAP1 REVERT JUMPDEST PUSH1 0x0 MSTORE PUSH1 0x3 PUSH1 0x20 MSTORE PUSH1 0x9 PUSH2 0x140 PUSH1 0x40 PUSH1 0x0 KECCAK256 SWAP3 PUSH2 0x1FAF PUSH2 0x1F93 DUP3 MLOAD PUSH1 0x1 DUP1 PUSH1 0xA0 SHL SUB AND SWAP1 JUMP JUMPDEST PUSH1 0x0 MSTORE PUSH1 0x3 PUSH1 0x20 MSTORE PUSH2 0x140 PUSH2 0x3FB0 PUSH1 0x40 PUSH1 0x0 KECCAK256 PUSH2 0x2739 JUMP JUMPDEST ADD MLOAD NUMBER LT SWAP1 JUMP JUMPDEST PUSH1 0x40 MLOAD PUSH3 0x461BCD PUSH1 0xE5 SHL DUP2 MSTORE PUSH1 0x20 PUSH1 0x4 DUP3 ADD MSTORE PUSH1 0x18 PUSH1 0x24 DUP3 ADD MSTORE PUSH32 0x4469726563742063616C6C73206E6F7420616C6C6F7765640000000000000000 PUSH1 0x44 DUP3 ADD MSTORE PUSH1 0x64 SWAP1 REVERT JUMPDEST ISZERO PUSH2 0x4003 JUMPI JUMP JUMPDEST PUSH1 0x40 MLOAD PUSH3 0x461BCD PUSH1 0xE5 SHL DUP2 MSTORE PUSH1 0x20 PUSH1 0x4 DUP3 ADD MSTORE PUSH1 0x11 PUSH1 0x24 DUP3 ADD MSTORE PUSH17 0x105B1C9958591E481C1C9BD8D95CDCD959 PUSH1 0x7A SHL PUSH1 0x44 DUP3 ADD MSTORE PUSH1 0x64 SWAP1 REVERT JUMPDEST ISZERO PUSH2 0x4043 JUMPI JUMP JUMPDEST PUSH1 0x40 MLOAD PUSH3 0x461BCD PUSH1 0xE5 SHL DUP2 MSTORE PUSH1 0x20 PUSH1 0x4 DUP3 ADD MSTORE PUSH1 0xE PUSH1 0x24 DUP3 ADD MSTORE PUSH14 0x139BDD08185D5D1A1BDC9A5E9959 PUSH1 0x92 SHL PUSH1 0x44 DUP3 ADD MSTORE PUSH1 0x64 SWAP1 REVERT JUMPDEST SWAP1 PUSH1 0xC0 PUSH2 0x2098 SWAP3 PUSH1 0x1 DUP2 MSTORE PUSH1 0x60 PUSH1 0x20 DUP3 ADD MSTORE PUSH1 0x26 PUSH1 0x60 DUP3 ADD MSTORE PUSH32 0x557365722F4F776E65722065786563757465642066726F7A656E207472616E73 PUSH1 0x80 DUP3 ADD MSTORE PUSH6 0x30B1BA34B7B7 PUSH1 0xD1 SHL PUSH1 0xA0 DUP3 ADD MSTORE DUP2 PUSH1 0x40 DUP3 ADD MSTORE ADD SWAP1 PUSH2 0x840 JUMP JUMPDEST PUSH2 0x2098 SWAP2 PUSH1 0x1 DUP3 MSTORE PUSH1 0x60 PUSH1 0x20 DUP4 ADD MSTORE PUSH2 0x4115 PUSH1 0x60 DUP4 ADD PUSH1 0x40 SWAP1 PUSH1 0x17 DUP2 MSTORE PUSH23 0x21B0B731B2B63632B210313C903AB9B2B917B7BBB732B9 PUSH1 0x49 SHL PUSH1 0x20 DUP3 ADD MSTORE ADD SWAP1 JUMP JUMPDEST SWAP2 PUSH1 0x40 DUP2 DUP5 SUB SWAP2 ADD MSTORE PUSH2 0x840 JUMP JUMPDEST SWAP1 SWAP2 PUSH2 0x4139 DUP3 PUSH1 0x0 MSTORE PUSH1 0x3 PUSH1 0x20 MSTORE PUSH1 0x40 PUSH1 0x0 KECCAK256 SWAP1 JUMP JUMPDEST PUSH2 0x414A PUSH2 0x510 PUSH1 0x4 DUP4 ADD SLOAD PUSH1 0xFF AND SWAP1 JUMP JUMPDEST PUSH2 0x418D PUSH2 0x4161 DUP5 PUSH1 0x0 MSTORE PUSH1 0x4 PUSH1 0x20 MSTORE PUSH1 0x40 PUSH1 0x0 KECCAK256 SWAP1 JUMP JUMPDEST SWAP5 PUSH2 0x4171 PUSH1 0x2 DUP8 ADD SLOAD ISZERO ISZERO PUSH2 0x25E3 JUMP JUMPDEST PUSH1 0x4 DUP7 ADD SWAP4 PUSH2 0x2E94 DUP6 SLOAD PUSH1 0xFF DUP2 AND ISZERO SWAP1 DUP2 PUSH2 0x44FE JUMPI JUMPDEST POP PUSH2 0x3FFC JUMP JUMPDEST PUSH1 0x20 DUP2 MLOAD SWAP2 ADD KECCAK256 PUSH32 0xA69DFF78C971E101863084EC5C1DBE35BFADBF66D9B878605B3B33A719FE14F7 DUP2 EQ PUSH2 0x44AC JUMPI PUSH1 0x1 DUP6 ADD DUP1 SLOAD SWAP1 SWAP2 SWAP1 PUSH2 0x41DE SWAP1 PUSH1 0x1 PUSH1 0x1 PUSH1 0xA0 SHL SUB AND JUMPDEST PUSH1 0x1 PUSH1 0x1 PUSH1 0xA0 SHL SUB AND SWAP1 JUMP JUMPDEST CALLER EQ DUP1 ISZERO PUSH2 0x4489 JUMPI JUMPDEST PUSH2 0x41F0 SWAP1 PUSH2 0x403C JUMP JUMPDEST PUSH32 0xC640060CDB34FCC260F41EAC7474EE1D7C80B7E3607DAFF9AC67C7EA2EBB1C44 DUP2 EQ PUSH2 0x4398 JUMPI PUSH32 0xA6DE185CADD5025AD112692FF4C6E4D195DAA4AECA2980B12E73362933D065F2 EQ PUSH2 0x4273 JUMPI PUSH1 0x40 MLOAD PUSH3 0x461BCD PUSH1 0xE5 SHL DUP2 MSTORE PUSH1 0x20 PUSH1 0x4 DUP3 ADD MSTORE PUSH1 0xE PUSH1 0x24 DUP3 ADD MSTORE PUSH14 0x24B73B30B634B21030B1BA34B7B7 PUSH1 0x91 SHL PUSH1 0x44 DUP3 ADD MSTORE PUSH1 0x64 SWAP1 REVERT JUMPDEST PUSH1 0x1 PUSH2 0x3EAE SWAP3 PUSH2 0x4326 SWAP3 PUSH2 0x429F PUSH1 0x0 DUP1 MLOAD PUSH1 0x20 PUSH2 0x450E DUP4 CODECOPY DUP2 MLOAD SWAP2 MSTORE SWAP7 PUSH2 0x100 PUSH2 0xFF00 NOT DUP3 SLOAD AND OR SWAP1 SSTORE JUMP JUMPDEST PUSH1 0x7 DUP3 ADD DUP1 SLOAD PUSH1 0xFF NOT AND PUSH1 0x1 OR SWAP1 SSTORE PUSH1 0x5 PUSH1 0x40 MLOAD SWAP9 PUSH2 0x430D DUP11 PUSH2 0x42F0 PUSH1 0x20 DUP3 ADD PUSH1 0x20 DUP1 DUP3 MSTORE PUSH1 0x17 SWAP1 DUP3 ADD MSTORE PUSH23 0x21B0B731B2B63632B210313C903AB9B2B917B7BBB732B9 PUSH1 0x49 SHL PUSH1 0x40 DUP3 ADD MSTORE PUSH1 0x60 ADD SWAP1 JUMP JUMPDEST SUB SWAP11 PUSH2 0x4304 PUSH1 0x1F NOT SWAP13 DUP14 DUP2 ADD DUP4 MSTORE DUP3 PUSH2 0x185B JUMP JUMPDEST PUSH1 0x8 DUP7 ADD PUSH2 0x1E73 JUMP JUMPDEST ADD SLOAD SWAP1 DUP2 PUSH2 0x4372 JUMPI JUMPDEST POP POP PUSH2 0x12FB PUSH2 0x11FB PUSH1 0xF SLOAD PUSH2 0x27F8 JUMP JUMPDEST PUSH2 0x4359 PUSH1 0x40 MLOAD SWAP6 DUP7 PUSH2 0x1335 PUSH1 0x20 DUP3 ADD PUSH1 0x60 SWAP1 PUSH1 0x20 DUP2 MSTORE PUSH1 0x9 PUSH1 0x20 DUP3 ADD MSTORE PUSH9 0x10D85B98D95B1B1959 PUSH1 0xBA SHL PUSH1 0x40 DUP3 ADD MSTORE ADD SWAP1 JUMP JUMPDEST PUSH1 0x40 MLOAD PUSH1 0x1 PUSH1 0x1 PUSH1 0xA0 SHL SUB SWAP1 SWAP2 AND SWAP5 SWAP1 SWAP2 DUP3 SWAP2 DUP3 PUSH2 0x40D4 JUMP JUMPDEST SLOAD PUSH1 0x0 SWAP2 DUP3 SWAP2 DUP3 SWAP2 DUP3 SWAP2 PUSH1 0x1 PUSH1 0x1 PUSH1 0xA0 SHL SUB AND GAS CALL POP PUSH2 0x4390 PUSH2 0x28C9 JUMP JUMPDEST POP CODESIZE DUP1 PUSH2 0x4316 JUMP JUMPDEST POP POP PUSH1 0x1 DUP2 ADD DUP1 SLOAD SWAP3 SWAP5 SWAP1 SWAP3 PUSH1 0x0 SWAP2 DUP3 SWAP2 PUSH1 0x5 SWAP1 PUSH1 0x1 PUSH1 0x1 PUSH1 0xA0 SHL SUB AND SWAP2 ADD SLOAD PUSH1 0x40 MLOAD SWAP1 DUP2 PUSH2 0x43CA DUP2 PUSH1 0x2 DUP10 ADD PUSH2 0x2847 JUMP JUMPDEST SUB SWAP3 GAS CALL SWAP4 PUSH2 0x43D7 PUSH2 0x28C9 JUMP JUMPDEST SWAP5 ISZERO PUSH2 0x4444 JUMPI SWAP2 PUSH2 0x441C DUP6 PUSH1 0x8 PUSH2 0x3EAE SWAP5 PUSH2 0x4408 PUSH1 0x0 DUP1 MLOAD PUSH1 0x20 PUSH2 0x450E DUP4 CODECOPY DUP2 MLOAD SWAP2 MSTORE SWAP8 PUSH1 0x1 PUSH1 0xFF NOT DUP3 SLOAD AND OR SWAP1 SSTORE JUMP JUMPDEST PUSH1 0x7 DUP2 ADD DUP1 SLOAD PUSH1 0xFF NOT AND PUSH1 0x1 OR SWAP1 SSTORE PUSH2 0x11DA JUMP JUMPDEST PUSH2 0x442A PUSH2 0x11FB PUSH1 0xF SLOAD PUSH2 0x27F8 JUMP JUMPDEST SLOAD PUSH1 0x1 PUSH1 0x1 PUSH1 0xA0 SHL SUB SWAP1 DUP2 AND AND SWAP4 PUSH1 0x40 MLOAD SWAP2 DUP3 SWAP2 DUP3 PUSH2 0x4079 JUMP JUMPDEST DUP5 MLOAD DUP6 DUP2 PUSH2 0x4484 JUMPI PUSH1 0x40 MLOAD PUSH3 0x461BCD PUSH1 0xE5 SHL DUP2 MSTORE PUSH1 0x20 PUSH1 0x4 DUP3 ADD MSTORE PUSH1 0x10 PUSH1 0x24 DUP3 ADD MSTORE PUSH16 0x115E1958DD5D1A5BDB8819985A5B1959 PUSH1 0x82 SHL PUSH1 0x44 DUP3 ADD MSTORE PUSH1 0x64 SWAP1 REVERT JUMPDEST PUSH1 0x20 ADD REVERT JUMPDEST POP PUSH1 0x0 SLOAD PUSH2 0x41F0 SWAP1 PUSH2 0x44A3 SWAP1 PUSH1 0x1 PUSH1 0x1 PUSH1 0xA0 SHL SUB AND PUSH2 0x41D2 JUMP JUMPDEST CALLER EQ SWAP1 POP PUSH2 0x41E7 JUMP JUMPDEST PUSH2 0x44B9 DUP5 PUSH2 0x138B DUP5 PUSH2 0x2739 JUMP JUMPDEST PUSH1 0x40 MLOAD PUSH3 0x461BCD PUSH1 0xE5 SHL DUP2 MSTORE PUSH1 0x20 PUSH1 0x4 DUP3 ADD MSTORE PUSH1 0x17 PUSH1 0x24 DUP3 ADD MSTORE PUSH32 0x41492073696D756C6174696F6E20726571756573746564000000000000000000 PUSH1 0x44 DUP3 ADD MSTORE PUSH1 0x64 SWAP1 REVERT JUMPDEST PUSH1 0xFF SWAP2 POP PUSH1 0x8 SHR AND ISZERO CODESIZE PUSH2 0x4187 JUMP INVALID DUP10 CODESIZE 0xBD 0xAA 0xFB DUP14 DUP12 LOG1 SIGNEXTEND 0x24 OR MSTORE 0x2E 0xEB 0x22 0xE7 MSTORE8 0x5D DUP10 0xD5 INVALID DUP1 0xD1 MSIZE BLOCKHASH 0xDA INVALID 0xB0 0x1F PUSH18 0x85ECA26469706673582212204B9AC0265794 SWAP9 0xDE XOR OR 0xDA 0xF7 0xE5 BYTE SHR LT PREVRANDAO 0x1F 0xBE DUP8 0xC0 SELFDESTRUCT 0x23 MUL PUSH5 0xDD1AF1A84E EQ PUSH15 0x64736F6C6343000813003300000000 "},"methodIdentifiers":{"activateEmergencyStop(string)":"ea02ffac","addContractProtection(address,uint256)":"2609be4e","aiOracle()":"31b221cd","contractAverageDeposit(address)":"f6c9446a","contractDepositCount(address)":"1b480467","deactivateEmergencyStop()":"02a517ab","emergencyStop()":"63a599a4","executeOwnerOverride(bytes32,string)":"9c38944b","freezeDuration()":"440991bd","frozenTransactions(bytes32)":"ccc470cb","gasPriceThreshold()":"892a51c5","getProtectionLevel(address)":"bc00fd67","getStats()":"c59d4847","getThreatDetails(bytes32)":"9950e052","isAddressSuspicious(address)":"054bd9de","isContractProtected(address)":"c0c9b949","largeWithdrawalMultiplier()":"40034b7a","lastInteractionBlock(address)":"ccd12cd2","lastWithdrawalAmount(address)":"dfde44cf","lastWithdrawalTime(address)":"4de5120e","maxCallDepth()":"7994e28a","maxWithdrawalAmount()":"e976d431","minBalanceThreshold()":"7914d864","owner()":"8da5cb5b","patternAnalysisWindow()":"17f83e5c","priceOracle()":"2630c12f","protectedCall(address,bytes)":"1d3323b6","protectedContracts(address)":"1ec01d71","rapidWithdrawalThreshold()":"c5aae677","receiveAISimulationResult(bytes32,bool,uint256,string,string)":"116d4ac5","removeContractProtection(address)":"4838b5b6","renounceOwnership()":"715018a6","setAIOracle(address)":"1aa632b3","setFreezeDuration(uint256)":"6ca2aa95","setGasPriceThreshold(uint256)":"40af6ad4","setLargeWithdrawalMultiplier(uint256)":"6616de77","setMaxCallDepth(uint256)":"46b76ccc","setMaxWithdrawalAmount(uint256)":"25303a73","setMinBalanceThreshold(uint256)":"b5338586","setPatternAnalysisWindow(uint256)":"11c33d49","setPriceOracle(address)":"530e784f","setRapidWithdrawalThreshold(uint256)":"ce11d0ae","setSuspiciousCallThreshold(uint256)":"8fa50574","simulateWithdrawal(address,bytes)":"db658215","simulationResults(bytes32)":"eafcd1ae","suspiciousAddressCount(address)":"ab470715","suspiciousCallThreshold()":"54349ed0","threatDetections(bytes32)":"ce1e2d9e","totalLossPrevented()":"3da846aa","totalThreatsDetected()":"2c64b846","totalThreatsMitigated()":"6e2d919f","transferOwnership(address)":"f2fde38b","userAverageDeposit(address,address)":"a7fd17f3","userDepositCount(address,address)":"e8497055","userResolveThreat(bytes32,string)":"b135a7f8"}}}}}