{"contracts/AIAnalysisOracle.sol":{"AIAnalysisOracle":{"abi":[{"inputs":[{"internalType":"address","name":"_immunityLayer","type":"address"}],"stateMutability":"nonpayable","type":"constructor"},{"anonymous":false,"inputs":[{"indexed":true,"internalType":"bytes32","name":"threatId","type":"bytes32"},{"indexed":false,"internalType":"string","name":"aiAnalysis","type":"string"},{"indexed":false,"internalType":"string","name":"suggestedAction","type":"string"},{"indexed":false,"internalType":"bool","name":"isCritical","type":"bool"}],"name":"AnalysisCompleted","type":"event"},{"anonymous":false,"inputs":[{"indexed":true,"internalType":"bytes32","name":"threatId","type":"bytes32"},{"indexed":true,"internalType":"address","name":"targetContract","type":"address"},{"indexed":true,"internalType":"address","name":"caller","type":"address"}],"name":"AnalysisRequested","type":"event"},{"inputs":[{"internalType":"bytes32","name":"","type":"bytes32"}],"name":"analysisRequests","outputs":[{"internalType":"bytes32","name":"threatId","type":"bytes32"},{"internalType":"address","name":"targetContract","type":"address"},{"internalType":"address","name":"caller","type":"address"},{"internalType":"bytes","name":"data","type":"bytes"},{"internalType":"uint256","name":"timestamp","type":"uint256"},{"internalType":"bool","name":"completed","type":"bool"},{"internalType":"string","name":"aiAnalysis","type":"string"},{"internalType":"string","name":"suggestedAction","type":"string"}],"stateMutability":"view","type":"function"},{"inputs":[{"internalType":"bytes32","name":"_threatId","type":"bytes32"}],"name":"getAnalysis","outputs":[{"internalType":"string","name":"analysis","type":"string"},{"internalType":"string","name":"suggestedAction","type":"string"},{"internalType":"bool","name":"completed","type":"bool"}],"stateMutability":"view","type":"function"},{"inputs":[],"name":"immunityLayer","outputs":[{"internalType":"address","name":"","type":"address"}],"stateMutability":"view","type":"function"},{"inputs":[],"name":"owner","outputs":[{"internalType":"address","name":"","type":"address"}],"stateMutability":"view","type":"function"},{"inputs":[{"internalType":"bytes32","name":"_threatId","type":"bytes32"},{"internalType":"address","name":"_targetContract","type":"address"},{"internalType":"address","name":"_caller","type":"address"},{"internalType":"bytes","name":"_data","type":"bytes"}],"name":"requestAnalysis","outputs":[],"stateMutability":"nonpayable","type":"function"},{"inputs":[{"internalType":"bytes32","name":"_threatId","type":"bytes32"},{"internalType":"string","name":"_analysis","type":"string"},{"internalType":"string","name":"_suggestedAction","type":"string"},{"internalType":"bool","name":"_isCritical","type":"bool"}],"name":"submitAnalysis","outputs":[],"stateMutability":"nonpayable","type":"function"}],"evm":{"bytecode":{"linkReferences":{},"object":"60803461007c57601f610d2e38819003918201601f19168301916001600160401b038311848410176100815780849260209460405283398101031261007c57516001600160a01b0381169081900361007c5760018060a01b03199081600054161760005533906001541617600155604051610c9690816100988239f35b600080fd5b634e487b7160e01b600052604160045260246000fdfe608080604052600436101561001357600080fd5b60003560e01c9081631730121c14610a2e57508063327939fa14610940578063528a394d146106285780637986b037146101985780638da5cb5b1461016f5763d0906d7c1461006157600080fd5b3461016a57602036600319011261016a576004356000526002602052610152604060002061012f6101606040519261009884610b22565b8054845260018060a01b0380600183015416602086015260028201541660408501526040516100d5816100ce8160038601610a8c565b0382610b5b565b606085015260048101546080850152600760e060ff6005840154169560a08101961515875261013660405194610119866101128160068501610a8c565b0387610b5b565b60c0830195865260405197888096819301610a8c565b0384610b5b565b0152519251151591604051948594606086526060860190610b7d565b908482036020860152610b7d565b9060408301520390f35b600080fd5b3461016a57600036600319011261016a576001546040516001600160a01b039091168152602090f35b3461016a57608036600319011261016a576024356001600160a01b038116810361016a57604435906001600160a01b038216820361016a5760643567ffffffffffffffff811161016a576101f0903690600401610bbd565b600054909391906001600160a01b031633036105e3576040519361021385610b22565b60043585526001600160a01b0384811660208701528316604086015267ffffffffffffffff81116104e55760405191610256601f8301601f191660200184610b5b565b818352368282011161016a578160009260209283860137830101526060840152426080840152600060a084015260405161028f81610b3f565b6000815260c08401526040516102a481610b3f565b6000815260e08401526004356000526002602052604060002092805184556001840160018060a01b03602083015116906bffffffffffffffffffffffff60a01b9182825416179055600285019060018060a01b036040840151169082541617905560608101519384519467ffffffffffffffff86116104e5576003958087840192610339826103338654610a52565b86610beb565b602090601f831160011461057e57600092610573575b50508160011b9160001990891b1c19161790555b608082015160048201556005810160a0830151151560ff801983541691161790556006810160c083015180519067ffffffffffffffff82116104e5576103b3826103ad8554610a52565b85610beb565b602090601f83116001146105065791806007949260e096946000926104fb575b50508160011b91600019908b1b1c19161790555b019101519384519067ffffffffffffffff82116104e55761040c826103ad8554610a52565b6020601f831160011461047b578293949596600093610470575b50508260011b92600019911b1c19161790555b6001600160a01b0390811691166004357fd3887a738aaa15c0bcb4c3a5f4e8ee19bb5dc46eb191313573806b2ef22ecff8600080a4005b015191508680610426565b90601f198316918460005260206000209260005b8181106104cd57509784600196979899106104b3575b50505050811b019055610439565b01519060f884600019921b161c19169055858080806104a5565b9193602060018192878d01518155019501920161048f565b634e487b7160e01b600052604160045260246000fd5b015190508a806103d3565b90601f198316918460005260206000209260005b81811061055b575092600192859260e098966007989610610543575b505050811b0190556103e7565b0151600019838d1b60f8161c191690558a8080610536565b9293602060018192878601518155019501930161051a565b01519050888061034f565b6000858152602081209350601f198516905b8181106105cb57509084600195949392106105b3575b505050811b019055610363565b0151600019838b1b60f8161c191690558880806105a6565b92936020600181928786015181550195019301610590565b60405162461bcd60e51b815260206004820152601c60248201527f4f6e6c7920496d6d756e697479204c617965722063616e2063616c6c000000006044820152606490fd5b3461016a57608036600319011261016a5767ffffffffffffffff60043560243582811161016a5761065d903690600401610bbd565b60443584811161016a57610675903690600401610bbd565b6064359182151580930361016a57600180549097906001600160a01b0316330361090e57866000526020976002895260ff600560406000200154166108c957876000526002895260066040600020600581018360ff19825416179055018287116104e5576106ed876106e78354610a52565b83610beb565b866000601f821160011461086357600091610858575b50600019600389901b1c191687831b1790555b876000526002895260076040600020019184116104e5576107418461073b8454610a52565b84610beb565b6000601f85116001146107ce579184807f91835154ccbe750aa69196cfc23ddac21c39baaeef0b53f3c7ba30355e7715769a9b95936107b897956000936107c3575b501b906000198560031b1c19161790555b6107ab604051978897606089526060890191610c3f565b9286840390870152610c3f565b9060408301520390a2005b85013592508d610783565b601f19851690836000528a6000209160005b8181106108435750917f91835154ccbe750aa69196cfc23ddac21c39baaeef0b53f3c7ba30355e7715769a9b959391876107b898969410610829575b505083811b019055610794565b840135600019600387901b60f8161c191690558b8061081c565b86830135845592840192918c01918c016107e0565b90508801358b610703565b60008381528c81209290601f198216908e878e5b8484106108b0575050505010610896575b50508187811b019055610716565b89013560001960038a901b60f8161c191690558a80610888565b860135875590950194938401938c9350018e878e610877565b60405162461bcd60e51b8152600481018a9052601a60248201527f416e616c7973697320616c726561647920636f6d706c657465640000000000006044820152606490fd5b60405162461bcd60e51b815260206004820152600a60248201526927b7363c9037bbb732b960b11b6044820152606490fd5b3461016a57602036600319011261016a57600435600052600260205260406000208054610a2a6007610a1c60018060a01b0394856001820154169560028201541690604051916109978361012f8160038601610a8c565b610a0260048301549360ff600585015416926109df604051956109c8876109c18160068501610a8c565b0388610b5b565b6109d8604051809b819301610a8c565b0389610b5b565b6040519a8b9a8b5260208b015260408a01526101008060608b0152890190610b7d565b926080880152151560a087015285820360c0870152610b7d565b9083820360e0850152610b7d565b0390f35b3461016a57600036600319011261016a576000546001600160a01b03168152602090f35b90600182811c92168015610a82575b6020831014610a6c57565b634e487b7160e01b600052602260045260246000fd5b91607f1691610a61565b9060009291805491610a9d83610a52565b918282526001938481169081600014610aff5750600114610abf575b50505050565b90919394506000526020928360002092846000945b838610610aeb575050505001019038808080610ab9565b805485870183015294019385908201610ad4565b9294505050602093945060ff191683830152151560051b01019038808080610ab9565b610100810190811067ffffffffffffffff8211176104e557604052565b6020810190811067ffffffffffffffff8211176104e557604052565b90601f8019910116810190811067ffffffffffffffff8211176104e557604052565b919082519283825260005b848110610ba9575050826000602080949584010152601f8019910116010190565b602081830181015184830182015201610b88565b9181601f8401121561016a5782359167ffffffffffffffff831161016a576020838186019501011161016a57565b90601f8111610bf957505050565b600091825260208220906020601f850160051c83019410610c35575b601f0160051c01915b828110610c2a57505050565b818155600101610c1e565b9092508290610c15565b908060209392818452848401376000828201840152601f01601f191601019056fea2646970667358221220fe1d278e9053b967b428dff614ff1caf29e02fc9248ba89757cc0fde789422d464736f6c63430008130033","opcodes":"PUSH1 0x80 CALLVALUE PUSH2 0x7C JUMPI PUSH1 0x1F PUSH2 0xD2E CODESIZE DUP2 SWAP1 SUB SWAP2 DUP3 ADD PUSH1 0x1F NOT AND DUP4 ADD SWAP2 PUSH1 0x1 PUSH1 0x1 PUSH1 0x40 SHL SUB DUP4 GT DUP5 DUP5 LT OR PUSH2 0x81 JUMPI DUP1 DUP5 SWAP3 PUSH1 0x20 SWAP5 PUSH1 0x40 MSTORE DUP4 CODECOPY DUP2 ADD SUB SLT PUSH2 0x7C JUMPI MLOAD PUSH1 0x1 PUSH1 0x1 PUSH1 0xA0 SHL SUB DUP2 AND SWAP1 DUP2 SWAP1 SUB PUSH2 0x7C JUMPI PUSH1 0x1 DUP1 PUSH1 0xA0 SHL SUB NOT SWAP1 DUP2 PUSH1 0x0 SLOAD AND OR PUSH1 0x0 SSTORE CALLER SWAP1 PUSH1 0x1 SLOAD AND OR PUSH1 0x1 SSTORE PUSH1 0x40 MLOAD PUSH2 0xC96 SWAP1 DUP2 PUSH2 0x98 DUP3 CODECOPY RETURN JUMPDEST PUSH1 0x0 DUP1 REVERT JUMPDEST PUSH4 0x4E487B71 PUSH1 0xE0 SHL PUSH1 0x0 MSTORE PUSH1 0x41 PUSH1 0x4 MSTORE PUSH1 0x24 PUSH1 0x0 REVERT INVALID PUSH1 0x80 DUP1 PUSH1 0x40 MSTORE PUSH1 0x4 CALLDATASIZE LT ISZERO PUSH2 0x13 JUMPI PUSH1 0x0 DUP1 REVERT JUMPDEST PUSH1 0x0 CALLDATALOAD PUSH1 0xE0 SHR SWAP1 DUP2 PUSH4 0x1730121C EQ PUSH2 0xA2E JUMPI POP DUP1 PUSH4 0x327939FA EQ PUSH2 0x940 JUMPI DUP1 PUSH4 0x528A394D EQ PUSH2 0x628 JUMPI DUP1 PUSH4 0x7986B037 EQ PUSH2 0x198 JUMPI DUP1 PUSH4 0x8DA5CB5B EQ PUSH2 0x16F JUMPI PUSH4 0xD0906D7C EQ PUSH2 0x61 JUMPI PUSH1 0x0 DUP1 REVERT JUMPDEST CALLVALUE PUSH2 0x16A JUMPI PUSH1 0x20 CALLDATASIZE PUSH1 0x3 NOT ADD SLT PUSH2 0x16A JUMPI PUSH1 0x4 CALLDATALOAD PUSH1 0x0 MSTORE PUSH1 0x2 PUSH1 0x20 MSTORE PUSH2 0x152 PUSH1 0x40 PUSH1 0x0 KECCAK256 PUSH2 0x12F PUSH2 0x160 PUSH1 0x40 MLOAD SWAP3 PUSH2 0x98 DUP5 PUSH2 0xB22 JUMP JUMPDEST DUP1 SLOAD DUP5 MSTORE PUSH1 0x1 DUP1 PUSH1 0xA0 SHL SUB DUP1 PUSH1 0x1 DUP4 ADD SLOAD AND PUSH1 0x20 DUP7 ADD MSTORE PUSH1 0x2 DUP3 ADD SLOAD AND PUSH1 0x40 DUP6 ADD MSTORE PUSH1 0x40 MLOAD PUSH2 0xD5 DUP2 PUSH2 0xCE DUP2 PUSH1 0x3 DUP7 ADD PUSH2 0xA8C JUMP JUMPDEST SUB DUP3 PUSH2 0xB5B JUMP JUMPDEST PUSH1 0x60 DUP6 ADD MSTORE PUSH1 0x4 DUP2 ADD SLOAD PUSH1 0x80 DUP6 ADD MSTORE PUSH1 0x7 PUSH1 0xE0 PUSH1 0xFF PUSH1 0x5 DUP5 ADD SLOAD AND SWAP6 PUSH1 0xA0 DUP2 ADD SWAP7 ISZERO ISZERO DUP8 MSTORE PUSH2 0x136 PUSH1 0x40 MLOAD SWAP5 PUSH2 0x119 DUP7 PUSH2 0x112 DUP2 PUSH1 0x6 DUP6 ADD PUSH2 0xA8C JUMP JUMPDEST SUB DUP8 PUSH2 0xB5B JUMP JUMPDEST PUSH1 0xC0 DUP4 ADD SWAP6 DUP7 MSTORE PUSH1 0x40 MLOAD SWAP8 DUP9 DUP1 SWAP7 DUP2 SWAP4 ADD PUSH2 0xA8C JUMP JUMPDEST SUB DUP5 PUSH2 0xB5B JUMP JUMPDEST ADD MSTORE MLOAD SWAP3 MLOAD ISZERO ISZERO SWAP2 PUSH1 0x40 MLOAD SWAP5 DUP6 SWAP5 PUSH1 0x60 DUP7 MSTORE PUSH1 0x60 DUP7 ADD SWAP1 PUSH2 0xB7D JUMP JUMPDEST SWAP1 DUP5 DUP3 SUB PUSH1 0x20 DUP7 ADD MSTORE PUSH2 0xB7D JUMP JUMPDEST SWAP1 PUSH1 0x40 DUP4 ADD MSTORE SUB SWAP1 RETURN JUMPDEST PUSH1 0x0 DUP1 REVERT JUMPDEST CALLVALUE PUSH2 0x16A JUMPI PUSH1 0x0 CALLDATASIZE PUSH1 0x3 NOT ADD SLT PUSH2 0x16A JUMPI PUSH1 0x1 SLOAD PUSH1 0x40 MLOAD PUSH1 0x1 PUSH1 0x1 PUSH1 0xA0 SHL SUB SWAP1 SWAP2 AND DUP2 MSTORE PUSH1 0x20 SWAP1 RETURN JUMPDEST CALLVALUE PUSH2 0x16A JUMPI PUSH1 0x80 CALLDATASIZE PUSH1 0x3 NOT ADD SLT PUSH2 0x16A JUMPI PUSH1 0x24 CALLDATALOAD PUSH1 0x1 PUSH1 0x1 PUSH1 0xA0 SHL SUB DUP2 AND DUP2 SUB PUSH2 0x16A JUMPI PUSH1 0x44 CALLDATALOAD SWAP1 PUSH1 0x1 PUSH1 0x1 PUSH1 0xA0 SHL SUB DUP3 AND DUP3 SUB PUSH2 0x16A JUMPI PUSH1 0x64 CALLDATALOAD PUSH8 0xFFFFFFFFFFFFFFFF DUP2 GT PUSH2 0x16A JUMPI PUSH2 0x1F0 SWAP1 CALLDATASIZE SWAP1 PUSH1 0x4 ADD PUSH2 0xBBD JUMP JUMPDEST PUSH1 0x0 SLOAD SWAP1 SWAP4 SWAP2 SWAP1 PUSH1 0x1 PUSH1 0x1 PUSH1 0xA0 SHL SUB AND CALLER SUB PUSH2 0x5E3 JUMPI PUSH1 0x40 MLOAD SWAP4 PUSH2 0x213 DUP6 PUSH2 0xB22 JUMP JUMPDEST PUSH1 0x4 CALLDATALOAD DUP6 MSTORE PUSH1 0x1 PUSH1 0x1 PUSH1 0xA0 SHL SUB DUP5 DUP2 AND PUSH1 0x20 DUP8 ADD MSTORE DUP4 AND PUSH1 0x40 DUP7 ADD MSTORE PUSH8 0xFFFFFFFFFFFFFFFF DUP2 GT PUSH2 0x4E5 JUMPI PUSH1 0x40 MLOAD SWAP2 PUSH2 0x256 PUSH1 0x1F DUP4 ADD PUSH1 0x1F NOT AND PUSH1 0x20 ADD DUP5 PUSH2 0xB5B JUMP JUMPDEST DUP2 DUP4 MSTORE CALLDATASIZE DUP3 DUP3 ADD GT PUSH2 0x16A JUMPI DUP2 PUSH1 0x0 SWAP3 PUSH1 0x20 SWAP3 DUP4 DUP7 ADD CALLDATACOPY DUP4 ADD ADD MSTORE PUSH1 0x60 DUP5 ADD MSTORE TIMESTAMP PUSH1 0x80 DUP5 ADD MSTORE PUSH1 0x0 PUSH1 0xA0 DUP5 ADD MSTORE PUSH1 0x40 MLOAD PUSH2 0x28F DUP2 PUSH2 0xB3F JUMP JUMPDEST PUSH1 0x0 DUP2 MSTORE PUSH1 0xC0 DUP5 ADD MSTORE PUSH1 0x40 MLOAD PUSH2 0x2A4 DUP2 PUSH2 0xB3F JUMP JUMPDEST PUSH1 0x0 DUP2 MSTORE PUSH1 0xE0 DUP5 ADD MSTORE PUSH1 0x4 CALLDATALOAD PUSH1 0x0 MSTORE PUSH1 0x2 PUSH1 0x20 MSTORE PUSH1 0x40 PUSH1 0x0 KECCAK256 SWAP3 DUP1 MLOAD DUP5 SSTORE PUSH1 0x1 DUP5 ADD PUSH1 0x1 DUP1 PUSH1 0xA0 SHL SUB PUSH1 0x20 DUP4 ADD MLOAD AND SWAP1 PUSH12 0xFFFFFFFFFFFFFFFFFFFFFFFF PUSH1 0xA0 SHL SWAP2 DUP3 DUP3 SLOAD AND OR SWAP1 SSTORE PUSH1 0x2 DUP6 ADD SWAP1 PUSH1 0x1 DUP1 PUSH1 0xA0 SHL SUB PUSH1 0x40 DUP5 ADD MLOAD AND SWAP1 DUP3 SLOAD AND OR SWAP1 SSTORE PUSH1 0x60 DUP2 ADD MLOAD SWAP4 DUP5 MLOAD SWAP5 PUSH8 0xFFFFFFFFFFFFFFFF DUP7 GT PUSH2 0x4E5 JUMPI PUSH1 0x3 SWAP6 DUP1 DUP8 DUP5 ADD SWAP3 PUSH2 0x339 DUP3 PUSH2 0x333 DUP7 SLOAD PUSH2 0xA52 JUMP JUMPDEST DUP7 PUSH2 0xBEB JUMP JUMPDEST PUSH1 0x20 SWAP1 PUSH1 0x1F DUP4 GT PUSH1 0x1 EQ PUSH2 0x57E JUMPI PUSH1 0x0 SWAP3 PUSH2 0x573 JUMPI JUMPDEST POP POP DUP2 PUSH1 0x1 SHL SWAP2 PUSH1 0x0 NOT SWAP1 DUP10 SHL SHR NOT AND OR SWAP1 SSTORE JUMPDEST PUSH1 0x80 DUP3 ADD MLOAD PUSH1 0x4 DUP3 ADD SSTORE PUSH1 0x5 DUP2 ADD PUSH1 0xA0 DUP4 ADD MLOAD ISZERO ISZERO PUSH1 0xFF DUP1 NOT DUP4 SLOAD AND SWAP2 AND OR SWAP1 SSTORE PUSH1 0x6 DUP2 ADD PUSH1 0xC0 DUP4 ADD MLOAD DUP1 MLOAD SWAP1 PUSH8 0xFFFFFFFFFFFFFFFF DUP3 GT PUSH2 0x4E5 JUMPI PUSH2 0x3B3 DUP3 PUSH2 0x3AD DUP6 SLOAD PUSH2 0xA52 JUMP JUMPDEST DUP6 PUSH2 0xBEB JUMP JUMPDEST PUSH1 0x20 SWAP1 PUSH1 0x1F DUP4 GT PUSH1 0x1 EQ PUSH2 0x506 JUMPI SWAP2 DUP1 PUSH1 0x7 SWAP5 SWAP3 PUSH1 0xE0 SWAP7 SWAP5 PUSH1 0x0 SWAP3 PUSH2 0x4FB JUMPI JUMPDEST POP POP DUP2 PUSH1 0x1 SHL SWAP2 PUSH1 0x0 NOT SWAP1 DUP12 SHL SHR NOT AND OR SWAP1 SSTORE JUMPDEST ADD SWAP2 ADD MLOAD SWAP4 DUP5 MLOAD SWAP1 PUSH8 0xFFFFFFFFFFFFFFFF DUP3 GT PUSH2 0x4E5 JUMPI PUSH2 0x40C DUP3 PUSH2 0x3AD DUP6 SLOAD PUSH2 0xA52 JUMP JUMPDEST PUSH1 0x20 PUSH1 0x1F DUP4 GT PUSH1 0x1 EQ PUSH2 0x47B JUMPI DUP3 SWAP4 SWAP5 SWAP6 SWAP7 PUSH1 0x0 SWAP4 PUSH2 0x470 JUMPI JUMPDEST POP POP DUP3 PUSH1 0x1 SHL SWAP3 PUSH1 0x0 NOT SWAP2 SHL SHR NOT AND OR SWAP1 SSTORE JUMPDEST PUSH1 0x1 PUSH1 0x1 PUSH1 0xA0 SHL SUB SWAP1 DUP2 AND SWAP2 AND PUSH1 0x4 CALLDATALOAD PUSH32 0xD3887A738AAA15C0BCB4C3A5F4E8EE19BB5DC46EB191313573806B2EF22ECFF8 PUSH1 0x0 DUP1 LOG4 STOP JUMPDEST ADD MLOAD SWAP2 POP DUP7 DUP1 PUSH2 0x426 JUMP JUMPDEST SWAP1 PUSH1 0x1F NOT DUP4 AND SWAP2 DUP5 PUSH1 0x0 MSTORE PUSH1 0x20 PUSH1 0x0 KECCAK256 SWAP3 PUSH1 0x0 JUMPDEST DUP2 DUP2 LT PUSH2 0x4CD JUMPI POP SWAP8 DUP5 PUSH1 0x1 SWAP7 SWAP8 SWAP9 SWAP10 LT PUSH2 0x4B3 JUMPI JUMPDEST POP POP POP POP DUP2 SHL ADD SWAP1 SSTORE PUSH2 0x439 JUMP JUMPDEST ADD MLOAD SWAP1 PUSH1 0xF8 DUP5 PUSH1 0x0 NOT SWAP3 SHL AND SHR NOT AND SWAP1 SSTORE DUP6 DUP1 DUP1 DUP1 PUSH2 0x4A5 JUMP JUMPDEST SWAP2 SWAP4 PUSH1 0x20 PUSH1 0x1 DUP2 SWAP3 DUP8 DUP14 ADD MLOAD DUP2 SSTORE ADD SWAP6 ADD SWAP3 ADD PUSH2 0x48F JUMP JUMPDEST PUSH4 0x4E487B71 PUSH1 0xE0 SHL PUSH1 0x0 MSTORE PUSH1 0x41 PUSH1 0x4 MSTORE PUSH1 0x24 PUSH1 0x0 REVERT JUMPDEST ADD MLOAD SWAP1 POP DUP11 DUP1 PUSH2 0x3D3 JUMP JUMPDEST SWAP1 PUSH1 0x1F NOT DUP4 AND SWAP2 DUP5 PUSH1 0x0 MSTORE PUSH1 0x20 PUSH1 0x0 KECCAK256 SWAP3 PUSH1 0x0 JUMPDEST DUP2 DUP2 LT PUSH2 0x55B JUMPI POP SWAP3 PUSH1 0x1 SWAP3 DUP6 SWAP3 PUSH1 0xE0 SWAP9 SWAP7 PUSH1 0x7 SWAP9 SWAP7 LT PUSH2 0x543 JUMPI JUMPDEST POP POP POP DUP2 SHL ADD SWAP1 SSTORE PUSH2 0x3E7 JUMP JUMPDEST ADD MLOAD PUSH1 0x0 NOT DUP4 DUP14 SHL PUSH1 0xF8 AND SHR NOT AND SWAP1 SSTORE DUP11 DUP1 DUP1 PUSH2 0x536 JUMP JUMPDEST SWAP3 SWAP4 PUSH1 0x20 PUSH1 0x1 DUP2 SWAP3 DUP8 DUP7 ADD MLOAD DUP2 SSTORE ADD SWAP6 ADD SWAP4 ADD PUSH2 0x51A JUMP JUMPDEST ADD MLOAD SWAP1 POP DUP9 DUP1 PUSH2 0x34F JUMP JUMPDEST PUSH1 0x0 DUP6 DUP2 MSTORE PUSH1 0x20 DUP2 KECCAK256 SWAP4 POP PUSH1 0x1F NOT DUP6 AND SWAP1 JUMPDEST DUP2 DUP2 LT PUSH2 0x5CB JUMPI POP SWAP1 DUP5 PUSH1 0x1 SWAP6 SWAP5 SWAP4 SWAP3 LT PUSH2 0x5B3 JUMPI JUMPDEST POP POP POP DUP2 SHL ADD SWAP1 SSTORE PUSH2 0x363 JUMP JUMPDEST ADD MLOAD PUSH1 0x0 NOT DUP4 DUP12 SHL PUSH1 0xF8 AND SHR NOT AND SWAP1 SSTORE DUP9 DUP1 DUP1 PUSH2 0x5A6 JUMP JUMPDEST SWAP3 SWAP4 PUSH1 0x20 PUSH1 0x1 DUP2 SWAP3 DUP8 DUP7 ADD MLOAD DUP2 SSTORE ADD SWAP6 ADD SWAP4 ADD PUSH2 0x590 JUMP JUMPDEST PUSH1 0x40 MLOAD PUSH3 0x461BCD PUSH1 0xE5 SHL DUP2 MSTORE PUSH1 0x20 PUSH1 0x4 DUP3 ADD MSTORE PUSH1 0x1C PUSH1 0x24 DUP3 ADD MSTORE PUSH32 0x4F6E6C7920496D6D756E697479204C617965722063616E2063616C6C00000000 PUSH1 0x44 DUP3 ADD MSTORE PUSH1 0x64 SWAP1 REVERT JUMPDEST CALLVALUE PUSH2 0x16A JUMPI PUSH1 0x80 CALLDATASIZE PUSH1 0x3 NOT ADD SLT PUSH2 0x16A JUMPI PUSH8 0xFFFFFFFFFFFFFFFF PUSH1 0x4 CALLDATALOAD PUSH1 0x24 CALLDATALOAD DUP3 DUP2 GT PUSH2 0x16A JUMPI PUSH2 0x65D SWAP1 CALLDATASIZE SWAP1 PUSH1 0x4 ADD PUSH2 0xBBD JUMP JUMPDEST PUSH1 0x44 CALLDATALOAD DUP5 DUP2 GT PUSH2 0x16A JUMPI PUSH2 0x675 SWAP1 CALLDATASIZE SWAP1 PUSH1 0x4 ADD PUSH2 0xBBD JUMP JUMPDEST PUSH1 0x64 CALLDATALOAD SWAP2 DUP3 ISZERO ISZERO DUP1 SWAP4 SUB PUSH2 0x16A JUMPI PUSH1 0x1 DUP1 SLOAD SWAP1 SWAP8 SWAP1 PUSH1 0x1 PUSH1 0x1 PUSH1 0xA0 SHL SUB AND CALLER SUB PUSH2 0x90E JUMPI DUP7 PUSH1 0x0 MSTORE PUSH1 0x20 SWAP8 PUSH1 0x2 DUP10 MSTORE PUSH1 0xFF PUSH1 0x5 PUSH1 0x40 PUSH1 0x0 KECCAK256 ADD SLOAD AND PUSH2 0x8C9 JUMPI DUP8 PUSH1 0x0 MSTORE PUSH1 0x2 DUP10 MSTORE PUSH1 0x6 PUSH1 0x40 PUSH1 0x0 KECCAK256 PUSH1 0x5 DUP2 ADD DUP4 PUSH1 0xFF NOT DUP3 SLOAD AND OR SWAP1 SSTORE ADD DUP3 DUP8 GT PUSH2 0x4E5 JUMPI PUSH2 0x6ED DUP8 PUSH2 0x6E7 DUP4 SLOAD PUSH2 0xA52 JUMP JUMPDEST DUP4 PUSH2 0xBEB JUMP JUMPDEST DUP7 PUSH1 0x0 PUSH1 0x1F DUP3 GT PUSH1 0x1 EQ PUSH2 0x863 JUMPI PUSH1 0x0 SWAP2 PUSH2 0x858 JUMPI JUMPDEST POP PUSH1 0x0 NOT PUSH1 0x3 DUP10 SWAP1 SHL SHR NOT AND DUP8 DUP4 SHL OR SWAP1 SSTORE JUMPDEST DUP8 PUSH1 0x0 MSTORE PUSH1 0x2 DUP10 MSTORE PUSH1 0x7 PUSH1 0x40 PUSH1 0x0 KECCAK256 ADD SWAP2 DUP5 GT PUSH2 0x4E5 JUMPI PUSH2 0x741 DUP5 PUSH2 0x73B DUP5 SLOAD PUSH2 0xA52 JUMP JUMPDEST DUP5 PUSH2 0xBEB JUMP JUMPDEST PUSH1 0x0 PUSH1 0x1F DUP6 GT PUSH1 0x1 EQ PUSH2 0x7CE JUMPI SWAP2 DUP5 DUP1 PUSH32 0x91835154CCBE750AA69196CFC23DDAC21C39BAAEEF0B53F3C7BA30355E771576 SWAP11 SWAP12 SWAP6 SWAP4 PUSH2 0x7B8 SWAP8 SWAP6 PUSH1 0x0 SWAP4 PUSH2 0x7C3 JUMPI JUMPDEST POP SHL SWAP1 PUSH1 0x0 NOT DUP6 PUSH1 0x3 SHL SHR NOT AND OR SWAP1 SSTORE JUMPDEST PUSH2 0x7AB PUSH1 0x40 MLOAD SWAP8 DUP9 SWAP8 PUSH1 0x60 DUP10 MSTORE PUSH1 0x60 DUP10 ADD SWAP2 PUSH2 0xC3F JUMP JUMPDEST SWAP3 DUP7 DUP5 SUB SWAP1 DUP8 ADD MSTORE PUSH2 0xC3F JUMP JUMPDEST SWAP1 PUSH1 0x40 DUP4 ADD MSTORE SUB SWAP1 LOG2 STOP JUMPDEST DUP6 ADD CALLDATALOAD SWAP3 POP DUP14 PUSH2 0x783 JUMP JUMPDEST PUSH1 0x1F NOT DUP6 AND SWAP1 DUP4 PUSH1 0x0 MSTORE DUP11 PUSH1 0x0 KECCAK256 SWAP2 PUSH1 0x0 JUMPDEST DUP2 DUP2 LT PUSH2 0x843 JUMPI POP SWAP2 PUSH32 0x91835154CCBE750AA69196CFC23DDAC21C39BAAEEF0B53F3C7BA30355E771576 SWAP11 SWAP12 SWAP6 SWAP4 SWAP2 DUP8 PUSH2 0x7B8 SWAP9 SWAP7 SWAP5 LT PUSH2 0x829 JUMPI JUMPDEST POP POP DUP4 DUP2 SHL ADD SWAP1 SSTORE PUSH2 0x794 JUMP JUMPDEST DUP5 ADD CALLDATALOAD PUSH1 0x0 NOT PUSH1 0x3 DUP8 SWAP1 SHL PUSH1 0xF8 AND SHR NOT AND SWAP1 SSTORE DUP12 DUP1 PUSH2 0x81C JUMP JUMPDEST DUP7 DUP4 ADD CALLDATALOAD DUP5 SSTORE SWAP3 DUP5 ADD SWAP3 SWAP2 DUP13 ADD SWAP2 DUP13 ADD PUSH2 0x7E0 JUMP JUMPDEST SWAP1 POP DUP9 ADD CALLDATALOAD DUP12 PUSH2 0x703 JUMP JUMPDEST PUSH1 0x0 DUP4 DUP2 MSTORE DUP13 DUP2 KECCAK256 SWAP3 SWAP1 PUSH1 0x1F NOT DUP3 AND SWAP1 DUP15 DUP8 DUP15 JUMPDEST DUP5 DUP5 LT PUSH2 0x8B0 JUMPI POP POP POP POP LT PUSH2 0x896 JUMPI JUMPDEST POP POP DUP2 DUP8 DUP2 SHL ADD SWAP1 SSTORE PUSH2 0x716 JUMP JUMPDEST DUP10 ADD CALLDATALOAD PUSH1 0x0 NOT PUSH1 0x3 DUP11 SWAP1 SHL PUSH1 0xF8 AND SHR NOT AND SWAP1 SSTORE DUP11 DUP1 PUSH2 0x888 JUMP JUMPDEST DUP7 ADD CALLDATALOAD DUP8 SSTORE SWAP1 SWAP6 ADD SWAP5 SWAP4 DUP5 ADD SWAP4 DUP13 SWAP4 POP ADD DUP15 DUP8 DUP15 PUSH2 0x877 JUMP JUMPDEST PUSH1 0x40 MLOAD PUSH3 0x461BCD PUSH1 0xE5 SHL DUP2 MSTORE PUSH1 0x4 DUP2 ADD DUP11 SWAP1 MSTORE PUSH1 0x1A PUSH1 0x24 DUP3 ADD MSTORE PUSH32 0x416E616C7973697320616C726561647920636F6D706C65746564000000000000 PUSH1 0x44 DUP3 ADD MSTORE PUSH1 0x64 SWAP1 REVERT JUMPDEST PUSH1 0x40 MLOAD PUSH3 0x461BCD PUSH1 0xE5 SHL DUP2 MSTORE PUSH1 0x20 PUSH1 0x4 DUP3 ADD MSTORE PUSH1 0xA PUSH1 0x24 DUP3 ADD MSTORE PUSH10 0x27B7363C9037BBB732B9 PUSH1 0xB1 SHL PUSH1 0x44 DUP3 ADD MSTORE PUSH1 0x64 SWAP1 REVERT JUMPDEST CALLVALUE PUSH2 0x16A JUMPI PUSH1 0x20 CALLDATASIZE PUSH1 0x3 NOT ADD SLT PUSH2 0x16A JUMPI PUSH1 0x4 CALLDATALOAD PUSH1 0x0 MSTORE PUSH1 0x2 PUSH1 0x20 MSTORE PUSH1 0x40 PUSH1 0x0 KECCAK256 DUP1 SLOAD PUSH2 0xA2A PUSH1 0x7 PUSH2 0xA1C PUSH1 0x1 DUP1 PUSH1 0xA0 SHL SUB SWAP5 DUP6 PUSH1 0x1 DUP3 ADD SLOAD AND SWAP6 PUSH1 0x2 DUP3 ADD SLOAD AND SWAP1 PUSH1 0x40 MLOAD SWAP2 PUSH2 0x997 DUP4 PUSH2 0x12F DUP2 PUSH1 0x3 DUP7 ADD PUSH2 0xA8C JUMP JUMPDEST PUSH2 0xA02 PUSH1 0x4 DUP4 ADD SLOAD SWAP4 PUSH1 0xFF PUSH1 0x5 DUP6 ADD SLOAD AND SWAP3 PUSH2 0x9DF PUSH1 0x40 MLOAD SWAP6 PUSH2 0x9C8 DUP8 PUSH2 0x9C1 DUP2 PUSH1 0x6 DUP6 ADD PUSH2 0xA8C JUMP JUMPDEST SUB DUP9 PUSH2 0xB5B JUMP JUMPDEST PUSH2 0x9D8 PUSH1 0x40 MLOAD DUP1 SWAP12 DUP2 SWAP4 ADD PUSH2 0xA8C JUMP JUMPDEST SUB DUP10 PUSH2 0xB5B JUMP JUMPDEST PUSH1 0x40 MLOAD SWAP11 DUP12 SWAP11 DUP12 MSTORE PUSH1 0x20 DUP12 ADD MSTORE PUSH1 0x40 DUP11 ADD MSTORE PUSH2 0x100 DUP1 PUSH1 0x60 DUP12 ADD MSTORE DUP10 ADD SWAP1 PUSH2 0xB7D JUMP JUMPDEST SWAP3 PUSH1 0x80 DUP9 ADD MSTORE ISZERO ISZERO PUSH1 0xA0 DUP8 ADD MSTORE DUP6 DUP3 SUB PUSH1 0xC0 DUP8 ADD MSTORE PUSH2 0xB7D JUMP JUMPDEST SWAP1 DUP4 DUP3 SUB PUSH1 0xE0 DUP6 ADD MSTORE PUSH2 0xB7D JUMP JUMPDEST SUB SWAP1 RETURN JUMPDEST CALLVALUE PUSH2 0x16A JUMPI PUSH1 0x0 CALLDATASIZE PUSH1 0x3 NOT ADD SLT PUSH2 0x16A JUMPI PUSH1 0x0 SLOAD PUSH1 0x1 PUSH1 0x1 PUSH1 0xA0 SHL SUB AND DUP2 MSTORE PUSH1 0x20 SWAP1 RETURN JUMPDEST SWAP1 PUSH1 0x1 DUP3 DUP2 SHR SWAP3 AND DUP1 ISZERO PUSH2 0xA82 JUMPI JUMPDEST PUSH1 0x20 DUP4 LT EQ PUSH2 0xA6C JUMPI JUMP JUMPDEST PUSH4 0x4E487B71 PUSH1 0xE0 SHL PUSH1 0x0 MSTORE PUSH1 0x22 PUSH1 0x4 MSTORE PUSH1 0x24 PUSH1 0x0 REVERT JUMPDEST SWAP2 PUSH1 0x7F AND SWAP2 PUSH2 0xA61 JUMP JUMPDEST SWAP1 PUSH1 0x0 SWAP3 SWAP2 DUP1 SLOAD SWAP2 PUSH2 0xA9D DUP4 PUSH2 0xA52 JUMP JUMPDEST SWAP2 DUP3 DUP3 MSTORE PUSH1 0x1 SWAP4 DUP5 DUP2 AND SWAP1 DUP2 PUSH1 0x0 EQ PUSH2 0xAFF JUMPI POP PUSH1 0x1 EQ PUSH2 0xABF JUMPI JUMPDEST POP POP POP POP JUMP JUMPDEST SWAP1 SWAP2 SWAP4 SWAP5 POP PUSH1 0x0 MSTORE PUSH1 0x20 SWAP3 DUP4 PUSH1 0x0 KECCAK256 SWAP3 DUP5 PUSH1 0x0 SWAP5 JUMPDEST DUP4 DUP7 LT PUSH2 0xAEB JUMPI POP POP POP POP ADD ADD SWAP1 CODESIZE DUP1 DUP1 DUP1 PUSH2 0xAB9 JUMP JUMPDEST DUP1 SLOAD DUP6 DUP8 ADD DUP4 ADD MSTORE SWAP5 ADD SWAP4 DUP6 SWAP1 DUP3 ADD PUSH2 0xAD4 JUMP JUMPDEST SWAP3 SWAP5 POP POP POP PUSH1 0x20 SWAP4 SWAP5 POP PUSH1 0xFF NOT AND DUP4 DUP4 ADD MSTORE ISZERO ISZERO PUSH1 0x5 SHL ADD ADD SWAP1 CODESIZE DUP1 DUP1 DUP1 PUSH2 0xAB9 JUMP JUMPDEST PUSH2 0x100 DUP2 ADD SWAP1 DUP2 LT PUSH8 0xFFFFFFFFFFFFFFFF DUP3 GT OR PUSH2 0x4E5 JUMPI PUSH1 0x40 MSTORE JUMP JUMPDEST PUSH1 0x20 DUP2 ADD SWAP1 DUP2 LT PUSH8 0xFFFFFFFFFFFFFFFF DUP3 GT OR PUSH2 0x4E5 JUMPI PUSH1 0x40 MSTORE JUMP JUMPDEST SWAP1 PUSH1 0x1F DUP1 NOT SWAP2 ADD AND DUP2 ADD SWAP1 DUP2 LT PUSH8 0xFFFFFFFFFFFFFFFF DUP3 GT OR PUSH2 0x4E5 JUMPI PUSH1 0x40 MSTORE JUMP JUMPDEST SWAP2 SWAP1 DUP3 MLOAD SWAP3 DUP4 DUP3 MSTORE PUSH1 0x0 JUMPDEST DUP5 DUP2 LT PUSH2 0xBA9 JUMPI POP POP DUP3 PUSH1 0x0 PUSH1 0x20 DUP1 SWAP5 SWAP6 DUP5 ADD ADD MSTORE PUSH1 0x1F DUP1 NOT SWAP2 ADD AND ADD ADD SWAP1 JUMP JUMPDEST PUSH1 0x20 DUP2 DUP4 ADD DUP2 ADD MLOAD DUP5 DUP4 ADD DUP3 ADD MSTORE ADD PUSH2 0xB88 JUMP JUMPDEST SWAP2 DUP2 PUSH1 0x1F DUP5 ADD SLT ISZERO PUSH2 0x16A JUMPI DUP3 CALLDATALOAD SWAP2 PUSH8 0xFFFFFFFFFFFFFFFF DUP4 GT PUSH2 0x16A JUMPI PUSH1 0x20 DUP4 DUP2 DUP7 ADD SWAP6 ADD ADD GT PUSH2 0x16A JUMPI JUMP JUMPDEST SWAP1 PUSH1 0x1F DUP2 GT PUSH2 0xBF9 JUMPI POP POP POP JUMP JUMPDEST PUSH1 0x0 SWAP2 DUP3 MSTORE PUSH1 0x20 DUP3 KECCAK256 SWAP1 PUSH1 0x20 PUSH1 0x1F DUP6 ADD PUSH1 0x5 SHR DUP4 ADD SWAP5 LT PUSH2 0xC35 JUMPI JUMPDEST PUSH1 0x1F ADD PUSH1 0x5 SHR ADD SWAP2 JUMPDEST DUP3 DUP2 LT PUSH2 0xC2A JUMPI POP POP POP JUMP JUMPDEST DUP2 DUP2 SSTORE PUSH1 0x1 ADD PUSH2 0xC1E JUMP JUMPDEST SWAP1 SWAP3 POP DUP3 SWAP1 PUSH2 0xC15 JUMP JUMPDEST SWAP1 DUP1 PUSH1 0x20 SWAP4 SWAP3 DUP2 DUP5 MSTORE DUP5 DUP5 ADD CALLDATACOPY PUSH1 0x0 DUP3 DUP3 ADD DUP5 ADD MSTORE PUSH1 0x1F ADD PUSH1 0x1F NOT AND ADD ADD SWAP1 JUMP INVALID LOG2 PUSH5 0x6970667358 0x22 SLT KECCAK256 INVALID SAR 0x27 DUP15 SWAP1 MSTORE8 0xB9 PUSH8 0xB428DFF614FF1CAF 0x29 0xE0 0x2F 0xC9 0x24 DUP12 0xA8 SWAP8 JUMPI 0xCC 0xF 0xDE PUSH25 0x9422D464736F6C634300081300330000000000000000000000 "},"methodIdentifiers":{"analysisRequests(bytes32)":"327939fa","getAnalysis(bytes32)":"d0906d7c","immunityLayer()":"1730121c","owner()":"8da5cb5b","requestAnalysis(bytes32,address,address,bytes)":"7986b037","submitAnalysis(bytes32,string,string,bool)":"528a394d"}}}}}