{"contracts/BankingContract.sol":{"BankingContract":{"abi":[{"inputs":[{"internalType":"address","name":"_immunityLayer","type":"address"},{"internalType":"uint256","name":"_interestRate","type":"uint256"},{"internalType":"uint256","name":"_withdrawalDelay","type":"uint256"},{"internalType":"uint256","name":"_maxWithdrawalPerTx","type":"uint256"}],"stateMutability":"nonpayable","type":"constructor"},{"anonymous":false,"inputs":[{"indexed":true,"internalType":"address","name":"oldAdmin","type":"address"},{"indexed":true,"internalType":"address","name":"newAdmin","type":"address"},{"indexed":false,"internalType":"uint256","name":"timestamp","type":"uint256"}],"name":"AdminChanged","type":"event"},{"anonymous":false,"inputs":[{"indexed":true,"internalType":"address","name":"user","type":"address"},{"indexed":false,"internalType":"uint256","name":"amount","type":"uint256"},{"indexed":false,"internalType":"uint256","name":"newBalance","type":"uint256"},{"indexed":false,"internalType":"uint256","name":"timestamp","type":"uint256"}],"name":"Deposit","type":"event"},{"anonymous":false,"inputs":[{"indexed":true,"internalType":"address","name":"admin","type":"address"},{"indexed":false,"internalType":"bool","name":"isFrozen","type":"bool"},{"indexed":false,"internalType":"string","name":"reason","type":"string"},{"indexed":false,"internalType":"uint256","name":"timestamp","type":"uint256"}],"name":"EmergencyFreeze","type":"event"},{"anonymous":false,"inputs":[{"indexed":true,"internalType":"address","name":"user","type":"address"},{"indexed":false,"internalType":"uint256","name":"amount","type":"uint256"},{"indexed":false,"internalType":"uint256","name":"newBalance","type":"uint256"},{"indexed":false,"internalType":"uint256","name":"timestamp","type":"uint256"}],"name":"InterestAccrued","type":"event"},{"anonymous":false,"inputs":[{"indexed":false,"internalType":"uint256","name":"oldRate","type":"uint256"},{"indexed":false,"internalType":"uint256","name":"newRate","type":"uint256"},{"indexed":false,"internalType":"uint256","name":"timestamp","type":"uint256"}],"name":"InterestRateUpdated","type":"event"},{"anonymous":false,"inputs":[{"indexed":false,"internalType":"uint256","name":"oldLimit","type":"uint256"},{"indexed":false,"internalType":"uint256","name":"newLimit","type":"uint256"},{"indexed":false,"internalType":"uint256","name":"timestamp","type":"uint256"}],"name":"MaxWithdrawalUpdated","type":"event"},{"anonymous":false,"inputs":[{"indexed":true,"internalType":"address","name":"previousOwner","type":"address"},{"indexed":true,"internalType":"address","name":"newOwner","type":"address"}],"name":"OwnershipTransferred","type":"event"},{"anonymous":false,"inputs":[{"indexed":true,"internalType":"address","name":"from","type":"address"},{"indexed":true,"internalType":"address","name":"to","type":"address"},{"indexed":false,"internalType":"uint256","name":"amount","type":"uint256"},{"indexed":false,"internalType":"uint256","name":"timestamp","type":"uint256"}],"name":"Transfer","type":"event"},{"anonymous":false,"inputs":[{"indexed":true,"internalType":"address","name":"user","type":"address"},{"indexed":false,"internalType":"uint256","name":"amount","type":"uint256"},{"indexed":false,"internalType":"uint256","name":"newBalance","type":"uint256"},{"indexed":false,"internalType":"uint256","name":"timestamp","type":"uint256"}],"name":"Withdraw","type":"event"},{"anonymous":false,"inputs":[{"indexed":true,"internalType":"address","name":"user","type":"address"},{"indexed":false,"internalType":"uint256","name":"requestedAmount","type":"uint256"},{"indexed":false,"internalType":"uint256","name":"unlockTime","type":"uint256"},{"indexed":false,"internalType":"uint256","name":"timestamp","type":"uint256"}],"name":"WithdrawalDelayed","type":"event"},{"stateMutability":"payable","type":"fallback"},{"inputs":[],"name":"acceptAdmin","outputs":[],"stateMutability":"nonpayable","type":"function"},{"inputs":[{"internalType":"address","name":"_user","type":"address"}],"name":"accrueInterest","outputs":[],"stateMutability":"nonpayable","type":"function"},{"inputs":[],"name":"accrueMyInterest","outputs":[],"stateMutability":"nonpayable","type":"function"},{"inputs":[],"name":"adminChangeDelay","outputs":[{"internalType":"uint256","name":"","type":"uint256"}],"stateMutability":"view","type":"function"},{"inputs":[],"name":"averageDepositAmount","outputs":[{"internalType":"uint256","name":"","type":"uint256"}],"stateMutability":"view","type":"function"},{"inputs":[{"internalType":"address","name":"_user","type":"address"}],"name":"balanceOf","outputs":[{"internalType":"uint256","name":"","type":"uint256"}],"stateMutability":"view","type":"function"},{"inputs":[{"internalType":"address","name":"","type":"address"}],"name":"balances","outputs":[{"internalType":"uint256","name":"","type":"uint256"}],"stateMutability":"view","type":"function"},{"inputs":[{"internalType":"address","name":"_user","type":"address"}],"name":"canWithdraw","outputs":[{"internalType":"bool","name":"","type":"bool"}],"stateMutability":"view","type":"function"},{"inputs":[],"name":"contractOwner","outputs":[{"internalType":"address","name":"","type":"address"}],"stateMutability":"view","type":"function"},{"inputs":[],"name":"deposit","outputs":[],"stateMutability":"payable","type":"function"},{"inputs":[{"internalType":"uint256","name":"_amount","type":"uint256"}],"name":"depositAmount","outputs":[],"stateMutability":"payable","type":"function"},{"inputs":[],"name":"depositCount","outputs":[{"internalType":"uint256","name":"","type":"uint256"}],"stateMutability":"view","type":"function"},{"inputs":[{"internalType":"string","name":"_reason","type":"string"}],"name":"emergencyFreeze","outputs":[],"stateMutability":"nonpayable","type":"function"},{"inputs":[],"name":"getBalance","outputs":[{"internalType":"uint256","name":"","type":"uint256"}],"stateMutability":"view","type":"function"},{"inputs":[],"name":"getContractStats","outputs":[{"internalType":"uint256","name":"totalDepositsAmount","type":"uint256"},{"internalType":"uint256","name":"totalWithdrawalsAmount","type":"uint256"},{"internalType":"uint256","name":"contractBalance","type":"uint256"},{"internalType":"uint256","name":"averageDeposit","type":"uint256"},{"internalType":"uint256","name":"currentInterestRate","type":"uint256"},{"internalType":"bool","name":"frozen","type":"bool"}],"stateMutability":"view","type":"function"},{"inputs":[{"internalType":"address","name":"_user","type":"address"}],"name":"getUserStats","outputs":[{"internalType":"uint256","name":"balance","type":"uint256"},{"internalType":"uint256","name":"totalDepositedAmount","type":"uint256"},{"internalType":"uint256","name":"totalWithdrawnAmount","type":"uint256"},{"internalType":"uint256","name":"withdrawalUnlockTime","type":"uint256"},{"internalType":"bool","name":"canWithdrawNow","type":"bool"}],"stateMutability":"view","type":"function"},{"inputs":[{"internalType":"address","name":"_user","type":"address"}],"name":"getWithdrawalUnlockTime","outputs":[{"internalType":"uint256","name":"","type":"uint256"}],"stateMutability":"view","type":"function"},{"inputs":[],"name":"immunityLayer","outputs":[{"internalType":"address","name":"","type":"address"}],"stateMutability":"view","type":"function"},{"inputs":[],"name":"interestEnabled","outputs":[{"internalType":"bool","name":"","type":"bool"}],"stateMutability":"view","type":"function"},{"inputs":[],"name":"interestRate","outputs":[{"internalType":"uint256","name":"","type":"uint256"}],"stateMutability":"view","type":"function"},{"inputs":[],"name":"isFrozen","outputs":[{"internalType":"bool","name":"","type":"bool"}],"stateMutability":"view","type":"function"},{"inputs":[{"internalType":"address","name":"","type":"address"}],"name":"lastDepositTime","outputs":[{"internalType":"uint256","name":"","type":"uint256"}],"stateMutability":"view","type":"function"},{"inputs":[],"name":"maxWithdrawalPerTx","outputs":[{"internalType":"uint256","name":"","type":"uint256"}],"stateMutability":"view","type":"function"},{"inputs":[],"name":"owner","outputs":[{"internalType":"address","name":"","type":"address"}],"stateMutability":"view","type":"function"},{"inputs":[],"name":"pendingAdmin","outputs":[{"internalType":"address","name":"","type":"address"}],"stateMutability":"view","type":"function"},{"inputs":[],"name":"renounceOwnership","outputs":[],"stateMutability":"nonpayable","type":"function"},{"inputs":[{"internalType":"uint256","name":"_amount","type":"uint256"}],"name":"safeWithdraw","outputs":[],"stateMutability":"nonpayable","type":"function"},{"inputs":[{"internalType":"address","name":"_immunityLayer","type":"address"}],"name":"setImmunityLayer","outputs":[],"stateMutability":"nonpayable","type":"function"},{"inputs":[{"internalType":"bool","name":"_enabled","type":"bool"}],"name":"setInterestEnabled","outputs":[],"stateMutability":"nonpayable","type":"function"},{"inputs":[{"internalType":"uint256","name":"_newRate","type":"uint256"}],"name":"setInterestRate","outputs":[],"stateMutability":"nonpayable","type":"function"},{"inputs":[{"internalType":"uint256","name":"_newMax","type":"uint256"}],"name":"setMaxWithdrawalPerTx","outputs":[],"stateMutability":"nonpayable","type":"function"},{"inputs":[{"internalType":"address","name":"_newAdmin","type":"address"}],"name":"setPendingAdmin","outputs":[],"stateMutability":"nonpayable","type":"function"},{"inputs":[{"internalType":"uint256","name":"_newDelay","type":"uint256"}],"name":"setWithdrawalDelay","outputs":[],"stateMutability":"nonpayable","type":"function"},{"inputs":[{"internalType":"address","name":"","type":"address"}],"name":"totalDeposited","outputs":[{"internalType":"uint256","name":"","type":"uint256"}],"stateMutability":"view","type":"function"},{"inputs":[],"name":"totalDeposits","outputs":[{"internalType":"uint256","name":"","type":"uint256"}],"stateMutability":"view","type":"function"},{"inputs":[],"name":"totalWithdrawals","outputs":[{"internalType":"uint256","name":"","type":"uint256"}],"stateMutability":"view","type":"function"},{"inputs":[{"internalType":"address","name":"","type":"address"}],"name":"totalWithdrawn","outputs":[{"internalType":"uint256","name":"","type":"uint256"}],"stateMutability":"view","type":"function"},{"inputs":[{"internalType":"address","name":"_to","type":"address"},{"internalType":"uint256","name":"_amount","type":"uint256"}],"name":"transfer","outputs":[],"stateMutability":"nonpayable","type":"function"},{"inputs":[{"internalType":"address","name":"newOwner","type":"address"}],"name":"transferOwnership","outputs":[],"stateMutability":"nonpayable","type":"function"},{"inputs":[],"name":"unfreeze","outputs":[],"stateMutability":"nonpayable","type":"function"},{"inputs":[{"internalType":"uint256","name":"_amount","type":"uint256"}],"name":"withdraw","outputs":[],"stateMutability":"nonpayable","type":"function"},{"inputs":[],"name":"withdrawalDelay","outputs":[{"internalType":"uint256","name":"","type":"uint256"}],"stateMutability":"view","type":"function"},{"inputs":[{"internalType":"address","name":"","type":"address"}],"name":"withdrawalLockTime","outputs":[{"internalType":"uint256","name":"","type":"uint256"}],"stateMutability":"view","type":"function"},{"stateMutability":"payable","type":"receive"}],"evm":{"bytecode":{"linkReferences":{},"object":"6080346100e857601f611bc338819003918201601f19168301916001600160401b038311848410176100ed578084926080946040528339810103126100e85780516001600160a01b0391828216918290036100e8576020810151606060408301519201519260018060a01b03199081600054161760005533816001541617600155600254903390821617600255604051943391167f8be0079c531659141344cd1fd0a4f28419497f9722a3daafe3b4186f6b6457e0600080a36001600355600b55600c55600d5561010061ff0019601054161760105562093a80601155611abf90816101048239f35b600080fd5b634e487b7160e01b600052604160045260246000fdfe608060409080825260049081361015610053575b503615610051576020606492519162461bcd60e51b83528201526012602482015271119d5b98dd1a5bdb881b9bdd08199bdd5b9960721b6044820152fd5b005b600090813560e01c9081630252775314611665575080630a64143a1461162d5780630c3ffe12146115725780630e18b681146114bf57806312065fe0146114a45780631730121c1461147c57806319262d301461142b57806325b850db1461140457806326782247146113d957806327e235e314610fb45780632dfdf0b5146113ba5780632e1a7d4d146112cd57806333eeb147146112a9578063397ce3ee146107335780634dab42071461128a5780634dd18bf5146111f25780634e43603a14611174578063530554811461113c5780635f84f3021461108a578063604646271461106b5780636a28f00014610feb57806370a0823114610fb4578063715018a614610f5457806377fcf07b14610eda5780637c3a00fd14610ebb5780637d88209714610e9c57806387f8ab2614610cd45780638da5cb5b14610cab5780639198e51514610afc578063a2fd6f2414610a3b578063a7ab696114610a1c578063a9059cbb146108b1578063b0fd035b1461076b578063c71ecb5b14610733578063cde98e8e14610714578063ce606ee0146106eb578063d0caea84146106cc578063d0e30db014610535578063d2c13da514610513578063d6ad3e03146104d5578063dfe6b5d614610484578063e4d22c8e146102cb5763f2fde38b03610013579190346102c75760203660031901126102c757610250611699565b916102596116b4565b6001600160a01b0383161561027557836102728461170c565b80f35b906020608492519162461bcd60e51b8352820152602660248201527f4f776e61626c653a206e6577206f776e657220697320746865207a65726f206160448201526564647265737360d01b6064820152fd5b8280fd5b509190346102c757826003193601126102c757825460ff906001600160a01b031615156102f781611755565b61031960105491610314848416159161030f8361179a565b611755565b61179a565b60081c1615610442573383526020818152828420541561040c5733845260068152610347838520544261180d565b8015610404575b61037364496cebb8009133875284845261036e86882054600b549061181a565b61181a565b048061037d578480f35b7fbea9dfcbd95788b1634fd949c43c80348c9a8960d5837081e062bc6679b9d8fe926103f9923387528181528587206103b78482546117db565b90556103c5836009546117db565b6009553387526006815242868820555283852054935191829133954291846040919493926060820195825260208201520152565b0390a2388080808480f35b50600161034e565b606492519162461bcd60e51b835282015260136024820152725573657220686173206e6f2062616c616e636560681b6044820152fd5b6020606492519162461bcd60e51b8352820152601c60248201527f496e746572657374206163637275616c2069732064697361626c6564000000006044820152fd5b5082346104d157816003193601126104d15760c09060095490600a549047600e5490600b549260ff60105416948151968752602087015285015260608401526080830152151560a0820152f35b5080fd5b5090346104d15760203660031901126104d157358015158091036104d1576104fb6116b4565b61ff006010549160081b169061ff0019161760105580f35b5090346104d15760203660031901126104d15761052e6116b4565b35600c5580f35b509190826003193601126102c7578254610559906001600160a01b03161515611755565b61056860ff601054161561179a565b61057061184d565b341561067c573383528060205281832061058b3482546117db565b9055610599346009546117db565b60095533835260076020528183206105b23482546117db565b9055338352600660205242828420556105cd600c54426117db565b3384526005602052828420556105e4600f546117fe565b80600f55600e54600019820182811161066957610614929161060a61060f92349261181a565b6117db565b61182d565b600e55338084526020918252828420549251348152918201929092524260408201527f36af321ec8d3c75236829c5317affd40ddb308863a1236d2d277a4025cccee1e9080606081015b0390a2600160035580f35b634e487b7160e01b865260118452602486fd5b6020608492519162461bcd60e51b8352820152602560248201527f4465706f73697420616d6f756e74206d75737420626520677265617465722074604482015264068616e20360dc1b6064820152fd5b5082346104d157816003193601126104d157602090600e549051908152f35b5082346104d157816003193601126104d15760015490516001600160a01b039091168152602090f35b5082346104d157816003193601126104d1576020906011549051908152f35b5082346104d15760203660031901126104d15760209181906001600160a01b0361075b611699565b1681526005845220549051908152f35b509190346102c757602090816003193601126108ad577f02f25270a4d87bea75db541cdfe559334a275b4a233520ed6c0a2429667cca94918161065e9235916107be60018060a01b038854161515611755565b6107cd60ff601054161561179a565b6107d561184d565b338752600581526107eb868820544210156118a3565b6107f68315156118ef565b33875281815261080b8387892054101561194c565b610819600d5484111561198f565b33875281815285872061082d84825461180d565b905561083b83600a546117db565b600a55338752600881528587206108538482546117db565b9055610861600c54426117db565b33885260058252868820556108858780808087335af161087f6119ea565b50611a4b565b3387525283852054935191829133954291846040919493926060820195825260208201520152565b8380fd5b5091346102c757806003193601126102c7576108cb611699565b835460243592916001600160a01b03916108e89083161515611755565b6108f760ff601054161561179a565b6108ff61184d565b169283156109da57821561098957907f9ed053bb818ff08b8353cd46f78db1f0799f31c9e4458fdb425c10eccd2efc4491338652806020526109468483882054101561194c565b3386528060205281862061095b85825461180d565b90558486526020528085206109718482546117db565b905580519283524260208401523392a3600160035580f35b6020608492519162461bcd60e51b8352820152602660248201527f5472616e7366657220616d6f756e74206d75737420626520677265617465722060448201526507468616e20360d41b6064820152fd5b6020606492519162461bcd60e51b8352820152601f60248201527f43616e6e6f74207472616e7366657220746f207a65726f2061646472657373006044820152fd5b5082346104d157816003193601126104d157602090600c549051908152f35b5091346102c75760203660031901126102c757813567ffffffffffffffff92838211610af85736602383011215610af8578101359283116108ad5736602484830101116108ad577f4b7a530a26d61084cb8c56f8fc0750fa4f75008bc5314e6213d44da47ae7276891610aac6116b4565b600160ff1960105416176010558360248251936001855260606020860152826060860152016080840137846080858401015242908201526080813394601f80199101168101030190a280f35b8480fd5b509190346102c757602090816003193601126108ad57610b1a611699565b84546001600160a01b039190610b339083161515611755565b60ff601054610b448282161561179a565b60081c1615610c685716928385528183528085205415610c315783855260068352610b72818620544261180d565b8015610c29575b610b9964496cebb8009186885284865261036e84892054600b549061181a565b049182610ba4578580f35b7fbea9dfcbd95788b1634fd949c43c80348c9a8960d5837081e062bc6679b9d8fe93858752818152828720610bda8582546117db565b9055610be8846009546117db565b60095585875260068152428388205552610c1d8186205491519283924291846040919493926060820195825260208201520152565b0390a238808080808580f35b506001610b79565b91606492519162461bcd60e51b835282015260136024820152725573657220686173206e6f2062616c616e636560681b6044820152fd5b845162461bcd60e51b8152808401859052601c60248201527f496e746572657374206163637275616c2069732064697361626c6564000000006044820152606490fd5b5082346104d157816003193601126104d15760025490516001600160a01b039091168152602090f35b509190602090816003193601126108ad57835481359290610cff906001600160a01b03161515611755565b610d0e60ff601054161561179a565b610d1661184d565b823403610e5a578215610e1857338552818152838520610d378482546117db565b9055610d45836009546117db565b60095533855260078152838520610d5d8482546117db565b9055338552600681524284862055610d77600c54426117db565b3386526005825284862055610d8d600f546117fe565b80600f55600e54600019820190828211610e055761065e949261060f8761060a7f36af321ec8d3c75236829c5317affd40ddb308863a1236d2d277a4025cccee1e999795610dda9561181a565b600e553387525283852054935191829133954291846040919493926060820195825260208201520152565b634e487b7160e01b885260118552602488fd5b835162461bcd60e51b815291820152601d60248201527f416d6f756e74206d7573742062652067726561746572207468616e2030000000604482015260649150fd5b835162461bcd60e51b815291820152601760248201527f56616c7565206d757374206d6174636820616d6f756e74000000000000000000604482015260649150fd5b5082346104d157816003193601126104d1576020906009549051908152f35b5082346104d157816003193601126104d157602090600b549051908152f35b509190346102c75760203660031901126102c757610ef6611699565b6001546001600160a01b03939192919084163303610f2457505082546001600160a01b031916911617815580f35b906020606492519162461bcd60e51b8352820152600a60248201526927b7363c9037bbb732b960b11b6044820152fd5b5034610fb15780600319360112610fb157610f6d6116b4565b600280546001600160a01b0319811690915581906001600160a01b03167f8be0079c531659141344cd1fd0a4f28419497f9722a3daafe3b4186f6b6457e08280a380f35b80fd5b509190346102c75760203660031901126102c75760209282916001600160a01b03610fdd611699565b168252845220549051908152f35b5082346104d157816003193601126104d1576110056116b4565b60ff196010541660105580519082825260606020830152601160608301527021b7b73a3930b1ba103ab7333937bd32b760791b608083015242908201527f4b7a530a26d61084cb8c56f8fc0750fa4f75008bc5314e6213d44da47ae7276860a03392a280f35b5082346104d157816003193601126104d157602090600a549051908152f35b509190346102c75760203660031901126102c7578035906110a96116b4565b61271082116110f95750600b805490829055915191825260208201524260408201527fae105abe8db839281c90b44a9f60cf111b2217cf082514ef8db4786387753d889080606081015b0390a180f35b606490602084519162461bcd60e51b8352820152602060248201527f496e74657265737420726174652063616e6e6f742065786365656420313030256044820152fd5b5082346104d15760203660031901126104d15760209181906001600160a01b03611164611699565b1681526007845220549051908152f35b5082346104d157602090816003193601126102c75760a0936001600160a01b0361119c611699565b1684528252808320549260078352818120549160088452808083205492600586522054928342101594856111e4575b8251968752860152840152606083015215156080820152f35b60105460ff161595506111cb565b509190346102c75760203660031901126102c75761120e611699565b916112176116b4565b6001600160a01b0383161561124f5750506010805462010000600160b01b03191691811b62010000600160b01b031691909117905580f35b906020606492519162461bcd60e51b83528201526015602482015274496e76616c69642061646d696e206164647265737360581b6044820152fd5b5082346104d157816003193601126104d157602090600d549051908152f35b5082346104d157816003193601126104d15760209060ff6010541690519015158152f35b509190346102c757602090816003193601126108ad578354813592906112fd906001600160a01b03161515611755565b61130c60ff601054161561179a565b61131461184d565b3385526005815261132a848620544210156118a3565b6113358315156118ef565b33855281815261134a8385872054101561194c565b611358600d5484111561198f565b600e5480600a810204600a14901517156113a7579161065e917f02f25270a4d87bea75db541cdfe559334a275b4a233520ed6c0a2429667cca949333875281815285872061082d84825461180d565b634e487b7160e01b855260118252602485fd5b5082346104d157816003193601126104d157602090600f549051908152f35b5082346104d157816003193601126104d15760108054915191901c6001600160a01b03168152602090f35b5082346104d157816003193601126104d15760209060ff60105460081c1690519015158152f35b5082346104d15760203660031901126104d15760209181906001600160a01b03611453611699565b168152600584522054421015908161146e575b519015158152f35b60105460ff16159150611466565b5082346104d157816003193601126104d157905490516001600160a01b039091168152602090f35b5082346104d157816003193601126104d15751478152602090f35b5091346102c757826003193601126102c757601080546001600160a01b03911c8116923384900361153b57506114f990600254169261170c565b6010805462010000600160b01b0319169055514281523391907f766be043f7e09e95a2812f6c40555ea1bbaf526780a5412e1db72a3489ad8e7390602090a380f35b606490602084519162461bcd60e51b835282015260116024820152702737ba103832b73234b7339030b236b4b760791b6044820152fd5b509190346102c75760203660031901126102c7578035906115916116b4565b81156115dc5750600d805490829055915191825260208201524260408201527f47f2fcfc82eba59468e4f762c3a6eb4824a1f7b588912ca71bd4b4e443b848c09080606081016110f3565b608490602084519162461bcd60e51b8352820152602560248201527f4d6178207769746864726177616c206d75737420626520677265617465722074604482015264068616e20360dc1b6064820152fd5b5082346104d15760203660031901126104d15760209181906001600160a01b03611655611699565b1681526008845220549051908152f35b905083346102c75760203660031901126102c7576020926001600160a01b0361168c611699565b1681526006845220548152f35b600435906001600160a01b03821682036116af57565b600080fd5b6002546001600160a01b031633036116c857565b606460405162461bcd60e51b815260206004820152602060248201527f4f776e61626c653a2063616c6c6572206973206e6f7420746865206f776e65726044820152fd5b600280546001600160a01b039283166001600160a01b0319821681179092559091167f8be0079c531659141344cd1fd0a4f28419497f9722a3daafe3b4186f6b6457e0600080a3565b1561175c57565b60405162461bcd60e51b8152602060048201526016602482015275125b5b5d5b9a5d1e481b185e595c881b9bdd081cd95d60521b6044820152606490fd5b156117a157565b60405162461bcd60e51b815260206004820152601260248201527121b7b73a3930b1ba1034b990333937bd32b760711b6044820152606490fd5b919082018092116117e857565b634e487b7160e01b600052601160045260246000fd5b60001981146117e85760010190565b919082039182116117e857565b818102929181159184041417156117e857565b8115611837570490565b634e487b7160e01b600052601260045260246000fd5b60026003541461185e576002600355565b60405162461bcd60e51b815260206004820152601f60248201527f5265656e7472616e637947756172643a207265656e7472616e742063616c6c006044820152606490fd5b156118aa57565b60405162461bcd60e51b815260206004820152601a60248201527f5769746864726177616c206973207374696c6c206c6f636b65640000000000006044820152606490fd5b156118f657565b60405162461bcd60e51b815260206004820152602860248201527f5769746864726177616c20616d6f756e74206d75737420626520677265617465604482015267072207468616e20360c41b6064820152608490fd5b1561195357565b60405162461bcd60e51b8152602060048201526014602482015273496e73756666696369656e742062616c616e636560601b6044820152606490fd5b1561199657565b60405162461bcd60e51b815260206004820152602660248201527f45786365656473206d6178207769746864726177616c20706572207472616e7360448201526530b1ba34b7b760d11b6064820152608490fd5b3d15611a465767ffffffffffffffff903d828111611a305760405192601f8201601f19908116603f0116840190811184821017611a305760405282523d6000602084013e565b634e487b7160e01b600052604160045260246000fd5b606090565b15611a5257565b60405162461bcd60e51b815260206004820152600f60248201526e151c985b9cd9995c8819985a5b1959608a1b6044820152606490fdfea2646970667358221220be6664e43ce2cef71bcf1f7a44cc42d0e96903a9669b6a41aae986bf4184267964736f6c63430008130033","opcodes":"PUSH1 0x80 CALLVALUE PUSH2 0xE8 JUMPI PUSH1 0x1F PUSH2 0x1BC3 CODESIZE DUP2 SWAP1 SUB SWAP2 DUP3 ADD PUSH1 0x1F NOT AND DUP4 ADD SWAP2 PUSH1 0x1 PUSH1 0x1 PUSH1 0x40 SHL SUB DUP4 GT DUP5 DUP5 LT OR PUSH2 0xED JUMPI DUP1 DUP5 SWAP3 PUSH1 0x80 SWAP5 PUSH1 0x40 MSTORE DUP4 CODECOPY DUP2 ADD SUB SLT PUSH2 0xE8 JUMPI DUP1 MLOAD PUSH1 0x1 PUSH1 0x1 PUSH1 0xA0 SHL SUB SWAP2 DUP3 DUP3 AND SWAP2 DUP3 SWAP1 SUB PUSH2 0xE8 JUMPI PUSH1 0x20 DUP2 ADD MLOAD PUSH1 0x60 PUSH1 0x40 DUP4 ADD MLOAD SWAP3 ADD MLOAD SWAP3 PUSH1 0x1 DUP1 PUSH1 0xA0 SHL SUB NOT SWAP1 DUP2 PUSH1 0x0 SLOAD AND OR PUSH1 0x0 SSTORE CALLER DUP2 PUSH1 0x1 SLOAD AND OR PUSH1 0x1 SSTORE PUSH1 0x2 SLOAD SWAP1 CALLER SWAP1 DUP3 AND OR PUSH1 0x2 SSTORE PUSH1 0x40 MLOAD SWAP5 CALLER SWAP2 AND PUSH32 0x8BE0079C531659141344CD1FD0A4F28419497F9722A3DAAFE3B4186F6B6457E0 PUSH1 0x0 DUP1 LOG3 PUSH1 0x1 PUSH1 0x3 SSTORE PUSH1 0xB SSTORE PUSH1 0xC SSTORE PUSH1 0xD SSTORE PUSH2 0x100 PUSH2 0xFF00 NOT PUSH1 0x10 SLOAD AND OR PUSH1 0x10 SSTORE PUSH3 0x93A80 PUSH1 0x11 SSTORE PUSH2 0x1ABF SWAP1 DUP2 PUSH2 0x104 DUP3 CODECOPY RETURN JUMPDEST PUSH1 0x0 DUP1 REVERT JUMPDEST PUSH4 0x4E487B71 PUSH1 0xE0 SHL PUSH1 0x0 MSTORE PUSH1 0x41 PUSH1 0x4 MSTORE PUSH1 0x24 PUSH1 0x0 REVERT INVALID PUSH1 0x80 PUSH1 0x40 SWAP1 DUP1 DUP3 MSTORE PUSH1 0x4 SWAP1 DUP2 CALLDATASIZE LT ISZERO PUSH2 0x53 JUMPI JUMPDEST POP CALLDATASIZE ISZERO PUSH2 0x51 JUMPI PUSH1 0x20 PUSH1 0x64 SWAP3 MLOAD SWAP2 PUSH3 0x461BCD PUSH1 0xE5 SHL DUP4 MSTORE DUP3 ADD MSTORE PUSH1 0x12 PUSH1 0x24 DUP3 ADD MSTORE PUSH18 0x119D5B98DD1A5BDB881B9BDD08199BDD5B99 PUSH1 0x72 SHL PUSH1 0x44 DUP3 ADD MSTORE REVERT JUMPDEST STOP JUMPDEST PUSH1 0x0 SWAP1 DUP2 CALLDATALOAD PUSH1 0xE0 SHR SWAP1 DUP2 PUSH4 0x2527753 EQ PUSH2 0x1665 JUMPI POP DUP1 PUSH4 0xA64143A EQ PUSH2 0x162D JUMPI DUP1 PUSH4 0xC3FFE12 EQ PUSH2 0x1572 JUMPI DUP1 PUSH4 0xE18B681 EQ PUSH2 0x14BF JUMPI DUP1 PUSH4 0x12065FE0 EQ PUSH2 0x14A4 JUMPI DUP1 PUSH4 0x1730121C EQ PUSH2 0x147C JUMPI DUP1 PUSH4 0x19262D30 EQ PUSH2 0x142B JUMPI DUP1 PUSH4 0x25B850DB EQ PUSH2 0x1404 JUMPI DUP1 PUSH4 0x26782247 EQ PUSH2 0x13D9 JUMPI DUP1 PUSH4 0x27E235E3 EQ PUSH2 0xFB4 JUMPI DUP1 PUSH4 0x2DFDF0B5 EQ PUSH2 0x13BA JUMPI DUP1 PUSH4 0x2E1A7D4D EQ PUSH2 0x12CD JUMPI DUP1 PUSH4 0x33EEB147 EQ PUSH2 0x12A9 JUMPI DUP1 PUSH4 0x397CE3EE EQ PUSH2 0x733 JUMPI DUP1 PUSH4 0x4DAB4207 EQ PUSH2 0x128A JUMPI DUP1 PUSH4 0x4DD18BF5 EQ PUSH2 0x11F2 JUMPI DUP1 PUSH4 0x4E43603A EQ PUSH2 0x1174 JUMPI DUP1 PUSH4 0x53055481 EQ PUSH2 0x113C JUMPI DUP1 PUSH4 0x5F84F302 EQ PUSH2 0x108A JUMPI DUP1 PUSH4 0x60464627 EQ PUSH2 0x106B JUMPI DUP1 PUSH4 0x6A28F000 EQ PUSH2 0xFEB JUMPI DUP1 PUSH4 0x70A08231 EQ PUSH2 0xFB4 JUMPI DUP1 PUSH4 0x715018A6 EQ PUSH2 0xF54 JUMPI DUP1 PUSH4 0x77FCF07B EQ PUSH2 0xEDA JUMPI DUP1 PUSH4 0x7C3A00FD EQ PUSH2 0xEBB JUMPI DUP1 PUSH4 0x7D882097 EQ PUSH2 0xE9C JUMPI DUP1 PUSH4 0x87F8AB26 EQ PUSH2 0xCD4 JUMPI DUP1 PUSH4 0x8DA5CB5B EQ PUSH2 0xCAB JUMPI DUP1 PUSH4 0x9198E515 EQ PUSH2 0xAFC JUMPI DUP1 PUSH4 0xA2FD6F24 EQ PUSH2 0xA3B JUMPI DUP1 PUSH4 0xA7AB6961 EQ PUSH2 0xA1C JUMPI DUP1 PUSH4 0xA9059CBB EQ PUSH2 0x8B1 JUMPI DUP1 PUSH4 0xB0FD035B EQ PUSH2 0x76B JUMPI DUP1 PUSH4 0xC71ECB5B EQ PUSH2 0x733 JUMPI DUP1 PUSH4 0xCDE98E8E EQ PUSH2 0x714 JUMPI DUP1 PUSH4 0xCE606EE0 EQ PUSH2 0x6EB JUMPI DUP1 PUSH4 0xD0CAEA84 EQ PUSH2 0x6CC JUMPI DUP1 PUSH4 0xD0E30DB0 EQ PUSH2 0x535 JUMPI DUP1 PUSH4 0xD2C13DA5 EQ PUSH2 0x513 JUMPI DUP1 PUSH4 0xD6AD3E03 EQ PUSH2 0x4D5 JUMPI DUP1 PUSH4 0xDFE6B5D6 EQ PUSH2 0x484 JUMPI DUP1 PUSH4 0xE4D22C8E EQ PUSH2 0x2CB JUMPI PUSH4 0xF2FDE38B SUB PUSH2 0x13 JUMPI SWAP2 SWAP1 CALLVALUE PUSH2 0x2C7 JUMPI PUSH1 0x20 CALLDATASIZE PUSH1 0x3 NOT ADD SLT PUSH2 0x2C7 JUMPI PUSH2 0x250 PUSH2 0x1699 JUMP JUMPDEST SWAP2 PUSH2 0x259 PUSH2 0x16B4 JUMP JUMPDEST PUSH1 0x1 PUSH1 0x1 PUSH1 0xA0 SHL SUB DUP4 AND ISZERO PUSH2 0x275 JUMPI DUP4 PUSH2 0x272 DUP5 PUSH2 0x170C JUMP JUMPDEST DUP1 RETURN JUMPDEST SWAP1 PUSH1 0x20 PUSH1 0x84 SWAP3 MLOAD SWAP2 PUSH3 0x461BCD PUSH1 0xE5 SHL DUP4 MSTORE DUP3 ADD MSTORE PUSH1 0x26 PUSH1 0x24 DUP3 ADD MSTORE PUSH32 0x4F776E61626C653A206E6577206F776E657220697320746865207A65726F2061 PUSH1 0x44 DUP3 ADD MSTORE PUSH6 0x646472657373 PUSH1 0xD0 SHL PUSH1 0x64 DUP3 ADD MSTORE REVERT JUMPDEST DUP3 DUP1 REVERT JUMPDEST POP SWAP2 SWAP1 CALLVALUE PUSH2 0x2C7 JUMPI DUP3 PUSH1 0x3 NOT CALLDATASIZE ADD SLT PUSH2 0x2C7 JUMPI DUP3 SLOAD PUSH1 0xFF SWAP1 PUSH1 0x1 PUSH1 0x1 PUSH1 0xA0 SHL SUB AND ISZERO ISZERO PUSH2 0x2F7 DUP2 PUSH2 0x1755 JUMP JUMPDEST PUSH2 0x319 PUSH1 0x10 SLOAD SWAP2 PUSH2 0x314 DUP5 DUP5 AND ISZERO SWAP2 PUSH2 0x30F DUP4 PUSH2 0x179A JUMP JUMPDEST PUSH2 0x1755 JUMP JUMPDEST PUSH2 0x179A JUMP JUMPDEST PUSH1 0x8 SHR AND ISZERO PUSH2 0x442 JUMPI CALLER DUP4 MSTORE PUSH1 0x20 DUP2 DUP2 MSTORE DUP3 DUP5 KECCAK256 SLOAD ISZERO PUSH2 0x40C JUMPI CALLER DUP5 MSTORE PUSH1 0x6 DUP2 MSTORE PUSH2 0x347 DUP4 DUP6 KECCAK256 SLOAD TIMESTAMP PUSH2 0x180D JUMP JUMPDEST DUP1 ISZERO PUSH2 0x404 JUMPI JUMPDEST PUSH2 0x373 PUSH5 0x496CEBB800 SWAP2 CALLER DUP8 MSTORE DUP5 DUP5 MSTORE PUSH2 0x36E DUP7 DUP9 KECCAK256 SLOAD PUSH1 0xB SLOAD SWAP1 PUSH2 0x181A JUMP JUMPDEST PUSH2 0x181A JUMP JUMPDEST DIV DUP1 PUSH2 0x37D JUMPI DUP5 DUP1 RETURN JUMPDEST PUSH32 0xBEA9DFCBD95788B1634FD949C43C80348C9A8960D5837081E062BC6679B9D8FE SWAP3 PUSH2 0x3F9 SWAP3 CALLER DUP8 MSTORE DUP2 DUP2 MSTORE DUP6 DUP8 KECCAK256 PUSH2 0x3B7 DUP5 DUP3 SLOAD PUSH2 0x17DB JUMP JUMPDEST SWAP1 SSTORE PUSH2 0x3C5 DUP4 PUSH1 0x9 SLOAD PUSH2 0x17DB JUMP JUMPDEST PUSH1 0x9 SSTORE CALLER DUP8 MSTORE PUSH1 0x6 DUP2 MSTORE TIMESTAMP DUP7 DUP9 KECCAK256 SSTORE MSTORE DUP4 DUP6 KECCAK256 SLOAD SWAP4 MLOAD SWAP2 DUP3 SWAP2 CALLER SWAP6 TIMESTAMP SWAP2 DUP5 PUSH1 0x40 SWAP2 SWAP5 SWAP4 SWAP3 PUSH1 0x60 DUP3 ADD SWAP6 DUP3 MSTORE PUSH1 0x20 DUP3 ADD MSTORE ADD MSTORE JUMP JUMPDEST SUB SWAP1 LOG2 CODESIZE DUP1 DUP1 DUP1 DUP5 DUP1 RETURN JUMPDEST POP PUSH1 0x1 PUSH2 0x34E JUMP JUMPDEST PUSH1 0x64 SWAP3 MLOAD SWAP2 PUSH3 0x461BCD PUSH1 0xE5 SHL DUP4 MSTORE DUP3 ADD MSTORE PUSH1 0x13 PUSH1 0x24 DUP3 ADD MSTORE PUSH19 0x5573657220686173206E6F2062616C616E6365 PUSH1 0x68 SHL PUSH1 0x44 DUP3 ADD MSTORE REVERT JUMPDEST PUSH1 0x20 PUSH1 0x64 SWAP3 MLOAD SWAP2 PUSH3 0x461BCD PUSH1 0xE5 SHL DUP4 MSTORE DUP3 ADD MSTORE PUSH1 0x1C PUSH1 0x24 DUP3 ADD MSTORE PUSH32 0x496E746572657374206163637275616C2069732064697361626C656400000000 PUSH1 0x44 DUP3 ADD MSTORE REVERT JUMPDEST POP DUP3 CALLVALUE PUSH2 0x4D1 JUMPI DUP2 PUSH1 0x3 NOT CALLDATASIZE ADD SLT PUSH2 0x4D1 JUMPI PUSH1 0xC0 SWAP1 PUSH1 0x9 SLOAD SWAP1 PUSH1 0xA SLOAD SWAP1 SELFBALANCE PUSH1 0xE SLOAD SWAP1 PUSH1 0xB SLOAD SWAP3 PUSH1 0xFF PUSH1 0x10 SLOAD AND SWAP5 DUP2 MLOAD SWAP7 DUP8 MSTORE PUSH1 0x20 DUP8 ADD MSTORE DUP6 ADD MSTORE PUSH1 0x60 DUP5 ADD MSTORE PUSH1 0x80 DUP4 ADD MSTORE ISZERO ISZERO PUSH1 0xA0 DUP3 ADD MSTORE RETURN JUMPDEST POP DUP1 REVERT JUMPDEST POP SWAP1 CALLVALUE PUSH2 0x4D1 JUMPI PUSH1 0x20 CALLDATASIZE PUSH1 0x3 NOT ADD SLT PUSH2 0x4D1 JUMPI CALLDATALOAD DUP1 ISZERO ISZERO DUP1 SWAP2 SUB PUSH2 0x4D1 JUMPI PUSH2 0x4FB PUSH2 0x16B4 JUMP JUMPDEST PUSH2 0xFF00 PUSH1 0x10 SLOAD SWAP2 PUSH1 0x8 SHL AND SWAP1 PUSH2 0xFF00 NOT AND OR PUSH1 0x10 SSTORE DUP1 RETURN JUMPDEST POP SWAP1 CALLVALUE PUSH2 0x4D1 JUMPI PUSH1 0x20 CALLDATASIZE PUSH1 0x3 NOT ADD SLT PUSH2 0x4D1 JUMPI PUSH2 0x52E PUSH2 0x16B4 JUMP JUMPDEST CALLDATALOAD PUSH1 0xC SSTORE DUP1 RETURN JUMPDEST POP SWAP2 SWAP1 DUP3 PUSH1 0x3 NOT CALLDATASIZE ADD SLT PUSH2 0x2C7 JUMPI DUP3 SLOAD PUSH2 0x559 SWAP1 PUSH1 0x1 PUSH1 0x1 PUSH1 0xA0 SHL SUB AND ISZERO ISZERO PUSH2 0x1755 JUMP JUMPDEST PUSH2 0x568 PUSH1 0xFF PUSH1 0x10 SLOAD AND ISZERO PUSH2 0x179A JUMP JUMPDEST PUSH2 0x570 PUSH2 0x184D JUMP JUMPDEST CALLVALUE ISZERO PUSH2 0x67C JUMPI CALLER DUP4 MSTORE DUP1 PUSH1 0x20 MSTORE DUP2 DUP4 KECCAK256 PUSH2 0x58B CALLVALUE DUP3 SLOAD PUSH2 0x17DB JUMP JUMPDEST SWAP1 SSTORE PUSH2 0x599 CALLVALUE PUSH1 0x9 SLOAD PUSH2 0x17DB JUMP JUMPDEST PUSH1 0x9 SSTORE CALLER DUP4 MSTORE PUSH1 0x7 PUSH1 0x20 MSTORE DUP2 DUP4 KECCAK256 PUSH2 0x5B2 CALLVALUE DUP3 SLOAD PUSH2 0x17DB JUMP JUMPDEST SWAP1 SSTORE CALLER DUP4 MSTORE PUSH1 0x6 PUSH1 0x20 MSTORE TIMESTAMP DUP3 DUP5 KECCAK256 SSTORE PUSH2 0x5CD PUSH1 0xC SLOAD TIMESTAMP PUSH2 0x17DB JUMP JUMPDEST CALLER DUP5 MSTORE PUSH1 0x5 PUSH1 0x20 MSTORE DUP3 DUP5 KECCAK256 SSTORE PUSH2 0x5E4 PUSH1 0xF SLOAD PUSH2 0x17FE JUMP JUMPDEST DUP1 PUSH1 0xF SSTORE PUSH1 0xE SLOAD PUSH1 0x0 NOT DUP3 ADD DUP3 DUP2 GT PUSH2 0x669 JUMPI PUSH2 0x614 SWAP3 SWAP2 PUSH2 0x60A PUSH2 0x60F SWAP3 CALLVALUE SWAP3 PUSH2 0x181A JUMP JUMPDEST PUSH2 0x17DB JUMP JUMPDEST PUSH2 0x182D JUMP JUMPDEST PUSH1 0xE SSTORE CALLER DUP1 DUP5 MSTORE PUSH1 0x20 SWAP2 DUP3 MSTORE DUP3 DUP5 KECCAK256 SLOAD SWAP3 MLOAD CALLVALUE DUP2 MSTORE SWAP2 DUP3 ADD SWAP3 SWAP1 SWAP3 MSTORE TIMESTAMP PUSH1 0x40 DUP3 ADD MSTORE PUSH32 0x36AF321EC8D3C75236829C5317AFFD40DDB308863A1236D2D277A4025CCCEE1E SWAP1 DUP1 PUSH1 0x60 DUP2 ADD JUMPDEST SUB SWAP1 LOG2 PUSH1 0x1 PUSH1 0x3 SSTORE DUP1 RETURN JUMPDEST PUSH4 0x4E487B71 PUSH1 0xE0 SHL DUP7 MSTORE PUSH1 0x11 DUP5 MSTORE PUSH1 0x24 DUP7 REVERT JUMPDEST PUSH1 0x20 PUSH1 0x84 SWAP3 MLOAD SWAP2 PUSH3 0x461BCD PUSH1 0xE5 SHL DUP4 MSTORE DUP3 ADD MSTORE PUSH1 0x25 PUSH1 0x24 DUP3 ADD MSTORE PUSH32 0x4465706F73697420616D6F756E74206D75737420626520677265617465722074 PUSH1 0x44 DUP3 ADD MSTORE PUSH5 0x68616E203 PUSH1 0xDC SHL PUSH1 0x64 DUP3 ADD MSTORE REVERT JUMPDEST POP DUP3 CALLVALUE PUSH2 0x4D1 JUMPI DUP2 PUSH1 0x3 NOT CALLDATASIZE ADD SLT PUSH2 0x4D1 JUMPI PUSH1 0x20 SWAP1 PUSH1 0xE SLOAD SWAP1 MLOAD SWAP1 DUP2 MSTORE RETURN JUMPDEST POP DUP3 CALLVALUE PUSH2 0x4D1 JUMPI DUP2 PUSH1 0x3 NOT CALLDATASIZE ADD SLT PUSH2 0x4D1 JUMPI PUSH1 0x1 SLOAD SWAP1 MLOAD PUSH1 0x1 PUSH1 0x1 PUSH1 0xA0 SHL SUB SWAP1 SWAP2 AND DUP2 MSTORE PUSH1 0x20 SWAP1 RETURN JUMPDEST POP DUP3 CALLVALUE PUSH2 0x4D1 JUMPI DUP2 PUSH1 0x3 NOT CALLDATASIZE ADD SLT PUSH2 0x4D1 JUMPI PUSH1 0x20 SWAP1 PUSH1 0x11 SLOAD SWAP1 MLOAD SWAP1 DUP2 MSTORE RETURN JUMPDEST POP DUP3 CALLVALUE PUSH2 0x4D1 JUMPI PUSH1 0x20 CALLDATASIZE PUSH1 0x3 NOT ADD SLT PUSH2 0x4D1 JUMPI PUSH1 0x20 SWAP2 DUP2 SWAP1 PUSH1 0x1 PUSH1 0x1 PUSH1 0xA0 SHL SUB PUSH2 0x75B PUSH2 0x1699 JUMP JUMPDEST AND DUP2 MSTORE PUSH1 0x5 DUP5 MSTORE KECCAK256 SLOAD SWAP1 MLOAD SWAP1 DUP2 MSTORE RETURN JUMPDEST POP SWAP2 SWAP1 CALLVALUE PUSH2 0x2C7 JUMPI PUSH1 0x20 SWAP1 DUP2 PUSH1 0x3 NOT CALLDATASIZE ADD SLT PUSH2 0x8AD JUMPI PUSH32 0x2F25270A4D87BEA75DB541CDFE559334A275B4A233520ED6C0A2429667CCA94 SWAP2 DUP2 PUSH2 0x65E SWAP3 CALLDATALOAD SWAP2 PUSH2 0x7BE PUSH1 0x1 DUP1 PUSH1 0xA0 SHL SUB DUP9 SLOAD AND ISZERO ISZERO PUSH2 0x1755 JUMP JUMPDEST PUSH2 0x7CD PUSH1 0xFF PUSH1 0x10 SLOAD AND ISZERO PUSH2 0x179A JUMP JUMPDEST PUSH2 0x7D5 PUSH2 0x184D JUMP JUMPDEST CALLER DUP8 MSTORE PUSH1 0x5 DUP2 MSTORE PUSH2 0x7EB DUP7 DUP9 KECCAK256 SLOAD TIMESTAMP LT ISZERO PUSH2 0x18A3 JUMP JUMPDEST PUSH2 0x7F6 DUP4 ISZERO ISZERO PUSH2 0x18EF JUMP JUMPDEST CALLER DUP8 MSTORE DUP2 DUP2 MSTORE PUSH2 0x80B DUP4 DUP8 DUP10 KECCAK256 SLOAD LT ISZERO PUSH2 0x194C JUMP JUMPDEST PUSH2 0x819 PUSH1 0xD SLOAD DUP5 GT ISZERO PUSH2 0x198F JUMP JUMPDEST CALLER DUP8 MSTORE DUP2 DUP2 MSTORE DUP6 DUP8 KECCAK256 PUSH2 0x82D DUP5 DUP3 SLOAD PUSH2 0x180D JUMP JUMPDEST SWAP1 SSTORE PUSH2 0x83B DUP4 PUSH1 0xA SLOAD PUSH2 0x17DB JUMP JUMPDEST PUSH1 0xA SSTORE CALLER DUP8 MSTORE PUSH1 0x8 DUP2 MSTORE DUP6 DUP8 KECCAK256 PUSH2 0x853 DUP5 DUP3 SLOAD PUSH2 0x17DB JUMP JUMPDEST SWAP1 SSTORE PUSH2 0x861 PUSH1 0xC SLOAD TIMESTAMP PUSH2 0x17DB JUMP JUMPDEST CALLER DUP9 MSTORE PUSH1 0x5 DUP3 MSTORE DUP7 DUP9 KECCAK256 SSTORE PUSH2 0x885 DUP8 DUP1 DUP1 DUP1 DUP8 CALLER GAS CALL PUSH2 0x87F PUSH2 0x19EA JUMP JUMPDEST POP PUSH2 0x1A4B JUMP JUMPDEST CALLER DUP8 MSTORE MSTORE DUP4 DUP6 KECCAK256 SLOAD SWAP4 MLOAD SWAP2 DUP3 SWAP2 CALLER SWAP6 TIMESTAMP SWAP2 DUP5 PUSH1 0x40 SWAP2 SWAP5 SWAP4 SWAP3 PUSH1 0x60 DUP3 ADD SWAP6 DUP3 MSTORE PUSH1 0x20 DUP3 ADD MSTORE ADD MSTORE JUMP JUMPDEST DUP4 DUP1 REVERT JUMPDEST POP SWAP2 CALLVALUE PUSH2 0x2C7 JUMPI DUP1 PUSH1 0x3 NOT CALLDATASIZE ADD SLT PUSH2 0x2C7 JUMPI PUSH2 0x8CB PUSH2 0x1699 JUMP JUMPDEST DUP4 SLOAD PUSH1 0x24 CALLDATALOAD SWAP3 SWAP2 PUSH1 0x1 PUSH1 0x1 PUSH1 0xA0 SHL SUB SWAP2 PUSH2 0x8E8 SWAP1 DUP4 AND ISZERO ISZERO PUSH2 0x1755 JUMP JUMPDEST PUSH2 0x8F7 PUSH1 0xFF PUSH1 0x10 SLOAD AND ISZERO PUSH2 0x179A JUMP JUMPDEST PUSH2 0x8FF PUSH2 0x184D JUMP JUMPDEST AND SWAP3 DUP4 ISZERO PUSH2 0x9DA JUMPI DUP3 ISZERO PUSH2 0x989 JUMPI SWAP1 PUSH32 0x9ED053BB818FF08B8353CD46F78DB1F0799F31C9E4458FDB425C10ECCD2EFC44 SWAP2 CALLER DUP7 MSTORE DUP1 PUSH1 0x20 MSTORE PUSH2 0x946 DUP5 DUP4 DUP9 KECCAK256 SLOAD LT ISZERO PUSH2 0x194C JUMP JUMPDEST CALLER DUP7 MSTORE DUP1 PUSH1 0x20 MSTORE DUP2 DUP7 KECCAK256 PUSH2 0x95B DUP6 DUP3 SLOAD PUSH2 0x180D JUMP JUMPDEST SWAP1 SSTORE DUP5 DUP7 MSTORE PUSH1 0x20 MSTORE DUP1 DUP6 KECCAK256 PUSH2 0x971 DUP5 DUP3 SLOAD PUSH2 0x17DB JUMP JUMPDEST SWAP1 SSTORE DUP1 MLOAD SWAP3 DUP4 MSTORE TIMESTAMP PUSH1 0x20 DUP5 ADD MSTORE CALLER SWAP3 LOG3 PUSH1 0x1 PUSH1 0x3 SSTORE DUP1 RETURN JUMPDEST PUSH1 0x20 PUSH1 0x84 SWAP3 MLOAD SWAP2 PUSH3 0x461BCD PUSH1 0xE5 SHL DUP4 MSTORE DUP3 ADD MSTORE PUSH1 0x26 PUSH1 0x24 DUP3 ADD MSTORE PUSH32 0x5472616E7366657220616D6F756E74206D757374206265206772656174657220 PUSH1 0x44 DUP3 ADD MSTORE PUSH6 0x7468616E203 PUSH1 0xD4 SHL PUSH1 0x64 DUP3 ADD MSTORE REVERT JUMPDEST PUSH1 0x20 PUSH1 0x64 SWAP3 MLOAD SWAP2 PUSH3 0x461BCD PUSH1 0xE5 SHL DUP4 MSTORE DUP3 ADD MSTORE PUSH1 0x1F PUSH1 0x24 DUP3 ADD MSTORE PUSH32 0x43616E6E6F74207472616E7366657220746F207A65726F206164647265737300 PUSH1 0x44 DUP3 ADD MSTORE REVERT JUMPDEST POP DUP3 CALLVALUE PUSH2 0x4D1 JUMPI DUP2 PUSH1 0x3 NOT CALLDATASIZE ADD SLT PUSH2 0x4D1 JUMPI PUSH1 0x20 SWAP1 PUSH1 0xC SLOAD SWAP1 MLOAD SWAP1 DUP2 MSTORE RETURN JUMPDEST POP SWAP2 CALLVALUE PUSH2 0x2C7 JUMPI PUSH1 0x20 CALLDATASIZE PUSH1 0x3 NOT ADD SLT PUSH2 0x2C7 JUMPI DUP2 CALLDATALOAD PUSH8 0xFFFFFFFFFFFFFFFF SWAP3 DUP4 DUP3 GT PUSH2 0xAF8 JUMPI CALLDATASIZE PUSH1 0x23 DUP4 ADD SLT ISZERO PUSH2 0xAF8 JUMPI DUP2 ADD CALLDATALOAD SWAP3 DUP4 GT PUSH2 0x8AD JUMPI CALLDATASIZE PUSH1 0x24 DUP5 DUP4 ADD ADD GT PUSH2 0x8AD JUMPI PUSH32 0x4B7A530A26D61084CB8C56F8FC0750FA4F75008BC5314E6213D44DA47AE72768 SWAP2 PUSH2 0xAAC PUSH2 0x16B4 JUMP JUMPDEST PUSH1 0x1 PUSH1 0xFF NOT PUSH1 0x10 SLOAD AND OR PUSH1 0x10 SSTORE DUP4 PUSH1 0x24 DUP3 MLOAD SWAP4 PUSH1 0x1 DUP6 MSTORE PUSH1 0x60 PUSH1 0x20 DUP7 ADD MSTORE DUP3 PUSH1 0x60 DUP7 ADD MSTORE ADD PUSH1 0x80 DUP5 ADD CALLDATACOPY DUP5 PUSH1 0x80 DUP6 DUP5 ADD ADD MSTORE TIMESTAMP SWAP1 DUP3 ADD MSTORE PUSH1 0x80 DUP2 CALLER SWAP5 PUSH1 0x1F DUP1 NOT SWAP2 ADD AND DUP2 ADD SUB ADD SWAP1 LOG2 DUP1 RETURN JUMPDEST DUP5 DUP1 REVERT JUMPDEST POP SWAP2 SWAP1 CALLVALUE PUSH2 0x2C7 JUMPI PUSH1 0x20 SWAP1 DUP2 PUSH1 0x3 NOT CALLDATASIZE ADD SLT PUSH2 0x8AD JUMPI PUSH2 0xB1A PUSH2 0x1699 JUMP JUMPDEST DUP5 SLOAD PUSH1 0x1 PUSH1 0x1 PUSH1 0xA0 SHL SUB SWAP2 SWAP1 PUSH2 0xB33 SWAP1 DUP4 AND ISZERO ISZERO PUSH2 0x1755 JUMP JUMPDEST PUSH1 0xFF PUSH1 0x10 SLOAD PUSH2 0xB44 DUP3 DUP3 AND ISZERO PUSH2 0x179A JUMP JUMPDEST PUSH1 0x8 SHR AND ISZERO PUSH2 0xC68 JUMPI AND SWAP3 DUP4 DUP6 MSTORE DUP2 DUP4 MSTORE DUP1 DUP6 KECCAK256 SLOAD ISZERO PUSH2 0xC31 JUMPI DUP4 DUP6 MSTORE PUSH1 0x6 DUP4 MSTORE PUSH2 0xB72 DUP2 DUP7 KECCAK256 SLOAD TIMESTAMP PUSH2 0x180D JUMP JUMPDEST DUP1 ISZERO PUSH2 0xC29 JUMPI JUMPDEST PUSH2 0xB99 PUSH5 0x496CEBB800 SWAP2 DUP7 DUP9 MSTORE DUP5 DUP7 MSTORE PUSH2 0x36E DUP5 DUP10 KECCAK256 SLOAD PUSH1 0xB SLOAD SWAP1 PUSH2 0x181A JUMP JUMPDEST DIV SWAP2 DUP3 PUSH2 0xBA4 JUMPI DUP6 DUP1 RETURN JUMPDEST PUSH32 0xBEA9DFCBD95788B1634FD949C43C80348C9A8960D5837081E062BC6679B9D8FE SWAP4 DUP6 DUP8 MSTORE DUP2 DUP2 MSTORE DUP3 DUP8 KECCAK256 PUSH2 0xBDA DUP6 DUP3 SLOAD PUSH2 0x17DB JUMP JUMPDEST SWAP1 SSTORE PUSH2 0xBE8 DUP5 PUSH1 0x9 SLOAD PUSH2 0x17DB JUMP JUMPDEST PUSH1 0x9 SSTORE DUP6 DUP8 MSTORE PUSH1 0x6 DUP2 MSTORE TIMESTAMP DUP4 DUP9 KECCAK256 SSTORE MSTORE PUSH2 0xC1D DUP2 DUP7 KECCAK256 SLOAD SWAP2 MLOAD SWAP3 DUP4 SWAP3 TIMESTAMP SWAP2 DUP5 PUSH1 0x40 SWAP2 SWAP5 SWAP4 SWAP3 PUSH1 0x60 DUP3 ADD SWAP6 DUP3 MSTORE PUSH1 0x20 DUP3 ADD MSTORE ADD MSTORE JUMP JUMPDEST SUB SWAP1 LOG2 CODESIZE DUP1 DUP1 DUP1 DUP1 DUP6 DUP1 RETURN JUMPDEST POP PUSH1 0x1 PUSH2 0xB79 JUMP JUMPDEST SWAP2 PUSH1 0x64 SWAP3 MLOAD SWAP2 PUSH3 0x461BCD PUSH1 0xE5 SHL DUP4 MSTORE DUP3 ADD MSTORE PUSH1 0x13 PUSH1 0x24 DUP3 ADD MSTORE PUSH19 0x5573657220686173206E6F2062616C616E6365 PUSH1 0x68 SHL PUSH1 0x44 DUP3 ADD MSTORE REVERT JUMPDEST DUP5 MLOAD PUSH3 0x461BCD PUSH1 0xE5 SHL DUP2 MSTORE DUP1 DUP5 ADD DUP6 SWAP1 MSTORE PUSH1 0x1C PUSH1 0x24 DUP3 ADD MSTORE PUSH32 0x496E746572657374206163637275616C2069732064697361626C656400000000 PUSH1 0x44 DUP3 ADD MSTORE PUSH1 0x64 SWAP1 REVERT JUMPDEST POP DUP3 CALLVALUE PUSH2 0x4D1 JUMPI DUP2 PUSH1 0x3 NOT CALLDATASIZE ADD SLT PUSH2 0x4D1 JUMPI PUSH1 0x2 SLOAD SWAP1 MLOAD PUSH1 0x1 PUSH1 0x1 PUSH1 0xA0 SHL SUB SWAP1 SWAP2 AND DUP2 MSTORE PUSH1 0x20 SWAP1 RETURN JUMPDEST POP SWAP2 SWAP1 PUSH1 0x20 SWAP1 DUP2 PUSH1 0x3 NOT CALLDATASIZE ADD SLT PUSH2 0x8AD JUMPI DUP4 SLOAD DUP2 CALLDATALOAD SWAP3 SWAP1 PUSH2 0xCFF SWAP1 PUSH1 0x1 PUSH1 0x1 PUSH1 0xA0 SHL SUB AND ISZERO ISZERO PUSH2 0x1755 JUMP JUMPDEST PUSH2 0xD0E PUSH1 0xFF PUSH1 0x10 SLOAD AND ISZERO PUSH2 0x179A JUMP JUMPDEST PUSH2 0xD16 PUSH2 0x184D JUMP JUMPDEST DUP3 CALLVALUE SUB PUSH2 0xE5A JUMPI DUP3 ISZERO PUSH2 0xE18 JUMPI CALLER DUP6 MSTORE DUP2 DUP2 MSTORE DUP4 DUP6 KECCAK256 PUSH2 0xD37 DUP5 DUP3 SLOAD PUSH2 0x17DB JUMP JUMPDEST SWAP1 SSTORE PUSH2 0xD45 DUP4 PUSH1 0x9 SLOAD PUSH2 0x17DB JUMP JUMPDEST PUSH1 0x9 SSTORE CALLER DUP6 MSTORE PUSH1 0x7 DUP2 MSTORE DUP4 DUP6 KECCAK256 PUSH2 0xD5D DUP5 DUP3 SLOAD PUSH2 0x17DB JUMP JUMPDEST SWAP1 SSTORE CALLER DUP6 MSTORE PUSH1 0x6 DUP2 MSTORE TIMESTAMP DUP5 DUP7 KECCAK256 SSTORE PUSH2 0xD77 PUSH1 0xC SLOAD TIMESTAMP PUSH2 0x17DB JUMP JUMPDEST CALLER DUP7 MSTORE PUSH1 0x5 DUP3 MSTORE DUP5 DUP7 KECCAK256 SSTORE PUSH2 0xD8D PUSH1 0xF SLOAD PUSH2 0x17FE JUMP JUMPDEST DUP1 PUSH1 0xF SSTORE PUSH1 0xE SLOAD PUSH1 0x0 NOT DUP3 ADD SWAP1 DUP3 DUP3 GT PUSH2 0xE05 JUMPI PUSH2 0x65E SWAP5 SWAP3 PUSH2 0x60F DUP8 PUSH2 0x60A PUSH32 0x36AF321EC8D3C75236829C5317AFFD40DDB308863A1236D2D277A4025CCCEE1E SWAP10 SWAP8 SWAP6 PUSH2 0xDDA SWAP6 PUSH2 0x181A JUMP JUMPDEST PUSH1 0xE SSTORE CALLER DUP8 MSTORE MSTORE DUP4 DUP6 KECCAK256 SLOAD SWAP4 MLOAD SWAP2 DUP3 SWAP2 CALLER SWAP6 TIMESTAMP SWAP2 DUP5 PUSH1 0x40 SWAP2 SWAP5 SWAP4 SWAP3 PUSH1 0x60 DUP3 ADD SWAP6 DUP3 MSTORE PUSH1 0x20 DUP3 ADD MSTORE ADD MSTORE JUMP JUMPDEST PUSH4 0x4E487B71 PUSH1 0xE0 SHL DUP9 MSTORE PUSH1 0x11 DUP6 MSTORE PUSH1 0x24 DUP9 REVERT JUMPDEST DUP4 MLOAD PUSH3 0x461BCD PUSH1 0xE5 SHL DUP2 MSTORE SWAP2 DUP3 ADD MSTORE PUSH1 0x1D PUSH1 0x24 DUP3 ADD MSTORE PUSH32 0x416D6F756E74206D7573742062652067726561746572207468616E2030000000 PUSH1 0x44 DUP3 ADD MSTORE PUSH1 0x64 SWAP2 POP REVERT JUMPDEST DUP4 MLOAD PUSH3 0x461BCD PUSH1 0xE5 SHL DUP2 MSTORE SWAP2 DUP3 ADD MSTORE PUSH1 0x17 PUSH1 0x24 DUP3 ADD MSTORE PUSH32 0x56616C7565206D757374206D6174636820616D6F756E74000000000000000000 PUSH1 0x44 DUP3 ADD MSTORE PUSH1 0x64 SWAP2 POP REVERT JUMPDEST POP DUP3 CALLVALUE PUSH2 0x4D1 JUMPI DUP2 PUSH1 0x3 NOT CALLDATASIZE ADD SLT PUSH2 0x4D1 JUMPI PUSH1 0x20 SWAP1 PUSH1 0x9 SLOAD SWAP1 MLOAD SWAP1 DUP2 MSTORE RETURN JUMPDEST POP DUP3 CALLVALUE PUSH2 0x4D1 JUMPI DUP2 PUSH1 0x3 NOT CALLDATASIZE ADD SLT PUSH2 0x4D1 JUMPI PUSH1 0x20 SWAP1 PUSH1 0xB SLOAD SWAP1 MLOAD SWAP1 DUP2 MSTORE RETURN JUMPDEST POP SWAP2 SWAP1 CALLVALUE PUSH2 0x2C7 JUMPI PUSH1 0x20 CALLDATASIZE PUSH1 0x3 NOT ADD SLT PUSH2 0x2C7 JUMPI PUSH2 0xEF6 PUSH2 0x1699 JUMP JUMPDEST PUSH1 0x1 SLOAD PUSH1 0x1 PUSH1 0x1 PUSH1 0xA0 SHL SUB SWAP4 SWAP2 SWAP3 SWAP2 SWAP1 DUP5 AND CALLER SUB PUSH2 0xF24 JUMPI POP POP DUP3 SLOAD PUSH1 0x1 PUSH1 0x1 PUSH1 0xA0 SHL SUB NOT AND SWAP2 AND OR DUP2 SSTORE DUP1 RETURN JUMPDEST SWAP1 PUSH1 0x20 PUSH1 0x64 SWAP3 MLOAD SWAP2 PUSH3 0x461BCD PUSH1 0xE5 SHL DUP4 MSTORE DUP3 ADD MSTORE PUSH1 0xA PUSH1 0x24 DUP3 ADD MSTORE PUSH10 0x27B7363C9037BBB732B9 PUSH1 0xB1 SHL PUSH1 0x44 DUP3 ADD MSTORE REVERT JUMPDEST POP CALLVALUE PUSH2 0xFB1 JUMPI DUP1 PUSH1 0x3 NOT CALLDATASIZE ADD SLT PUSH2 0xFB1 JUMPI PUSH2 0xF6D PUSH2 0x16B4 JUMP JUMPDEST PUSH1 0x2 DUP1 SLOAD PUSH1 0x1 PUSH1 0x1 PUSH1 0xA0 SHL SUB NOT DUP2 AND SWAP1 SWAP2 SSTORE DUP2 SWAP1 PUSH1 0x1 PUSH1 0x1 PUSH1 0xA0 SHL SUB AND PUSH32 0x8BE0079C531659141344CD1FD0A4F28419497F9722A3DAAFE3B4186F6B6457E0 DUP3 DUP1 LOG3 DUP1 RETURN JUMPDEST DUP1 REVERT JUMPDEST POP SWAP2 SWAP1 CALLVALUE PUSH2 0x2C7 JUMPI PUSH1 0x20 CALLDATASIZE PUSH1 0x3 NOT ADD SLT PUSH2 0x2C7 JUMPI PUSH1 0x20 SWAP3 DUP3 SWAP2 PUSH1 0x1 PUSH1 0x1 PUSH1 0xA0 SHL SUB PUSH2 0xFDD PUSH2 0x1699 JUMP JUMPDEST AND DUP3 MSTORE DUP5 MSTORE KECCAK256 SLOAD SWAP1 MLOAD SWAP1 DUP2 MSTORE RETURN JUMPDEST POP DUP3 CALLVALUE PUSH2 0x4D1 JUMPI DUP2 PUSH1 0x3 NOT CALLDATASIZE ADD SLT PUSH2 0x4D1 JUMPI PUSH2 0x1005 PUSH2 0x16B4 JUMP JUMPDEST PUSH1 0xFF NOT PUSH1 0x10 SLOAD AND PUSH1 0x10 SSTORE DUP1 MLOAD SWAP1 DUP3 DUP3 MSTORE PUSH1 0x60 PUSH1 0x20 DUP4 ADD MSTORE PUSH1 0x11 PUSH1 0x60 DUP4 ADD MSTORE PUSH17 0x21B7B73A3930B1BA103AB7333937BD32B7 PUSH1 0x79 SHL PUSH1 0x80 DUP4 ADD MSTORE TIMESTAMP SWAP1 DUP3 ADD MSTORE PUSH32 0x4B7A530A26D61084CB8C56F8FC0750FA4F75008BC5314E6213D44DA47AE72768 PUSH1 0xA0 CALLER SWAP3 LOG2 DUP1 RETURN JUMPDEST POP DUP3 CALLVALUE PUSH2 0x4D1 JUMPI DUP2 PUSH1 0x3 NOT CALLDATASIZE ADD SLT PUSH2 0x4D1 JUMPI PUSH1 0x20 SWAP1 PUSH1 0xA SLOAD SWAP1 MLOAD SWAP1 DUP2 MSTORE RETURN JUMPDEST POP SWAP2 SWAP1 CALLVALUE PUSH2 0x2C7 JUMPI PUSH1 0x20 CALLDATASIZE PUSH1 0x3 NOT ADD SLT PUSH2 0x2C7 JUMPI DUP1 CALLDATALOAD SWAP1 PUSH2 0x10A9 PUSH2 0x16B4 JUMP JUMPDEST PUSH2 0x2710 DUP3 GT PUSH2 0x10F9 JUMPI POP PUSH1 0xB DUP1 SLOAD SWAP1 DUP3 SWAP1 SSTORE SWAP2 MLOAD SWAP2 DUP3 MSTORE PUSH1 0x20 DUP3 ADD MSTORE TIMESTAMP PUSH1 0x40 DUP3 ADD MSTORE PUSH32 0xAE105ABE8DB839281C90B44A9F60CF111B2217CF082514EF8DB4786387753D88 SWAP1 DUP1 PUSH1 0x60 DUP2 ADD JUMPDEST SUB SWAP1 LOG1 DUP1 RETURN JUMPDEST PUSH1 0x64 SWAP1 PUSH1 0x20 DUP5 MLOAD SWAP2 PUSH3 0x461BCD PUSH1 0xE5 SHL DUP4 MSTORE DUP3 ADD MSTORE PUSH1 0x20 PUSH1 0x24 DUP3 ADD MSTORE PUSH32 0x496E74657265737420726174652063616E6E6F74206578636565642031303025 PUSH1 0x44 DUP3 ADD MSTORE REVERT JUMPDEST POP DUP3 CALLVALUE PUSH2 0x4D1 JUMPI PUSH1 0x20 CALLDATASIZE PUSH1 0x3 NOT ADD SLT PUSH2 0x4D1 JUMPI PUSH1 0x20 SWAP2 DUP2 SWAP1 PUSH1 0x1 PUSH1 0x1 PUSH1 0xA0 SHL SUB PUSH2 0x1164 PUSH2 0x1699 JUMP JUMPDEST AND DUP2 MSTORE PUSH1 0x7 DUP5 MSTORE KECCAK256 SLOAD SWAP1 MLOAD SWAP1 DUP2 MSTORE RETURN JUMPDEST POP DUP3 CALLVALUE PUSH2 0x4D1 JUMPI PUSH1 0x20 SWAP1 DUP2 PUSH1 0x3 NOT CALLDATASIZE ADD SLT PUSH2 0x2C7 JUMPI PUSH1 0xA0 SWAP4 PUSH1 0x1 PUSH1 0x1 PUSH1 0xA0 SHL SUB PUSH2 0x119C PUSH2 0x1699 JUMP JUMPDEST AND DUP5 MSTORE DUP3 MSTORE DUP1 DUP4 KECCAK256 SLOAD SWAP3 PUSH1 0x7 DUP4 MSTORE DUP2 DUP2 KECCAK256 SLOAD SWAP2 PUSH1 0x8 DUP5 MSTORE DUP1 DUP1 DUP4 KECCAK256 SLOAD SWAP3 PUSH1 0x5 DUP7 MSTORE KECCAK256 SLOAD SWAP3 DUP4 TIMESTAMP LT ISZERO SWAP5 DUP6 PUSH2 0x11E4 JUMPI JUMPDEST DUP3 MLOAD SWAP7 DUP8 MSTORE DUP7 ADD MSTORE DUP5 ADD MSTORE PUSH1 0x60 DUP4 ADD MSTORE ISZERO ISZERO PUSH1 0x80 DUP3 ADD MSTORE RETURN JUMPDEST PUSH1 0x10 SLOAD PUSH1 0xFF AND ISZERO SWAP6 POP PUSH2 0x11CB JUMP JUMPDEST POP SWAP2 SWAP1 CALLVALUE PUSH2 0x2C7 JUMPI PUSH1 0x20 CALLDATASIZE PUSH1 0x3 NOT ADD SLT PUSH2 0x2C7 JUMPI PUSH2 0x120E PUSH2 0x1699 JUMP JUMPDEST SWAP2 PUSH2 0x1217 PUSH2 0x16B4 JUMP JUMPDEST PUSH1 0x1 PUSH1 0x1 PUSH1 0xA0 SHL SUB DUP4 AND ISZERO PUSH2 0x124F JUMPI POP POP PUSH1 0x10 DUP1 SLOAD PUSH3 0x10000 PUSH1 0x1 PUSH1 0xB0 SHL SUB NOT AND SWAP2 DUP2 SHL PUSH3 0x10000 PUSH1 0x1 PUSH1 0xB0 SHL SUB AND SWAP2 SWAP1 SWAP2 OR SWAP1 SSTORE DUP1 RETURN JUMPDEST SWAP1 PUSH1 0x20 PUSH1 0x64 SWAP3 MLOAD SWAP2 PUSH3 0x461BCD PUSH1 0xE5 SHL DUP4 MSTORE DUP3 ADD MSTORE PUSH1 0x15 PUSH1 0x24 DUP3 ADD MSTORE PUSH21 0x496E76616C69642061646D696E2061646472657373 PUSH1 0x58 SHL PUSH1 0x44 DUP3 ADD MSTORE REVERT JUMPDEST POP DUP3 CALLVALUE PUSH2 0x4D1 JUMPI DUP2 PUSH1 0x3 NOT CALLDATASIZE ADD SLT PUSH2 0x4D1 JUMPI PUSH1 0x20 SWAP1 PUSH1 0xD SLOAD SWAP1 MLOAD SWAP1 DUP2 MSTORE RETURN JUMPDEST POP DUP3 CALLVALUE PUSH2 0x4D1 JUMPI DUP2 PUSH1 0x3 NOT CALLDATASIZE ADD SLT PUSH2 0x4D1 JUMPI PUSH1 0x20 SWAP1 PUSH1 0xFF PUSH1 0x10 SLOAD AND SWAP1 MLOAD SWAP1 ISZERO ISZERO DUP2 MSTORE RETURN JUMPDEST POP SWAP2 SWAP1 CALLVALUE PUSH2 0x2C7 JUMPI PUSH1 0x20 SWAP1 DUP2 PUSH1 0x3 NOT CALLDATASIZE ADD SLT PUSH2 0x8AD JUMPI DUP4 SLOAD DUP2 CALLDATALOAD SWAP3 SWAP1 PUSH2 0x12FD SWAP1 PUSH1 0x1 PUSH1 0x1 PUSH1 0xA0 SHL SUB AND ISZERO ISZERO PUSH2 0x1755 JUMP JUMPDEST PUSH2 0x130C PUSH1 0xFF PUSH1 0x10 SLOAD AND ISZERO PUSH2 0x179A JUMP JUMPDEST PUSH2 0x1314 PUSH2 0x184D JUMP JUMPDEST CALLER DUP6 MSTORE PUSH1 0x5 DUP2 MSTORE PUSH2 0x132A DUP5 DUP7 KECCAK256 SLOAD TIMESTAMP LT ISZERO PUSH2 0x18A3 JUMP JUMPDEST PUSH2 0x1335 DUP4 ISZERO ISZERO PUSH2 0x18EF JUMP JUMPDEST CALLER DUP6 MSTORE DUP2 DUP2 MSTORE PUSH2 0x134A DUP4 DUP6 DUP8 KECCAK256 SLOAD LT ISZERO PUSH2 0x194C JUMP JUMPDEST PUSH2 0x1358 PUSH1 0xD SLOAD DUP5 GT ISZERO PUSH2 0x198F JUMP JUMPDEST PUSH1 0xE SLOAD DUP1 PUSH1 0xA DUP2 MUL DIV PUSH1 0xA EQ SWAP1 ISZERO OR ISZERO PUSH2 0x13A7 JUMPI SWAP2 PUSH2 0x65E SWAP2 PUSH32 0x2F25270A4D87BEA75DB541CDFE559334A275B4A233520ED6C0A2429667CCA94 SWAP4 CALLER DUP8 MSTORE DUP2 DUP2 MSTORE DUP6 DUP8 KECCAK256 PUSH2 0x82D DUP5 DUP3 SLOAD PUSH2 0x180D JUMP JUMPDEST PUSH4 0x4E487B71 PUSH1 0xE0 SHL DUP6 MSTORE PUSH1 0x11 DUP3 MSTORE PUSH1 0x24 DUP6 REVERT JUMPDEST POP DUP3 CALLVALUE PUSH2 0x4D1 JUMPI DUP2 PUSH1 0x3 NOT CALLDATASIZE ADD SLT PUSH2 0x4D1 JUMPI PUSH1 0x20 SWAP1 PUSH1 0xF SLOAD SWAP1 MLOAD SWAP1 DUP2 MSTORE RETURN JUMPDEST POP DUP3 CALLVALUE PUSH2 0x4D1 JUMPI DUP2 PUSH1 0x3 NOT CALLDATASIZE ADD SLT PUSH2 0x4D1 JUMPI PUSH1 0x10 DUP1 SLOAD SWAP2 MLOAD SWAP2 SWAP1 SHR PUSH1 0x1 PUSH1 0x1 PUSH1 0xA0 SHL SUB AND DUP2 MSTORE PUSH1 0x20 SWAP1 RETURN JUMPDEST POP DUP3 CALLVALUE PUSH2 0x4D1 JUMPI DUP2 PUSH1 0x3 NOT CALLDATASIZE ADD SLT PUSH2 0x4D1 JUMPI PUSH1 0x20 SWAP1 PUSH1 0xFF PUSH1 0x10 SLOAD PUSH1 0x8 SHR AND SWAP1 MLOAD SWAP1 ISZERO ISZERO DUP2 MSTORE RETURN JUMPDEST POP DUP3 CALLVALUE PUSH2 0x4D1 JUMPI PUSH1 0x20 CALLDATASIZE PUSH1 0x3 NOT ADD SLT PUSH2 0x4D1 JUMPI PUSH1 0x20 SWAP2 DUP2 SWAP1 PUSH1 0x1 PUSH1 0x1 PUSH1 0xA0 SHL SUB PUSH2 0x1453 PUSH2 0x1699 JUMP JUMPDEST AND DUP2 MSTORE PUSH1 0x5 DUP5 MSTORE KECCAK256 SLOAD TIMESTAMP LT ISZERO SWAP1 DUP2 PUSH2 0x146E JUMPI JUMPDEST MLOAD SWAP1 ISZERO ISZERO DUP2 MSTORE RETURN JUMPDEST PUSH1 0x10 SLOAD PUSH1 0xFF AND ISZERO SWAP2 POP PUSH2 0x1466 JUMP JUMPDEST POP DUP3 CALLVALUE PUSH2 0x4D1 JUMPI DUP2 PUSH1 0x3 NOT CALLDATASIZE ADD SLT PUSH2 0x4D1 JUMPI SWAP1 SLOAD SWAP1 MLOAD PUSH1 0x1 PUSH1 0x1 PUSH1 0xA0 SHL SUB SWAP1 SWAP2 AND DUP2 MSTORE PUSH1 0x20 SWAP1 RETURN JUMPDEST POP DUP3 CALLVALUE PUSH2 0x4D1 JUMPI DUP2 PUSH1 0x3 NOT CALLDATASIZE ADD SLT PUSH2 0x4D1 JUMPI MLOAD SELFBALANCE DUP2 MSTORE PUSH1 0x20 SWAP1 RETURN JUMPDEST POP SWAP2 CALLVALUE PUSH2 0x2C7 JUMPI DUP3 PUSH1 0x3 NOT CALLDATASIZE ADD SLT PUSH2 0x2C7 JUMPI PUSH1 0x10 DUP1 SLOAD PUSH1 0x1 PUSH1 0x1 PUSH1 0xA0 SHL SUB SWAP2 SHR DUP2 AND SWAP3 CALLER DUP5 SWAP1 SUB PUSH2 0x153B JUMPI POP PUSH2 0x14F9 SWAP1 PUSH1 0x2 SLOAD AND SWAP3 PUSH2 0x170C JUMP JUMPDEST PUSH1 0x10 DUP1 SLOAD PUSH3 0x10000 PUSH1 0x1 PUSH1 0xB0 SHL SUB NOT AND SWAP1 SSTORE MLOAD TIMESTAMP DUP2 MSTORE CALLER SWAP2 SWAP1 PUSH32 0x766BE043F7E09E95A2812F6C40555EA1BBAF526780A5412E1DB72A3489AD8E73 SWAP1 PUSH1 0x20 SWAP1 LOG3 DUP1 RETURN JUMPDEST PUSH1 0x64 SWAP1 PUSH1 0x20 DUP5 MLOAD SWAP2 PUSH3 0x461BCD PUSH1 0xE5 SHL DUP4 MSTORE DUP3 ADD MSTORE PUSH1 0x11 PUSH1 0x24 DUP3 ADD MSTORE PUSH17 0x2737BA103832B73234B7339030B236B4B7 PUSH1 0x79 SHL PUSH1 0x44 DUP3 ADD MSTORE REVERT JUMPDEST POP SWAP2 SWAP1 CALLVALUE PUSH2 0x2C7 JUMPI PUSH1 0x20 CALLDATASIZE PUSH1 0x3 NOT ADD SLT PUSH2 0x2C7 JUMPI DUP1 CALLDATALOAD SWAP1 PUSH2 0x1591 PUSH2 0x16B4 JUMP JUMPDEST DUP2 ISZERO PUSH2 0x15DC JUMPI POP PUSH1 0xD DUP1 SLOAD SWAP1 DUP3 SWAP1 SSTORE SWAP2 MLOAD SWAP2 DUP3 MSTORE PUSH1 0x20 DUP3 ADD MSTORE TIMESTAMP PUSH1 0x40 DUP3 ADD MSTORE PUSH32 0x47F2FCFC82EBA59468E4F762C3A6EB4824A1F7B588912CA71BD4B4E443B848C0 SWAP1 DUP1 PUSH1 0x60 DUP2 ADD PUSH2 0x10F3 JUMP JUMPDEST PUSH1 0x84 SWAP1 PUSH1 0x20 DUP5 MLOAD SWAP2 PUSH3 0x461BCD PUSH1 0xE5 SHL DUP4 MSTORE DUP3 ADD MSTORE PUSH1 0x25 PUSH1 0x24 DUP3 ADD MSTORE PUSH32 0x4D6178207769746864726177616C206D75737420626520677265617465722074 PUSH1 0x44 DUP3 ADD MSTORE PUSH5 0x68616E203 PUSH1 0xDC SHL PUSH1 0x64 DUP3 ADD MSTORE REVERT JUMPDEST POP DUP3 CALLVALUE PUSH2 0x4D1 JUMPI PUSH1 0x20 CALLDATASIZE PUSH1 0x3 NOT ADD SLT PUSH2 0x4D1 JUMPI PUSH1 0x20 SWAP2 DUP2 SWAP1 PUSH1 0x1 PUSH1 0x1 PUSH1 0xA0 SHL SUB PUSH2 0x1655 PUSH2 0x1699 JUMP JUMPDEST AND DUP2 MSTORE PUSH1 0x8 DUP5 MSTORE KECCAK256 SLOAD SWAP1 MLOAD SWAP1 DUP2 MSTORE RETURN JUMPDEST SWAP1 POP DUP4 CALLVALUE PUSH2 0x2C7 JUMPI PUSH1 0x20 CALLDATASIZE PUSH1 0x3 NOT ADD SLT PUSH2 0x2C7 JUMPI PUSH1 0x20 SWAP3 PUSH1 0x1 PUSH1 0x1 PUSH1 0xA0 SHL SUB PUSH2 0x168C PUSH2 0x1699 JUMP JUMPDEST AND DUP2 MSTORE PUSH1 0x6 DUP5 MSTORE KECCAK256 SLOAD DUP2 MSTORE RETURN JUMPDEST PUSH1 0x4 CALLDATALOAD SWAP1 PUSH1 0x1 PUSH1 0x1 PUSH1 0xA0 SHL SUB DUP3 AND DUP3 SUB PUSH2 0x16AF JUMPI JUMP JUMPDEST PUSH1 0x0 DUP1 REVERT JUMPDEST PUSH1 0x2 SLOAD PUSH1 0x1 PUSH1 0x1 PUSH1 0xA0 SHL SUB AND CALLER SUB PUSH2 0x16C8 JUMPI JUMP JUMPDEST PUSH1 0x64 PUSH1 0x40 MLOAD PUSH3 0x461BCD PUSH1 0xE5 SHL DUP2 MSTORE PUSH1 0x20 PUSH1 0x4 DUP3 ADD MSTORE PUSH1 0x20 PUSH1 0x24 DUP3 ADD MSTORE PUSH32 0x4F776E61626C653A2063616C6C6572206973206E6F7420746865206F776E6572 PUSH1 0x44 DUP3 ADD MSTORE REVERT JUMPDEST PUSH1 0x2 DUP1 SLOAD PUSH1 0x1 PUSH1 0x1 PUSH1 0xA0 SHL SUB SWAP3 DUP4 AND PUSH1 0x1 PUSH1 0x1 PUSH1 0xA0 SHL SUB NOT DUP3 AND DUP2 OR SWAP1 SWAP3 SSTORE SWAP1 SWAP2 AND PUSH32 0x8BE0079C531659141344CD1FD0A4F28419497F9722A3DAAFE3B4186F6B6457E0 PUSH1 0x0 DUP1 LOG3 JUMP JUMPDEST ISZERO PUSH2 0x175C JUMPI JUMP JUMPDEST PUSH1 0x40 MLOAD PUSH3 0x461BCD PUSH1 0xE5 SHL DUP2 MSTORE PUSH1 0x20 PUSH1 0x4 DUP3 ADD MSTORE PUSH1 0x16 PUSH1 0x24 DUP3 ADD MSTORE PUSH22 0x125B5B5D5B9A5D1E481B185E595C881B9BDD081CD95D PUSH1 0x52 SHL PUSH1 0x44 DUP3 ADD MSTORE PUSH1 0x64 SWAP1 REVERT JUMPDEST ISZERO PUSH2 0x17A1 JUMPI JUMP JUMPDEST PUSH1 0x40 MLOAD PUSH3 0x461BCD PUSH1 0xE5 SHL DUP2 MSTORE PUSH1 0x20 PUSH1 0x4 DUP3 ADD MSTORE PUSH1 0x12 PUSH1 0x24 DUP3 ADD MSTORE PUSH18 0x21B7B73A3930B1BA1034B990333937BD32B7 PUSH1 0x71 SHL PUSH1 0x44 DUP3 ADD MSTORE PUSH1 0x64 SWAP1 REVERT JUMPDEST SWAP2 SWAP1 DUP3 ADD DUP1 SWAP3 GT PUSH2 0x17E8 JUMPI JUMP JUMPDEST PUSH4 0x4E487B71 PUSH1 0xE0 SHL PUSH1 0x0 MSTORE PUSH1 0x11 PUSH1 0x4 MSTORE PUSH1 0x24 PUSH1 0x0 REVERT JUMPDEST PUSH1 0x0 NOT DUP2 EQ PUSH2 0x17E8 JUMPI PUSH1 0x1 ADD SWAP1 JUMP JUMPDEST SWAP2 SWAP1 DUP3 SUB SWAP2 DUP3 GT PUSH2 0x17E8 JUMPI JUMP JUMPDEST DUP2 DUP2 MUL SWAP3 SWAP2 DUP2 ISZERO SWAP2 DUP5 DIV EQ OR ISZERO PUSH2 0x17E8 JUMPI JUMP JUMPDEST DUP2 ISZERO PUSH2 0x1837 JUMPI DIV SWAP1 JUMP JUMPDEST PUSH4 0x4E487B71 PUSH1 0xE0 SHL PUSH1 0x0 MSTORE PUSH1 0x12 PUSH1 0x4 MSTORE PUSH1 0x24 PUSH1 0x0 REVERT JUMPDEST PUSH1 0x2 PUSH1 0x3 SLOAD EQ PUSH2 0x185E JUMPI PUSH1 0x2 PUSH1 0x3 SSTORE JUMP JUMPDEST PUSH1 0x40 MLOAD PUSH3 0x461BCD PUSH1 0xE5 SHL DUP2 MSTORE PUSH1 0x20 PUSH1 0x4 DUP3 ADD MSTORE PUSH1 0x1F PUSH1 0x24 DUP3 ADD MSTORE PUSH32 0x5265656E7472616E637947756172643A207265656E7472616E742063616C6C00 PUSH1 0x44 DUP3 ADD MSTORE PUSH1 0x64 SWAP1 REVERT JUMPDEST ISZERO PUSH2 0x18AA JUMPI JUMP JUMPDEST PUSH1 0x40 MLOAD PUSH3 0x461BCD PUSH1 0xE5 SHL DUP2 MSTORE PUSH1 0x20 PUSH1 0x4 DUP3 ADD MSTORE PUSH1 0x1A PUSH1 0x24 DUP3 ADD MSTORE PUSH32 0x5769746864726177616C206973207374696C6C206C6F636B6564000000000000 PUSH1 0x44 DUP3 ADD MSTORE PUSH1 0x64 SWAP1 REVERT JUMPDEST ISZERO PUSH2 0x18F6 JUMPI JUMP JUMPDEST PUSH1 0x40 MLOAD PUSH3 0x461BCD PUSH1 0xE5 SHL DUP2 MSTORE PUSH1 0x20 PUSH1 0x4 DUP3 ADD MSTORE PUSH1 0x28 PUSH1 0x24 DUP3 ADD MSTORE PUSH32 0x5769746864726177616C20616D6F756E74206D75737420626520677265617465 PUSH1 0x44 DUP3 ADD MSTORE PUSH8 0x72207468616E203 PUSH1 0xC4 SHL PUSH1 0x64 DUP3 ADD MSTORE PUSH1 0x84 SWAP1 REVERT JUMPDEST ISZERO PUSH2 0x1953 JUMPI JUMP JUMPDEST PUSH1 0x40 MLOAD PUSH3 0x461BCD PUSH1 0xE5 SHL DUP2 MSTORE PUSH1 0x20 PUSH1 0x4 DUP3 ADD MSTORE PUSH1 0x14 PUSH1 0x24 DUP3 ADD MSTORE PUSH20 0x496E73756666696369656E742062616C616E6365 PUSH1 0x60 SHL PUSH1 0x44 DUP3 ADD MSTORE PUSH1 0x64 SWAP1 REVERT JUMPDEST ISZERO PUSH2 0x1996 JUMPI JUMP JUMPDEST PUSH1 0x40 MLOAD PUSH3 0x461BCD PUSH1 0xE5 SHL DUP2 MSTORE PUSH1 0x20 PUSH1 0x4 DUP3 ADD MSTORE PUSH1 0x26 PUSH1 0x24 DUP3 ADD MSTORE PUSH32 0x45786365656473206D6178207769746864726177616C20706572207472616E73 PUSH1 0x44 DUP3 ADD MSTORE PUSH6 0x30B1BA34B7B7 PUSH1 0xD1 SHL PUSH1 0x64 DUP3 ADD MSTORE PUSH1 0x84 SWAP1 REVERT JUMPDEST RETURNDATASIZE ISZERO PUSH2 0x1A46 JUMPI PUSH8 0xFFFFFFFFFFFFFFFF SWAP1 RETURNDATASIZE DUP3 DUP2 GT PUSH2 0x1A30 JUMPI PUSH1 0x40 MLOAD SWAP3 PUSH1 0x1F DUP3 ADD PUSH1 0x1F NOT SWAP1 DUP2 AND PUSH1 0x3F ADD AND DUP5 ADD SWAP1 DUP2 GT DUP5 DUP3 LT OR PUSH2 0x1A30 JUMPI PUSH1 0x40 MSTORE DUP3 MSTORE RETURNDATASIZE PUSH1 0x0 PUSH1 0x20 DUP5 ADD RETURNDATACOPY JUMP JUMPDEST PUSH4 0x4E487B71 PUSH1 0xE0 SHL PUSH1 0x0 MSTORE PUSH1 0x41 PUSH1 0x4 MSTORE PUSH1 0x24 PUSH1 0x0 REVERT JUMPDEST PUSH1 0x60 SWAP1 JUMP JUMPDEST ISZERO PUSH2 0x1A52 JUMPI JUMP JUMPDEST PUSH1 0x40 MLOAD PUSH3 0x461BCD PUSH1 0xE5 SHL DUP2 MSTORE PUSH1 0x20 PUSH1 0x4 DUP3 ADD MSTORE PUSH1 0xF PUSH1 0x24 DUP3 ADD MSTORE PUSH15 0x151C985B9CD9995C8819985A5B1959 PUSH1 0x8A SHL PUSH1 0x44 DUP3 ADD MSTORE PUSH1 0x64 SWAP1 REVERT INVALID LOG2 PUSH5 0x6970667358 0x22 SLT KECCAK256 0xBE PUSH7 0x64E43CE2CEF71B 0xCF 0x1F PUSH27 0x44CC42D0E96903A9669B6A41AAE986BF4184267964736F6C634300 ADDMOD SGT STOP CALLER "},"methodIdentifiers":{"acceptAdmin()":"0e18b681","accrueInterest(address)":"9198e515","accrueMyInterest()":"e4d22c8e","adminChangeDelay()":"cde98e8e","averageDepositAmount()":"d0caea84","balanceOf(address)":"70a08231","balances(address)":"27e235e3","canWithdraw(address)":"19262d30","contractOwner()":"ce606ee0","deposit()":"d0e30db0","depositAmount(uint256)":"87f8ab26","depositCount()":"2dfdf0b5","emergencyFreeze(string)":"a2fd6f24","getBalance()":"12065fe0","getContractStats()":"dfe6b5d6","getUserStats(address)":"4e43603a","getWithdrawalUnlockTime(address)":"c71ecb5b","immunityLayer()":"1730121c","interestEnabled()":"25b850db","interestRate()":"7c3a00fd","isFrozen()":"33eeb147","lastDepositTime(address)":"02527753","maxWithdrawalPerTx()":"4dab4207","owner()":"8da5cb5b","pendingAdmin()":"26782247","renounceOwnership()":"715018a6","safeWithdraw(uint256)":"b0fd035b","setImmunityLayer(address)":"77fcf07b","setInterestEnabled(bool)":"d6ad3e03","setInterestRate(uint256)":"5f84f302","setMaxWithdrawalPerTx(uint256)":"0c3ffe12","setPendingAdmin(address)":"4dd18bf5","setWithdrawalDelay(uint256)":"d2c13da5","totalDeposited(address)":"53055481","totalDeposits()":"7d882097","totalWithdrawals()":"60464627","totalWithdrawn(address)":"0a64143a","transfer(address,uint256)":"a9059cbb","transferOwnership(address)":"f2fde38b","unfreeze()":"6a28f000","withdraw(uint256)":"2e1a7d4d","withdrawalDelay()":"a7ab6961","withdrawalLockTime(address)":"397ce3ee"}}}}}