{"contracts/ContractImmunityLayer.sol":{"ContractImmunityLayer":{"abi":[{"inputs":[],"stateMutability":"nonpayable","type":"constructor"},{"anonymous":false,"inputs":[{"indexed":true,"internalType":"bytes32","name":"threatId","type":"bytes32"},{"indexed":true,"internalType":"bytes32","name":"simulationId","type":"bytes32"},{"indexed":true,"internalType":"address","name":"targetContract","type":"address"}],"name":"AISimulationRequested","type":"event"},{"anonymous":false,"inputs":[{"indexed":true,"internalType":"address","name":"contractAddress","type":"address"},{"indexed":true,"internalType":"address","name":"owner","type":"address"},{"indexed":false,"internalType":"uint256","name":"protectionLevel","type":"uint256"},{"indexed":false,"internalType":"uint256","name":"timestamp","type":"uint256"}],"name":"ContractProtected","type":"event"},{"anonymous":false,"inputs":[{"indexed":true,"internalType":"address","name":"contractAddress","type":"address"},{"indexed":true,"internalType":"address","name":"owner","type":"address"},{"indexed":false,"internalType":"uint256","name":"timestamp","type":"uint256"}],"name":"ContractUnprotected","type":"event"},{"anonymous":false,"inputs":[{"indexed":true,"internalType":"address","name":"activatedBy","type":"address"},{"indexed":false,"internalType":"uint256","name":"timestamp","type":"uint256"},{"indexed":false,"internalType":"string","name":"reason","type":"string"}],"name":"EmergencyStopActivated","type":"event"},{"anonymous":false,"inputs":[{"indexed":true,"internalType":"address","name":"deactivatedBy","type":"address"},{"indexed":false,"internalType":"uint256","name":"timestamp","type":"uint256"}],"name":"EmergencyStopDeactivated","type":"event"},{"anonymous":false,"inputs":[{"indexed":true,"internalType":"bytes32","name":"threatId","type":"bytes32"},{"indexed":true,"internalType":"address","name":"targetContract","type":"address"},{"indexed":false,"internalType":"bool","name":"success","type":"bool"},{"indexed":false,"internalType":"string","name":"action","type":"string"},{"indexed":false,"internalType":"bytes","name":"result","type":"bytes"}],"name":"MitigationExecuted","type":"event"},{"anonymous":false,"inputs":[{"indexed":true,"internalType":"address","name":"previousOwner","type":"address"},{"indexed":true,"internalType":"address","name":"newOwner","type":"address"}],"name":"OwnershipTransferred","type":"event"},{"anonymous":false,"inputs":[{"indexed":true,"internalType":"bytes32","name":"threatId","type":"bytes32"},{"indexed":true,"internalType":"address","name":"targetContract","type":"address"},{"indexed":true,"internalType":"address","name":"caller","type":"address"},{"indexed":false,"internalType":"enum ContractImmunityLayer.ThreatLevel","name":"level","type":"uint8"},{"indexed":false,"internalType":"enum ContractImmunityLayer.VulnerabilityType","name":"vulnType","type":"uint8"},{"indexed":false,"internalType":"string","name":"reason","type":"string"}],"name":"ThreatDetected","type":"event"},{"anonymous":false,"inputs":[{"indexed":true,"internalType":"bytes32","name":"threatId","type":"bytes32"},{"indexed":true,"internalType":"address","name":"targetContract","type":"address"},{"indexed":true,"internalType":"address","name":"caller","type":"address"},{"indexed":false,"internalType":"uint256","name":"freezeUntilBlock","type":"uint256"},{"indexed":false,"internalType":"enum ContractImmunityLayer.ThreatLevel","name":"level","type":"uint8"}],"name":"TransactionFrozen","type":"event"},{"stateMutability":"payable","type":"fallback"},{"inputs":[{"internalType":"string","name":"_reason","type":"string"}],"name":"activateEmergencyStop","outputs":[],"stateMutability":"nonpayable","type":"function"},{"inputs":[{"internalType":"address","name":"_contract","type":"address"},{"internalType":"uint256","name":"_protectionLevel","type":"uint256"}],"name":"addContractProtection","outputs":[],"stateMutability":"nonpayable","type":"function"},{"inputs":[],"name":"aiOracle","outputs":[{"internalType":"address","name":"","type":"address"}],"stateMutability":"view","type":"function"},{"inputs":[{"internalType":"address","name":"","type":"address"}],"name":"contractAverageDeposit","outputs":[{"internalType":"uint256","name":"","type":"uint256"}],"stateMutability":"view","type":"function"},{"inputs":[{"internalType":"address","name":"","type":"address"}],"name":"contractDepositCount","outputs":[{"internalType":"uint256","name":"","type":"uint256"}],"stateMutability":"view","type":"function"},{"inputs":[],"name":"deactivateEmergencyStop","outputs":[],"stateMutability":"nonpayable","type":"function"},{"inputs":[],"name":"emergencyStop","outputs":[{"internalType":"bool","name":"","type":"bool"}],"stateMutability":"view","type":"function"},{"inputs":[{"internalType":"bytes32","name":"_threatId","type":"bytes32"},{"internalType":"string","name":"_action","type":"string"}],"name":"executeOwnerOverride","outputs":[],"stateMutability":"nonpayable","type":"function"},{"inputs":[],"name":"freezeDuration","outputs":[{"internalType":"uint256","name":"","type":"uint256"}],"stateMutability":"view","type":"function"},{"inputs":[{"internalType":"bytes32","name":"","type":"bytes32"}],"name":"frozenTransactions","outputs":[{"internalType":"bytes32","name":"threatId","type":"bytes32"},{"internalType":"address","name":"initiator","type":"address"},{"internalType":"uint256","name":"frozenAt","type":"uint256"},{"internalType":"uint256","name":"freezeUntil","type":"uint256"},{"internalType":"bool","name":"executed","type":"bool"},{"internalType":"bool","name":"cancelled","type":"bool"}],"stateMutability":"view","type":"function"},{"inputs":[],"name":"gasPriceThreshold","outputs":[{"internalType":"uint256","name":"","type":"uint256"}],"stateMutability":"view","type":"function"},{"inputs":[{"internalType":"address","name":"_contract","type":"address"}],"name":"getProtectionLevel","outputs":[{"internalType":"uint256","name":"","type":"uint256"}],"stateMutability":"view","type":"function"},{"inputs":[],"name":"getStats","outputs":[{"internalType":"uint256","name":"threatsDetected","type":"uint256"},{"internalType":"uint256","name":"threatsMitigated","type":"uint256"},{"internalType":"uint256","name":"lossPrevented","type":"uint256"}],"stateMutability":"view","type":"function"},{"inputs":[{"internalType":"bytes32","name":"_threatId","type":"bytes32"}],"name":"getThreatDetails","outputs":[{"internalType":"address","name":"caller","type":"address"},{"internalType":"address","name":"target","type":"address"},{"internalType":"uint256","name":"timestamp","type":"uint256"},{"internalType":"uint256","name":"level","type":"uint256"},{"internalType":"uint256","name":"vulnType","type":"uint256"},{"internalType":"string","name":"reason","type":"string"},{"internalType":"bool","name":"isFrozen","type":"bool"},{"internalType":"bool","name":"isMitigated","type":"bool"},{"internalType":"uint256","name":"freezeUntil","type":"uint256"}],"stateMutability":"view","type":"function"},{"inputs":[{"internalType":"address","name":"_addr","type":"address"}],"name":"isAddressSuspicious","outputs":[{"internalType":"bool","name":"","type":"bool"}],"stateMutability":"view","type":"function"},{"inputs":[{"internalType":"address","name":"_contract","type":"address"}],"name":"isContractProtected","outputs":[{"internalType":"bool","name":"","type":"bool"}],"stateMutability":"view","type":"function"},{"inputs":[],"name":"largeWithdrawalMultiplier","outputs":[{"internalType":"uint256","name":"","type":"uint256"}],"stateMutability":"view","type":"function"},{"inputs":[{"internalType":"address","name":"","type":"address"}],"name":"lastInteractionBlock","outputs":[{"internalType":"uint256","name":"","type":"uint256"}],"stateMutability":"view","type":"function"},{"inputs":[{"internalType":"address","name":"","type":"address"}],"name":"lastWithdrawalAmount","outputs":[{"internalType":"uint256","name":"","type":"uint256"}],"stateMutability":"view","type":"function"},{"inputs":[{"internalType":"address","name":"","type":"address"}],"name":"lastWithdrawalTime","outputs":[{"internalType":"uint256","name":"","type":"uint256"}],"stateMutability":"view","type":"function"},{"inputs":[],"name":"maxCallDepth","outputs":[{"internalType":"uint256","name":"","type":"uint256"}],"stateMutability":"view","type":"function"},{"inputs":[],"name":"maxWithdrawalAmount","outputs":[{"internalType":"uint256","name":"","type":"uint256"}],"stateMutability":"view","type":"function"},{"inputs":[],"name":"minBalanceThreshold","outputs":[{"internalType":"uint256","name":"","type":"uint256"}],"stateMutability":"view","type":"function"},{"inputs":[],"name":"owner","outputs":[{"internalType":"address","name":"","type":"address"}],"stateMutability":"view","type":"function"},{"inputs":[],"name":"patternAnalysisWindow","outputs":[{"internalType":"uint256","name":"","type":"uint256"}],"stateMutability":"view","type":"function"},{"inputs":[],"name":"priceOracle","outputs":[{"internalType":"address","name":"","type":"address"}],"stateMutability":"view","type":"function"},{"inputs":[{"internalType":"address","name":"_target","type":"address"},{"internalType":"bytes","name":"_data","type":"bytes"}],"name":"protectedCall","outputs":[{"internalType":"bytes","name":"","type":"bytes"}],"stateMutability":"payable","type":"function"},{"inputs":[{"internalType":"address","name":"","type":"address"}],"name":"protectedContracts","outputs":[{"internalType":"address","name":"contractAddress","type":"address"},{"internalType":"bool","name":"isProtected","type":"bool"},{"internalType":"uint256","name":"protectionLevel","type":"uint256"},{"internalType":"uint256","name":"lastAuditTimestamp","type":"uint256"}],"stateMutability":"view","type":"function"},{"inputs":[],"name":"rapidWithdrawalThreshold","outputs":[{"internalType":"uint256","name":"","type":"uint256"}],"stateMutability":"view","type":"function"},{"inputs":[{"internalType":"bytes32","name":"_threatId","type":"bytes32"},{"internalType":"bool","name":"_isDangerous","type":"bool"},{"internalType":"uint256","name":"_estimatedLoss","type":"uint256"},{"internalType":"string","name":"_rootCause","type":"string"},{"internalType":"string","name":"_suggestedMitigation","type":"string"}],"name":"receiveAISimulationResult","outputs":[],"stateMutability":"nonpayable","type":"function"},{"inputs":[{"internalType":"address","name":"_contract","type":"address"}],"name":"removeContractProtection","outputs":[],"stateMutability":"nonpayable","type":"function"},{"inputs":[],"name":"renounceOwnership","outputs":[],"stateMutability":"nonpayable","type":"function"},{"inputs":[{"internalType":"address","name":"_aiOracle","type":"address"}],"name":"setAIOracle","outputs":[],"stateMutability":"nonpayable","type":"function"},{"inputs":[{"internalType":"uint256","name":"_duration","type":"uint256"}],"name":"setFreezeDuration","outputs":[],"stateMutability":"nonpayable","type":"function"},{"inputs":[{"internalType":"uint256","name":"_threshold","type":"uint256"}],"name":"setGasPriceThreshold","outputs":[],"stateMutability":"nonpayable","type":"function"},{"inputs":[{"internalType":"uint256","name":"_multiplier","type":"uint256"}],"name":"setLargeWithdrawalMultiplier","outputs":[],"stateMutability":"nonpayable","type":"function"},{"inputs":[{"internalType":"uint256","name":"_depth","type":"uint256"}],"name":"setMaxCallDepth","outputs":[],"stateMutability":"nonpayable","type":"function"},{"inputs":[{"internalType":"uint256","name":"_amount","type":"uint256"}],"name":"setMaxWithdrawalAmount","outputs":[],"stateMutability":"nonpayable","type":"function"},{"inputs":[{"internalType":"uint256","name":"_threshold","type":"uint256"}],"name":"setMinBalanceThreshold","outputs":[],"stateMutability":"nonpayable","type":"function"},{"inputs":[{"internalType":"uint256","name":"_blocks","type":"uint256"}],"name":"setPatternAnalysisWindow","outputs":[],"stateMutability":"nonpayable","type":"function"},{"inputs":[{"internalType":"address","name":"_oracle","type":"address"}],"name":"setPriceOracle","outputs":[],"stateMutability":"nonpayable","type":"function"},{"inputs":[{"internalType":"uint256","name":"_threshold","type":"uint256"}],"name":"setRapidWithdrawalThreshold","outputs":[],"stateMutability":"nonpayable","type":"function"},{"inputs":[{"internalType":"uint256","name":"_threshold","type":"uint256"}],"name":"setSuspiciousCallThreshold","outputs":[],"stateMutability":"nonpayable","type":"function"},{"inputs":[{"internalType":"address","name":"_target","type":"address"},{"internalType":"bytes","name":"_data","type":"bytes"}],"name":"simulateWithdrawal","outputs":[{"internalType":"bool","name":"wouldSucceed","type":"bool"},{"internalType":"uint256","name":"estimatedBalance","type":"uint256"},{"internalType":"uint256","name":"riskLevel","type":"uint256"}],"stateMutability":"view","type":"function"},{"inputs":[{"internalType":"bytes32","name":"","type":"bytes32"}],"name":"simulationResults","outputs":[{"internalType":"bool","name":"isDangerous","type":"bool"},{"internalType":"uint256","name":"estimatedLoss","type":"uint256"},{"internalType":"string","name":"rootCause","type":"string"},{"internalType":"string","name":"suggestedMitigation","type":"string"},{"internalType":"bytes32","name":"simulationId","type":"bytes32"}],"stateMutability":"view","type":"function"},{"inputs":[{"internalType":"address","name":"","type":"address"}],"name":"suspiciousAddressCount","outputs":[{"internalType":"uint256","name":"","type":"uint256"}],"stateMutability":"view","type":"function"},{"inputs":[],"name":"suspiciousCallThreshold","outputs":[{"internalType":"uint256","name":"","type":"uint256"}],"stateMutability":"view","type":"function"},{"inputs":[{"internalType":"bytes32","name":"","type":"bytes32"}],"name":"threatDetections","outputs":[{"internalType":"address","name":"suspiciousCaller","type":"address"},{"internalType":"address","name":"targetContract","type":"address"},{"internalType":"bytes","name":"originalCalldata","type":"bytes"},{"internalType":"uint256","name":"timestamp","type":"uint256"},{"internalType":"enum ContractImmunityLayer.ThreatLevel","name":"level","type":"uint8"},{"internalType":"enum ContractImmunityLayer.VulnerabilityType","name":"vulnType","type":"uint8"},{"internalType":"string","name":"reason","type":"string"},{"internalType":"uint256","name":"blockNumber","type":"uint256"},{"internalType":"bool","name":"isMitigated","type":"bool"},{"internalType":"bytes","name":"mitigationResult","type":"bytes"},{"internalType":"uint256","name":"freezeUntilBlock","type":"uint256"}],"stateMutability":"view","type":"function"},{"inputs":[],"name":"totalLossPrevented","outputs":[{"internalType":"uint256","name":"","type":"uint256"}],"stateMutability":"view","type":"function"},{"inputs":[],"name":"totalThreatsDetected","outputs":[{"internalType":"uint256","name":"","type":"uint256"}],"stateMutability":"view","type":"function"},{"inputs":[],"name":"totalThreatsMitigated","outputs":[{"internalType":"uint256","name":"","type":"uint256"}],"stateMutability":"view","type":"function"},{"inputs":[{"internalType":"address","name":"newOwner","type":"address"}],"name":"transferOwnership","outputs":[],"stateMutability":"nonpayable","type":"function"},{"inputs":[{"internalType":"address","name":"","type":"address"},{"internalType":"address","name":"","type":"address"}],"name":"userAverageDeposit","outputs":[{"internalType":"uint256","name":"","type":"uint256"}],"stateMutability":"view","type":"function"},{"inputs":[{"internalType":"address","name":"","type":"address"},{"internalType":"address","name":"","type":"address"}],"name":"userDepositCount","outputs":[{"internalType":"uint256","name":"","type":"uint256"}],"stateMutability":"view","type":"function"},{"stateMutability":"payable","type":"receive"}],"evm":{"bytecode":{"linkReferences":{},"object":"6080806040523461009f5760008054336001600160a01b0319821681178355916001600160a01b03909116907f8be0079c531659141344cd1fd0a4f28419497f9722a3daafe3b4186f6b6457e09080a360018055601e60115567016345785d8a00006012556003601355600560145564174876e800601555600a601655683635c9adc5dea000006017556064601855600360195561456690816100a58239f35b600080fdfe6080604052600436101561005b575b36156100595760405162461bcd60e51b815260206004820152601860248201527f4469726563742063616c6c73206e6f7420616c6c6f77656400000000000000006044820152606490fd5b005b60003560e01c806302a517ab14612fe1578063054bd9de14612fa2578063116d4ac51461284b57806311c33d49146127ee57806317f83e5c146127d05780631aa632b3146127435780631b480467146127095780631d3323b6146117d95780631ec01d711461177857806325303a73146117575780632609be4e146115b65780632630c12f1461158d5780632c64b8461461156f57806331b221cd146115465780633da846aa1461152857806340034b7a1461150a57806340af6ad4146114de578063440991bd146114c057806346b76ccc1461144c5780634838b5b6146113bc5780634de5120e14611382578063530e784f1461133f57806354349ed01461132157806363a599a4146112fb5780636616de77146112875780636ca2aa95146112145780636e2d919f146111f6578063715018a61461119d5780637914d8641461117f5780637994e28a14611161578063892a51c5146111435780638da5cb5b1461111a5780638fa50574146110ee5780639950e052146110005780639c38944b14610974578063a7fd17f314610923578063ab470715146108e9578063b5338586146108c8578063bc00fd671461086e578063c0c9b9491461082c578063c59d4847146107fd578063c5aae677146107df578063ccc470cb1461076d578063ccd12cd214610733578063ce11d0ae14610707578063ce1e2d9e146105d8578063db658215146105aa578063dfde44cf14610570578063e84970551461051f578063e976d43114610501578063ea02ffac1461045c578063eafcd1ae146103b5578063f2fde38b146102f15763f6c9446a0361000e57346102ec5760203660031901126102ec576001600160a01b036102d3613035565b16600052600a6020526020604060002054604051908152f35b600080fd5b346102ec5760203660031901126102ec5761030a613035565b6103126132c7565b6001600160a01b0390811690811561036157600054826001600160601b0360a01b821617600055167f8be0079c531659141344cd1fd0a4f28419497f9722a3daafe3b4186f6b6457e0600080a3005b60405162461bcd60e51b815260206004820152602660248201527f4f776e61626c653a206e6577206f776e657220697320746865207a65726f206160448201526564647265737360d01b6064820152608490fd5b346102ec5760203660031901126102ec576004356000526007602052604060002060ff81541660018201549161045260405191610400836103f98160038501613153565b038461328c565b6104446005604051926104218461041a8160048501613153565b038561328c565b01549360405196879615158752602087015260a0604087015260a08601906130f4565b9084820360608601526130f4565b9060808301520390f35b346102ec5760203660031901126102ec576004356001600160401b0381116102ec576104ad7f961d556f025c07db81e2659d606c508d6496c37b355a276d308068e8fda3f235913690600401613061565b91906104b76132c7565b600160a01b60ff60a01b19601b541617601b5582604051914283526040602084015281604084015260608301376000606084830101526060813394601f80199101168101030190a2005b346102ec5760003660031901126102ec576020601754604051908152f35b346102ec5760403660031901126102ec57610538613035565b61054061304b565b9060018060a01b038091166000526009602052604060002091166000526020526020604060002054604051908152f35b346102ec5760203660031901126102ec576001600160a01b03610591613035565b16600052600c6020526020604060002054604051908152f35b346102ec5760606105c36105bd3661308e565b91614065565b90604051921515835260208301526040820152f35b346102ec5760203660031901126102ec5760043560005260036020526020604060002060018060a01b03906106fc8282541692600183015416916040519061062e826106278160028501613153565b038361328c565b6003810154916106e0600483015493604051610658816106518160058901613153565b038261328c565b6106d36006860154966106ad60ff6007890154169660096040519961068b8b6106848160088501613153565b038c61328c565b01549b6040519e8f9e8f908152015260408d61016091829101528d01906130f4565b9360608c01526106c360808c0160ff83166132ad565b60ff60a08c019160081c166132ba565b88820360c08a01526130f4565b9260e087015215156101008601528482036101208601526130f4565b906101408301520390f35b346102ec5760203660031901126102ec576004356107236132c7565b61072e81151561362c565b601955005b346102ec5760203660031901126102ec576001600160a01b03610754613035565b1660005260066020526020604060002054604051908152f35b346102ec5760203660031901126102ec57600435600052600460205260c0604060002060ff81549160018060a01b0360018201541690600281015460046003830154920154926040519586526020860152604085015260608401528181161515608084015260081c16151560a0820152f35b346102ec5760003660031901126102ec576020601954604051908152f35b346102ec5760003660031901126102ec576060600e54600f546010549060405192835260208301526040820152f35b346102ec5760203660031901126102ec576001600160a01b0361084d613035565b166000526002602052602060ff60406000205460a01c166040519015158152f35b346102ec5760203660031901126102ec576001600160a01b0361088f613035565b168060005260026020526108ad60ff60406000205460a01c166133f4565b60005260026020526020600160406000200154604051908152f35b346102ec5760203660031901126102ec576108e16132c7565b600435601255005b346102ec5760203660031901126102ec576001600160a01b0361090a613035565b1660005260056020526020604060002054604051908152f35b346102ec5760403660031901126102ec5761093c613035565b61094461304b565b9060018060a01b038091166000526008602052604060002091166000526020526020604060002054604051908152f35b346102ec5760403660031901126102ec5760246001600160401b0360043582358281116102ec576109a9903690600401613061565b93906109b36132c7565b8260005260039460209286845260ff600460406000200154166005811015610feb576109e0901515613439565b846000526004845260026040600020015415610faf5784600052868452604060002092600485526040600020926004840193845460ff8116159081610fa0575b5015610f5c578901544311610f20577fc640060cdb34fcc260f41eac7474ee1d7c80b7e3607daff9ac67c7ea2ebb1c44610a5b3683856133bd565b878151910120666578656375746560c81b88604051610a7981613256565b60078152015203610c4257505090916001928382019160018060a01b0393600080868654166040518281610ab08160028a0161357a565b03925af198610abd6135fc565b99610ac457005b6008600784019360ff1994898682541617905501918a51918211610c2e5750610af781610af18454613119565b84613336565b879a601f8211600114610baf579181610b9f979695949289948d9e6000805160206145118339815191529d9e600093610ba4575b505082861b92600019911b1c19161790555b825416179055610b4e600f5461337d565b600f5554169560606040519485948552840152601c60608401527f45786563757465642077697468206f776e6572206f7665727269646500000000608084015260a0604084015260a08301906130f4565b0390a3005b015191508f8f610b2b565b601f1982169b83600052896000209c60005b818110610c195750928c9d8a959386936000805160206145118339815191529e9f84610b9f9d9c9b9a9810610bff575b50505050811b019055610b3d565b01519060f884600019921b161c191690558e808f80610bf1565b8d8301518f559d8a019d918b01918b01610bc1565b634e487b7160e01b60009081526041600452fd5b610c4d3682846133bd565b868151910120610c5b613477565b80519088012003610e4757505060078301956001968760ff198254161790556040519785808a0152601d60408a01527f5472616e73616374696f6e207265766572746564206279206f776e657200000060608a015260608952610cbd8961323b565b60088501928951928311610c2e5750610ce082610cda8554613119565b85613336565b8598601f8311600114610dcf57906000805160206145118339815191529798998392600093610dc4575b5050828a1b92600019911b1c19161790555b61010061ff0019825416179055610d34600f5461337d565b600f558460018060a01b039101541693610b9f604051610d8581610d7786820160609060208152600860208201526714995d995c9d195960c21b60408201520190565b03601f19810183528261328c565b6060604051948594855284015260116060840152702932bb32b93a32b210313c9037bbb732b960791b608084015260a0604084015260a08301906130f4565b015191508a80610d0a565b9198601f198a169284600052876000209360005b818110610e325750918b93918b9c6000805160206145118339815191529b9c969410610e18575b50505050811b019055610d1c565b01519060f884600019921b161c1916905589808080610e0a565b828401518655948b0194928901928901610de3565b606492857fa69dff78c971e101863084ec5c1dbe35bfadbf66d9b878605b3b33a719fe14f7610e7a89958b9536916133bd565b8581519101206773696d756c61746560c01b86604051610e9981613256565b60088152015203610eed57601492610eb3610eb9926134b1565b90614131565b6040519262461bcd60e51b845260048401528201527314da5b5d5b185d1a5bdb881c995c5d595cdd195960621b6044820152fd5b50600e91506040519262461bcd60e51b845260048401528201526d24b73b30b634b21030b1ba34b7b760911b6044820152fd5b60405162461bcd60e51b81526004810187905260158185015274119c99595e99481c195c9a5bd908195e1c1a5c9959605a1b6044820152606490fd5b60405162461bcd60e51b815260048101889052601d818601527f5472616e73616374696f6e20616c72656164792070726f6365737365640000006044820152606490fd5b60ff915060081c16158b610a20565b8360166064926040519262461bcd60e51b84526004840152820152752a3930b739b0b1ba34b7b7103737ba10333937bd32b760511b6044820152fd5b50634e487b7160e01b60009081526021600452fd5b346102ec5760203660031901126102ec5760043580600052600360205261102a60406000206134b1565b60018060a01b039081815116916020820151169260608201519060808301519260058410156110d85760a081015191600d8310156110d8576110c49060c0830151906000526003602052610140938461108660406000206134b1565b01519661010095868601511515950151966040519a8b9a8b5260208b015260408a0152606089015260808801526101208060a08901528701906130f4565b93431060c086015260e08501528301520390f35b634e487b7160e01b600052602160045260246000fd5b346102ec5760203660031901126102ec5760043561110a6132c7565b61111581151561362c565b601455005b346102ec5760003660031901126102ec576000546040516001600160a01b039091168152602090f35b346102ec5760003660031901126102ec576020601554604051908152f35b346102ec5760003660031901126102ec576020601354604051908152f35b346102ec5760003660031901126102ec576020601254604051908152f35b346102ec5760003660031901126102ec576111b66132c7565b600080546001600160a01b0319811682556001600160a01b03167f8be0079c531659141344cd1fd0a4f28419497f9722a3daafe3b4186f6b6457e08280a3005b346102ec5760003660031901126102ec576020600f54604051908152f35b346102ec5760203660031901126102ec576004356112306132c7565b8015158061127b575b1561124357601155005b60405162461bcd60e51b815260206004820152601060248201526f24b73b30b634b210323ab930ba34b7b760811b6044820152606490fd5b506103e8811115611239565b346102ec5760203660031901126102ec576004356112a36132c7565b801515806112f0575b156112b657601655005b60405162461bcd60e51b815260206004820152601260248201527124b73b30b634b21036bab63a34b83634b2b960711b6044820152606490fd5b5060648111156112ac565b346102ec5760003660031901126102ec57602060ff601b5460a01c166040519015158152f35b346102ec5760003660031901126102ec576020601454604051908152f35b346102ec5760203660031901126102ec57611358613035565b6113606132c7565b601b80546001600160a01b0319166001600160a01b0392909216919091179055005b346102ec5760203660031901126102ec576001600160a01b036113a3613035565b16600052600d6020526020604060002054604051908152f35b346102ec5760203660031901126102ec576113d5613035565b6113dd6132c7565b6001600160a01b03166000818152600260205260409020546114049060a01c60ff166133f4565b806000526002602052604060002060ff60a01b198154169055604051904282527fd2f536eb2cd870954219b9d794c2aaef19134127e1c44017e1037b9a49b5636960203393a3005b346102ec5760203660031901126102ec576004356114686132c7565b801515806114b5575b1561147b57601355005b60405162461bcd60e51b8152602060048201526012602482015271092dcecc2d8d2c840c6c2d8d840c8cae0e8d60731b6044820152606490fd5b50600a811115611471565b346102ec5760003660031901126102ec576020601154604051908152f35b346102ec5760203660031901126102ec576004356114fa6132c7565b61150581151561362c565b601555005b346102ec5760003660031901126102ec576020601654604051908152f35b346102ec5760003660031901126102ec576020601054604051908152f35b346102ec5760003660031901126102ec57601a546040516001600160a01b039091168152602090f35b346102ec5760003660031901126102ec576020600e54604051908152f35b346102ec5760003660031901126102ec57601b546040516001600160a01b039091168152602090f35b346102ec5760403660031901126102ec576115cf613035565b602435906115db6132c7565b6001600160a01b0390811690811561171257600183101580611707575b156116c2576040519060808201908282106001600160401b038311176116ac576002916040528383526020830160018152604084019086825260608501924284528660005284602052604060002095511685549160ff60a01b9051151560a01b16916affffffffffffffffffffff60a81b1617178455516001840155519101556040519182524260208301527fa8eebf5927f6d87370415763214abcd978f4075f38446adf78d8b4ccaf33944d60403393a3005b634e487b7160e01b600052604160045260246000fd5b60405162461bcd60e51b815260206004820152601860248201527f496e76616c69642070726f74656374696f6e206c6576656c00000000000000006044820152606490fd5b5060058311156115f8565b60405162461bcd60e51b815260206004820152601860248201527f496e76616c696420636f6e7472616374206164647265737300000000000000006044820152606490fd5b346102ec5760203660031901126102ec576117706132c7565b600435601755005b346102ec5760203660031901126102ec5760806001600160a01b038061179c613035565b166000526002602052604060002080549060ff6002600183015492015492604051948116855260a01c161515602084015260408301526060820152f35b6117e23661308e565b916002600154146126c457600260015560ff601b5460a01c1661267f576001600160a01b03811660009081526002602052604090205460a01c60ff161561264357600061014060405161183481613204565b828152826020820152606060408201528260608201528260808201528260a0820152606060c08201528260e082015282610100820152606061012082015201526000600c9060405161188581613220565b60008152611894868686613b68565b1561227b57505050600392600861194e6040516118b081613271565b603281527f556e757375616c6c79206c61726765207769746864726177616c20646574656360208201527174656420283e31307820617665726167652960701b6040820152915b6119043433868989613e86565b6119456040519761191489613204565b3389526001600160a01b03871660208a015261193136878a6133bd565b60408a01524260608a015260808901613499565b60a087016134a5565b60c08501524360e0850152600061010085015260405161196d81613220565b60008152610120850152600061014085015260405160208101906001600160601b03198460601b1682523360601b6034820152828560488301376119d060a88285810134604882015243606882015242608882015203608881018452018261328c565b51902093608081015160058110156110d857611b79575b50906119f8600093849336916133bd565b906020825192019034905af190611a0d6135fc565b9115611b415780600052600360205260ff6004604060002001541660058110156110d857611a54575b6001805560405160208082528190611a50908201856130f4565b0390f35b60005260036020526008604060002060078101600160ff1982541617905501908051916001600160401b0383116116ac57611a9983611a938354613119565b83613336565b6020601f8411600114611ad9579280611a5094600091611ace575b508160011b916000199060031b1c19161790555b90611a36565b905083015185611ab4565b601f198416908260005260206000209160005b818110611b295750918591611a509660019410611b10575b5050811b019055611ac8565b85015160001960f88460031b161c191690558580611b04565b91926020600181928689015181550194019201611aec565b60405162461bcd60e51b815260206004820152601060248201526f115e1958dd5d1a5bdb8819985a5b195960821b6044820152606490fd5b919092846000526003602052604060002060018060a01b038451166001600160601b0360a01b8254161781556001810160018060a01b036020860151166001600160601b0360a01b82541617905560408401518051906001600160401b0382116116ac578190611bf982611bf06002870154613119565b60028701613336565b602090601f8311600114612209576000926121fe575b50508160011b916000199060031b1c19161760028201555b60608401516003820155608084015160058110156110d857600482015460a0860151600d8110156110d85761ff0060ff9160081b1692169061ffff19161717600482015560c08401518051906001600160401b0382116116ac578190611c9d82611c946005870154613119565b60058701613336565b602090601f831160011461218c57600092612181575b50508160011b916000199060031b1c19161760058201555b60e08401516006820155611cf56101008501511515600783019060ff801983541691151516179055565b6101208401518051906001600160401b0382116116ac578190611d2882611d1f6008870154613119565b60088701613336565b602090601f831160011461210f57600092612104575b50508160011b916000199060031b1c19161760088201555b6009610140850151910155611d6c600e5461337d565b600e55608083015160058110156110d85760a0840151600d8110156110d857611dab60c086015191611da160405180956132ad565b60208401906132ba565b60606040830152867f7192da0ca79d523bc321e5c866837be94b2e471f2c36ecb9b68edbe473914531339380611dee60018060a01b0389169560608301906130f4565b0390a4608083015160058110156110d8576003116120c2578483611e1460115443613e59565b908260005260036020528160096040600020015560018060a01b0381511660405190611e3f826131e9565b848252602082015242604082015282606082015260006080820152600060a082015283600052600460205260a0600460406000208351815560018101600180851b036020860151166001600160601b03851b82541617905560408401516002820155606084015160038201550191611ec960808201511515849060ff801983541691151516179055565b0151815461ff00191690151560081b61ff00161790556020810151815160808301516001600160a01b03918216929091169060058110156110d8577fe158b61799005a0bde2d74805d7436ec8bd217764d814019e1597b65460e27fc6040611f4696611f3f8994835192835260208301906132ad565ba482614131565b60005b60ff81166020811090816120a4575b5015611f6c57611f67906144ff565b611f49565b60ff1690611f92611f7c836133a2565b92611f8a604051948561328c565b8084526133a2565b602083019290601f190136843760005b60ff811690602082108080612088575b15611ff35715611fdd578251821015611fdd5781602085611fd8941a91850101536144ff565b611fa2565b634e487b7160e01b600052603260045260246000fd5b6120846120546120646053878a6040519485927f5472616e73616374696f6e2066726f7a656e20666f722073656375726974792060208501527203932bb34b2bb97102a343932b0ba1024a21d1606d1b6040850152518092858501906130d1565b810103603381018452018261328c565b60405162461bcd60e51b81526020600482015291829160248301906130f4565b0390fd5b15611fdd5784831a60f81b6001600160f81b0319161515611fb2565b9015611fdd5782901a60f81b6001600160f81b031916151583611f58565b60808301519060058210156110d85760009485946119f8936002036120f5576120eb90886141ae565b92935093506119e7565b6120ff90886141ae565b6120eb565b015190508880611d3e565b9250600884016000526020600020906000935b601f1984168510612166576001945083601f1981161061214d575b505050811b016008820155611d56565b015160001960f88460031b161c1916905588808061213d565b81810151835560209485019460019093019290910190612122565b015190508880611cb3565b9250600584016000526020600020906000935b601f19841685106121e3576001945083601f198116106121ca575b505050811b016005820155611ccb565b015160001960f88460031b161c191690558880806121ba565b8181015183556020948501946001909301929091019061219f565b015190508880611c0f565b9250600284016000526020600020906000935b601f1984168510612260576001945083601f19811610612247575b505050811b016002820155611c27565b015160001960f88460031b161c19169055888080612237565b8181015183556020948501946001909301929091019061221c565b61228484613c17565b156122da57505050600292600961194e6040516122a081613271565b602181527f5261706964207769746864726177616c207061747465726e20646574656374656020820152601960fa1b6040820152916118f7565b6122e5338787613c6c565b1561234157505050600492600a61194e60405161230181613271565b602781527f537573706963696f75732061646d696e2066756e6374696f6e2063616c6c2064602082015266195d1958dd195960ca1b6040820152916118f7565b61234c338787613733565b156123ac57505050600392600061194e60405161236881613271565b602b81527f506f737369626c65207265656e7472616e63792061747461636b20706174746560208201526a1c9b8819195d1958dd195960aa1b6040820152916118f7565b6123b6343361386f565b1561241357505050600392600161194e6040516123d281613271565b602881527f466c617368206c6f616e206d616e6970756c6174696f6e207061747465726e2060208201526719195d1958dd195960c21b6040820152916118f7565b61241c336138d7565b1561247657505050600292600261194e60405161243881613271565b602581527f537573706963696f7573207374617465206d616e6970756c6174696f6e2070616020820152643a3a32b93760d91b6040820152916118f7565b612481348787613939565b156124cd57505050600292600361194e60405161249d81613256565b601f81527f556e657870656374656420455448207472616e73666572207061747465726e006020820152916118f7565b6124d78686613973565b1561252357505050600192600461194e6040516124f381613256565b601d81527f556e736166652065787465726e616c2063616c6c2064657465637465640000006020820152916118f7565b61252d8686613a0e565b1561258357505050600392600561194e60405161254981613271565b602181527f506f737369626c652061636365737320636f6e74726f6c2076696f6c6174696f6020820152603760f91b6040820152916118f7565b61258f95929533613b1c565b156125e757505060019361194e6040516125a881613271565b602681527f48696768206672657175656e63792063616c6c732066726f6d2073616d65206160208201526564647265737360d01b6040820152916118f7565b90946015543a116125fc575b61194e906118f7565b94505060019361194e60405161261181613256565b601881527f556e757375616c6c79206869676820676173207072696365000000000000000060208201529190506125f3565b60405162461bcd60e51b815260206004820152601460248201527315185c99d95d081b9bdd081c1c9bdd1958dd195960621b6044820152606490fd5b60405162461bcd60e51b815260206004820152601860248201527f456d657267656e63792073746f702069732061637469766500000000000000006044820152606490fd5b60405162461bcd60e51b815260206004820152601f60248201527f5265656e7472616e637947756172643a207265656e7472616e742063616c6c006044820152606490fd5b346102ec5760203660031901126102ec576001600160a01b0361272a613035565b16600052600b6020526020604060002054604051908152f35b346102ec5760203660031901126102ec5761275c613035565b6127646132c7565b6001600160a01b0316801561278b576001600160601b0360a01b601a541617601a55600080f35b60405162461bcd60e51b815260206004820152601960248201527f496e76616c6964204149204f7261636c652061646472657373000000000000006044820152606490fd5b346102ec5760003660031901126102ec576020601854604051908152f35b346102ec5760203660031901126102ec5760043561280a6132c7565b801561281557601855005b60405162461bcd60e51b815260206004820152600e60248201526d496e76616c69642077696e646f7760901b6044820152606490fd5b346102ec5760a03660031901126102ec576024351515602435036102ec576064356001600160401b0381116102ec57612888903690600401613061565b906084356001600160401b0381116102ec576128a8903690600401613061565b601a549092906001600160a01b03163303612f5d57600435600052600360205260ff6004604060002001541660058110156110d8576128e8901515613439565b60405161291e81610d773342600435602085019160549391835260208301526001600160601b03199060601b1660408201520190565b602081519101206040519061293282613220565b6000825260405191612943836131e9565b60243515158352604435602084015260408301526129623687856133bd565b60608301526129723686866133bd565b60808301528060a083015260005260076020526040600020906129a481511515839060ff801983541691151516179055565b6020810151600183015560408101518051906001600160401b0382116116ac576801000000000000000082116116ac576020906002850154836002870155808410612f3d575b500160028401600052602060002060005b838110612f20575050505060608101518051906001600160401b0382116116ac578190612a3882612a2f6003880154613119565b60038801613336565b602090601f8311600114612eae57600092612ea3575b50508160011b916000199060031b1c19161760038301555b60808101518051906001600160401b0382116116ac57612a9682612a8d6004870154613119565b60048701613336565b602090601f8311600114612e2e5791806005949260a094600092612e23575b50508160011b916000199060031b1c19161760048501555b01519101556004356000526003602052612b30601060406000209260405196879181612aff602085016005890161357a565b916f0103e1020a49020b730b63cb9b4b99d160851b8352858301370160008382015203600f1981018752018561328c565b83516001600160401b0381116116ac57612b5a81612b516005850154613119565b60058501613336565b6020601f8211600114612db4578192939495600092612da9575b50508160011b916000199060031b1c19161760058201555b6024359081612d8e575b50612b9d57005b612ba89136916133bd565b600435600052600360205260406000209060208151910120612bc8613477565b6020815191012014612bd657005b60078101600160ff1982541617905560405190602080830152601c60408301527f4175746f2d726576657274656420627920414920616e616c7973697300000000606083015260608252612c298261323b565b6008810182516001600160401b0381116116ac57612c4b81610af18454613119565b6020601f8211600114612d285781929394600092612d1d575b50508160011b916000199060031b1c19161790555b612c84600f5461337d565b600f556001808060a01b0391015416604051612cc481610d776020820160609060208152600860208201526714995d995c9d195960c21b60408201520190565b600080516020614511833981519152604051600181526060602082015260136060820152724175746f2d726576657274656420627920414960681b608082015260a0604082015280610b9f6004359460a08301906130f4565b015190508480612c64565b601f198216908360005260206000209160005b818110612d7657509583600195969710612d5d575b505050811b019055612c79565b015160001960f88460031b161c19169055848080612d50565b9192602060018192868b015181550194019201612d3b565b60ff9150600401541660058110156110d85760041483612b96565b015190508580612b74565b6005830160005260206000209060005b601f1984168110612e0b575060019394959683601f19811610612df2575b505050811b016005820155612b8c565b015160001960f88460031b161c19169055858080612de2565b9091602060018192858b015181550193019101612dc4565b015190508a80612ab5565b906004850160005260206000209160005b601f1985168110612e8b5750926005949260019260a09583601f19811610612e72575b505050811b016004850155612acd565b015160001960f88460031b161c191690558a8080612e62565b91926020600181928685015181550194019201612e3f565b015190508880612a4e565b9250600385016000526020600020906000935b601f1984168510612f05576001945083601f19811610612eec575b505050811b016003830155612a66565b015160001960f88460031b161c19169055888080612edc565b81810151835560209485019460019093019290910190612ec1565b82516001600160a01b0316818301556020909201916001016129fb565b612f5790600287016000528484600020918201910161331f565b896129ea565b60405162461bcd60e51b815260206004820152601760248201527f4f6e6c79204149204f7261636c652063616e2063616c6c0000000000000000006044820152606490fd5b346102ec5760203660031901126102ec576001600160a01b03612fc3613035565b16600052600560205260206040600020546014541115604051908152f35b346102ec5760003660031901126102ec57612ffa6132c7565b60ff60a01b19601b5416601b556040514281527f6a7365fcd12e17aa9aa076d2d2b88ef9aa06259f908fea374bcd9b7c5633f85760203392a2005b600435906001600160a01b03821682036102ec57565b602435906001600160a01b03821682036102ec57565b9181601f840112156102ec578235916001600160401b0383116102ec57602083818601950101116102ec57565b9060406003198301126102ec576004356001600160a01b03811681036102ec5791602435906001600160401b0382116102ec576130cd91600401613061565b9091565b60005b8381106130e45750506000910152565b81810151838201526020016130d4565b9060209161310d815180928185528580860191016130d1565b601f01601f1916010190565b90600182811c92168015613149575b602083101461313357565b634e487b7160e01b600052602260045260246000fd5b91607f1691613128565b906000929180549161316483613119565b9182825260019384811690816000146131c65750600114613186575b50505050565b90919394506000526020928360002092846000945b8386106131b2575050505001019038808080613180565b80548587018301529401938590820161319b565b9294505050602093945060ff191683830152151560051b01019038808080613180565b60c081019081106001600160401b038211176116ac57604052565b61016081019081106001600160401b038211176116ac57604052565b602081019081106001600160401b038211176116ac57604052565b608081019081106001600160401b038211176116ac57604052565b604081019081106001600160401b038211176116ac57604052565b606081019081106001600160401b038211176116ac57604052565b90601f801991011681019081106001600160401b038211176116ac57604052565b9060058210156110d85752565b90600d8210156110d85752565b6000546001600160a01b031633036132db57565b606460405162461bcd60e51b815260206004820152602060248201527f4f776e61626c653a2063616c6c6572206973206e6f7420746865206f776e65726044820152fd5b81811061332a575050565b6000815560010161331f565b9190601f811161334557505050565b613371926000526020600020906020601f840160051c83019310613373575b601f0160051c019061331f565b565b9091508190613364565b600019811461338c5760010190565b634e487b7160e01b600052601160045260246000fd5b6001600160401b0381116116ac57601f01601f191660200190565b9291926133c9826133a2565b916133d7604051938461328c565b8294818452818301116102ec578281602093846000960137010152565b156133fb57565b60405162461bcd60e51b815260206004820152601660248201527510dbdb9d1c9858dd081b9bdd081c1c9bdd1958dd195960521b6044820152606490fd5b1561344057565b60405162461bcd60e51b815260206004820152600f60248201526e139bc81d1a1c99585d08199bdd5b99608a1b6044820152606490fd5b6040519061348482613256565b60068252651c995d995c9d60d21b6020830152565b60058210156110d85752565b600d8210156110d85752565b906040516134be81613204565b6101406009829460018060a01b0380825416855260018201541660208501526040516134f1816106518160028601613153565b60408501526003810154606085015261352660ff600483015461351982821660808901613499565b60081c1660a086016134a5565b60405161353a816106518160058601613153565b60c0850152600681015460e085015260ff600782015416151561010085015260405161356d816106518160088601613153565b6101208501520154910152565b60009291815461358981613119565b926001918083169081156135e157506001146135a55750505050565b90919293945060005260209081600020906000915b8583106135d05750505050019038808080613180565b8054858401529183019181016135ba565b60ff1916845250505081151590910201915038808080613180565b3d15613627573d9061360d826133a2565b9161361b604051938461328c565b82523d6000602084013e565b606090565b1561363357565b60405162461bcd60e51b8152602060048201526011602482015270125b9d985b1a59081d1a1c995cda1bdb19607a1b6044820152606490fd5b8181029291811591840414171561338c57565b805115611fdd5760200190565b805160011015611fdd5760400190565b805160021015611fdd5760600190565b805160031015611fdd5760800190565b805160041015611fdd5760a00190565b805160051015611fdd5760c00190565b805160061015611fdd5760e00190565b805160071015611fdd576101000190565b805160081015611fdd576101200190565b805160091015611fdd576101400190565b8051821015611fdd5760209160051b010190565b913b1561374457600481101561374b575b5050600090565b6004116102ec5760405190356001600160e01b03199081169061376d83613204565b600a835261014036602085013763a9059cbb60e01b61378b8461367f565b5263095ea7b360e01b61379d8461368c565b526323b872dd60e01b6137af8461369c565b526340c10f1960e01b6137c1846136ac565b52632770a7eb60e21b6137d3846136bc565b52630852cd8d60e31b6137e5846136cc565b5263079cc67960e41b6137f7846136dc565b526340e58ee560e01b613809846136ec565b52632e1a7d4d60e01b61381b846136fd565b52633ccfd60b60e01b61382d8461370e565b5260005b83518110156138645781613845828661371f565b5116831461385b576138569061337d565b613831565b50505050600190565b505050503880613744565b803b151590816138c9575b816138b5575b506138af57678ac7230489e8000010806138a3575b61389e57600090565b600190565b50620186a05a10613895565b50600190565b6001600160a01b0316321415905038613880565b80915031601254119061387a565b6001600160a01b031660008181526006602052604081208054909290430361392557604092508082526005602052828220613912815461337d565b9055815260056020522054601454111590565b509043905560056020526001604082205590565b9115158061396a575b61394d575050600090565b6004116102ec57356001600160e01b03191661389e573880613744565b50801515613942565b906004811015613984575050600090565b6004116102ec576001600160e01b0319903516635c60da1b60e01b81149081156139fd575b81156139ec575b81156139db575b81156139ca575b5061389e573880613744565b6303e1469160e61b149050386139be565b6308f2839760e41b811491506139b7565b63278f794360e11b811491506139b0565b631b2ce7f360e11b811491506139a9565b906004811015613a1f575050600090565b6004116102ec5760405190356001600160e01b03199081169061012083016001600160401b038111848210176116ac576040526008835261010036602085013763f2fde38b60e01b613a708461367f565b52638da5cb5b60e01b613a828461368c565b5263a6f9dae160e01b613a948461369c565b52633cebb82360e01b613aa6846136ac565b52633825b60160e11b613ab8846136bc565b526340c10f1960e01b613aca846136cc565b52630852cd8d60e31b613adc846136dc565b52632770a7eb60e21b613aee846136ec565b5260005b83518110156138645781613b06828661371f565b5116831461385b57613b179061337d565b613af2565b6001600160a01b03166000818152600660205260408120549091904314613b41575090565b6003916040916005602052828220613b59815461337d565b90558152600560205220541190565b9160248110613c02576004116102ec576001600160e01b0319813516632e1a7d4d60e01b8114908115613bf1575b50613ba2575050600090565b600401359060018060a01b0316600052600a6020526040600020548015159081613bdb575b506138af576017541061389e573880613744565b613be991506016549061366c565b811138613bc7565b63b0fd035b60e01b14905038613b96565b505050600090565b9190820391821161338c57565b6001600160a01b03166000908152600d60205260409020548015159081613c43575b5061389e57600090565b613c4e915042613c0a565b60185490600c820291808304600c149015171561338c571038613c39565b91600491828110613e505782116102ec5760405192356001600160e01b0319908116906101a085016001600160401b03811186821017613e3b57604052600c85526101808036602088013763f2fde38b60e01b613cc88761367f565b5263a6f9dae160e01b613cda8761368c565b52633cebb82360e01b613cec8761369c565b52633825b60160e11b613cfe876136ac565b526340c10f1960e01b613d10876136bc565b52630852cd8d60e31b613d22876136cc565b52632770a7eb60e21b613d34876136dc565b52631b2ce7f360e11b613d46876136ec565b5263278f794360e11b613d58876136fd565b526308f2839760e41b613d6a8761370e565b528551600a1015613e2657635c60da1b60e01b6101608701528551600b1015613e26576303e1469160e61b9086015260005b8551811015613e1b5781613db0828861371f565b51168314613dc7575b613dc29061337d565b613d9c565b833b613e105760155460019080821b9080820460021490151715613dfb573a11613df15750613db9565b9550505050505090565b601187634e487b7160e01b6000525260246000fd5b505050505050600190565b505050505050600090565b603285634e487b7160e01b6000525260246000fd5b604185634e487b7160e01b6000525260246000fd5b50505050600090565b9190820180921161338c57565b8115613e70570490565b634e487b7160e01b600052601260045260246000fd5b9390926004831061405e57826004116102ec5783356001600160e01b03191691630d0e30db60e41b831480614055575b613f1f575b5050632e1a7d4d60e01b8114908115613f0e575b50613ed957505050565b60241115613ee5575050565b60049160018060a01b0316600052600c6020520135604060002055600d60205242604060002055565b63b0fd035b60e01b14905038613ecf565b60018060a01b039081871692600091848352602090600b8252604094858520613f48815461337d565b9055868552600a835285852054600b84528686205460001992918382019182116140415784613f7d613f9393613f829361366c565b613e59565b898852600b86528888205490613e66565b888752600a855287872055600984528686209416938486528352858520613fba815461337d565b9055868552600883528585208486528352858520548786526009845286862085875284528686205491820191821161402d5791613f7d613ffd926140169461366c565b8685526009835285852084865283528585205490613e66565b948352600881528383209183525220553880613ebb565b634e487b7160e01b86526011600452602486fd5b634e487b7160e01b88526011600452602488fd5b50801515613eb6565b5050505050565b91602411614124578131906004013560008183111561411f57506140898183613c0a565b6001600160a01b039093166000908152600a6020526040902054801580159190828061410b575b156140c057505050600391101592565b826140ef575b5050156140d557600291101592565b6017548111156140e757600491101592565b600191101592565b90915060058202918204600514171561338c57811138806140c6565b506141186016548361366c565b84116140b0565b614089565b5050600090600090600090565b601a549091906001600160a01b0390811680156131805760209060405161417f81610d7785820194428a879160549391835260208301526001600160601b03199060601b1660408201520190565b51902092015116917f70afdc8e41469e3529709d2c5289ca9593a88f93ee8d999b31a9e9fbf1558478600080a4565b9060009182526003916020838152604082209360018060a01b0380855116906001600160601b0360a01b918288541617875560019182880191858801511690825416179055600286019260408601519384516001600160401b039586821161445a578190614226826142208654613119565b86613336565b8490601f83116001146144a1578992614496575b505060001982871b1c191690841b1790555b606086015183880155600487016080870151600581101561448257815460a0890151600d81101561446e5761ff0060ff9160081b1692169061ffff1916171790556005870160c087015180519086821161445a5781906142b0826142208654613119565b8490601f83116001146143fc5789926143f1575b505060001982871b1c191690841b1790555b60e086015160068801556143006101008701511515600789019060ff801983541691151516179055565b60088701946101208701519081519586116143dd57614329866143238954613119565b89613336565b82601f871160011461436d5750948093819361014098969360099a9895614362575b50501b92600019911b1c19161790555b0151910155565b01519350388061434b565b878252808220949695939291601f198716915b8282106143c657505091859391610140989660099a989694106143ac575b50505050811b01905561435b565b01519060f884600019921b161c191690553880808061439e565b808986988294978701518155019701940190614380565b634e487b7160e01b81526041600452602490fd5b0151905038806142c4565b848a52858a208794509190601f1984168b5b88828210614444575050841161442c575b505050811b0190556142d6565b015160001983891b60f8161c1916905538808061441f565b8385015186558a9790950194938401930161440e565b634e487b7160e01b88526041600452602488fd5b634e487b7160e01b89526021600452602489fd5b634e487b7160e01b87526021600452602487fd5b01519050388061423a565b848a52858a208794509190601f1984168b5b888282106144e957505084116144d1575b505050811b01905561424c565b015160001983891b60f8161c191690553880806144c4565b8385015186558a979095019493840193016144b3565b60ff1660ff811461338c576001019056fe8938bdaafb8d8ba10b2417522eeb22e7535d89d5fe80d15940dafeb01f7185eca26469706673582212209467c3c15a2f30caa8ffc90a8c077745818f879b05fd4e66997280a499766b7d64736f6c63430008130033","opcodes":"PUSH1 0x80 DUP1 PUSH1 0x40 MSTORE CALLVALUE PUSH2 0x9F JUMPI PUSH1 0x0 DUP1 SLOAD CALLER PUSH1 0x1 PUSH1 0x1 PUSH1 0xA0 SHL SUB NOT DUP3 AND DUP2 OR DUP4 SSTORE SWAP2 PUSH1 0x1 PUSH1 0x1 PUSH1 0xA0 SHL SUB SWAP1 SWAP2 AND SWAP1 PUSH32 0x8BE0079C531659141344CD1FD0A4F28419497F9722A3DAAFE3B4186F6B6457E0 SWAP1 DUP1 LOG3 PUSH1 0x1 DUP1 SSTORE PUSH1 0x1E PUSH1 0x11 SSTORE PUSH8 0x16345785D8A0000 PUSH1 0x12 SSTORE PUSH1 0x3 PUSH1 0x13 SSTORE PUSH1 0x5 PUSH1 0x14 SSTORE PUSH5 0x174876E800 PUSH1 0x15 SSTORE PUSH1 0xA PUSH1 0x16 SSTORE PUSH9 0x3635C9ADC5DEA00000 PUSH1 0x17 SSTORE PUSH1 0x64 PUSH1 0x18 SSTORE PUSH1 0x3 PUSH1 0x19 SSTORE PUSH2 0x4566 SWAP1 DUP2 PUSH2 0xA5 DUP3 CODECOPY RETURN JUMPDEST PUSH1 0x0 DUP1 REVERT INVALID PUSH1 0x80 PUSH1 0x40 MSTORE PUSH1 0x4 CALLDATASIZE LT ISZERO PUSH2 0x5B JUMPI JUMPDEST CALLDATASIZE ISZERO PUSH2 0x59 JUMPI PUSH1 0x40 MLOAD PUSH3 0x461BCD PUSH1 0xE5 SHL DUP2 MSTORE PUSH1 0x20 PUSH1 0x4 DUP3 ADD MSTORE PUSH1 0x18 PUSH1 0x24 DUP3 ADD MSTORE PUSH32 0x4469726563742063616C6C73206E6F7420616C6C6F7765640000000000000000 PUSH1 0x44 DUP3 ADD MSTORE PUSH1 0x64 SWAP1 REVERT JUMPDEST STOP JUMPDEST PUSH1 0x0 CALLDATALOAD PUSH1 0xE0 SHR DUP1 PUSH4 0x2A517AB EQ PUSH2 0x2FE1 JUMPI DUP1 PUSH4 0x54BD9DE EQ PUSH2 0x2FA2 JUMPI DUP1 PUSH4 0x116D4AC5 EQ PUSH2 0x284B JUMPI DUP1 PUSH4 0x11C33D49 EQ PUSH2 0x27EE JUMPI DUP1 PUSH4 0x17F83E5C EQ PUSH2 0x27D0 JUMPI DUP1 PUSH4 0x1AA632B3 EQ PUSH2 0x2743 JUMPI DUP1 PUSH4 0x1B480467 EQ PUSH2 0x2709 JUMPI DUP1 PUSH4 0x1D3323B6 EQ PUSH2 0x17D9 JUMPI DUP1 PUSH4 0x1EC01D71 EQ PUSH2 0x1778 JUMPI DUP1 PUSH4 0x25303A73 EQ PUSH2 0x1757 JUMPI DUP1 PUSH4 0x2609BE4E EQ PUSH2 0x15B6 JUMPI DUP1 PUSH4 0x2630C12F EQ PUSH2 0x158D JUMPI DUP1 PUSH4 0x2C64B846 EQ PUSH2 0x156F JUMPI DUP1 PUSH4 0x31B221CD EQ PUSH2 0x1546 JUMPI DUP1 PUSH4 0x3DA846AA EQ PUSH2 0x1528 JUMPI DUP1 PUSH4 0x40034B7A EQ PUSH2 0x150A JUMPI DUP1 PUSH4 0x40AF6AD4 EQ PUSH2 0x14DE JUMPI DUP1 PUSH4 0x440991BD EQ PUSH2 0x14C0 JUMPI DUP1 PUSH4 0x46B76CCC EQ PUSH2 0x144C JUMPI DUP1 PUSH4 0x4838B5B6 EQ PUSH2 0x13BC JUMPI DUP1 PUSH4 0x4DE5120E EQ PUSH2 0x1382 JUMPI DUP1 PUSH4 0x530E784F EQ PUSH2 0x133F JUMPI DUP1 PUSH4 0x54349ED0 EQ PUSH2 0x1321 JUMPI DUP1 PUSH4 0x63A599A4 EQ PUSH2 0x12FB JUMPI DUP1 PUSH4 0x6616DE77 EQ PUSH2 0x1287 JUMPI DUP1 PUSH4 0x6CA2AA95 EQ PUSH2 0x1214 JUMPI DUP1 PUSH4 0x6E2D919F EQ PUSH2 0x11F6 JUMPI DUP1 PUSH4 0x715018A6 EQ PUSH2 0x119D JUMPI DUP1 PUSH4 0x7914D864 EQ PUSH2 0x117F JUMPI DUP1 PUSH4 0x7994E28A EQ PUSH2 0x1161 JUMPI DUP1 PUSH4 0x892A51C5 EQ PUSH2 0x1143 JUMPI DUP1 PUSH4 0x8DA5CB5B EQ PUSH2 0x111A JUMPI DUP1 PUSH4 0x8FA50574 EQ PUSH2 0x10EE JUMPI DUP1 PUSH4 0x9950E052 EQ PUSH2 0x1000 JUMPI DUP1 PUSH4 0x9C38944B EQ PUSH2 0x974 JUMPI DUP1 PUSH4 0xA7FD17F3 EQ PUSH2 0x923 JUMPI DUP1 PUSH4 0xAB470715 EQ PUSH2 0x8E9 JUMPI DUP1 PUSH4 0xB5338586 EQ PUSH2 0x8C8 JUMPI DUP1 PUSH4 0xBC00FD67 EQ PUSH2 0x86E JUMPI DUP1 PUSH4 0xC0C9B949 EQ PUSH2 0x82C JUMPI DUP1 PUSH4 0xC59D4847 EQ PUSH2 0x7FD JUMPI DUP1 PUSH4 0xC5AAE677 EQ PUSH2 0x7DF JUMPI DUP1 PUSH4 0xCCC470CB EQ PUSH2 0x76D JUMPI DUP1 PUSH4 0xCCD12CD2 EQ PUSH2 0x733 JUMPI DUP1 PUSH4 0xCE11D0AE EQ PUSH2 0x707 JUMPI DUP1 PUSH4 0xCE1E2D9E EQ PUSH2 0x5D8 JUMPI DUP1 PUSH4 0xDB658215 EQ PUSH2 0x5AA JUMPI DUP1 PUSH4 0xDFDE44CF EQ PUSH2 0x570 JUMPI DUP1 PUSH4 0xE8497055 EQ PUSH2 0x51F JUMPI DUP1 PUSH4 0xE976D431 EQ PUSH2 0x501 JUMPI DUP1 PUSH4 0xEA02FFAC EQ PUSH2 0x45C JUMPI DUP1 PUSH4 0xEAFCD1AE EQ PUSH2 0x3B5 JUMPI DUP1 PUSH4 0xF2FDE38B EQ PUSH2 0x2F1 JUMPI PUSH4 0xF6C9446A SUB PUSH2 0xE JUMPI CALLVALUE PUSH2 0x2EC JUMPI PUSH1 0x20 CALLDATASIZE PUSH1 0x3 NOT ADD SLT PUSH2 0x2EC JUMPI PUSH1 0x1 PUSH1 0x1 PUSH1 0xA0 SHL SUB PUSH2 0x2D3 PUSH2 0x3035 JUMP JUMPDEST AND PUSH1 0x0 MSTORE PUSH1 0xA PUSH1 0x20 MSTORE PUSH1 0x20 PUSH1 0x40 PUSH1 0x0 KECCAK256 SLOAD PUSH1 0x40 MLOAD SWAP1 DUP2 MSTORE RETURN JUMPDEST PUSH1 0x0 DUP1 REVERT JUMPDEST CALLVALUE PUSH2 0x2EC JUMPI PUSH1 0x20 CALLDATASIZE PUSH1 0x3 NOT ADD SLT PUSH2 0x2EC JUMPI PUSH2 0x30A PUSH2 0x3035 JUMP JUMPDEST PUSH2 0x312 PUSH2 0x32C7 JUMP JUMPDEST PUSH1 0x1 PUSH1 0x1 PUSH1 0xA0 SHL SUB SWAP1 DUP2 AND SWAP1 DUP2 ISZERO PUSH2 0x361 JUMPI PUSH1 0x0 SLOAD DUP3 PUSH1 0x1 PUSH1 0x1 PUSH1 0x60 SHL SUB PUSH1 0xA0 SHL DUP3 AND OR PUSH1 0x0 SSTORE AND PUSH32 0x8BE0079C531659141344CD1FD0A4F28419497F9722A3DAAFE3B4186F6B6457E0 PUSH1 0x0 DUP1 LOG3 STOP JUMPDEST PUSH1 0x40 MLOAD PUSH3 0x461BCD PUSH1 0xE5 SHL DUP2 MSTORE PUSH1 0x20 PUSH1 0x4 DUP3 ADD MSTORE PUSH1 0x26 PUSH1 0x24 DUP3 ADD MSTORE PUSH32 0x4F776E61626C653A206E6577206F776E657220697320746865207A65726F2061 PUSH1 0x44 DUP3 ADD MSTORE PUSH6 0x646472657373 PUSH1 0xD0 SHL PUSH1 0x64 DUP3 ADD MSTORE PUSH1 0x84 SWAP1 REVERT JUMPDEST CALLVALUE PUSH2 0x2EC JUMPI PUSH1 0x20 CALLDATASIZE PUSH1 0x3 NOT ADD SLT PUSH2 0x2EC JUMPI PUSH1 0x4 CALLDATALOAD PUSH1 0x0 MSTORE PUSH1 0x7 PUSH1 0x20 MSTORE PUSH1 0x40 PUSH1 0x0 KECCAK256 PUSH1 0xFF DUP2 SLOAD AND PUSH1 0x1 DUP3 ADD SLOAD SWAP2 PUSH2 0x452 PUSH1 0x40 MLOAD SWAP2 PUSH2 0x400 DUP4 PUSH2 0x3F9 DUP2 PUSH1 0x3 DUP6 ADD PUSH2 0x3153 JUMP JUMPDEST SUB DUP5 PUSH2 0x328C JUMP JUMPDEST PUSH2 0x444 PUSH1 0x5 PUSH1 0x40 MLOAD SWAP3 PUSH2 0x421 DUP5 PUSH2 0x41A DUP2 PUSH1 0x4 DUP6 ADD PUSH2 0x3153 JUMP JUMPDEST SUB DUP6 PUSH2 0x328C JUMP JUMPDEST ADD SLOAD SWAP4 PUSH1 0x40 MLOAD SWAP7 DUP8 SWAP7 ISZERO ISZERO DUP8 MSTORE PUSH1 0x20 DUP8 ADD MSTORE PUSH1 0xA0 PUSH1 0x40 DUP8 ADD MSTORE PUSH1 0xA0 DUP7 ADD SWAP1 PUSH2 0x30F4 JUMP JUMPDEST SWAP1 DUP5 DUP3 SUB PUSH1 0x60 DUP7 ADD MSTORE PUSH2 0x30F4 JUMP JUMPDEST SWAP1 PUSH1 0x80 DUP4 ADD MSTORE SUB SWAP1 RETURN JUMPDEST CALLVALUE PUSH2 0x2EC JUMPI PUSH1 0x20 CALLDATASIZE PUSH1 0x3 NOT ADD SLT PUSH2 0x2EC JUMPI PUSH1 0x4 CALLDATALOAD PUSH1 0x1 PUSH1 0x1 PUSH1 0x40 SHL SUB DUP2 GT PUSH2 0x2EC JUMPI PUSH2 0x4AD PUSH32 0x961D556F025C07DB81E2659D606C508D6496C37B355A276D308068E8FDA3F235 SWAP2 CALLDATASIZE SWAP1 PUSH1 0x4 ADD PUSH2 0x3061 JUMP JUMPDEST SWAP2 SWAP1 PUSH2 0x4B7 PUSH2 0x32C7 JUMP JUMPDEST PUSH1 0x1 PUSH1 0xA0 SHL PUSH1 0xFF PUSH1 0xA0 SHL NOT PUSH1 0x1B SLOAD AND OR PUSH1 0x1B SSTORE DUP3 PUSH1 0x40 MLOAD SWAP2 TIMESTAMP DUP4 MSTORE PUSH1 0x40 PUSH1 0x20 DUP5 ADD MSTORE DUP2 PUSH1 0x40 DUP5 ADD MSTORE PUSH1 0x60 DUP4 ADD CALLDATACOPY PUSH1 0x0 PUSH1 0x60 DUP5 DUP4 ADD ADD MSTORE PUSH1 0x60 DUP2 CALLER SWAP5 PUSH1 0x1F DUP1 NOT SWAP2 ADD AND DUP2 ADD SUB ADD SWAP1 LOG2 STOP JUMPDEST CALLVALUE PUSH2 0x2EC JUMPI PUSH1 0x0 CALLDATASIZE PUSH1 0x3 NOT ADD SLT PUSH2 0x2EC JUMPI PUSH1 0x20 PUSH1 0x17 SLOAD PUSH1 0x40 MLOAD SWAP1 DUP2 MSTORE RETURN JUMPDEST CALLVALUE PUSH2 0x2EC JUMPI PUSH1 0x40 CALLDATASIZE PUSH1 0x3 NOT ADD SLT PUSH2 0x2EC JUMPI PUSH2 0x538 PUSH2 0x3035 JUMP JUMPDEST PUSH2 0x540 PUSH2 0x304B JUMP JUMPDEST SWAP1 PUSH1 0x1 DUP1 PUSH1 0xA0 SHL SUB DUP1 SWAP2 AND PUSH1 0x0 MSTORE PUSH1 0x9 PUSH1 0x20 MSTORE PUSH1 0x40 PUSH1 0x0 KECCAK256 SWAP2 AND PUSH1 0x0 MSTORE PUSH1 0x20 MSTORE PUSH1 0x20 PUSH1 0x40 PUSH1 0x0 KECCAK256 SLOAD PUSH1 0x40 MLOAD SWAP1 DUP2 MSTORE RETURN JUMPDEST CALLVALUE PUSH2 0x2EC JUMPI PUSH1 0x20 CALLDATASIZE PUSH1 0x3 NOT ADD SLT PUSH2 0x2EC JUMPI PUSH1 0x1 PUSH1 0x1 PUSH1 0xA0 SHL SUB PUSH2 0x591 PUSH2 0x3035 JUMP JUMPDEST AND PUSH1 0x0 MSTORE PUSH1 0xC PUSH1 0x20 MSTORE PUSH1 0x20 PUSH1 0x40 PUSH1 0x0 KECCAK256 SLOAD PUSH1 0x40 MLOAD SWAP1 DUP2 MSTORE RETURN JUMPDEST CALLVALUE PUSH2 0x2EC JUMPI PUSH1 0x60 PUSH2 0x5C3 PUSH2 0x5BD CALLDATASIZE PUSH2 0x308E JUMP JUMPDEST SWAP2 PUSH2 0x4065 JUMP JUMPDEST SWAP1 PUSH1 0x40 MLOAD SWAP3 ISZERO ISZERO DUP4 MSTORE PUSH1 0x20 DUP4 ADD MSTORE PUSH1 0x40 DUP3 ADD MSTORE RETURN JUMPDEST CALLVALUE PUSH2 0x2EC JUMPI PUSH1 0x20 CALLDATASIZE PUSH1 0x3 NOT ADD SLT PUSH2 0x2EC JUMPI PUSH1 0x4 CALLDATALOAD PUSH1 0x0 MSTORE PUSH1 0x3 PUSH1 0x20 MSTORE PUSH1 0x20 PUSH1 0x40 PUSH1 0x0 KECCAK256 PUSH1 0x1 DUP1 PUSH1 0xA0 SHL SUB SWAP1 PUSH2 0x6FC DUP3 DUP3 SLOAD AND SWAP3 PUSH1 0x1 DUP4 ADD SLOAD AND SWAP2 PUSH1 0x40 MLOAD SWAP1 PUSH2 0x62E DUP3 PUSH2 0x627 DUP2 PUSH1 0x2 DUP6 ADD PUSH2 0x3153 JUMP JUMPDEST SUB DUP4 PUSH2 0x328C JUMP JUMPDEST PUSH1 0x3 DUP2 ADD SLOAD SWAP2 PUSH2 0x6E0 PUSH1 0x4 DUP4 ADD SLOAD SWAP4 PUSH1 0x40 MLOAD PUSH2 0x658 DUP2 PUSH2 0x651 DUP2 PUSH1 0x5 DUP10 ADD PUSH2 0x3153 JUMP JUMPDEST SUB DUP3 PUSH2 0x328C JUMP JUMPDEST PUSH2 0x6D3 PUSH1 0x6 DUP7 ADD SLOAD SWAP7 PUSH2 0x6AD PUSH1 0xFF PUSH1 0x7 DUP10 ADD SLOAD AND SWAP7 PUSH1 0x9 PUSH1 0x40 MLOAD SWAP10 PUSH2 0x68B DUP12 PUSH2 0x684 DUP2 PUSH1 0x8 DUP6 ADD PUSH2 0x3153 JUMP JUMPDEST SUB DUP13 PUSH2 0x328C JUMP JUMPDEST ADD SLOAD SWAP12 PUSH1 0x40 MLOAD SWAP15 DUP16 SWAP15 DUP16 SWAP1 DUP2 MSTORE ADD MSTORE PUSH1 0x40 DUP14 PUSH2 0x160 SWAP2 DUP3 SWAP2 ADD MSTORE DUP14 ADD SWAP1 PUSH2 0x30F4 JUMP JUMPDEST SWAP4 PUSH1 0x60 DUP13 ADD MSTORE PUSH2 0x6C3 PUSH1 0x80 DUP13 ADD PUSH1 0xFF DUP4 AND PUSH2 0x32AD JUMP JUMPDEST PUSH1 0xFF PUSH1 0xA0 DUP13 ADD SWAP2 PUSH1 0x8 SHR AND PUSH2 0x32BA JUMP JUMPDEST DUP9 DUP3 SUB PUSH1 0xC0 DUP11 ADD MSTORE PUSH2 0x30F4 JUMP JUMPDEST SWAP3 PUSH1 0xE0 DUP8 ADD MSTORE ISZERO ISZERO PUSH2 0x100 DUP7 ADD MSTORE DUP5 DUP3 SUB PUSH2 0x120 DUP7 ADD MSTORE PUSH2 0x30F4 JUMP JUMPDEST SWAP1 PUSH2 0x140 DUP4 ADD MSTORE SUB SWAP1 RETURN JUMPDEST CALLVALUE PUSH2 0x2EC JUMPI PUSH1 0x20 CALLDATASIZE PUSH1 0x3 NOT ADD SLT PUSH2 0x2EC JUMPI PUSH1 0x4 CALLDATALOAD PUSH2 0x723 PUSH2 0x32C7 JUMP JUMPDEST PUSH2 0x72E DUP2 ISZERO ISZERO PUSH2 0x362C JUMP JUMPDEST PUSH1 0x19 SSTORE STOP JUMPDEST CALLVALUE PUSH2 0x2EC JUMPI PUSH1 0x20 CALLDATASIZE PUSH1 0x3 NOT ADD SLT PUSH2 0x2EC JUMPI PUSH1 0x1 PUSH1 0x1 PUSH1 0xA0 SHL SUB PUSH2 0x754 PUSH2 0x3035 JUMP JUMPDEST AND PUSH1 0x0 MSTORE PUSH1 0x6 PUSH1 0x20 MSTORE PUSH1 0x20 PUSH1 0x40 PUSH1 0x0 KECCAK256 SLOAD PUSH1 0x40 MLOAD SWAP1 DUP2 MSTORE RETURN JUMPDEST CALLVALUE PUSH2 0x2EC JUMPI PUSH1 0x20 CALLDATASIZE PUSH1 0x3 NOT ADD SLT PUSH2 0x2EC JUMPI PUSH1 0x4 CALLDATALOAD PUSH1 0x0 MSTORE PUSH1 0x4 PUSH1 0x20 MSTORE PUSH1 0xC0 PUSH1 0x40 PUSH1 0x0 KECCAK256 PUSH1 0xFF DUP2 SLOAD SWAP2 PUSH1 0x1 DUP1 PUSH1 0xA0 SHL SUB PUSH1 0x1 DUP3 ADD SLOAD AND SWAP1 PUSH1 0x2 DUP2 ADD SLOAD PUSH1 0x4 PUSH1 0x3 DUP4 ADD SLOAD SWAP3 ADD SLOAD SWAP3 PUSH1 0x40 MLOAD SWAP6 DUP7 MSTORE PUSH1 0x20 DUP7 ADD MSTORE PUSH1 0x40 DUP6 ADD MSTORE PUSH1 0x60 DUP5 ADD MSTORE DUP2 DUP2 AND ISZERO ISZERO PUSH1 0x80 DUP5 ADD MSTORE PUSH1 0x8 SHR AND ISZERO ISZERO PUSH1 0xA0 DUP3 ADD MSTORE RETURN JUMPDEST CALLVALUE PUSH2 0x2EC JUMPI PUSH1 0x0 CALLDATASIZE PUSH1 0x3 NOT ADD SLT PUSH2 0x2EC JUMPI PUSH1 0x20 PUSH1 0x19 SLOAD PUSH1 0x40 MLOAD SWAP1 DUP2 MSTORE RETURN JUMPDEST CALLVALUE PUSH2 0x2EC JUMPI PUSH1 0x0 CALLDATASIZE PUSH1 0x3 NOT ADD SLT PUSH2 0x2EC JUMPI PUSH1 0x60 PUSH1 0xE SLOAD PUSH1 0xF SLOAD PUSH1 0x10 SLOAD SWAP1 PUSH1 0x40 MLOAD SWAP3 DUP4 MSTORE PUSH1 0x20 DUP4 ADD MSTORE PUSH1 0x40 DUP3 ADD MSTORE RETURN JUMPDEST CALLVALUE PUSH2 0x2EC JUMPI PUSH1 0x20 CALLDATASIZE PUSH1 0x3 NOT ADD SLT PUSH2 0x2EC JUMPI PUSH1 0x1 PUSH1 0x1 PUSH1 0xA0 SHL SUB PUSH2 0x84D PUSH2 0x3035 JUMP JUMPDEST AND PUSH1 0x0 MSTORE PUSH1 0x2 PUSH1 0x20 MSTORE PUSH1 0x20 PUSH1 0xFF PUSH1 0x40 PUSH1 0x0 KECCAK256 SLOAD PUSH1 0xA0 SHR AND PUSH1 0x40 MLOAD SWAP1 ISZERO ISZERO DUP2 MSTORE RETURN JUMPDEST CALLVALUE PUSH2 0x2EC JUMPI PUSH1 0x20 CALLDATASIZE PUSH1 0x3 NOT ADD SLT PUSH2 0x2EC JUMPI PUSH1 0x1 PUSH1 0x1 PUSH1 0xA0 SHL SUB PUSH2 0x88F PUSH2 0x3035 JUMP JUMPDEST AND DUP1 PUSH1 0x0 MSTORE PUSH1 0x2 PUSH1 0x20 MSTORE PUSH2 0x8AD PUSH1 0xFF PUSH1 0x40 PUSH1 0x0 KECCAK256 SLOAD PUSH1 0xA0 SHR AND PUSH2 0x33F4 JUMP JUMPDEST PUSH1 0x0 MSTORE PUSH1 0x2 PUSH1 0x20 MSTORE PUSH1 0x20 PUSH1 0x1 PUSH1 0x40 PUSH1 0x0 KECCAK256 ADD SLOAD PUSH1 0x40 MLOAD SWAP1 DUP2 MSTORE RETURN JUMPDEST CALLVALUE PUSH2 0x2EC JUMPI PUSH1 0x20 CALLDATASIZE PUSH1 0x3 NOT ADD SLT PUSH2 0x2EC JUMPI PUSH2 0x8E1 PUSH2 0x32C7 JUMP JUMPDEST PUSH1 0x4 CALLDATALOAD PUSH1 0x12 SSTORE STOP JUMPDEST CALLVALUE PUSH2 0x2EC JUMPI PUSH1 0x20 CALLDATASIZE PUSH1 0x3 NOT ADD SLT PUSH2 0x2EC JUMPI PUSH1 0x1 PUSH1 0x1 PUSH1 0xA0 SHL SUB PUSH2 0x90A PUSH2 0x3035 JUMP JUMPDEST AND PUSH1 0x0 MSTORE PUSH1 0x5 PUSH1 0x20 MSTORE PUSH1 0x20 PUSH1 0x40 PUSH1 0x0 KECCAK256 SLOAD PUSH1 0x40 MLOAD SWAP1 DUP2 MSTORE RETURN JUMPDEST CALLVALUE PUSH2 0x2EC JUMPI PUSH1 0x40 CALLDATASIZE PUSH1 0x3 NOT ADD SLT PUSH2 0x2EC JUMPI PUSH2 0x93C PUSH2 0x3035 JUMP JUMPDEST PUSH2 0x944 PUSH2 0x304B JUMP JUMPDEST SWAP1 PUSH1 0x1 DUP1 PUSH1 0xA0 SHL SUB DUP1 SWAP2 AND PUSH1 0x0 MSTORE PUSH1 0x8 PUSH1 0x20 MSTORE PUSH1 0x40 PUSH1 0x0 KECCAK256 SWAP2 AND PUSH1 0x0 MSTORE PUSH1 0x20 MSTORE PUSH1 0x20 PUSH1 0x40 PUSH1 0x0 KECCAK256 SLOAD PUSH1 0x40 MLOAD SWAP1 DUP2 MSTORE RETURN JUMPDEST CALLVALUE PUSH2 0x2EC JUMPI PUSH1 0x40 CALLDATASIZE PUSH1 0x3 NOT ADD SLT PUSH2 0x2EC JUMPI PUSH1 0x24 PUSH1 0x1 PUSH1 0x1 PUSH1 0x40 SHL SUB PUSH1 0x4 CALLDATALOAD DUP3 CALLDATALOAD DUP3 DUP2 GT PUSH2 0x2EC JUMPI PUSH2 0x9A9 SWAP1 CALLDATASIZE SWAP1 PUSH1 0x4 ADD PUSH2 0x3061 JUMP JUMPDEST SWAP4 SWAP1 PUSH2 0x9B3 PUSH2 0x32C7 JUMP JUMPDEST DUP3 PUSH1 0x0 MSTORE PUSH1 0x3 SWAP5 PUSH1 0x20 SWAP3 DUP7 DUP5 MSTORE PUSH1 0xFF PUSH1 0x4 PUSH1 0x40 PUSH1 0x0 KECCAK256 ADD SLOAD AND PUSH1 0x5 DUP2 LT ISZERO PUSH2 0xFEB JUMPI PUSH2 0x9E0 SWAP1 ISZERO ISZERO PUSH2 0x3439 JUMP JUMPDEST DUP5 PUSH1 0x0 MSTORE PUSH1 0x4 DUP5 MSTORE PUSH1 0x2 PUSH1 0x40 PUSH1 0x0 KECCAK256 ADD SLOAD ISZERO PUSH2 0xFAF JUMPI DUP5 PUSH1 0x0 MSTORE DUP7 DUP5 MSTORE PUSH1 0x40 PUSH1 0x0 KECCAK256 SWAP3 PUSH1 0x4 DUP6 MSTORE PUSH1 0x40 PUSH1 0x0 KECCAK256 SWAP3 PUSH1 0x4 DUP5 ADD SWAP4 DUP5 SLOAD PUSH1 0xFF DUP2 AND ISZERO SWAP1 DUP2 PUSH2 0xFA0 JUMPI JUMPDEST POP ISZERO PUSH2 0xF5C JUMPI DUP10 ADD SLOAD NUMBER GT PUSH2 0xF20 JUMPI PUSH32 0xC640060CDB34FCC260F41EAC7474EE1D7C80B7E3607DAFF9AC67C7EA2EBB1C44 PUSH2 0xA5B CALLDATASIZE DUP4 DUP6 PUSH2 0x33BD JUMP JUMPDEST DUP8 DUP2 MLOAD SWAP2 ADD KECCAK256 PUSH7 0x65786563757465 PUSH1 0xC8 SHL DUP9 PUSH1 0x40 MLOAD PUSH2 0xA79 DUP2 PUSH2 0x3256 JUMP JUMPDEST PUSH1 0x7 DUP2 MSTORE ADD MSTORE SUB PUSH2 0xC42 JUMPI POP POP SWAP1 SWAP2 PUSH1 0x1 SWAP3 DUP4 DUP3 ADD SWAP2 PUSH1 0x1 DUP1 PUSH1 0xA0 SHL SUB SWAP4 PUSH1 0x0 DUP1 DUP7 DUP7 SLOAD AND PUSH1 0x40 MLOAD DUP3 DUP2 PUSH2 0xAB0 DUP2 PUSH1 0x2 DUP11 ADD PUSH2 0x357A JUMP JUMPDEST SUB SWAP3 GAS CALL SWAP9 PUSH2 0xABD PUSH2 0x35FC JUMP JUMPDEST SWAP10 PUSH2 0xAC4 JUMPI STOP JUMPDEST PUSH1 0x8 PUSH1 0x7 DUP5 ADD SWAP4 PUSH1 0xFF NOT SWAP5 DUP10 DUP7 DUP3 SLOAD AND OR SWAP1 SSTORE ADD SWAP2 DUP11 MLOAD SWAP2 DUP3 GT PUSH2 0xC2E JUMPI POP PUSH2 0xAF7 DUP2 PUSH2 0xAF1 DUP5 SLOAD PUSH2 0x3119 JUMP JUMPDEST DUP5 PUSH2 0x3336 JUMP JUMPDEST DUP8 SWAP11 PUSH1 0x1F DUP3 GT PUSH1 0x1 EQ PUSH2 0xBAF JUMPI SWAP2 DUP2 PUSH2 0xB9F SWAP8 SWAP7 SWAP6 SWAP5 SWAP3 DUP10 SWAP5 DUP14 SWAP15 PUSH1 0x0 DUP1 MLOAD PUSH1 0x20 PUSH2 0x4511 DUP4 CODECOPY DUP2 MLOAD SWAP2 MSTORE SWAP14 SWAP15 PUSH1 0x0 SWAP4 PUSH2 0xBA4 JUMPI JUMPDEST POP POP DUP3 DUP7 SHL SWAP3 PUSH1 0x0 NOT SWAP2 SHL SHR NOT AND OR SWAP1 SSTORE JUMPDEST DUP3 SLOAD AND OR SWAP1 SSTORE PUSH2 0xB4E PUSH1 0xF SLOAD PUSH2 0x337D JUMP JUMPDEST PUSH1 0xF SSTORE SLOAD AND SWAP6 PUSH1 0x60 PUSH1 0x40 MLOAD SWAP5 DUP6 SWAP5 DUP6 MSTORE DUP5 ADD MSTORE PUSH1 0x1C PUSH1 0x60 DUP5 ADD MSTORE PUSH32 0x45786563757465642077697468206F776E6572206F7665727269646500000000 PUSH1 0x80 DUP5 ADD MSTORE PUSH1 0xA0 PUSH1 0x40 DUP5 ADD MSTORE PUSH1 0xA0 DUP4 ADD SWAP1 PUSH2 0x30F4 JUMP JUMPDEST SUB SWAP1 LOG3 STOP JUMPDEST ADD MLOAD SWAP2 POP DUP16 DUP16 PUSH2 0xB2B JUMP JUMPDEST PUSH1 0x1F NOT DUP3 AND SWAP12 DUP4 PUSH1 0x0 MSTORE DUP10 PUSH1 0x0 KECCAK256 SWAP13 PUSH1 0x0 JUMPDEST DUP2 DUP2 LT PUSH2 0xC19 JUMPI POP SWAP3 DUP13 SWAP14 DUP11 SWAP6 SWAP4 DUP7 SWAP4 PUSH1 0x0 DUP1 MLOAD PUSH1 0x20 PUSH2 0x4511 DUP4 CODECOPY DUP2 MLOAD SWAP2 MSTORE SWAP15 SWAP16 DUP5 PUSH2 0xB9F SWAP14 SWAP13 SWAP12 SWAP11 SWAP9 LT PUSH2 0xBFF JUMPI JUMPDEST POP POP POP POP DUP2 SHL ADD SWAP1 SSTORE PUSH2 0xB3D JUMP JUMPDEST ADD MLOAD SWAP1 PUSH1 0xF8 DUP5 PUSH1 0x0 NOT SWAP3 SHL AND SHR NOT AND SWAP1 SSTORE DUP15 DUP1 DUP16 DUP1 PUSH2 0xBF1 JUMP JUMPDEST DUP14 DUP4 ADD MLOAD DUP16 SSTORE SWAP14 DUP11 ADD SWAP14 SWAP2 DUP12 ADD SWAP2 DUP12 ADD PUSH2 0xBC1 JUMP JUMPDEST PUSH4 0x4E487B71 PUSH1 0xE0 SHL PUSH1 0x0 SWAP1 DUP2 MSTORE PUSH1 0x41 PUSH1 0x4 MSTORE REVERT JUMPDEST PUSH2 0xC4D CALLDATASIZE DUP3 DUP5 PUSH2 0x33BD JUMP JUMPDEST DUP7 DUP2 MLOAD SWAP2 ADD KECCAK256 PUSH2 0xC5B PUSH2 0x3477 JUMP JUMPDEST DUP1 MLOAD SWAP1 DUP9 ADD KECCAK256 SUB PUSH2 0xE47 JUMPI POP POP PUSH1 0x7 DUP4 ADD SWAP6 PUSH1 0x1 SWAP7 DUP8 PUSH1 0xFF NOT DUP3 SLOAD AND OR SWAP1 SSTORE PUSH1 0x40 MLOAD SWAP8 DUP6 DUP1 DUP11 ADD MSTORE PUSH1 0x1D PUSH1 0x40 DUP11 ADD MSTORE PUSH32 0x5472616E73616374696F6E207265766572746564206279206F776E6572000000 PUSH1 0x60 DUP11 ADD MSTORE PUSH1 0x60 DUP10 MSTORE PUSH2 0xCBD DUP10 PUSH2 0x323B JUMP JUMPDEST PUSH1 0x8 DUP6 ADD SWAP3 DUP10 MLOAD SWAP3 DUP4 GT PUSH2 0xC2E JUMPI POP PUSH2 0xCE0 DUP3 PUSH2 0xCDA DUP6 SLOAD PUSH2 0x3119 JUMP JUMPDEST DUP6 PUSH2 0x3336 JUMP JUMPDEST DUP6 SWAP9 PUSH1 0x1F DUP4 GT PUSH1 0x1 EQ PUSH2 0xDCF JUMPI SWAP1 PUSH1 0x0 DUP1 MLOAD PUSH1 0x20 PUSH2 0x4511 DUP4 CODECOPY DUP2 MLOAD SWAP2 MSTORE SWAP8 SWAP9 SWAP10 DUP4 SWAP3 PUSH1 0x0 SWAP4 PUSH2 0xDC4 JUMPI JUMPDEST POP POP DUP3 DUP11 SHL SWAP3 PUSH1 0x0 NOT SWAP2 SHL SHR NOT AND OR SWAP1 SSTORE JUMPDEST PUSH2 0x100 PUSH2 0xFF00 NOT DUP3 SLOAD AND OR SWAP1 SSTORE PUSH2 0xD34 PUSH1 0xF SLOAD PUSH2 0x337D JUMP JUMPDEST PUSH1 0xF SSTORE DUP5 PUSH1 0x1 DUP1 PUSH1 0xA0 SHL SUB SWAP2 ADD SLOAD AND SWAP4 PUSH2 0xB9F PUSH1 0x40 MLOAD PUSH2 0xD85 DUP2 PUSH2 0xD77 DUP7 DUP3 ADD PUSH1 0x60 SWAP1 PUSH1 0x20 DUP2 MSTORE PUSH1 0x8 PUSH1 0x20 DUP3 ADD MSTORE PUSH8 0x14995D995C9D1959 PUSH1 0xC2 SHL PUSH1 0x40 DUP3 ADD MSTORE ADD SWAP1 JUMP JUMPDEST SUB PUSH1 0x1F NOT DUP2 ADD DUP4 MSTORE DUP3 PUSH2 0x328C JUMP JUMPDEST PUSH1 0x60 PUSH1 0x40 MLOAD SWAP5 DUP6 SWAP5 DUP6 MSTORE DUP5 ADD MSTORE PUSH1 0x11 PUSH1 0x60 DUP5 ADD MSTORE PUSH17 0x2932BB32B93A32B210313C9037BBB732B9 PUSH1 0x79 SHL PUSH1 0x80 DUP5 ADD MSTORE PUSH1 0xA0 PUSH1 0x40 DUP5 ADD MSTORE PUSH1 0xA0 DUP4 ADD SWAP1 PUSH2 0x30F4 JUMP JUMPDEST ADD MLOAD SWAP2 POP DUP11 DUP1 PUSH2 0xD0A JUMP JUMPDEST SWAP2 SWAP9 PUSH1 0x1F NOT DUP11 AND SWAP3 DUP5 PUSH1 0x0 MSTORE DUP8 PUSH1 0x0 KECCAK256 SWAP4 PUSH1 0x0 JUMPDEST DUP2 DUP2 LT PUSH2 0xE32 JUMPI POP SWAP2 DUP12 SWAP4 SWAP2 DUP12 SWAP13 PUSH1 0x0 DUP1 MLOAD PUSH1 0x20 PUSH2 0x4511 DUP4 CODECOPY DUP2 MLOAD SWAP2 MSTORE SWAP12 SWAP13 SWAP7 SWAP5 LT PUSH2 0xE18 JUMPI JUMPDEST POP POP POP POP DUP2 SHL ADD SWAP1 SSTORE PUSH2 0xD1C JUMP JUMPDEST ADD MLOAD SWAP1 PUSH1 0xF8 DUP5 PUSH1 0x0 NOT SWAP3 SHL AND SHR NOT AND SWAP1 SSTORE DUP10 DUP1 DUP1 DUP1 PUSH2 0xE0A JUMP JUMPDEST DUP3 DUP5 ADD MLOAD DUP7 SSTORE SWAP5 DUP12 ADD SWAP5 SWAP3 DUP10 ADD SWAP3 DUP10 ADD PUSH2 0xDE3 JUMP JUMPDEST PUSH1 0x64 SWAP3 DUP6 PUSH32 0xA69DFF78C971E101863084EC5C1DBE35BFADBF66D9B878605B3B33A719FE14F7 PUSH2 0xE7A DUP10 SWAP6 DUP12 SWAP6 CALLDATASIZE SWAP2 PUSH2 0x33BD JUMP JUMPDEST DUP6 DUP2 MLOAD SWAP2 ADD KECCAK256 PUSH8 0x73696D756C617465 PUSH1 0xC0 SHL DUP7 PUSH1 0x40 MLOAD PUSH2 0xE99 DUP2 PUSH2 0x3256 JUMP JUMPDEST PUSH1 0x8 DUP2 MSTORE ADD MSTORE SUB PUSH2 0xEED JUMPI PUSH1 0x14 SWAP3 PUSH2 0xEB3 PUSH2 0xEB9 SWAP3 PUSH2 0x34B1 JUMP JUMPDEST SWAP1 PUSH2 0x4131 JUMP JUMPDEST PUSH1 0x40 MLOAD SWAP3 PUSH3 0x461BCD PUSH1 0xE5 SHL DUP5 MSTORE PUSH1 0x4 DUP5 ADD MSTORE DUP3 ADD MSTORE PUSH20 0x14DA5B5D5B185D1A5BDB881C995C5D595CDD1959 PUSH1 0x62 SHL PUSH1 0x44 DUP3 ADD MSTORE REVERT JUMPDEST POP PUSH1 0xE SWAP2 POP PUSH1 0x40 MLOAD SWAP3 PUSH3 0x461BCD PUSH1 0xE5 SHL DUP5 MSTORE PUSH1 0x4 DUP5 ADD MSTORE DUP3 ADD MSTORE PUSH14 0x24B73B30B634B21030B1BA34B7B7 PUSH1 0x91 SHL PUSH1 0x44 DUP3 ADD MSTORE REVERT JUMPDEST PUSH1 0x40 MLOAD PUSH3 0x461BCD PUSH1 0xE5 SHL DUP2 MSTORE PUSH1 0x4 DUP2 ADD DUP8 SWAP1 MSTORE PUSH1 0x15 DUP2 DUP6 ADD MSTORE PUSH21 0x119C99595E99481C195C9A5BD908195E1C1A5C9959 PUSH1 0x5A SHL PUSH1 0x44 DUP3 ADD MSTORE PUSH1 0x64 SWAP1 REVERT JUMPDEST PUSH1 0x40 MLOAD PUSH3 0x461BCD PUSH1 0xE5 SHL DUP2 MSTORE PUSH1 0x4 DUP2 ADD DUP9 SWAP1 MSTORE PUSH1 0x1D DUP2 DUP7 ADD MSTORE PUSH32 0x5472616E73616374696F6E20616C72656164792070726F636573736564000000 PUSH1 0x44 DUP3 ADD MSTORE PUSH1 0x64 SWAP1 REVERT JUMPDEST PUSH1 0xFF SWAP2 POP PUSH1 0x8 SHR AND ISZERO DUP12 PUSH2 0xA20 JUMP JUMPDEST DUP4 PUSH1 0x16 PUSH1 0x64 SWAP3 PUSH1 0x40 MLOAD SWAP3 PUSH3 0x461BCD PUSH1 0xE5 SHL DUP5 MSTORE PUSH1 0x4 DUP5 ADD MSTORE DUP3 ADD MSTORE PUSH22 0x2A3930B739B0B1BA34B7B7103737BA10333937BD32B7 PUSH1 0x51 SHL PUSH1 0x44 DUP3 ADD MSTORE REVERT JUMPDEST POP PUSH4 0x4E487B71 PUSH1 0xE0 SHL PUSH1 0x0 SWAP1 DUP2 MSTORE PUSH1 0x21 PUSH1 0x4 MSTORE REVERT JUMPDEST CALLVALUE PUSH2 0x2EC JUMPI PUSH1 0x20 CALLDATASIZE PUSH1 0x3 NOT ADD SLT PUSH2 0x2EC JUMPI PUSH1 0x4 CALLDATALOAD DUP1 PUSH1 0x0 MSTORE PUSH1 0x3 PUSH1 0x20 MSTORE PUSH2 0x102A PUSH1 0x40 PUSH1 0x0 KECCAK256 PUSH2 0x34B1 JUMP JUMPDEST PUSH1 0x1 DUP1 PUSH1 0xA0 SHL SUB SWAP1 DUP2 DUP2 MLOAD AND SWAP2 PUSH1 0x20 DUP3 ADD MLOAD AND SWAP3 PUSH1 0x60 DUP3 ADD MLOAD SWAP1 PUSH1 0x80 DUP4 ADD MLOAD SWAP3 PUSH1 0x5 DUP5 LT ISZERO PUSH2 0x10D8 JUMPI PUSH1 0xA0 DUP2 ADD MLOAD SWAP2 PUSH1 0xD DUP4 LT ISZERO PUSH2 0x10D8 JUMPI PUSH2 0x10C4 SWAP1 PUSH1 0xC0 DUP4 ADD MLOAD SWAP1 PUSH1 0x0 MSTORE PUSH1 0x3 PUSH1 0x20 MSTORE PUSH2 0x140 SWAP4 DUP5 PUSH2 0x1086 PUSH1 0x40 PUSH1 0x0 KECCAK256 PUSH2 0x34B1 JUMP JUMPDEST ADD MLOAD SWAP7 PUSH2 0x100 SWAP6 DUP7 DUP7 ADD MLOAD ISZERO ISZERO SWAP6 ADD MLOAD SWAP7 PUSH1 0x40 MLOAD SWAP11 DUP12 SWAP11 DUP12 MSTORE PUSH1 0x20 DUP12 ADD MSTORE PUSH1 0x40 DUP11 ADD MSTORE PUSH1 0x60 DUP10 ADD MSTORE PUSH1 0x80 DUP9 ADD MSTORE PUSH2 0x120 DUP1 PUSH1 0xA0 DUP10 ADD MSTORE DUP8 ADD SWAP1 PUSH2 0x30F4 JUMP JUMPDEST SWAP4 NUMBER LT PUSH1 0xC0 DUP7 ADD MSTORE PUSH1 0xE0 DUP6 ADD MSTORE DUP4 ADD MSTORE SUB SWAP1 RETURN JUMPDEST PUSH4 0x4E487B71 PUSH1 0xE0 SHL PUSH1 0x0 MSTORE PUSH1 0x21 PUSH1 0x4 MSTORE PUSH1 0x24 PUSH1 0x0 REVERT JUMPDEST CALLVALUE PUSH2 0x2EC JUMPI PUSH1 0x20 CALLDATASIZE PUSH1 0x3 NOT ADD SLT PUSH2 0x2EC JUMPI PUSH1 0x4 CALLDATALOAD PUSH2 0x110A PUSH2 0x32C7 JUMP JUMPDEST PUSH2 0x1115 DUP2 ISZERO ISZERO PUSH2 0x362C JUMP JUMPDEST PUSH1 0x14 SSTORE STOP JUMPDEST CALLVALUE PUSH2 0x2EC JUMPI PUSH1 0x0 CALLDATASIZE PUSH1 0x3 NOT ADD SLT PUSH2 0x2EC JUMPI PUSH1 0x0 SLOAD PUSH1 0x40 MLOAD PUSH1 0x1 PUSH1 0x1 PUSH1 0xA0 SHL SUB SWAP1 SWAP2 AND DUP2 MSTORE PUSH1 0x20 SWAP1 RETURN JUMPDEST CALLVALUE PUSH2 0x2EC JUMPI PUSH1 0x0 CALLDATASIZE PUSH1 0x3 NOT ADD SLT PUSH2 0x2EC JUMPI PUSH1 0x20 PUSH1 0x15 SLOAD PUSH1 0x40 MLOAD SWAP1 DUP2 MSTORE RETURN JUMPDEST CALLVALUE PUSH2 0x2EC JUMPI PUSH1 0x0 CALLDATASIZE PUSH1 0x3 NOT ADD SLT PUSH2 0x2EC JUMPI PUSH1 0x20 PUSH1 0x13 SLOAD PUSH1 0x40 MLOAD SWAP1 DUP2 MSTORE RETURN JUMPDEST CALLVALUE PUSH2 0x2EC JUMPI PUSH1 0x0 CALLDATASIZE PUSH1 0x3 NOT ADD SLT PUSH2 0x2EC JUMPI PUSH1 0x20 PUSH1 0x12 SLOAD PUSH1 0x40 MLOAD SWAP1 DUP2 MSTORE RETURN JUMPDEST CALLVALUE PUSH2 0x2EC JUMPI PUSH1 0x0 CALLDATASIZE PUSH1 0x3 NOT ADD SLT PUSH2 0x2EC JUMPI PUSH2 0x11B6 PUSH2 0x32C7 JUMP JUMPDEST PUSH1 0x0 DUP1 SLOAD PUSH1 0x1 PUSH1 0x1 PUSH1 0xA0 SHL SUB NOT DUP2 AND DUP3 SSTORE PUSH1 0x1 PUSH1 0x1 PUSH1 0xA0 SHL SUB AND PUSH32 0x8BE0079C531659141344CD1FD0A4F28419497F9722A3DAAFE3B4186F6B6457E0 DUP3 DUP1 LOG3 STOP JUMPDEST CALLVALUE PUSH2 0x2EC JUMPI PUSH1 0x0 CALLDATASIZE PUSH1 0x3 NOT ADD SLT PUSH2 0x2EC JUMPI PUSH1 0x20 PUSH1 0xF SLOAD PUSH1 0x40 MLOAD SWAP1 DUP2 MSTORE RETURN JUMPDEST CALLVALUE PUSH2 0x2EC JUMPI PUSH1 0x20 CALLDATASIZE PUSH1 0x3 NOT ADD SLT PUSH2 0x2EC JUMPI PUSH1 0x4 CALLDATALOAD PUSH2 0x1230 PUSH2 0x32C7 JUMP JUMPDEST DUP1 ISZERO ISZERO DUP1 PUSH2 0x127B JUMPI JUMPDEST ISZERO PUSH2 0x1243 JUMPI PUSH1 0x11 SSTORE STOP JUMPDEST PUSH1 0x40 MLOAD PUSH3 0x461BCD PUSH1 0xE5 SHL DUP2 MSTORE PUSH1 0x20 PUSH1 0x4 DUP3 ADD MSTORE PUSH1 0x10 PUSH1 0x24 DUP3 ADD MSTORE PUSH16 0x24B73B30B634B210323AB930BA34B7B7 PUSH1 0x81 SHL PUSH1 0x44 DUP3 ADD MSTORE PUSH1 0x64 SWAP1 REVERT JUMPDEST POP PUSH2 0x3E8 DUP2 GT ISZERO PUSH2 0x1239 JUMP JUMPDEST CALLVALUE PUSH2 0x2EC JUMPI PUSH1 0x20 CALLDATASIZE PUSH1 0x3 NOT ADD SLT PUSH2 0x2EC JUMPI PUSH1 0x4 CALLDATALOAD PUSH2 0x12A3 PUSH2 0x32C7 JUMP JUMPDEST DUP1 ISZERO ISZERO DUP1 PUSH2 0x12F0 JUMPI JUMPDEST ISZERO PUSH2 0x12B6 JUMPI PUSH1 0x16 SSTORE STOP JUMPDEST PUSH1 0x40 MLOAD PUSH3 0x461BCD PUSH1 0xE5 SHL DUP2 MSTORE PUSH1 0x20 PUSH1 0x4 DUP3 ADD MSTORE PUSH1 0x12 PUSH1 0x24 DUP3 ADD MSTORE PUSH18 0x24B73B30B634B21036BAB63A34B83634B2B9 PUSH1 0x71 SHL PUSH1 0x44 DUP3 ADD MSTORE PUSH1 0x64 SWAP1 REVERT JUMPDEST POP PUSH1 0x64 DUP2 GT ISZERO PUSH2 0x12AC JUMP JUMPDEST CALLVALUE PUSH2 0x2EC JUMPI PUSH1 0x0 CALLDATASIZE PUSH1 0x3 NOT ADD SLT PUSH2 0x2EC JUMPI PUSH1 0x20 PUSH1 0xFF PUSH1 0x1B SLOAD PUSH1 0xA0 SHR AND PUSH1 0x40 MLOAD SWAP1 ISZERO ISZERO DUP2 MSTORE RETURN JUMPDEST CALLVALUE PUSH2 0x2EC JUMPI PUSH1 0x0 CALLDATASIZE PUSH1 0x3 NOT ADD SLT PUSH2 0x2EC JUMPI PUSH1 0x20 PUSH1 0x14 SLOAD PUSH1 0x40 MLOAD SWAP1 DUP2 MSTORE RETURN JUMPDEST CALLVALUE PUSH2 0x2EC JUMPI PUSH1 0x20 CALLDATASIZE PUSH1 0x3 NOT ADD SLT PUSH2 0x2EC JUMPI PUSH2 0x1358 PUSH2 0x3035 JUMP JUMPDEST PUSH2 0x1360 PUSH2 0x32C7 JUMP JUMPDEST PUSH1 0x1B DUP1 SLOAD PUSH1 0x1 PUSH1 0x1 PUSH1 0xA0 SHL SUB NOT AND PUSH1 0x1 PUSH1 0x1 PUSH1 0xA0 SHL SUB SWAP3 SWAP1 SWAP3 AND SWAP2 SWAP1 SWAP2 OR SWAP1 SSTORE STOP JUMPDEST CALLVALUE PUSH2 0x2EC JUMPI PUSH1 0x20 CALLDATASIZE PUSH1 0x3 NOT ADD SLT PUSH2 0x2EC JUMPI PUSH1 0x1 PUSH1 0x1 PUSH1 0xA0 SHL SUB PUSH2 0x13A3 PUSH2 0x3035 JUMP JUMPDEST AND PUSH1 0x0 MSTORE PUSH1 0xD PUSH1 0x20 MSTORE PUSH1 0x20 PUSH1 0x40 PUSH1 0x0 KECCAK256 SLOAD PUSH1 0x40 MLOAD SWAP1 DUP2 MSTORE RETURN JUMPDEST CALLVALUE PUSH2 0x2EC JUMPI PUSH1 0x20 CALLDATASIZE PUSH1 0x3 NOT ADD SLT PUSH2 0x2EC JUMPI PUSH2 0x13D5 PUSH2 0x3035 JUMP JUMPDEST PUSH2 0x13DD PUSH2 0x32C7 JUMP JUMPDEST PUSH1 0x1 PUSH1 0x1 PUSH1 0xA0 SHL SUB AND PUSH1 0x0 DUP2 DUP2 MSTORE PUSH1 0x2 PUSH1 0x20 MSTORE PUSH1 0x40 SWAP1 KECCAK256 SLOAD PUSH2 0x1404 SWAP1 PUSH1 0xA0 SHR PUSH1 0xFF AND PUSH2 0x33F4 JUMP JUMPDEST DUP1 PUSH1 0x0 MSTORE PUSH1 0x2 PUSH1 0x20 MSTORE PUSH1 0x40 PUSH1 0x0 KECCAK256 PUSH1 0xFF PUSH1 0xA0 SHL NOT DUP2 SLOAD AND SWAP1 SSTORE PUSH1 0x40 MLOAD SWAP1 TIMESTAMP DUP3 MSTORE PUSH32 0xD2F536EB2CD870954219B9D794C2AAEF19134127E1C44017E1037B9A49B56369 PUSH1 0x20 CALLER SWAP4 LOG3 STOP JUMPDEST CALLVALUE PUSH2 0x2EC JUMPI PUSH1 0x20 CALLDATASIZE PUSH1 0x3 NOT ADD SLT PUSH2 0x2EC JUMPI PUSH1 0x4 CALLDATALOAD PUSH2 0x1468 PUSH2 0x32C7 JUMP JUMPDEST DUP1 ISZERO ISZERO DUP1 PUSH2 0x14B5 JUMPI JUMPDEST ISZERO PUSH2 0x147B JUMPI PUSH1 0x13 SSTORE STOP JUMPDEST PUSH1 0x40 MLOAD PUSH3 0x461BCD PUSH1 0xE5 SHL DUP2 MSTORE PUSH1 0x20 PUSH1 0x4 DUP3 ADD MSTORE PUSH1 0x12 PUSH1 0x24 DUP3 ADD MSTORE PUSH18 0x92DCECC2D8D2C840C6C2D8D840C8CAE0E8D PUSH1 0x73 SHL PUSH1 0x44 DUP3 ADD MSTORE PUSH1 0x64 SWAP1 REVERT JUMPDEST POP PUSH1 0xA DUP2 GT ISZERO PUSH2 0x1471 JUMP JUMPDEST CALLVALUE PUSH2 0x2EC JUMPI PUSH1 0x0 CALLDATASIZE PUSH1 0x3 NOT ADD SLT PUSH2 0x2EC JUMPI PUSH1 0x20 PUSH1 0x11 SLOAD PUSH1 0x40 MLOAD SWAP1 DUP2 MSTORE RETURN JUMPDEST CALLVALUE PUSH2 0x2EC JUMPI PUSH1 0x20 CALLDATASIZE PUSH1 0x3 NOT ADD SLT PUSH2 0x2EC JUMPI PUSH1 0x4 CALLDATALOAD PUSH2 0x14FA PUSH2 0x32C7 JUMP JUMPDEST PUSH2 0x1505 DUP2 ISZERO ISZERO PUSH2 0x362C JUMP JUMPDEST PUSH1 0x15 SSTORE STOP JUMPDEST CALLVALUE PUSH2 0x2EC JUMPI PUSH1 0x0 CALLDATASIZE PUSH1 0x3 NOT ADD SLT PUSH2 0x2EC JUMPI PUSH1 0x20 PUSH1 0x16 SLOAD PUSH1 0x40 MLOAD SWAP1 DUP2 MSTORE RETURN JUMPDEST CALLVALUE PUSH2 0x2EC JUMPI PUSH1 0x0 CALLDATASIZE PUSH1 0x3 NOT ADD SLT PUSH2 0x2EC JUMPI PUSH1 0x20 PUSH1 0x10 SLOAD PUSH1 0x40 MLOAD SWAP1 DUP2 MSTORE RETURN JUMPDEST CALLVALUE PUSH2 0x2EC JUMPI PUSH1 0x0 CALLDATASIZE PUSH1 0x3 NOT ADD SLT PUSH2 0x2EC JUMPI PUSH1 0x1A SLOAD PUSH1 0x40 MLOAD PUSH1 0x1 PUSH1 0x1 PUSH1 0xA0 SHL SUB SWAP1 SWAP2 AND DUP2 MSTORE PUSH1 0x20 SWAP1 RETURN JUMPDEST CALLVALUE PUSH2 0x2EC JUMPI PUSH1 0x0 CALLDATASIZE PUSH1 0x3 NOT ADD SLT PUSH2 0x2EC JUMPI PUSH1 0x20 PUSH1 0xE SLOAD PUSH1 0x40 MLOAD SWAP1 DUP2 MSTORE RETURN JUMPDEST CALLVALUE PUSH2 0x2EC JUMPI PUSH1 0x0 CALLDATASIZE PUSH1 0x3 NOT ADD SLT PUSH2 0x2EC JUMPI PUSH1 0x1B SLOAD PUSH1 0x40 MLOAD PUSH1 0x1 PUSH1 0x1 PUSH1 0xA0 SHL SUB SWAP1 SWAP2 AND DUP2 MSTORE PUSH1 0x20 SWAP1 RETURN JUMPDEST CALLVALUE PUSH2 0x2EC JUMPI PUSH1 0x40 CALLDATASIZE PUSH1 0x3 NOT ADD SLT PUSH2 0x2EC JUMPI PUSH2 0x15CF PUSH2 0x3035 JUMP JUMPDEST PUSH1 0x24 CALLDATALOAD SWAP1 PUSH2 0x15DB PUSH2 0x32C7 JUMP JUMPDEST PUSH1 0x1 PUSH1 0x1 PUSH1 0xA0 SHL SUB SWAP1 DUP2 AND SWAP1 DUP2 ISZERO PUSH2 0x1712 JUMPI PUSH1 0x1 DUP4 LT ISZERO DUP1 PUSH2 0x1707 JUMPI JUMPDEST ISZERO PUSH2 0x16C2 JUMPI PUSH1 0x40 MLOAD SWAP1 PUSH1 0x80 DUP3 ADD SWAP1 DUP3 DUP3 LT PUSH1 0x1 PUSH1 0x1 PUSH1 0x40 SHL SUB DUP4 GT OR PUSH2 0x16AC JUMPI PUSH1 0x2 SWAP2 PUSH1 0x40 MSTORE DUP4 DUP4 MSTORE PUSH1 0x20 DUP4 ADD PUSH1 0x1 DUP2 MSTORE PUSH1 0x40 DUP5 ADD SWAP1 DUP7 DUP3 MSTORE PUSH1 0x60 DUP6 ADD SWAP3 TIMESTAMP DUP5 MSTORE DUP7 PUSH1 0x0 MSTORE DUP5 PUSH1 0x20 MSTORE PUSH1 0x40 PUSH1 0x0 KECCAK256 SWAP6 MLOAD AND DUP6 SLOAD SWAP2 PUSH1 0xFF PUSH1 0xA0 SHL SWAP1 MLOAD ISZERO ISZERO PUSH1 0xA0 SHL AND SWAP2 PUSH11 0xFFFFFFFFFFFFFFFFFFFFFF PUSH1 0xA8 SHL AND OR OR DUP5 SSTORE MLOAD PUSH1 0x1 DUP5 ADD SSTORE MLOAD SWAP2 ADD SSTORE PUSH1 0x40 MLOAD SWAP2 DUP3 MSTORE TIMESTAMP PUSH1 0x20 DUP4 ADD MSTORE PUSH32 0xA8EEBF5927F6D87370415763214ABCD978F4075F38446ADF78D8B4CCAF33944D PUSH1 0x40 CALLER SWAP4 LOG3 STOP JUMPDEST PUSH4 0x4E487B71 PUSH1 0xE0 SHL PUSH1 0x0 MSTORE PUSH1 0x41 PUSH1 0x4 MSTORE PUSH1 0x24 PUSH1 0x0 REVERT JUMPDEST PUSH1 0x40 MLOAD PUSH3 0x461BCD PUSH1 0xE5 SHL DUP2 MSTORE PUSH1 0x20 PUSH1 0x4 DUP3 ADD MSTORE PUSH1 0x18 PUSH1 0x24 DUP3 ADD MSTORE PUSH32 0x496E76616C69642070726F74656374696F6E206C6576656C0000000000000000 PUSH1 0x44 DUP3 ADD MSTORE PUSH1 0x64 SWAP1 REVERT JUMPDEST POP PUSH1 0x5 DUP4 GT ISZERO PUSH2 0x15F8 JUMP JUMPDEST PUSH1 0x40 MLOAD PUSH3 0x461BCD PUSH1 0xE5 SHL DUP2 MSTORE PUSH1 0x20 PUSH1 0x4 DUP3 ADD MSTORE PUSH1 0x18 PUSH1 0x24 DUP3 ADD MSTORE PUSH32 0x496E76616C696420636F6E747261637420616464726573730000000000000000 PUSH1 0x44 DUP3 ADD MSTORE PUSH1 0x64 SWAP1 REVERT JUMPDEST CALLVALUE PUSH2 0x2EC JUMPI PUSH1 0x20 CALLDATASIZE PUSH1 0x3 NOT ADD SLT PUSH2 0x2EC JUMPI PUSH2 0x1770 PUSH2 0x32C7 JUMP JUMPDEST PUSH1 0x4 CALLDATALOAD PUSH1 0x17 SSTORE STOP JUMPDEST CALLVALUE PUSH2 0x2EC JUMPI PUSH1 0x20 CALLDATASIZE PUSH1 0x3 NOT ADD SLT PUSH2 0x2EC JUMPI PUSH1 0x80 PUSH1 0x1 PUSH1 0x1 PUSH1 0xA0 SHL SUB DUP1 PUSH2 0x179C PUSH2 0x3035 JUMP JUMPDEST AND PUSH1 0x0 MSTORE PUSH1 0x2 PUSH1 0x20 MSTORE PUSH1 0x40 PUSH1 0x0 KECCAK256 DUP1 SLOAD SWAP1 PUSH1 0xFF PUSH1 0x2 PUSH1 0x1 DUP4 ADD SLOAD SWAP3 ADD SLOAD SWAP3 PUSH1 0x40 MLOAD SWAP5 DUP2 AND DUP6 MSTORE PUSH1 0xA0 SHR AND ISZERO ISZERO PUSH1 0x20 DUP5 ADD MSTORE PUSH1 0x40 DUP4 ADD MSTORE PUSH1 0x60 DUP3 ADD MSTORE RETURN JUMPDEST PUSH2 0x17E2 CALLDATASIZE PUSH2 0x308E JUMP JUMPDEST SWAP2 PUSH1 0x2 PUSH1 0x1 SLOAD EQ PUSH2 0x26C4 JUMPI PUSH1 0x2 PUSH1 0x1 SSTORE PUSH1 0xFF PUSH1 0x1B SLOAD PUSH1 0xA0 SHR AND PUSH2 0x267F JUMPI PUSH1 0x1 PUSH1 0x1 PUSH1 0xA0 SHL SUB DUP2 AND PUSH1 0x0 SWAP1 DUP2 MSTORE PUSH1 0x2 PUSH1 0x20 MSTORE PUSH1 0x40 SWAP1 KECCAK256 SLOAD PUSH1 0xA0 SHR PUSH1 0xFF AND ISZERO PUSH2 0x2643 JUMPI PUSH1 0x0 PUSH2 0x140 PUSH1 0x40 MLOAD PUSH2 0x1834 DUP2 PUSH2 0x3204 JUMP JUMPDEST DUP3 DUP2 MSTORE DUP3 PUSH1 0x20 DUP3 ADD MSTORE PUSH1 0x60 PUSH1 0x40 DUP3 ADD MSTORE DUP3 PUSH1 0x60 DUP3 ADD MSTORE DUP3 PUSH1 0x80 DUP3 ADD MSTORE DUP3 PUSH1 0xA0 DUP3 ADD MSTORE PUSH1 0x60 PUSH1 0xC0 DUP3 ADD MSTORE DUP3 PUSH1 0xE0 DUP3 ADD MSTORE DUP3 PUSH2 0x100 DUP3 ADD MSTORE PUSH1 0x60 PUSH2 0x120 DUP3 ADD MSTORE ADD MSTORE PUSH1 0x0 PUSH1 0xC SWAP1 PUSH1 0x40 MLOAD PUSH2 0x1885 DUP2 PUSH2 0x3220 JUMP JUMPDEST PUSH1 0x0 DUP2 MSTORE PUSH2 0x1894 DUP7 DUP7 DUP7 PUSH2 0x3B68 JUMP JUMPDEST ISZERO PUSH2 0x227B JUMPI POP POP POP PUSH1 0x3 SWAP3 PUSH1 0x8 PUSH2 0x194E PUSH1 0x40 MLOAD PUSH2 0x18B0 DUP2 PUSH2 0x3271 JUMP JUMPDEST PUSH1 0x32 DUP2 MSTORE PUSH32 0x556E757375616C6C79206C61726765207769746864726177616C206465746563 PUSH1 0x20 DUP3 ADD MSTORE PUSH18 0x74656420283E313078206176657261676529 PUSH1 0x70 SHL PUSH1 0x40 DUP3 ADD MSTORE SWAP2 JUMPDEST PUSH2 0x1904 CALLVALUE CALLER DUP7 DUP10 DUP10 PUSH2 0x3E86 JUMP JUMPDEST PUSH2 0x1945 PUSH1 0x40 MLOAD SWAP8 PUSH2 0x1914 DUP10 PUSH2 0x3204 JUMP JUMPDEST CALLER DUP10 MSTORE PUSH1 0x1 PUSH1 0x1 PUSH1 0xA0 SHL SUB DUP8 AND PUSH1 0x20 DUP11 ADD MSTORE PUSH2 0x1931 CALLDATASIZE DUP8 DUP11 PUSH2 0x33BD JUMP JUMPDEST PUSH1 0x40 DUP11 ADD MSTORE TIMESTAMP PUSH1 0x60 DUP11 ADD MSTORE PUSH1 0x80 DUP10 ADD PUSH2 0x3499 JUMP JUMPDEST PUSH1 0xA0 DUP8 ADD PUSH2 0x34A5 JUMP JUMPDEST PUSH1 0xC0 DUP6 ADD MSTORE NUMBER PUSH1 0xE0 DUP6 ADD MSTORE PUSH1 0x0 PUSH2 0x100 DUP6 ADD MSTORE PUSH1 0x40 MLOAD PUSH2 0x196D DUP2 PUSH2 0x3220 JUMP JUMPDEST PUSH1 0x0 DUP2 MSTORE PUSH2 0x120 DUP6 ADD MSTORE PUSH1 0x0 PUSH2 0x140 DUP6 ADD MSTORE PUSH1 0x40 MLOAD PUSH1 0x20 DUP2 ADD SWAP1 PUSH1 0x1 PUSH1 0x1 PUSH1 0x60 SHL SUB NOT DUP5 PUSH1 0x60 SHL AND DUP3 MSTORE CALLER PUSH1 0x60 SHL PUSH1 0x34 DUP3 ADD MSTORE DUP3 DUP6 PUSH1 0x48 DUP4 ADD CALLDATACOPY PUSH2 0x19D0 PUSH1 0xA8 DUP3 DUP6 DUP2 ADD CALLVALUE PUSH1 0x48 DUP3 ADD MSTORE NUMBER PUSH1 0x68 DUP3 ADD MSTORE TIMESTAMP PUSH1 0x88 DUP3 ADD MSTORE SUB PUSH1 0x88 DUP2 ADD DUP5 MSTORE ADD DUP3 PUSH2 0x328C JUMP JUMPDEST MLOAD SWAP1 KECCAK256 SWAP4 PUSH1 0x80 DUP2 ADD MLOAD PUSH1 0x5 DUP2 LT ISZERO PUSH2 0x10D8 JUMPI PUSH2 0x1B79 JUMPI JUMPDEST POP SWAP1 PUSH2 0x19F8 PUSH1 0x0 SWAP4 DUP5 SWAP4 CALLDATASIZE SWAP2 PUSH2 0x33BD JUMP JUMPDEST SWAP1 PUSH1 0x20 DUP3 MLOAD SWAP3 ADD SWAP1 CALLVALUE SWAP1 GAS CALL SWAP1 PUSH2 0x1A0D PUSH2 0x35FC JUMP JUMPDEST SWAP2 ISZERO PUSH2 0x1B41 JUMPI DUP1 PUSH1 0x0 MSTORE PUSH1 0x3 PUSH1 0x20 MSTORE PUSH1 0xFF PUSH1 0x4 PUSH1 0x40 PUSH1 0x0 KECCAK256 ADD SLOAD AND PUSH1 0x5 DUP2 LT ISZERO PUSH2 0x10D8 JUMPI PUSH2 0x1A54 JUMPI JUMPDEST PUSH1 0x1 DUP1 SSTORE PUSH1 0x40 MLOAD PUSH1 0x20 DUP1 DUP3 MSTORE DUP2 SWAP1 PUSH2 0x1A50 SWAP1 DUP3 ADD DUP6 PUSH2 0x30F4 JUMP JUMPDEST SUB SWAP1 RETURN JUMPDEST PUSH1 0x0 MSTORE PUSH1 0x3 PUSH1 0x20 MSTORE PUSH1 0x8 PUSH1 0x40 PUSH1 0x0 KECCAK256 PUSH1 0x7 DUP2 ADD PUSH1 0x1 PUSH1 0xFF NOT DUP3 SLOAD AND OR SWAP1 SSTORE ADD SWAP1 DUP1 MLOAD SWAP2 PUSH1 0x1 PUSH1 0x1 PUSH1 0x40 SHL SUB DUP4 GT PUSH2 0x16AC JUMPI PUSH2 0x1A99 DUP4 PUSH2 0x1A93 DUP4 SLOAD PUSH2 0x3119 JUMP JUMPDEST DUP4 PUSH2 0x3336 JUMP JUMPDEST PUSH1 0x20 PUSH1 0x1F DUP5 GT PUSH1 0x1 EQ PUSH2 0x1AD9 JUMPI SWAP3 DUP1 PUSH2 0x1A50 SWAP5 PUSH1 0x0 SWAP2 PUSH2 0x1ACE JUMPI JUMPDEST POP DUP2 PUSH1 0x1 SHL SWAP2 PUSH1 0x0 NOT SWAP1 PUSH1 0x3 SHL SHR NOT AND OR SWAP1 SSTORE JUMPDEST SWAP1 PUSH2 0x1A36 JUMP JUMPDEST SWAP1 POP DUP4 ADD MLOAD DUP6 PUSH2 0x1AB4 JUMP JUMPDEST PUSH1 0x1F NOT DUP5 AND SWAP1 DUP3 PUSH1 0x0 MSTORE PUSH1 0x20 PUSH1 0x0 KECCAK256 SWAP2 PUSH1 0x0 JUMPDEST DUP2 DUP2 LT PUSH2 0x1B29 JUMPI POP SWAP2 DUP6 SWAP2 PUSH2 0x1A50 SWAP7 PUSH1 0x1 SWAP5 LT PUSH2 0x1B10 JUMPI JUMPDEST POP POP DUP2 SHL ADD SWAP1 SSTORE PUSH2 0x1AC8 JUMP JUMPDEST DUP6 ADD MLOAD PUSH1 0x0 NOT PUSH1 0xF8 DUP5 PUSH1 0x3 SHL AND SHR NOT AND SWAP1 SSTORE DUP6 DUP1 PUSH2 0x1B04 JUMP JUMPDEST SWAP2 SWAP3 PUSH1 0x20 PUSH1 0x1 DUP2 SWAP3 DUP7 DUP10 ADD MLOAD DUP2 SSTORE ADD SWAP5 ADD SWAP3 ADD PUSH2 0x1AEC JUMP JUMPDEST PUSH1 0x40 MLOAD PUSH3 0x461BCD PUSH1 0xE5 SHL DUP2 MSTORE PUSH1 0x20 PUSH1 0x4 DUP3 ADD MSTORE PUSH1 0x10 PUSH1 0x24 DUP3 ADD MSTORE PUSH16 0x115E1958DD5D1A5BDB8819985A5B1959 PUSH1 0x82 SHL PUSH1 0x44 DUP3 ADD MSTORE PUSH1 0x64 SWAP1 REVERT JUMPDEST SWAP2 SWAP1 SWAP3 DUP5 PUSH1 0x0 MSTORE PUSH1 0x3 PUSH1 0x20 MSTORE PUSH1 0x40 PUSH1 0x0 KECCAK256 PUSH1 0x1 DUP1 PUSH1 0xA0 SHL SUB DUP5 MLOAD AND PUSH1 0x1 PUSH1 0x1 PUSH1 0x60 SHL SUB PUSH1 0xA0 SHL DUP3 SLOAD AND OR DUP2 SSTORE PUSH1 0x1 DUP2 ADD PUSH1 0x1 DUP1 PUSH1 0xA0 SHL SUB PUSH1 0x20 DUP7 ADD MLOAD AND PUSH1 0x1 PUSH1 0x1 PUSH1 0x60 SHL SUB PUSH1 0xA0 SHL DUP3 SLOAD AND OR SWAP1 SSTORE PUSH1 0x40 DUP5 ADD MLOAD DUP1 MLOAD SWAP1 PUSH1 0x1 PUSH1 0x1 PUSH1 0x40 SHL SUB DUP3 GT PUSH2 0x16AC JUMPI DUP2 SWAP1 PUSH2 0x1BF9 DUP3 PUSH2 0x1BF0 PUSH1 0x2 DUP8 ADD SLOAD PUSH2 0x3119 JUMP JUMPDEST PUSH1 0x2 DUP8 ADD PUSH2 0x3336 JUMP JUMPDEST PUSH1 0x20 SWAP1 PUSH1 0x1F DUP4 GT PUSH1 0x1 EQ PUSH2 0x2209 JUMPI PUSH1 0x0 SWAP3 PUSH2 0x21FE JUMPI JUMPDEST POP POP DUP2 PUSH1 0x1 SHL SWAP2 PUSH1 0x0 NOT SWAP1 PUSH1 0x3 SHL SHR NOT AND OR PUSH1 0x2 DUP3 ADD SSTORE JUMPDEST PUSH1 0x60 DUP5 ADD MLOAD PUSH1 0x3 DUP3 ADD SSTORE PUSH1 0x80 DUP5 ADD MLOAD PUSH1 0x5 DUP2 LT ISZERO PUSH2 0x10D8 JUMPI PUSH1 0x4 DUP3 ADD SLOAD PUSH1 0xA0 DUP7 ADD MLOAD PUSH1 0xD DUP2 LT ISZERO PUSH2 0x10D8 JUMPI PUSH2 0xFF00 PUSH1 0xFF SWAP2 PUSH1 0x8 SHL AND SWAP3 AND SWAP1 PUSH2 0xFFFF NOT AND OR OR PUSH1 0x4 DUP3 ADD SSTORE PUSH1 0xC0 DUP5 ADD MLOAD DUP1 MLOAD SWAP1 PUSH1 0x1 PUSH1 0x1 PUSH1 0x40 SHL SUB DUP3 GT PUSH2 0x16AC JUMPI DUP2 SWAP1 PUSH2 0x1C9D DUP3 PUSH2 0x1C94 PUSH1 0x5 DUP8 ADD SLOAD PUSH2 0x3119 JUMP JUMPDEST PUSH1 0x5 DUP8 ADD PUSH2 0x3336 JUMP JUMPDEST PUSH1 0x20 SWAP1 PUSH1 0x1F DUP4 GT PUSH1 0x1 EQ PUSH2 0x218C JUMPI PUSH1 0x0 SWAP3 PUSH2 0x2181 JUMPI JUMPDEST POP POP DUP2 PUSH1 0x1 SHL SWAP2 PUSH1 0x0 NOT SWAP1 PUSH1 0x3 SHL SHR NOT AND OR PUSH1 0x5 DUP3 ADD SSTORE JUMPDEST PUSH1 0xE0 DUP5 ADD MLOAD PUSH1 0x6 DUP3 ADD SSTORE PUSH2 0x1CF5 PUSH2 0x100 DUP6 ADD MLOAD ISZERO ISZERO PUSH1 0x7 DUP4 ADD SWAP1 PUSH1 0xFF DUP1 NOT DUP4 SLOAD AND SWAP2 ISZERO ISZERO AND OR SWAP1 SSTORE JUMP JUMPDEST PUSH2 0x120 DUP5 ADD MLOAD DUP1 MLOAD SWAP1 PUSH1 0x1 PUSH1 0x1 PUSH1 0x40 SHL SUB DUP3 GT PUSH2 0x16AC JUMPI DUP2 SWAP1 PUSH2 0x1D28 DUP3 PUSH2 0x1D1F PUSH1 0x8 DUP8 ADD SLOAD PUSH2 0x3119 JUMP JUMPDEST PUSH1 0x8 DUP8 ADD PUSH2 0x3336 JUMP JUMPDEST PUSH1 0x20 SWAP1 PUSH1 0x1F DUP4 GT PUSH1 0x1 EQ PUSH2 0x210F JUMPI PUSH1 0x0 SWAP3 PUSH2 0x2104 JUMPI JUMPDEST POP POP DUP2 PUSH1 0x1 SHL SWAP2 PUSH1 0x0 NOT SWAP1 PUSH1 0x3 SHL SHR NOT AND OR PUSH1 0x8 DUP3 ADD SSTORE JUMPDEST PUSH1 0x9 PUSH2 0x140 DUP6 ADD MLOAD SWAP2 ADD SSTORE PUSH2 0x1D6C PUSH1 0xE SLOAD PUSH2 0x337D JUMP JUMPDEST PUSH1 0xE SSTORE PUSH1 0x80 DUP4 ADD MLOAD PUSH1 0x5 DUP2 LT ISZERO PUSH2 0x10D8 JUMPI PUSH1 0xA0 DUP5 ADD MLOAD PUSH1 0xD DUP2 LT ISZERO PUSH2 0x10D8 JUMPI PUSH2 0x1DAB PUSH1 0xC0 DUP7 ADD MLOAD SWAP2 PUSH2 0x1DA1 PUSH1 0x40 MLOAD DUP1 SWAP6 PUSH2 0x32AD JUMP JUMPDEST PUSH1 0x20 DUP5 ADD SWAP1 PUSH2 0x32BA JUMP JUMPDEST PUSH1 0x60 PUSH1 0x40 DUP4 ADD MSTORE DUP7 PUSH32 0x7192DA0CA79D523BC321E5C866837BE94B2E471F2C36ECB9B68EDBE473914531 CALLER SWAP4 DUP1 PUSH2 0x1DEE PUSH1 0x1 DUP1 PUSH1 0xA0 SHL SUB DUP10 AND SWAP6 PUSH1 0x60 DUP4 ADD SWAP1 PUSH2 0x30F4 JUMP JUMPDEST SUB SWAP1 LOG4 PUSH1 0x80 DUP4 ADD MLOAD PUSH1 0x5 DUP2 LT ISZERO PUSH2 0x10D8 JUMPI PUSH1 0x3 GT PUSH2 0x20C2 JUMPI DUP5 DUP4 PUSH2 0x1E14 PUSH1 0x11 SLOAD NUMBER PUSH2 0x3E59 JUMP JUMPDEST SWAP1 DUP3 PUSH1 0x0 MSTORE PUSH1 0x3 PUSH1 0x20 MSTORE DUP2 PUSH1 0x9 PUSH1 0x40 PUSH1 0x0 KECCAK256 ADD SSTORE PUSH1 0x1 DUP1 PUSH1 0xA0 SHL SUB DUP2 MLOAD AND PUSH1 0x40 MLOAD SWAP1 PUSH2 0x1E3F DUP3 PUSH2 0x31E9 JUMP JUMPDEST DUP5 DUP3 MSTORE PUSH1 0x20 DUP3 ADD MSTORE TIMESTAMP PUSH1 0x40 DUP3 ADD MSTORE DUP3 PUSH1 0x60 DUP3 ADD MSTORE PUSH1 0x0 PUSH1 0x80 DUP3 ADD MSTORE PUSH1 0x0 PUSH1 0xA0 DUP3 ADD MSTORE DUP4 PUSH1 0x0 MSTORE PUSH1 0x4 PUSH1 0x20 MSTORE PUSH1 0xA0 PUSH1 0x4 PUSH1 0x40 PUSH1 0x0 KECCAK256 DUP4 MLOAD DUP2 SSTORE PUSH1 0x1 DUP2 ADD PUSH1 0x1 DUP1 DUP6 SHL SUB PUSH1 0x20 DUP7 ADD MLOAD AND PUSH1 0x1 PUSH1 0x1 PUSH1 0x60 SHL SUB DUP6 SHL DUP3 SLOAD AND OR SWAP1 SSTORE PUSH1 0x40 DUP5 ADD MLOAD PUSH1 0x2 DUP3 ADD SSTORE PUSH1 0x60 DUP5 ADD MLOAD PUSH1 0x3 DUP3 ADD SSTORE ADD SWAP2 PUSH2 0x1EC9 PUSH1 0x80 DUP3 ADD MLOAD ISZERO ISZERO DUP5 SWAP1 PUSH1 0xFF DUP1 NOT DUP4 SLOAD AND SWAP2 ISZERO ISZERO AND OR SWAP1 SSTORE JUMP JUMPDEST ADD MLOAD DUP2 SLOAD PUSH2 0xFF00 NOT AND SWAP1 ISZERO ISZERO PUSH1 0x8 SHL PUSH2 0xFF00 AND OR SWAP1 SSTORE PUSH1 0x20 DUP2 ADD MLOAD DUP2 MLOAD PUSH1 0x80 DUP4 ADD MLOAD PUSH1 0x1 PUSH1 0x1 PUSH1 0xA0 SHL SUB SWAP2 DUP3 AND SWAP3 SWAP1 SWAP2 AND SWAP1 PUSH1 0x5 DUP2 LT ISZERO PUSH2 0x10D8 JUMPI PUSH32 0xE158B61799005A0BDE2D74805D7436EC8BD217764D814019E1597B65460E27FC PUSH1 0x40 PUSH2 0x1F46 SWAP7 PUSH2 0x1F3F DUP10 SWAP5 DUP4 MLOAD SWAP3 DUP4 MSTORE PUSH1 0x20 DUP4 ADD SWAP1 PUSH2 0x32AD JUMP JUMPDEST LOG4 DUP3 PUSH2 0x4131 JUMP JUMPDEST PUSH1 0x0 JUMPDEST PUSH1 0xFF DUP2 AND PUSH1 0x20 DUP2 LT SWAP1 DUP2 PUSH2 0x20A4 JUMPI JUMPDEST POP ISZERO PUSH2 0x1F6C JUMPI PUSH2 0x1F67 SWAP1 PUSH2 0x44FF JUMP JUMPDEST PUSH2 0x1F49 JUMP JUMPDEST PUSH1 0xFF AND SWAP1 PUSH2 0x1F92 PUSH2 0x1F7C DUP4 PUSH2 0x33A2 JUMP JUMPDEST SWAP3 PUSH2 0x1F8A PUSH1 0x40 MLOAD SWAP5 DUP6 PUSH2 0x328C JUMP JUMPDEST DUP1 DUP5 MSTORE PUSH2 0x33A2 JUMP JUMPDEST PUSH1 0x20 DUP4 ADD SWAP3 SWAP1 PUSH1 0x1F NOT ADD CALLDATASIZE DUP5 CALLDATACOPY PUSH1 0x0 JUMPDEST PUSH1 0xFF DUP2 AND SWAP1 PUSH1 0x20 DUP3 LT DUP1 DUP1 PUSH2 0x2088 JUMPI JUMPDEST ISZERO PUSH2 0x1FF3 JUMPI ISZERO PUSH2 0x1FDD JUMPI DUP3 MLOAD DUP3 LT ISZERO PUSH2 0x1FDD JUMPI DUP2 PUSH1 0x20 DUP6 PUSH2 0x1FD8 SWAP5 BYTE SWAP2 DUP6 ADD ADD MSTORE8 PUSH2 0x44FF JUMP JUMPDEST PUSH2 0x1FA2 JUMP JUMPDEST PUSH4 0x4E487B71 PUSH1 0xE0 SHL PUSH1 0x0 MSTORE PUSH1 0x32 PUSH1 0x4 MSTORE PUSH1 0x24 PUSH1 0x0 REVERT JUMPDEST PUSH2 0x2084 PUSH2 0x2054 PUSH2 0x2064 PUSH1 0x53 DUP8 DUP11 PUSH1 0x40 MLOAD SWAP5 DUP6 SWAP3 PUSH32 0x5472616E73616374696F6E2066726F7A656E20666F7220736563757269747920 PUSH1 0x20 DUP6 ADD MSTORE PUSH19 0x3932BB34B2BB97102A343932B0BA1024A21D1 PUSH1 0x6D SHL PUSH1 0x40 DUP6 ADD MSTORE MLOAD DUP1 SWAP3 DUP6 DUP6 ADD SWAP1 PUSH2 0x30D1 JUMP JUMPDEST DUP2 ADD SUB PUSH1 0x33 DUP2 ADD DUP5 MSTORE ADD DUP3 PUSH2 0x328C JUMP JUMPDEST PUSH1 0x40 MLOAD PUSH3 0x461BCD PUSH1 0xE5 SHL DUP2 MSTORE PUSH1 0x20 PUSH1 0x4 DUP3 ADD MSTORE SWAP2 DUP3 SWAP2 PUSH1 0x24 DUP4 ADD SWAP1 PUSH2 0x30F4 JUMP JUMPDEST SUB SWAP1 REVERT JUMPDEST ISZERO PUSH2 0x1FDD JUMPI DUP5 DUP4 BYTE PUSH1 0xF8 SHL PUSH1 0x1 PUSH1 0x1 PUSH1 0xF8 SHL SUB NOT AND ISZERO ISZERO PUSH2 0x1FB2 JUMP JUMPDEST SWAP1 ISZERO PUSH2 0x1FDD JUMPI DUP3 SWAP1 BYTE PUSH1 0xF8 SHL PUSH1 0x1 PUSH1 0x1 PUSH1 0xF8 SHL SUB NOT AND ISZERO ISZERO DUP4 PUSH2 0x1F58 JUMP JUMPDEST PUSH1 0x80 DUP4 ADD MLOAD SWAP1 PUSH1 0x5 DUP3 LT ISZERO PUSH2 0x10D8 JUMPI PUSH1 0x0 SWAP5 DUP6 SWAP5 PUSH2 0x19F8 SWAP4 PUSH1 0x2 SUB PUSH2 0x20F5 JUMPI PUSH2 0x20EB SWAP1 DUP9 PUSH2 0x41AE JUMP JUMPDEST SWAP3 SWAP4 POP SWAP4 POP PUSH2 0x19E7 JUMP JUMPDEST PUSH2 0x20FF SWAP1 DUP9 PUSH2 0x41AE JUMP JUMPDEST PUSH2 0x20EB JUMP JUMPDEST ADD MLOAD SWAP1 POP DUP9 DUP1 PUSH2 0x1D3E JUMP JUMPDEST SWAP3 POP PUSH1 0x8 DUP5 ADD PUSH1 0x0 MSTORE PUSH1 0x20 PUSH1 0x0 KECCAK256 SWAP1 PUSH1 0x0 SWAP4 JUMPDEST PUSH1 0x1F NOT DUP5 AND DUP6 LT PUSH2 0x2166 JUMPI PUSH1 0x1 SWAP5 POP DUP4 PUSH1 0x1F NOT DUP2 AND LT PUSH2 0x214D JUMPI JUMPDEST POP POP POP DUP2 SHL ADD PUSH1 0x8 DUP3 ADD SSTORE PUSH2 0x1D56 JUMP JUMPDEST ADD MLOAD PUSH1 0x0 NOT PUSH1 0xF8 DUP5 PUSH1 0x3 SHL AND SHR NOT AND SWAP1 SSTORE DUP9 DUP1 DUP1 PUSH2 0x213D JUMP JUMPDEST DUP2 DUP2 ADD MLOAD DUP4 SSTORE PUSH1 0x20 SWAP5 DUP6 ADD SWAP5 PUSH1 0x1 SWAP1 SWAP4 ADD SWAP3 SWAP1 SWAP2 ADD SWAP1 PUSH2 0x2122 JUMP JUMPDEST ADD MLOAD SWAP1 POP DUP9 DUP1 PUSH2 0x1CB3 JUMP JUMPDEST SWAP3 POP PUSH1 0x5 DUP5 ADD PUSH1 0x0 MSTORE PUSH1 0x20 PUSH1 0x0 KECCAK256 SWAP1 PUSH1 0x0 SWAP4 JUMPDEST PUSH1 0x1F NOT DUP5 AND DUP6 LT PUSH2 0x21E3 JUMPI PUSH1 0x1 SWAP5 POP DUP4 PUSH1 0x1F NOT DUP2 AND LT PUSH2 0x21CA JUMPI JUMPDEST POP POP POP DUP2 SHL ADD PUSH1 0x5 DUP3 ADD SSTORE PUSH2 0x1CCB JUMP JUMPDEST ADD MLOAD PUSH1 0x0 NOT PUSH1 0xF8 DUP5 PUSH1 0x3 SHL AND SHR NOT AND SWAP1 SSTORE DUP9 DUP1 DUP1 PUSH2 0x21BA JUMP JUMPDEST DUP2 DUP2 ADD MLOAD DUP4 SSTORE PUSH1 0x20 SWAP5 DUP6 ADD SWAP5 PUSH1 0x1 SWAP1 SWAP4 ADD SWAP3 SWAP1 SWAP2 ADD SWAP1 PUSH2 0x219F JUMP JUMPDEST ADD MLOAD SWAP1 POP DUP9 DUP1 PUSH2 0x1C0F JUMP JUMPDEST SWAP3 POP PUSH1 0x2 DUP5 ADD PUSH1 0x0 MSTORE PUSH1 0x20 PUSH1 0x0 KECCAK256 SWAP1 PUSH1 0x0 SWAP4 JUMPDEST PUSH1 0x1F NOT DUP5 AND DUP6 LT PUSH2 0x2260 JUMPI PUSH1 0x1 SWAP5 POP DUP4 PUSH1 0x1F NOT DUP2 AND LT PUSH2 0x2247 JUMPI JUMPDEST POP POP POP DUP2 SHL ADD PUSH1 0x2 DUP3 ADD SSTORE PUSH2 0x1C27 JUMP JUMPDEST ADD MLOAD PUSH1 0x0 NOT PUSH1 0xF8 DUP5 PUSH1 0x3 SHL AND SHR NOT AND SWAP1 SSTORE DUP9 DUP1 DUP1 PUSH2 0x2237 JUMP JUMPDEST DUP2 DUP2 ADD MLOAD DUP4 SSTORE PUSH1 0x20 SWAP5 DUP6 ADD SWAP5 PUSH1 0x1 SWAP1 SWAP4 ADD SWAP3 SWAP1 SWAP2 ADD SWAP1 PUSH2 0x221C JUMP JUMPDEST PUSH2 0x2284 DUP5 PUSH2 0x3C17 JUMP JUMPDEST ISZERO PUSH2 0x22DA JUMPI POP POP POP PUSH1 0x2 SWAP3 PUSH1 0x9 PUSH2 0x194E PUSH1 0x40 MLOAD PUSH2 0x22A0 DUP2 PUSH2 0x3271 JUMP JUMPDEST PUSH1 0x21 DUP2 MSTORE PUSH32 0x5261706964207769746864726177616C207061747465726E2064657465637465 PUSH1 0x20 DUP3 ADD MSTORE PUSH1 0x19 PUSH1 0xFA SHL PUSH1 0x40 DUP3 ADD MSTORE SWAP2 PUSH2 0x18F7 JUMP JUMPDEST PUSH2 0x22E5 CALLER DUP8 DUP8 PUSH2 0x3C6C JUMP JUMPDEST ISZERO PUSH2 0x2341 JUMPI POP POP POP PUSH1 0x4 SWAP3 PUSH1 0xA PUSH2 0x194E PUSH1 0x40 MLOAD PUSH2 0x2301 DUP2 PUSH2 0x3271 JUMP JUMPDEST PUSH1 0x27 DUP2 MSTORE PUSH32 0x537573706963696F75732061646D696E2066756E6374696F6E2063616C6C2064 PUSH1 0x20 DUP3 ADD MSTORE PUSH7 0x195D1958DD1959 PUSH1 0xCA SHL PUSH1 0x40 DUP3 ADD MSTORE SWAP2 PUSH2 0x18F7 JUMP JUMPDEST PUSH2 0x234C CALLER DUP8 DUP8 PUSH2 0x3733 JUMP JUMPDEST ISZERO PUSH2 0x23AC JUMPI POP POP POP PUSH1 0x3 SWAP3 PUSH1 0x0 PUSH2 0x194E PUSH1 0x40 MLOAD PUSH2 0x2368 DUP2 PUSH2 0x3271 JUMP JUMPDEST PUSH1 0x2B DUP2 MSTORE PUSH32 0x506F737369626C65207265656E7472616E63792061747461636B207061747465 PUSH1 0x20 DUP3 ADD MSTORE PUSH11 0x1C9B8819195D1958DD1959 PUSH1 0xAA SHL PUSH1 0x40 DUP3 ADD MSTORE SWAP2 PUSH2 0x18F7 JUMP JUMPDEST PUSH2 0x23B6 CALLVALUE CALLER PUSH2 0x386F JUMP JUMPDEST ISZERO PUSH2 0x2413 JUMPI POP POP POP PUSH1 0x3 SWAP3 PUSH1 0x1 PUSH2 0x194E PUSH1 0x40 MLOAD PUSH2 0x23D2 DUP2 PUSH2 0x3271 JUMP JUMPDEST PUSH1 0x28 DUP2 MSTORE PUSH32 0x466C617368206C6F616E206D616E6970756C6174696F6E207061747465726E20 PUSH1 0x20 DUP3 ADD MSTORE PUSH8 0x19195D1958DD1959 PUSH1 0xC2 SHL PUSH1 0x40 DUP3 ADD MSTORE SWAP2 PUSH2 0x18F7 JUMP JUMPDEST PUSH2 0x241C CALLER PUSH2 0x38D7 JUMP JUMPDEST ISZERO PUSH2 0x2476 JUMPI POP POP POP PUSH1 0x2 SWAP3 PUSH1 0x2 PUSH2 0x194E PUSH1 0x40 MLOAD PUSH2 0x2438 DUP2 PUSH2 0x3271 JUMP JUMPDEST PUSH1 0x25 DUP2 MSTORE PUSH32 0x537573706963696F7573207374617465206D616E6970756C6174696F6E207061 PUSH1 0x20 DUP3 ADD MSTORE PUSH5 0x3A3A32B937 PUSH1 0xD9 SHL PUSH1 0x40 DUP3 ADD MSTORE SWAP2 PUSH2 0x18F7 JUMP JUMPDEST PUSH2 0x2481 CALLVALUE DUP8 DUP8 PUSH2 0x3939 JUMP JUMPDEST ISZERO PUSH2 0x24CD JUMPI POP POP POP PUSH1 0x2 SWAP3 PUSH1 0x3 PUSH2 0x194E PUSH1 0x40 MLOAD PUSH2 0x249D DUP2 PUSH2 0x3256 JUMP JUMPDEST PUSH1 0x1F DUP2 MSTORE PUSH32 0x556E657870656374656420455448207472616E73666572207061747465726E00 PUSH1 0x20 DUP3 ADD MSTORE SWAP2 PUSH2 0x18F7 JUMP JUMPDEST PUSH2 0x24D7 DUP7 DUP7 PUSH2 0x3973 JUMP JUMPDEST ISZERO PUSH2 0x2523 JUMPI POP POP POP PUSH1 0x1 SWAP3 PUSH1 0x4 PUSH2 0x194E PUSH1 0x40 MLOAD PUSH2 0x24F3 DUP2 PUSH2 0x3256 JUMP JUMPDEST PUSH1 0x1D DUP2 MSTORE PUSH32 0x556E736166652065787465726E616C2063616C6C206465746563746564000000 PUSH1 0x20 DUP3 ADD MSTORE SWAP2 PUSH2 0x18F7 JUMP JUMPDEST PUSH2 0x252D DUP7 DUP7 PUSH2 0x3A0E JUMP JUMPDEST ISZERO PUSH2 0x2583 JUMPI POP POP POP PUSH1 0x3 SWAP3 PUSH1 0x5 PUSH2 0x194E PUSH1 0x40 MLOAD PUSH2 0x2549 DUP2 PUSH2 0x3271 JUMP JUMPDEST PUSH1 0x21 DUP2 MSTORE PUSH32 0x506F737369626C652061636365737320636F6E74726F6C2076696F6C6174696F PUSH1 0x20 DUP3 ADD MSTORE PUSH1 0x37 PUSH1 0xF9 SHL PUSH1 0x40 DUP3 ADD MSTORE SWAP2 PUSH2 0x18F7 JUMP JUMPDEST PUSH2 0x258F SWAP6 SWAP3 SWAP6 CALLER PUSH2 0x3B1C JUMP JUMPDEST ISZERO PUSH2 0x25E7 JUMPI POP POP PUSH1 0x1 SWAP4 PUSH2 0x194E PUSH1 0x40 MLOAD PUSH2 0x25A8 DUP2 PUSH2 0x3271 JUMP JUMPDEST PUSH1 0x26 DUP2 MSTORE PUSH32 0x48696768206672657175656E63792063616C6C732066726F6D2073616D652061 PUSH1 0x20 DUP3 ADD MSTORE PUSH6 0x646472657373 PUSH1 0xD0 SHL PUSH1 0x40 DUP3 ADD MSTORE SWAP2 PUSH2 0x18F7 JUMP JUMPDEST SWAP1 SWAP5 PUSH1 0x15 SLOAD GASPRICE GT PUSH2 0x25FC JUMPI JUMPDEST PUSH2 0x194E SWAP1 PUSH2 0x18F7 JUMP JUMPDEST SWAP5 POP POP PUSH1 0x1 SWAP4 PUSH2 0x194E PUSH1 0x40 MLOAD PUSH2 0x2611 DUP2 PUSH2 0x3256 JUMP JUMPDEST PUSH1 0x18 DUP2 MSTORE PUSH32 0x556E757375616C6C792068696768206761732070726963650000000000000000 PUSH1 0x20 DUP3 ADD MSTORE SWAP2 SWAP1 POP PUSH2 0x25F3 JUMP JUMPDEST PUSH1 0x40 MLOAD PUSH3 0x461BCD PUSH1 0xE5 SHL DUP2 MSTORE PUSH1 0x20 PUSH1 0x4 DUP3 ADD MSTORE PUSH1 0x14 PUSH1 0x24 DUP3 ADD MSTORE PUSH20 0x15185C99D95D081B9BDD081C1C9BDD1958DD1959 PUSH1 0x62 SHL PUSH1 0x44 DUP3 ADD MSTORE PUSH1 0x64 SWAP1 REVERT JUMPDEST PUSH1 0x40 MLOAD PUSH3 0x461BCD PUSH1 0xE5 SHL DUP2 MSTORE PUSH1 0x20 PUSH1 0x4 DUP3 ADD MSTORE PUSH1 0x18 PUSH1 0x24 DUP3 ADD MSTORE PUSH32 0x456D657267656E63792073746F70206973206163746976650000000000000000 PUSH1 0x44 DUP3 ADD MSTORE PUSH1 0x64 SWAP1 REVERT JUMPDEST PUSH1 0x40 MLOAD PUSH3 0x461BCD PUSH1 0xE5 SHL DUP2 MSTORE PUSH1 0x20 PUSH1 0x4 DUP3 ADD MSTORE PUSH1 0x1F PUSH1 0x24 DUP3 ADD MSTORE PUSH32 0x5265656E7472616E637947756172643A207265656E7472616E742063616C6C00 PUSH1 0x44 DUP3 ADD MSTORE PUSH1 0x64 SWAP1 REVERT JUMPDEST CALLVALUE PUSH2 0x2EC JUMPI PUSH1 0x20 CALLDATASIZE PUSH1 0x3 NOT ADD SLT PUSH2 0x2EC JUMPI PUSH1 0x1 PUSH1 0x1 PUSH1 0xA0 SHL SUB PUSH2 0x272A PUSH2 0x3035 JUMP JUMPDEST AND PUSH1 0x0 MSTORE PUSH1 0xB PUSH1 0x20 MSTORE PUSH1 0x20 PUSH1 0x40 PUSH1 0x0 KECCAK256 SLOAD PUSH1 0x40 MLOAD SWAP1 DUP2 MSTORE RETURN JUMPDEST CALLVALUE PUSH2 0x2EC JUMPI PUSH1 0x20 CALLDATASIZE PUSH1 0x3 NOT ADD SLT PUSH2 0x2EC JUMPI PUSH2 0x275C PUSH2 0x3035 JUMP JUMPDEST PUSH2 0x2764 PUSH2 0x32C7 JUMP JUMPDEST PUSH1 0x1 PUSH1 0x1 PUSH1 0xA0 SHL SUB AND DUP1 ISZERO PUSH2 0x278B JUMPI PUSH1 0x1 PUSH1 0x1 PUSH1 0x60 SHL SUB PUSH1 0xA0 SHL PUSH1 0x1A SLOAD AND OR PUSH1 0x1A SSTORE PUSH1 0x0 DUP1 RETURN JUMPDEST PUSH1 0x40 MLOAD PUSH3 0x461BCD PUSH1 0xE5 SHL DUP2 MSTORE PUSH1 0x20 PUSH1 0x4 DUP3 ADD MSTORE PUSH1 0x19 PUSH1 0x24 DUP3 ADD MSTORE PUSH32 0x496E76616C6964204149204F7261636C65206164647265737300000000000000 PUSH1 0x44 DUP3 ADD MSTORE PUSH1 0x64 SWAP1 REVERT JUMPDEST CALLVALUE PUSH2 0x2EC JUMPI PUSH1 0x0 CALLDATASIZE PUSH1 0x3 NOT ADD SLT PUSH2 0x2EC JUMPI PUSH1 0x20 PUSH1 0x18 SLOAD PUSH1 0x40 MLOAD SWAP1 DUP2 MSTORE RETURN JUMPDEST CALLVALUE PUSH2 0x2EC JUMPI PUSH1 0x20 CALLDATASIZE PUSH1 0x3 NOT ADD SLT PUSH2 0x2EC JUMPI PUSH1 0x4 CALLDATALOAD PUSH2 0x280A PUSH2 0x32C7 JUMP JUMPDEST DUP1 ISZERO PUSH2 0x2815 JUMPI PUSH1 0x18 SSTORE STOP JUMPDEST PUSH1 0x40 MLOAD PUSH3 0x461BCD PUSH1 0xE5 SHL DUP2 MSTORE PUSH1 0x20 PUSH1 0x4 DUP3 ADD MSTORE PUSH1 0xE PUSH1 0x24 DUP3 ADD MSTORE PUSH14 0x496E76616C69642077696E646F77 PUSH1 0x90 SHL PUSH1 0x44 DUP3 ADD MSTORE PUSH1 0x64 SWAP1 REVERT JUMPDEST CALLVALUE PUSH2 0x2EC JUMPI PUSH1 0xA0 CALLDATASIZE PUSH1 0x3 NOT ADD SLT PUSH2 0x2EC JUMPI PUSH1 0x24 CALLDATALOAD ISZERO ISZERO PUSH1 0x24 CALLDATALOAD SUB PUSH2 0x2EC JUMPI PUSH1 0x64 CALLDATALOAD PUSH1 0x1 PUSH1 0x1 PUSH1 0x40 SHL SUB DUP2 GT PUSH2 0x2EC JUMPI PUSH2 0x2888 SWAP1 CALLDATASIZE SWAP1 PUSH1 0x4 ADD PUSH2 0x3061 JUMP JUMPDEST SWAP1 PUSH1 0x84 CALLDATALOAD PUSH1 0x1 PUSH1 0x1 PUSH1 0x40 SHL SUB DUP2 GT PUSH2 0x2EC JUMPI PUSH2 0x28A8 SWAP1 CALLDATASIZE SWAP1 PUSH1 0x4 ADD PUSH2 0x3061 JUMP JUMPDEST PUSH1 0x1A SLOAD SWAP1 SWAP3 SWAP1 PUSH1 0x1 PUSH1 0x1 PUSH1 0xA0 SHL SUB AND CALLER SUB PUSH2 0x2F5D JUMPI PUSH1 0x4 CALLDATALOAD PUSH1 0x0 MSTORE PUSH1 0x3 PUSH1 0x20 MSTORE PUSH1 0xFF PUSH1 0x4 PUSH1 0x40 PUSH1 0x0 KECCAK256 ADD SLOAD AND PUSH1 0x5 DUP2 LT ISZERO PUSH2 0x10D8 JUMPI PUSH2 0x28E8 SWAP1 ISZERO ISZERO PUSH2 0x3439 JUMP JUMPDEST PUSH1 0x40 MLOAD PUSH2 0x291E DUP2 PUSH2 0xD77 CALLER TIMESTAMP PUSH1 0x4 CALLDATALOAD PUSH1 0x20 DUP6 ADD SWAP2 PUSH1 0x54 SWAP4 SWAP2 DUP4 MSTORE PUSH1 0x20 DUP4 ADD MSTORE PUSH1 0x1 PUSH1 0x1 PUSH1 0x60 SHL SUB NOT SWAP1 PUSH1 0x60 SHL AND PUSH1 0x40 DUP3 ADD MSTORE ADD SWAP1 JUMP JUMPDEST PUSH1 0x20 DUP2 MLOAD SWAP2 ADD KECCAK256 PUSH1 0x40 MLOAD SWAP1 PUSH2 0x2932 DUP3 PUSH2 0x3220 JUMP JUMPDEST PUSH1 0x0 DUP3 MSTORE PUSH1 0x40 MLOAD SWAP2 PUSH2 0x2943 DUP4 PUSH2 0x31E9 JUMP JUMPDEST PUSH1 0x24 CALLDATALOAD ISZERO ISZERO DUP4 MSTORE PUSH1 0x44 CALLDATALOAD PUSH1 0x20 DUP5 ADD MSTORE PUSH1 0x40 DUP4 ADD MSTORE PUSH2 0x2962 CALLDATASIZE DUP8 DUP6 PUSH2 0x33BD JUMP JUMPDEST PUSH1 0x60 DUP4 ADD MSTORE PUSH2 0x2972 CALLDATASIZE DUP7 DUP7 PUSH2 0x33BD JUMP JUMPDEST PUSH1 0x80 DUP4 ADD MSTORE DUP1 PUSH1 0xA0 DUP4 ADD MSTORE PUSH1 0x0 MSTORE PUSH1 0x7 PUSH1 0x20 MSTORE PUSH1 0x40 PUSH1 0x0 KECCAK256 SWAP1 PUSH2 0x29A4 DUP2 MLOAD ISZERO ISZERO DUP4 SWAP1 PUSH1 0xFF DUP1 NOT DUP4 SLOAD AND SWAP2 ISZERO ISZERO AND OR SWAP1 SSTORE JUMP JUMPDEST PUSH1 0x20 DUP2 ADD MLOAD PUSH1 0x1 DUP4 ADD SSTORE PUSH1 0x40 DUP2 ADD MLOAD DUP1 MLOAD SWAP1 PUSH1 0x1 PUSH1 0x1 PUSH1 0x40 SHL SUB DUP3 GT PUSH2 0x16AC JUMPI PUSH9 0x10000000000000000 DUP3 GT PUSH2 0x16AC JUMPI PUSH1 0x20 SWAP1 PUSH1 0x2 DUP6 ADD SLOAD DUP4 PUSH1 0x2 DUP8 ADD SSTORE DUP1 DUP5 LT PUSH2 0x2F3D JUMPI JUMPDEST POP ADD PUSH1 0x2 DUP5 ADD PUSH1 0x0 MSTORE PUSH1 0x20 PUSH1 0x0 KECCAK256 PUSH1 0x0 JUMPDEST DUP4 DUP2 LT PUSH2 0x2F20 JUMPI POP POP POP POP PUSH1 0x60 DUP2 ADD MLOAD DUP1 MLOAD SWAP1 PUSH1 0x1 PUSH1 0x1 PUSH1 0x40 SHL SUB DUP3 GT PUSH2 0x16AC JUMPI DUP2 SWAP1 PUSH2 0x2A38 DUP3 PUSH2 0x2A2F PUSH1 0x3 DUP9 ADD SLOAD PUSH2 0x3119 JUMP JUMPDEST PUSH1 0x3 DUP9 ADD PUSH2 0x3336 JUMP JUMPDEST PUSH1 0x20 SWAP1 PUSH1 0x1F DUP4 GT PUSH1 0x1 EQ PUSH2 0x2EAE JUMPI PUSH1 0x0 SWAP3 PUSH2 0x2EA3 JUMPI JUMPDEST POP POP DUP2 PUSH1 0x1 SHL SWAP2 PUSH1 0x0 NOT SWAP1 PUSH1 0x3 SHL SHR NOT AND OR PUSH1 0x3 DUP4 ADD SSTORE JUMPDEST PUSH1 0x80 DUP2 ADD MLOAD DUP1 MLOAD SWAP1 PUSH1 0x1 PUSH1 0x1 PUSH1 0x40 SHL SUB DUP3 GT PUSH2 0x16AC JUMPI PUSH2 0x2A96 DUP3 PUSH2 0x2A8D PUSH1 0x4 DUP8 ADD SLOAD PUSH2 0x3119 JUMP JUMPDEST PUSH1 0x4 DUP8 ADD PUSH2 0x3336 JUMP JUMPDEST PUSH1 0x20 SWAP1 PUSH1 0x1F DUP4 GT PUSH1 0x1 EQ PUSH2 0x2E2E JUMPI SWAP2 DUP1 PUSH1 0x5 SWAP5 SWAP3 PUSH1 0xA0 SWAP5 PUSH1 0x0 SWAP3 PUSH2 0x2E23 JUMPI JUMPDEST POP POP DUP2 PUSH1 0x1 SHL SWAP2 PUSH1 0x0 NOT SWAP1 PUSH1 0x3 SHL SHR NOT AND OR PUSH1 0x4 DUP6 ADD SSTORE JUMPDEST ADD MLOAD SWAP2 ADD SSTORE PUSH1 0x4 CALLDATALOAD PUSH1 0x0 MSTORE PUSH1 0x3 PUSH1 0x20 MSTORE PUSH2 0x2B30 PUSH1 0x10 PUSH1 0x40 PUSH1 0x0 KECCAK256 SWAP3 PUSH1 0x40 MLOAD SWAP7 DUP8 SWAP2 DUP2 PUSH2 0x2AFF PUSH1 0x20 DUP6 ADD PUSH1 0x5 DUP10 ADD PUSH2 0x357A JUMP JUMPDEST SWAP2 PUSH16 0x103E1020A49020B730B63CB9B4B99D1 PUSH1 0x85 SHL DUP4 MSTORE DUP6 DUP4 ADD CALLDATACOPY ADD PUSH1 0x0 DUP4 DUP3 ADD MSTORE SUB PUSH1 0xF NOT DUP2 ADD DUP8 MSTORE ADD DUP6 PUSH2 0x328C JUMP JUMPDEST DUP4 MLOAD PUSH1 0x1 PUSH1 0x1 PUSH1 0x40 SHL SUB DUP2 GT PUSH2 0x16AC JUMPI PUSH2 0x2B5A DUP2 PUSH2 0x2B51 PUSH1 0x5 DUP6 ADD SLOAD PUSH2 0x3119 JUMP JUMPDEST PUSH1 0x5 DUP6 ADD PUSH2 0x3336 JUMP JUMPDEST PUSH1 0x20 PUSH1 0x1F DUP3 GT PUSH1 0x1 EQ PUSH2 0x2DB4 JUMPI DUP2 SWAP3 SWAP4 SWAP5 SWAP6 PUSH1 0x0 SWAP3 PUSH2 0x2DA9 JUMPI JUMPDEST POP POP DUP2 PUSH1 0x1 SHL SWAP2 PUSH1 0x0 NOT SWAP1 PUSH1 0x3 SHL SHR NOT AND OR PUSH1 0x5 DUP3 ADD SSTORE JUMPDEST PUSH1 0x24 CALLDATALOAD SWAP1 DUP2 PUSH2 0x2D8E JUMPI JUMPDEST POP PUSH2 0x2B9D JUMPI STOP JUMPDEST PUSH2 0x2BA8 SWAP2 CALLDATASIZE SWAP2 PUSH2 0x33BD JUMP JUMPDEST PUSH1 0x4 CALLDATALOAD PUSH1 0x0 MSTORE PUSH1 0x3 PUSH1 0x20 MSTORE PUSH1 0x40 PUSH1 0x0 KECCAK256 SWAP1 PUSH1 0x20 DUP2 MLOAD SWAP2 ADD KECCAK256 PUSH2 0x2BC8 PUSH2 0x3477 JUMP JUMPDEST PUSH1 0x20 DUP2 MLOAD SWAP2 ADD KECCAK256 EQ PUSH2 0x2BD6 JUMPI STOP JUMPDEST PUSH1 0x7 DUP2 ADD PUSH1 0x1 PUSH1 0xFF NOT DUP3 SLOAD AND OR SWAP1 SSTORE PUSH1 0x40 MLOAD SWAP1 PUSH1 0x20 DUP1 DUP4 ADD MSTORE PUSH1 0x1C PUSH1 0x40 DUP4 ADD MSTORE PUSH32 0x4175746F2D726576657274656420627920414920616E616C7973697300000000 PUSH1 0x60 DUP4 ADD MSTORE PUSH1 0x60 DUP3 MSTORE PUSH2 0x2C29 DUP3 PUSH2 0x323B JUMP JUMPDEST PUSH1 0x8 DUP2 ADD DUP3 MLOAD PUSH1 0x1 PUSH1 0x1 PUSH1 0x40 SHL SUB DUP2 GT PUSH2 0x16AC JUMPI PUSH2 0x2C4B DUP2 PUSH2 0xAF1 DUP5 SLOAD PUSH2 0x3119 JUMP JUMPDEST PUSH1 0x20 PUSH1 0x1F DUP3 GT PUSH1 0x1 EQ PUSH2 0x2D28 JUMPI DUP2 SWAP3 SWAP4 SWAP5 PUSH1 0x0 SWAP3 PUSH2 0x2D1D JUMPI JUMPDEST POP POP DUP2 PUSH1 0x1 SHL SWAP2 PUSH1 0x0 NOT SWAP1 PUSH1 0x3 SHL SHR NOT AND OR SWAP1 SSTORE JUMPDEST PUSH2 0x2C84 PUSH1 0xF SLOAD PUSH2 0x337D JUMP JUMPDEST PUSH1 0xF SSTORE PUSH1 0x1 DUP1 DUP1 PUSH1 0xA0 SHL SUB SWAP2 ADD SLOAD AND PUSH1 0x40 MLOAD PUSH2 0x2CC4 DUP2 PUSH2 0xD77 PUSH1 0x20 DUP3 ADD PUSH1 0x60 SWAP1 PUSH1 0x20 DUP2 MSTORE PUSH1 0x8 PUSH1 0x20 DUP3 ADD MSTORE PUSH8 0x14995D995C9D1959 PUSH1 0xC2 SHL PUSH1 0x40 DUP3 ADD MSTORE ADD SWAP1 JUMP JUMPDEST PUSH1 0x0 DUP1 MLOAD PUSH1 0x20 PUSH2 0x4511 DUP4 CODECOPY DUP2 MLOAD SWAP2 MSTORE PUSH1 0x40 MLOAD PUSH1 0x1 DUP2 MSTORE PUSH1 0x60 PUSH1 0x20 DUP3 ADD MSTORE PUSH1 0x13 PUSH1 0x60 DUP3 ADD MSTORE PUSH19 0x4175746F2D7265766572746564206279204149 PUSH1 0x68 SHL PUSH1 0x80 DUP3 ADD MSTORE PUSH1 0xA0 PUSH1 0x40 DUP3 ADD MSTORE DUP1 PUSH2 0xB9F PUSH1 0x4 CALLDATALOAD SWAP5 PUSH1 0xA0 DUP4 ADD SWAP1 PUSH2 0x30F4 JUMP JUMPDEST ADD MLOAD SWAP1 POP DUP5 DUP1 PUSH2 0x2C64 JUMP JUMPDEST PUSH1 0x1F NOT DUP3 AND SWAP1 DUP4 PUSH1 0x0 MSTORE PUSH1 0x20 PUSH1 0x0 KECCAK256 SWAP2 PUSH1 0x0 JUMPDEST DUP2 DUP2 LT PUSH2 0x2D76 JUMPI POP SWAP6 DUP4 PUSH1 0x1 SWAP6 SWAP7 SWAP8 LT PUSH2 0x2D5D JUMPI JUMPDEST POP POP POP DUP2 SHL ADD SWAP1 SSTORE PUSH2 0x2C79 JUMP JUMPDEST ADD MLOAD PUSH1 0x0 NOT PUSH1 0xF8 DUP5 PUSH1 0x3 SHL AND SHR NOT AND SWAP1 SSTORE DUP5 DUP1 DUP1 PUSH2 0x2D50 JUMP JUMPDEST SWAP2 SWAP3 PUSH1 0x20 PUSH1 0x1 DUP2 SWAP3 DUP7 DUP12 ADD MLOAD DUP2 SSTORE ADD SWAP5 ADD SWAP3 ADD PUSH2 0x2D3B JUMP JUMPDEST PUSH1 0xFF SWAP2 POP PUSH1 0x4 ADD SLOAD AND PUSH1 0x5 DUP2 LT ISZERO PUSH2 0x10D8 JUMPI PUSH1 0x4 EQ DUP4 PUSH2 0x2B96 JUMP JUMPDEST ADD MLOAD SWAP1 POP DUP6 DUP1 PUSH2 0x2B74 JUMP JUMPDEST PUSH1 0x5 DUP4 ADD PUSH1 0x0 MSTORE PUSH1 0x20 PUSH1 0x0 KECCAK256 SWAP1 PUSH1 0x0 JUMPDEST PUSH1 0x1F NOT DUP5 AND DUP2 LT PUSH2 0x2E0B JUMPI POP PUSH1 0x1 SWAP4 SWAP5 SWAP6 SWAP7 DUP4 PUSH1 0x1F NOT DUP2 AND LT PUSH2 0x2DF2 JUMPI JUMPDEST POP POP POP DUP2 SHL ADD PUSH1 0x5 DUP3 ADD SSTORE PUSH2 0x2B8C JUMP JUMPDEST ADD MLOAD PUSH1 0x0 NOT PUSH1 0xF8 DUP5 PUSH1 0x3 SHL AND SHR NOT AND SWAP1 SSTORE DUP6 DUP1 DUP1 PUSH2 0x2DE2 JUMP JUMPDEST SWAP1 SWAP2 PUSH1 0x20 PUSH1 0x1 DUP2 SWAP3 DUP6 DUP12 ADD MLOAD DUP2 SSTORE ADD SWAP4 ADD SWAP2 ADD PUSH2 0x2DC4 JUMP JUMPDEST ADD MLOAD SWAP1 POP DUP11 DUP1 PUSH2 0x2AB5 JUMP JUMPDEST SWAP1 PUSH1 0x4 DUP6 ADD PUSH1 0x0 MSTORE PUSH1 0x20 PUSH1 0x0 KECCAK256 SWAP2 PUSH1 0x0 JUMPDEST PUSH1 0x1F NOT DUP6 AND DUP2 LT PUSH2 0x2E8B JUMPI POP SWAP3 PUSH1 0x5 SWAP5 SWAP3 PUSH1 0x1 SWAP3 PUSH1 0xA0 SWAP6 DUP4 PUSH1 0x1F NOT DUP2 AND LT PUSH2 0x2E72 JUMPI JUMPDEST POP POP POP DUP2 SHL ADD PUSH1 0x4 DUP6 ADD SSTORE PUSH2 0x2ACD JUMP JUMPDEST ADD MLOAD PUSH1 0x0 NOT PUSH1 0xF8 DUP5 PUSH1 0x3 SHL AND SHR NOT AND SWAP1 SSTORE DUP11 DUP1 DUP1 PUSH2 0x2E62 JUMP JUMPDEST SWAP2 SWAP3 PUSH1 0x20 PUSH1 0x1 DUP2 SWAP3 DUP7 DUP6 ADD MLOAD DUP2 SSTORE ADD SWAP5 ADD SWAP3 ADD PUSH2 0x2E3F JUMP JUMPDEST ADD MLOAD SWAP1 POP DUP9 DUP1 PUSH2 0x2A4E JUMP JUMPDEST SWAP3 POP PUSH1 0x3 DUP6 ADD PUSH1 0x0 MSTORE PUSH1 0x20 PUSH1 0x0 KECCAK256 SWAP1 PUSH1 0x0 SWAP4 JUMPDEST PUSH1 0x1F NOT DUP5 AND DUP6 LT PUSH2 0x2F05 JUMPI PUSH1 0x1 SWAP5 POP DUP4 PUSH1 0x1F NOT DUP2 AND LT PUSH2 0x2EEC JUMPI JUMPDEST POP POP POP DUP2 SHL ADD PUSH1 0x3 DUP4 ADD SSTORE PUSH2 0x2A66 JUMP JUMPDEST ADD MLOAD PUSH1 0x0 NOT PUSH1 0xF8 DUP5 PUSH1 0x3 SHL AND SHR NOT AND SWAP1 SSTORE DUP9 DUP1 DUP1 PUSH2 0x2EDC JUMP JUMPDEST DUP2 DUP2 ADD MLOAD DUP4 SSTORE PUSH1 0x20 SWAP5 DUP6 ADD SWAP5 PUSH1 0x1 SWAP1 SWAP4 ADD SWAP3 SWAP1 SWAP2 ADD SWAP1 PUSH2 0x2EC1 JUMP JUMPDEST DUP3 MLOAD PUSH1 0x1 PUSH1 0x1 PUSH1 0xA0 SHL SUB AND DUP2 DUP4 ADD SSTORE PUSH1 0x20 SWAP1 SWAP3 ADD SWAP2 PUSH1 0x1 ADD PUSH2 0x29FB JUMP JUMPDEST PUSH2 0x2F57 SWAP1 PUSH1 0x2 DUP8 ADD PUSH1 0x0 MSTORE DUP5 DUP5 PUSH1 0x0 KECCAK256 SWAP2 DUP3 ADD SWAP2 ADD PUSH2 0x331F JUMP JUMPDEST DUP10 PUSH2 0x29EA JUMP JUMPDEST PUSH1 0x40 MLOAD PUSH3 0x461BCD PUSH1 0xE5 SHL DUP2 MSTORE PUSH1 0x20 PUSH1 0x4 DUP3 ADD MSTORE PUSH1 0x17 PUSH1 0x24 DUP3 ADD MSTORE PUSH32 0x4F6E6C79204149204F7261636C652063616E2063616C6C000000000000000000 PUSH1 0x44 DUP3 ADD MSTORE PUSH1 0x64 SWAP1 REVERT JUMPDEST CALLVALUE PUSH2 0x2EC JUMPI PUSH1 0x20 CALLDATASIZE PUSH1 0x3 NOT ADD SLT PUSH2 0x2EC JUMPI PUSH1 0x1 PUSH1 0x1 PUSH1 0xA0 SHL SUB PUSH2 0x2FC3 PUSH2 0x3035 JUMP JUMPDEST AND PUSH1 0x0 MSTORE PUSH1 0x5 PUSH1 0x20 MSTORE PUSH1 0x20 PUSH1 0x40 PUSH1 0x0 KECCAK256 SLOAD PUSH1 0x14 SLOAD GT ISZERO PUSH1 0x40 MLOAD SWAP1 DUP2 MSTORE RETURN JUMPDEST CALLVALUE PUSH2 0x2EC JUMPI PUSH1 0x0 CALLDATASIZE PUSH1 0x3 NOT ADD SLT PUSH2 0x2EC JUMPI PUSH2 0x2FFA PUSH2 0x32C7 JUMP JUMPDEST PUSH1 0xFF PUSH1 0xA0 SHL NOT PUSH1 0x1B SLOAD AND PUSH1 0x1B SSTORE PUSH1 0x40 MLOAD TIMESTAMP DUP2 MSTORE PUSH32 0x6A7365FCD12E17AA9AA076D2D2B88EF9AA06259F908FEA374BCD9B7C5633F857 PUSH1 0x20 CALLER SWAP3 LOG2 STOP JUMPDEST PUSH1 0x4 CALLDATALOAD SWAP1 PUSH1 0x1 PUSH1 0x1 PUSH1 0xA0 SHL SUB DUP3 AND DUP3 SUB PUSH2 0x2EC JUMPI JUMP JUMPDEST PUSH1 0x24 CALLDATALOAD SWAP1 PUSH1 0x1 PUSH1 0x1 PUSH1 0xA0 SHL SUB DUP3 AND DUP3 SUB PUSH2 0x2EC JUMPI JUMP JUMPDEST SWAP2 DUP2 PUSH1 0x1F DUP5 ADD SLT ISZERO PUSH2 0x2EC JUMPI DUP3 CALLDATALOAD SWAP2 PUSH1 0x1 PUSH1 0x1 PUSH1 0x40 SHL SUB DUP4 GT PUSH2 0x2EC JUMPI PUSH1 0x20 DUP4 DUP2 DUP7 ADD SWAP6 ADD ADD GT PUSH2 0x2EC JUMPI JUMP JUMPDEST SWAP1 PUSH1 0x40 PUSH1 0x3 NOT DUP4 ADD SLT PUSH2 0x2EC JUMPI PUSH1 0x4 CALLDATALOAD PUSH1 0x1 PUSH1 0x1 PUSH1 0xA0 SHL SUB DUP2 AND DUP2 SUB PUSH2 0x2EC JUMPI SWAP2 PUSH1 0x24 CALLDATALOAD SWAP1 PUSH1 0x1 PUSH1 0x1 PUSH1 0x40 SHL SUB DUP3 GT PUSH2 0x2EC JUMPI PUSH2 0x30CD SWAP2 PUSH1 0x4 ADD PUSH2 0x3061 JUMP JUMPDEST SWAP1 SWAP2 JUMP JUMPDEST PUSH1 0x0 JUMPDEST DUP4 DUP2 LT PUSH2 0x30E4 JUMPI POP POP PUSH1 0x0 SWAP2 ADD MSTORE JUMP JUMPDEST DUP2 DUP2 ADD MLOAD DUP4 DUP3 ADD MSTORE PUSH1 0x20 ADD PUSH2 0x30D4 JUMP JUMPDEST SWAP1 PUSH1 0x20 SWAP2 PUSH2 0x310D DUP2 MLOAD DUP1 SWAP3 DUP2 DUP6 MSTORE DUP6 DUP1 DUP7 ADD SWAP2 ADD PUSH2 0x30D1 JUMP JUMPDEST PUSH1 0x1F ADD PUSH1 0x1F NOT AND ADD ADD SWAP1 JUMP JUMPDEST SWAP1 PUSH1 0x1 DUP3 DUP2 SHR SWAP3 AND DUP1 ISZERO PUSH2 0x3149 JUMPI JUMPDEST PUSH1 0x20 DUP4 LT EQ PUSH2 0x3133 JUMPI JUMP JUMPDEST PUSH4 0x4E487B71 PUSH1 0xE0 SHL PUSH1 0x0 MSTORE PUSH1 0x22 PUSH1 0x4 MSTORE PUSH1 0x24 PUSH1 0x0 REVERT JUMPDEST SWAP2 PUSH1 0x7F AND SWAP2 PUSH2 0x3128 JUMP JUMPDEST SWAP1 PUSH1 0x0 SWAP3 SWAP2 DUP1 SLOAD SWAP2 PUSH2 0x3164 DUP4 PUSH2 0x3119 JUMP JUMPDEST SWAP2 DUP3 DUP3 MSTORE PUSH1 0x1 SWAP4 DUP5 DUP2 AND SWAP1 DUP2 PUSH1 0x0 EQ PUSH2 0x31C6 JUMPI POP PUSH1 0x1 EQ PUSH2 0x3186 JUMPI JUMPDEST POP POP POP POP JUMP JUMPDEST SWAP1 SWAP2 SWAP4 SWAP5 POP PUSH1 0x0 MSTORE PUSH1 0x20 SWAP3 DUP4 PUSH1 0x0 KECCAK256 SWAP3 DUP5 PUSH1 0x0 SWAP5 JUMPDEST DUP4 DUP7 LT PUSH2 0x31B2 JUMPI POP POP POP POP ADD ADD SWAP1 CODESIZE DUP1 DUP1 DUP1 PUSH2 0x3180 JUMP JUMPDEST DUP1 SLOAD DUP6 DUP8 ADD DUP4 ADD MSTORE SWAP5 ADD SWAP4 DUP6 SWAP1 DUP3 ADD PUSH2 0x319B JUMP JUMPDEST SWAP3 SWAP5 POP POP POP PUSH1 0x20 SWAP4 SWAP5 POP PUSH1 0xFF NOT AND DUP4 DUP4 ADD MSTORE ISZERO ISZERO PUSH1 0x5 SHL ADD ADD SWAP1 CODESIZE DUP1 DUP1 DUP1 PUSH2 0x3180 JUMP JUMPDEST PUSH1 0xC0 DUP2 ADD SWAP1 DUP2 LT PUSH1 0x1 PUSH1 0x1 PUSH1 0x40 SHL SUB DUP3 GT OR PUSH2 0x16AC JUMPI PUSH1 0x40 MSTORE JUMP JUMPDEST PUSH2 0x160 DUP2 ADD SWAP1 DUP2 LT PUSH1 0x1 PUSH1 0x1 PUSH1 0x40 SHL SUB DUP3 GT OR PUSH2 0x16AC JUMPI PUSH1 0x40 MSTORE JUMP JUMPDEST PUSH1 0x20 DUP2 ADD SWAP1 DUP2 LT PUSH1 0x1 PUSH1 0x1 PUSH1 0x40 SHL SUB DUP3 GT OR PUSH2 0x16AC JUMPI PUSH1 0x40 MSTORE JUMP JUMPDEST PUSH1 0x80 DUP2 ADD SWAP1 DUP2 LT PUSH1 0x1 PUSH1 0x1 PUSH1 0x40 SHL SUB DUP3 GT OR PUSH2 0x16AC JUMPI PUSH1 0x40 MSTORE JUMP JUMPDEST PUSH1 0x40 DUP2 ADD SWAP1 DUP2 LT PUSH1 0x1 PUSH1 0x1 PUSH1 0x40 SHL SUB DUP3 GT OR PUSH2 0x16AC JUMPI PUSH1 0x40 MSTORE JUMP JUMPDEST PUSH1 0x60 DUP2 ADD SWAP1 DUP2 LT PUSH1 0x1 PUSH1 0x1 PUSH1 0x40 SHL SUB DUP3 GT OR PUSH2 0x16AC JUMPI PUSH1 0x40 MSTORE JUMP JUMPDEST SWAP1 PUSH1 0x1F DUP1 NOT SWAP2 ADD AND DUP2 ADD SWAP1 DUP2 LT PUSH1 0x1 PUSH1 0x1 PUSH1 0x40 SHL SUB DUP3 GT OR PUSH2 0x16AC JUMPI PUSH1 0x40 MSTORE JUMP JUMPDEST SWAP1 PUSH1 0x5 DUP3 LT ISZERO PUSH2 0x10D8 JUMPI MSTORE JUMP JUMPDEST SWAP1 PUSH1 0xD DUP3 LT ISZERO PUSH2 0x10D8 JUMPI MSTORE JUMP JUMPDEST PUSH1 0x0 SLOAD PUSH1 0x1 PUSH1 0x1 PUSH1 0xA0 SHL SUB AND CALLER SUB PUSH2 0x32DB JUMPI JUMP JUMPDEST PUSH1 0x64 PUSH1 0x40 MLOAD PUSH3 0x461BCD PUSH1 0xE5 SHL DUP2 MSTORE PUSH1 0x20 PUSH1 0x4 DUP3 ADD MSTORE PUSH1 0x20 PUSH1 0x24 DUP3 ADD MSTORE PUSH32 0x4F776E61626C653A2063616C6C6572206973206E6F7420746865206F776E6572 PUSH1 0x44 DUP3 ADD MSTORE REVERT JUMPDEST DUP2 DUP2 LT PUSH2 0x332A JUMPI POP POP JUMP JUMPDEST PUSH1 0x0 DUP2 SSTORE PUSH1 0x1 ADD PUSH2 0x331F JUMP JUMPDEST SWAP2 SWAP1 PUSH1 0x1F DUP2 GT PUSH2 0x3345 JUMPI POP POP POP JUMP JUMPDEST PUSH2 0x3371 SWAP3 PUSH1 0x0 MSTORE PUSH1 0x20 PUSH1 0x0 KECCAK256 SWAP1 PUSH1 0x20 PUSH1 0x1F DUP5 ADD PUSH1 0x5 SHR DUP4 ADD SWAP4 LT PUSH2 0x3373 JUMPI JUMPDEST PUSH1 0x1F ADD PUSH1 0x5 SHR ADD SWAP1 PUSH2 0x331F JUMP JUMPDEST JUMP JUMPDEST SWAP1 SWAP2 POP DUP2 SWAP1 PUSH2 0x3364 JUMP JUMPDEST PUSH1 0x0 NOT DUP2 EQ PUSH2 0x338C JUMPI PUSH1 0x1 ADD SWAP1 JUMP JUMPDEST PUSH4 0x4E487B71 PUSH1 0xE0 SHL PUSH1 0x0 MSTORE PUSH1 0x11 PUSH1 0x4 MSTORE PUSH1 0x24 PUSH1 0x0 REVERT JUMPDEST PUSH1 0x1 PUSH1 0x1 PUSH1 0x40 SHL SUB DUP2 GT PUSH2 0x16AC JUMPI PUSH1 0x1F ADD PUSH1 0x1F NOT AND PUSH1 0x20 ADD SWAP1 JUMP JUMPDEST SWAP3 SWAP2 SWAP3 PUSH2 0x33C9 DUP3 PUSH2 0x33A2 JUMP JUMPDEST SWAP2 PUSH2 0x33D7 PUSH1 0x40 MLOAD SWAP4 DUP5 PUSH2 0x328C JUMP JUMPDEST DUP3 SWAP5 DUP2 DUP5 MSTORE DUP2 DUP4 ADD GT PUSH2 0x2EC JUMPI DUP3 DUP2 PUSH1 0x20 SWAP4 DUP5 PUSH1 0x0 SWAP7 ADD CALLDATACOPY ADD ADD MSTORE JUMP JUMPDEST ISZERO PUSH2 0x33FB JUMPI JUMP JUMPDEST PUSH1 0x40 MLOAD PUSH3 0x461BCD PUSH1 0xE5 SHL DUP2 MSTORE PUSH1 0x20 PUSH1 0x4 DUP3 ADD MSTORE PUSH1 0x16 PUSH1 0x24 DUP3 ADD MSTORE PUSH22 0x10DBDB9D1C9858DD081B9BDD081C1C9BDD1958DD1959 PUSH1 0x52 SHL PUSH1 0x44 DUP3 ADD MSTORE PUSH1 0x64 SWAP1 REVERT JUMPDEST ISZERO PUSH2 0x3440 JUMPI JUMP JUMPDEST PUSH1 0x40 MLOAD PUSH3 0x461BCD PUSH1 0xE5 SHL DUP2 MSTORE PUSH1 0x20 PUSH1 0x4 DUP3 ADD MSTORE PUSH1 0xF PUSH1 0x24 DUP3 ADD MSTORE PUSH15 0x139BC81D1A1C99585D08199BDD5B99 PUSH1 0x8A SHL PUSH1 0x44 DUP3 ADD MSTORE PUSH1 0x64 SWAP1 REVERT JUMPDEST PUSH1 0x40 MLOAD SWAP1 PUSH2 0x3484 DUP3 PUSH2 0x3256 JUMP JUMPDEST PUSH1 0x6 DUP3 MSTORE PUSH6 0x1C995D995C9D PUSH1 0xD2 SHL PUSH1 0x20 DUP4 ADD MSTORE JUMP JUMPDEST PUSH1 0x5 DUP3 LT ISZERO PUSH2 0x10D8 JUMPI MSTORE JUMP JUMPDEST PUSH1 0xD DUP3 LT ISZERO PUSH2 0x10D8 JUMPI MSTORE JUMP JUMPDEST SWAP1 PUSH1 0x40 MLOAD PUSH2 0x34BE DUP2 PUSH2 0x3204 JUMP JUMPDEST PUSH2 0x140 PUSH1 0x9 DUP3 SWAP5 PUSH1 0x1 DUP1 PUSH1 0xA0 SHL SUB DUP1 DUP3 SLOAD AND DUP6 MSTORE PUSH1 0x1 DUP3 ADD SLOAD AND PUSH1 0x20 DUP6 ADD MSTORE PUSH1 0x40 MLOAD PUSH2 0x34F1 DUP2 PUSH2 0x651 DUP2 PUSH1 0x2 DUP7 ADD PUSH2 0x3153 JUMP JUMPDEST PUSH1 0x40 DUP6 ADD MSTORE PUSH1 0x3 DUP2 ADD SLOAD PUSH1 0x60 DUP6 ADD MSTORE PUSH2 0x3526 PUSH1 0xFF PUSH1 0x4 DUP4 ADD SLOAD PUSH2 0x3519 DUP3 DUP3 AND PUSH1 0x80 DUP10 ADD PUSH2 0x3499 JUMP JUMPDEST PUSH1 0x8 SHR AND PUSH1 0xA0 DUP7 ADD PUSH2 0x34A5 JUMP JUMPDEST PUSH1 0x40 MLOAD PUSH2 0x353A DUP2 PUSH2 0x651 DUP2 PUSH1 0x5 DUP7 ADD PUSH2 0x3153 JUMP JUMPDEST PUSH1 0xC0 DUP6 ADD MSTORE PUSH1 0x6 DUP2 ADD SLOAD PUSH1 0xE0 DUP6 ADD MSTORE PUSH1 0xFF PUSH1 0x7 DUP3 ADD SLOAD AND ISZERO ISZERO PUSH2 0x100 DUP6 ADD MSTORE PUSH1 0x40 MLOAD PUSH2 0x356D DUP2 PUSH2 0x651 DUP2 PUSH1 0x8 DUP7 ADD PUSH2 0x3153 JUMP JUMPDEST PUSH2 0x120 DUP6 ADD MSTORE ADD SLOAD SWAP2 ADD MSTORE JUMP JUMPDEST PUSH1 0x0 SWAP3 SWAP2 DUP2 SLOAD PUSH2 0x3589 DUP2 PUSH2 0x3119 JUMP JUMPDEST SWAP3 PUSH1 0x1 SWAP2 DUP1 DUP4 AND SWAP1 DUP2 ISZERO PUSH2 0x35E1 JUMPI POP PUSH1 0x1 EQ PUSH2 0x35A5 JUMPI POP POP POP POP JUMP JUMPDEST SWAP1 SWAP2 SWAP3 SWAP4 SWAP5 POP PUSH1 0x0 MSTORE PUSH1 0x20 SWAP1 DUP2 PUSH1 0x0 KECCAK256 SWAP1 PUSH1 0x0 SWAP2 JUMPDEST DUP6 DUP4 LT PUSH2 0x35D0 JUMPI POP POP POP POP ADD SWAP1 CODESIZE DUP1 DUP1 DUP1 PUSH2 0x3180 JUMP JUMPDEST DUP1 SLOAD DUP6 DUP5 ADD MSTORE SWAP2 DUP4 ADD SWAP2 DUP2 ADD PUSH2 0x35BA JUMP JUMPDEST PUSH1 0xFF NOT AND DUP5 MSTORE POP POP POP DUP2 ISZERO ISZERO SWAP1 SWAP2 MUL ADD SWAP2 POP CODESIZE DUP1 DUP1 DUP1 PUSH2 0x3180 JUMP JUMPDEST RETURNDATASIZE ISZERO PUSH2 0x3627 JUMPI RETURNDATASIZE SWAP1 PUSH2 0x360D DUP3 PUSH2 0x33A2 JUMP JUMPDEST SWAP2 PUSH2 0x361B PUSH1 0x40 MLOAD SWAP4 DUP5 PUSH2 0x328C JUMP JUMPDEST DUP3 MSTORE RETURNDATASIZE PUSH1 0x0 PUSH1 0x20 DUP5 ADD RETURNDATACOPY JUMP JUMPDEST PUSH1 0x60 SWAP1 JUMP JUMPDEST ISZERO PUSH2 0x3633 JUMPI JUMP JUMPDEST PUSH1 0x40 MLOAD PUSH3 0x461BCD PUSH1 0xE5 SHL DUP2 MSTORE PUSH1 0x20 PUSH1 0x4 DUP3 ADD MSTORE PUSH1 0x11 PUSH1 0x24 DUP3 ADD MSTORE PUSH17 0x125B9D985B1A59081D1A1C995CDA1BDB19 PUSH1 0x7A SHL PUSH1 0x44 DUP3 ADD MSTORE PUSH1 0x64 SWAP1 REVERT JUMPDEST DUP2 DUP2 MUL SWAP3 SWAP2 DUP2 ISZERO SWAP2 DUP5 DIV EQ OR ISZERO PUSH2 0x338C JUMPI JUMP JUMPDEST DUP1 MLOAD ISZERO PUSH2 0x1FDD JUMPI PUSH1 0x20 ADD SWAP1 JUMP JUMPDEST DUP1 MLOAD PUSH1 0x1 LT ISZERO PUSH2 0x1FDD JUMPI PUSH1 0x40 ADD SWAP1 JUMP JUMPDEST DUP1 MLOAD PUSH1 0x2 LT ISZERO PUSH2 0x1FDD JUMPI PUSH1 0x60 ADD SWAP1 JUMP JUMPDEST DUP1 MLOAD PUSH1 0x3 LT ISZERO PUSH2 0x1FDD JUMPI PUSH1 0x80 ADD SWAP1 JUMP JUMPDEST DUP1 MLOAD PUSH1 0x4 LT ISZERO PUSH2 0x1FDD JUMPI PUSH1 0xA0 ADD SWAP1 JUMP JUMPDEST DUP1 MLOAD PUSH1 0x5 LT ISZERO PUSH2 0x1FDD JUMPI PUSH1 0xC0 ADD SWAP1 JUMP JUMPDEST DUP1 MLOAD PUSH1 0x6 LT ISZERO PUSH2 0x1FDD JUMPI PUSH1 0xE0 ADD SWAP1 JUMP JUMPDEST DUP1 MLOAD PUSH1 0x7 LT ISZERO PUSH2 0x1FDD JUMPI PUSH2 0x100 ADD SWAP1 JUMP JUMPDEST DUP1 MLOAD PUSH1 0x8 LT ISZERO PUSH2 0x1FDD JUMPI PUSH2 0x120 ADD SWAP1 JUMP JUMPDEST DUP1 MLOAD PUSH1 0x9 LT ISZERO PUSH2 0x1FDD JUMPI PUSH2 0x140 ADD SWAP1 JUMP JUMPDEST DUP1 MLOAD DUP3 LT ISZERO PUSH2 0x1FDD JUMPI PUSH1 0x20 SWAP2 PUSH1 0x5 SHL ADD ADD SWAP1 JUMP JUMPDEST SWAP2 EXTCODESIZE ISZERO PUSH2 0x3744 JUMPI PUSH1 0x4 DUP2 LT ISZERO PUSH2 0x374B JUMPI JUMPDEST POP POP PUSH1 0x0 SWAP1 JUMP JUMPDEST PUSH1 0x4 GT PUSH2 0x2EC JUMPI PUSH1 0x40 MLOAD SWAP1 CALLDATALOAD PUSH1 0x1 PUSH1 0x1 PUSH1 0xE0 SHL SUB NOT SWAP1 DUP2 AND SWAP1 PUSH2 0x376D DUP4 PUSH2 0x3204 JUMP JUMPDEST PUSH1 0xA DUP4 MSTORE PUSH2 0x140 CALLDATASIZE PUSH1 0x20 DUP6 ADD CALLDATACOPY PUSH4 0xA9059CBB PUSH1 0xE0 SHL PUSH2 0x378B DUP5 PUSH2 0x367F JUMP JUMPDEST MSTORE PUSH4 0x95EA7B3 PUSH1 0xE0 SHL PUSH2 0x379D DUP5 PUSH2 0x368C JUMP JUMPDEST MSTORE PUSH4 0x23B872DD PUSH1 0xE0 SHL PUSH2 0x37AF DUP5 PUSH2 0x369C JUMP JUMPDEST MSTORE PUSH4 0x40C10F19 PUSH1 0xE0 SHL PUSH2 0x37C1 DUP5 PUSH2 0x36AC JUMP JUMPDEST MSTORE PUSH4 0x2770A7EB PUSH1 0xE2 SHL PUSH2 0x37D3 DUP5 PUSH2 0x36BC JUMP JUMPDEST MSTORE PUSH4 0x852CD8D PUSH1 0xE3 SHL PUSH2 0x37E5 DUP5 PUSH2 0x36CC JUMP JUMPDEST MSTORE PUSH4 0x79CC679 PUSH1 0xE4 SHL PUSH2 0x37F7 DUP5 PUSH2 0x36DC JUMP JUMPDEST MSTORE PUSH4 0x40E58EE5 PUSH1 0xE0 SHL PUSH2 0x3809 DUP5 PUSH2 0x36EC JUMP JUMPDEST MSTORE PUSH4 0x2E1A7D4D PUSH1 0xE0 SHL PUSH2 0x381B DUP5 PUSH2 0x36FD JUMP JUMPDEST MSTORE PUSH4 0x3CCFD60B PUSH1 0xE0 SHL PUSH2 0x382D DUP5 PUSH2 0x370E JUMP JUMPDEST MSTORE PUSH1 0x0 JUMPDEST DUP4 MLOAD DUP2 LT ISZERO PUSH2 0x3864 JUMPI DUP2 PUSH2 0x3845 DUP3 DUP7 PUSH2 0x371F JUMP JUMPDEST MLOAD AND DUP4 EQ PUSH2 0x385B JUMPI PUSH2 0x3856 SWAP1 PUSH2 0x337D JUMP JUMPDEST PUSH2 0x3831 JUMP JUMPDEST POP POP POP POP PUSH1 0x1 SWAP1 JUMP JUMPDEST POP POP POP POP CODESIZE DUP1 PUSH2 0x3744 JUMP JUMPDEST DUP1 EXTCODESIZE ISZERO ISZERO SWAP1 DUP2 PUSH2 0x38C9 JUMPI JUMPDEST DUP2 PUSH2 0x38B5 JUMPI JUMPDEST POP PUSH2 0x38AF JUMPI PUSH8 0x8AC7230489E80000 LT DUP1 PUSH2 0x38A3 JUMPI JUMPDEST PUSH2 0x389E JUMPI PUSH1 0x0 SWAP1 JUMP JUMPDEST PUSH1 0x1 SWAP1 JUMP JUMPDEST POP PUSH3 0x186A0 GAS LT PUSH2 0x3895 JUMP JUMPDEST POP PUSH1 0x1 SWAP1 JUMP JUMPDEST PUSH1 0x1 PUSH1 0x1 PUSH1 0xA0 SHL SUB AND ORIGIN EQ ISZERO SWAP1 POP CODESIZE PUSH2 0x3880 JUMP JUMPDEST DUP1 SWAP2 POP BALANCE PUSH1 0x12 SLOAD GT SWAP1 PUSH2 0x387A JUMP JUMPDEST PUSH1 0x1 PUSH1 0x1 PUSH1 0xA0 SHL SUB AND PUSH1 0x0 DUP2 DUP2 MSTORE PUSH1 0x6 PUSH1 0x20 MSTORE PUSH1 0x40 DUP2 KECCAK256 DUP1 SLOAD SWAP1 SWAP3 SWAP1 NUMBER SUB PUSH2 0x3925 JUMPI PUSH1 0x40 SWAP3 POP DUP1 DUP3 MSTORE PUSH1 0x5 PUSH1 0x20 MSTORE DUP3 DUP3 KECCAK256 PUSH2 0x3912 DUP2 SLOAD PUSH2 0x337D JUMP JUMPDEST SWAP1 SSTORE DUP2 MSTORE PUSH1 0x5 PUSH1 0x20 MSTORE KECCAK256 SLOAD PUSH1 0x14 SLOAD GT ISZERO SWAP1 JUMP JUMPDEST POP SWAP1 NUMBER SWAP1 SSTORE PUSH1 0x5 PUSH1 0x20 MSTORE PUSH1 0x1 PUSH1 0x40 DUP3 KECCAK256 SSTORE SWAP1 JUMP JUMPDEST SWAP2 ISZERO ISZERO DUP1 PUSH2 0x396A JUMPI JUMPDEST PUSH2 0x394D JUMPI POP POP PUSH1 0x0 SWAP1 JUMP JUMPDEST PUSH1 0x4 GT PUSH2 0x2EC JUMPI CALLDATALOAD PUSH1 0x1 PUSH1 0x1 PUSH1 0xE0 SHL SUB NOT AND PUSH2 0x389E JUMPI CODESIZE DUP1 PUSH2 0x3744 JUMP JUMPDEST POP DUP1 ISZERO ISZERO PUSH2 0x3942 JUMP JUMPDEST SWAP1 PUSH1 0x4 DUP2 LT ISZERO PUSH2 0x3984 JUMPI POP POP PUSH1 0x0 SWAP1 JUMP JUMPDEST PUSH1 0x4 GT PUSH2 0x2EC JUMPI PUSH1 0x1 PUSH1 0x1 PUSH1 0xE0 SHL SUB NOT SWAP1 CALLDATALOAD AND PUSH4 0x5C60DA1B PUSH1 0xE0 SHL DUP2 EQ SWAP1 DUP2 ISZERO PUSH2 0x39FD JUMPI JUMPDEST DUP2 ISZERO PUSH2 0x39EC JUMPI JUMPDEST DUP2 ISZERO PUSH2 0x39DB JUMPI JUMPDEST DUP2 ISZERO PUSH2 0x39CA JUMPI JUMPDEST POP PUSH2 0x389E JUMPI CODESIZE DUP1 PUSH2 0x3744 JUMP JUMPDEST PUSH4 0x3E14691 PUSH1 0xE6 SHL EQ SWAP1 POP CODESIZE PUSH2 0x39BE JUMP JUMPDEST PUSH4 0x8F28397 PUSH1 0xE4 SHL DUP2 EQ SWAP2 POP PUSH2 0x39B7 JUMP JUMPDEST PUSH4 0x278F7943 PUSH1 0xE1 SHL DUP2 EQ SWAP2 POP PUSH2 0x39B0 JUMP JUMPDEST PUSH4 0x1B2CE7F3 PUSH1 0xE1 SHL DUP2 EQ SWAP2 POP PUSH2 0x39A9 JUMP JUMPDEST SWAP1 PUSH1 0x4 DUP2 LT ISZERO PUSH2 0x3A1F JUMPI POP POP PUSH1 0x0 SWAP1 JUMP JUMPDEST PUSH1 0x4 GT PUSH2 0x2EC JUMPI PUSH1 0x40 MLOAD SWAP1 CALLDATALOAD PUSH1 0x1 PUSH1 0x1 PUSH1 0xE0 SHL SUB NOT SWAP1 DUP2 AND SWAP1 PUSH2 0x120 DUP4 ADD PUSH1 0x1 PUSH1 0x1 PUSH1 0x40 SHL SUB DUP2 GT DUP5 DUP3 LT OR PUSH2 0x16AC JUMPI PUSH1 0x40 MSTORE PUSH1 0x8 DUP4 MSTORE PUSH2 0x100 CALLDATASIZE PUSH1 0x20 DUP6 ADD CALLDATACOPY PUSH4 0xF2FDE38B PUSH1 0xE0 SHL PUSH2 0x3A70 DUP5 PUSH2 0x367F JUMP JUMPDEST MSTORE PUSH4 0x8DA5CB5B PUSH1 0xE0 SHL PUSH2 0x3A82 DUP5 PUSH2 0x368C JUMP JUMPDEST MSTORE PUSH4 0xA6F9DAE1 PUSH1 0xE0 SHL PUSH2 0x3A94 DUP5 PUSH2 0x369C JUMP JUMPDEST MSTORE PUSH4 0x3CEBB823 PUSH1 0xE0 SHL PUSH2 0x3AA6 DUP5 PUSH2 0x36AC JUMP JUMPDEST MSTORE PUSH4 0x3825B601 PUSH1 0xE1 SHL PUSH2 0x3AB8 DUP5 PUSH2 0x36BC JUMP JUMPDEST MSTORE PUSH4 0x40C10F19 PUSH1 0xE0 SHL PUSH2 0x3ACA DUP5 PUSH2 0x36CC JUMP JUMPDEST MSTORE PUSH4 0x852CD8D PUSH1 0xE3 SHL PUSH2 0x3ADC DUP5 PUSH2 0x36DC JUMP JUMPDEST MSTORE PUSH4 0x2770A7EB PUSH1 0xE2 SHL PUSH2 0x3AEE DUP5 PUSH2 0x36EC JUMP JUMPDEST MSTORE PUSH1 0x0 JUMPDEST DUP4 MLOAD DUP2 LT ISZERO PUSH2 0x3864 JUMPI DUP2 PUSH2 0x3B06 DUP3 DUP7 PUSH2 0x371F JUMP JUMPDEST MLOAD AND DUP4 EQ PUSH2 0x385B JUMPI PUSH2 0x3B17 SWAP1 PUSH2 0x337D JUMP JUMPDEST PUSH2 0x3AF2 JUMP JUMPDEST PUSH1 0x1 PUSH1 0x1 PUSH1 0xA0 SHL SUB AND PUSH1 0x0 DUP2 DUP2 MSTORE PUSH1 0x6 PUSH1 0x20 MSTORE PUSH1 0x40 DUP2 KECCAK256 SLOAD SWAP1 SWAP2 SWAP1 NUMBER EQ PUSH2 0x3B41 JUMPI POP SWAP1 JUMP JUMPDEST PUSH1 0x3 SWAP2 PUSH1 0x40 SWAP2 PUSH1 0x5 PUSH1 0x20 MSTORE DUP3 DUP3 KECCAK256 PUSH2 0x3B59 DUP2 SLOAD PUSH2 0x337D JUMP JUMPDEST SWAP1 SSTORE DUP2 MSTORE PUSH1 0x5 PUSH1 0x20 MSTORE KECCAK256 SLOAD GT SWAP1 JUMP JUMPDEST SWAP2 PUSH1 0x24 DUP2 LT PUSH2 0x3C02 JUMPI PUSH1 0x4 GT PUSH2 0x2EC JUMPI PUSH1 0x1 PUSH1 0x1 PUSH1 0xE0 SHL SUB NOT DUP2 CALLDATALOAD AND PUSH4 0x2E1A7D4D PUSH1 0xE0 SHL DUP2 EQ SWAP1 DUP2 ISZERO PUSH2 0x3BF1 JUMPI JUMPDEST POP PUSH2 0x3BA2 JUMPI POP POP PUSH1 0x0 SWAP1 JUMP JUMPDEST PUSH1 0x4 ADD CALLDATALOAD SWAP1 PUSH1 0x1 DUP1 PUSH1 0xA0 SHL SUB AND PUSH1 0x0 MSTORE PUSH1 0xA PUSH1 0x20 MSTORE PUSH1 0x40 PUSH1 0x0 KECCAK256 SLOAD DUP1 ISZERO ISZERO SWAP1 DUP2 PUSH2 0x3BDB JUMPI JUMPDEST POP PUSH2 0x38AF JUMPI PUSH1 0x17 SLOAD LT PUSH2 0x389E JUMPI CODESIZE DUP1 PUSH2 0x3744 JUMP JUMPDEST PUSH2 0x3BE9 SWAP2 POP PUSH1 0x16 SLOAD SWAP1 PUSH2 0x366C JUMP JUMPDEST DUP2 GT CODESIZE PUSH2 0x3BC7 JUMP JUMPDEST PUSH4 0xB0FD035B PUSH1 0xE0 SHL EQ SWAP1 POP CODESIZE PUSH2 0x3B96 JUMP JUMPDEST POP POP POP PUSH1 0x0 SWAP1 JUMP JUMPDEST SWAP2 SWAP1 DUP3 SUB SWAP2 DUP3 GT PUSH2 0x338C JUMPI JUMP JUMPDEST PUSH1 0x1 PUSH1 0x1 PUSH1 0xA0 SHL SUB AND PUSH1 0x0 SWAP1 DUP2 MSTORE PUSH1 0xD PUSH1 0x20 MSTORE PUSH1 0x40 SWAP1 KECCAK256 SLOAD DUP1 ISZERO ISZERO SWAP1 DUP2 PUSH2 0x3C43 JUMPI JUMPDEST POP PUSH2 0x389E JUMPI PUSH1 0x0 SWAP1 JUMP JUMPDEST PUSH2 0x3C4E SWAP2 POP TIMESTAMP PUSH2 0x3C0A JUMP JUMPDEST PUSH1 0x18 SLOAD SWAP1 PUSH1 0xC DUP3 MUL SWAP2 DUP1 DUP4 DIV PUSH1 0xC EQ SWAP1 ISZERO OR ISZERO PUSH2 0x338C JUMPI LT CODESIZE PUSH2 0x3C39 JUMP JUMPDEST SWAP2 PUSH1 0x4 SWAP2 DUP3 DUP2 LT PUSH2 0x3E50 JUMPI DUP3 GT PUSH2 0x2EC JUMPI PUSH1 0x40 MLOAD SWAP3 CALLDATALOAD PUSH1 0x1 PUSH1 0x1 PUSH1 0xE0 SHL SUB NOT SWAP1 DUP2 AND SWAP1 PUSH2 0x1A0 DUP6 ADD PUSH1 0x1 PUSH1 0x1 PUSH1 0x40 SHL SUB DUP2 GT DUP7 DUP3 LT OR PUSH2 0x3E3B JUMPI PUSH1 0x40 MSTORE PUSH1 0xC DUP6 MSTORE PUSH2 0x180 DUP1 CALLDATASIZE PUSH1 0x20 DUP9 ADD CALLDATACOPY PUSH4 0xF2FDE38B PUSH1 0xE0 SHL PUSH2 0x3CC8 DUP8 PUSH2 0x367F JUMP JUMPDEST MSTORE PUSH4 0xA6F9DAE1 PUSH1 0xE0 SHL PUSH2 0x3CDA DUP8 PUSH2 0x368C JUMP JUMPDEST MSTORE PUSH4 0x3CEBB823 PUSH1 0xE0 SHL PUSH2 0x3CEC DUP8 PUSH2 0x369C JUMP JUMPDEST MSTORE PUSH4 0x3825B601 PUSH1 0xE1 SHL PUSH2 0x3CFE DUP8 PUSH2 0x36AC JUMP JUMPDEST MSTORE PUSH4 0x40C10F19 PUSH1 0xE0 SHL PUSH2 0x3D10 DUP8 PUSH2 0x36BC JUMP JUMPDEST MSTORE PUSH4 0x852CD8D PUSH1 0xE3 SHL PUSH2 0x3D22 DUP8 PUSH2 0x36CC JUMP JUMPDEST MSTORE PUSH4 0x2770A7EB PUSH1 0xE2 SHL PUSH2 0x3D34 DUP8 PUSH2 0x36DC JUMP JUMPDEST MSTORE PUSH4 0x1B2CE7F3 PUSH1 0xE1 SHL PUSH2 0x3D46 DUP8 PUSH2 0x36EC JUMP JUMPDEST MSTORE PUSH4 0x278F7943 PUSH1 0xE1 SHL PUSH2 0x3D58 DUP8 PUSH2 0x36FD JUMP JUMPDEST MSTORE PUSH4 0x8F28397 PUSH1 0xE4 SHL PUSH2 0x3D6A DUP8 PUSH2 0x370E JUMP JUMPDEST MSTORE DUP6 MLOAD PUSH1 0xA LT ISZERO PUSH2 0x3E26 JUMPI PUSH4 0x5C60DA1B PUSH1 0xE0 SHL PUSH2 0x160 DUP8 ADD MSTORE DUP6 MLOAD PUSH1 0xB LT ISZERO PUSH2 0x3E26 JUMPI PUSH4 0x3E14691 PUSH1 0xE6 SHL SWAP1 DUP7 ADD MSTORE PUSH1 0x0 JUMPDEST DUP6 MLOAD DUP2 LT ISZERO PUSH2 0x3E1B JUMPI DUP2 PUSH2 0x3DB0 DUP3 DUP9 PUSH2 0x371F JUMP JUMPDEST MLOAD AND DUP4 EQ PUSH2 0x3DC7 JUMPI JUMPDEST PUSH2 0x3DC2 SWAP1 PUSH2 0x337D JUMP JUMPDEST PUSH2 0x3D9C JUMP JUMPDEST DUP4 EXTCODESIZE PUSH2 0x3E10 JUMPI PUSH1 0x15 SLOAD PUSH1 0x1 SWAP1 DUP1 DUP3 SHL SWAP1 DUP1 DUP3 DIV PUSH1 0x2 EQ SWAP1 ISZERO OR ISZERO PUSH2 0x3DFB JUMPI GASPRICE GT PUSH2 0x3DF1 JUMPI POP PUSH2 0x3DB9 JUMP JUMPDEST SWAP6 POP POP POP POP POP POP SWAP1 JUMP JUMPDEST PUSH1 0x11 DUP8 PUSH4 0x4E487B71 PUSH1 0xE0 SHL PUSH1 0x0 MSTORE MSTORE PUSH1 0x24 PUSH1 0x0 REVERT JUMPDEST POP POP POP POP POP POP PUSH1 0x1 SWAP1 JUMP JUMPDEST POP POP POP POP POP POP PUSH1 0x0 SWAP1 JUMP JUMPDEST PUSH1 0x32 DUP6 PUSH4 0x4E487B71 PUSH1 0xE0 SHL PUSH1 0x0 MSTORE MSTORE PUSH1 0x24 PUSH1 0x0 REVERT JUMPDEST PUSH1 0x41 DUP6 PUSH4 0x4E487B71 PUSH1 0xE0 SHL PUSH1 0x0 MSTORE MSTORE PUSH1 0x24 PUSH1 0x0 REVERT JUMPDEST POP POP POP POP PUSH1 0x0 SWAP1 JUMP JUMPDEST SWAP2 SWAP1 DUP3 ADD DUP1 SWAP3 GT PUSH2 0x338C JUMPI JUMP JUMPDEST DUP2 ISZERO PUSH2 0x3E70 JUMPI DIV SWAP1 JUMP JUMPDEST PUSH4 0x4E487B71 PUSH1 0xE0 SHL PUSH1 0x0 MSTORE PUSH1 0x12 PUSH1 0x4 MSTORE PUSH1 0x24 PUSH1 0x0 REVERT JUMPDEST SWAP4 SWAP1 SWAP3 PUSH1 0x4 DUP4 LT PUSH2 0x405E JUMPI DUP3 PUSH1 0x4 GT PUSH2 0x2EC JUMPI DUP4 CALLDATALOAD PUSH1 0x1 PUSH1 0x1 PUSH1 0xE0 SHL SUB NOT AND SWAP2 PUSH4 0xD0E30DB PUSH1 0xE4 SHL DUP4 EQ DUP1 PUSH2 0x4055 JUMPI JUMPDEST PUSH2 0x3F1F JUMPI JUMPDEST POP POP PUSH4 0x2E1A7D4D PUSH1 0xE0 SHL DUP2 EQ SWAP1 DUP2 ISZERO PUSH2 0x3F0E JUMPI JUMPDEST POP PUSH2 0x3ED9 JUMPI POP POP POP JUMP JUMPDEST PUSH1 0x24 GT ISZERO PUSH2 0x3EE5 JUMPI POP POP JUMP JUMPDEST PUSH1 0x4 SWAP2 PUSH1 0x1 DUP1 PUSH1 0xA0 SHL SUB AND PUSH1 0x0 MSTORE PUSH1 0xC PUSH1 0x20 MSTORE ADD CALLDATALOAD PUSH1 0x40 PUSH1 0x0 KECCAK256 SSTORE PUSH1 0xD PUSH1 0x20 MSTORE TIMESTAMP PUSH1 0x40 PUSH1 0x0 KECCAK256 SSTORE JUMP JUMPDEST PUSH4 0xB0FD035B PUSH1 0xE0 SHL EQ SWAP1 POP CODESIZE PUSH2 0x3ECF JUMP JUMPDEST PUSH1 0x1 DUP1 PUSH1 0xA0 SHL SUB SWAP1 DUP2 DUP8 AND SWAP3 PUSH1 0x0 SWAP2 DUP5 DUP4 MSTORE PUSH1 0x20 SWAP1 PUSH1 0xB DUP3 MSTORE PUSH1 0x40 SWAP5 DUP6 DUP6 KECCAK256 PUSH2 0x3F48 DUP2 SLOAD PUSH2 0x337D JUMP JUMPDEST SWAP1 SSTORE DUP7 DUP6 MSTORE PUSH1 0xA DUP4 MSTORE DUP6 DUP6 KECCAK256 SLOAD PUSH1 0xB DUP5 MSTORE DUP7 DUP7 KECCAK256 SLOAD PUSH1 0x0 NOT SWAP3 SWAP2 DUP4 DUP3 ADD SWAP2 DUP3 GT PUSH2 0x4041 JUMPI DUP5 PUSH2 0x3F7D PUSH2 0x3F93 SWAP4 PUSH2 0x3F82 SWAP4 PUSH2 0x366C JUMP JUMPDEST PUSH2 0x3E59 JUMP JUMPDEST DUP10 DUP9 MSTORE PUSH1 0xB DUP7 MSTORE DUP9 DUP9 KECCAK256 SLOAD SWAP1 PUSH2 0x3E66 JUMP JUMPDEST DUP9 DUP8 MSTORE PUSH1 0xA DUP6 MSTORE DUP8 DUP8 KECCAK256 SSTORE PUSH1 0x9 DUP5 MSTORE DUP7 DUP7 KECCAK256 SWAP5 AND SWAP4 DUP5 DUP7 MSTORE DUP4 MSTORE DUP6 DUP6 KECCAK256 PUSH2 0x3FBA DUP2 SLOAD PUSH2 0x337D JUMP JUMPDEST SWAP1 SSTORE DUP7 DUP6 MSTORE PUSH1 0x8 DUP4 MSTORE DUP6 DUP6 KECCAK256 DUP5 DUP7 MSTORE DUP4 MSTORE DUP6 DUP6 KECCAK256 SLOAD DUP8 DUP7 MSTORE PUSH1 0x9 DUP5 MSTORE DUP7 DUP7 KECCAK256 DUP6 DUP8 MSTORE DUP5 MSTORE DUP7 DUP7 KECCAK256 SLOAD SWAP2 DUP3 ADD SWAP2 DUP3 GT PUSH2 0x402D JUMPI SWAP2 PUSH2 0x3F7D PUSH2 0x3FFD SWAP3 PUSH2 0x4016 SWAP5 PUSH2 0x366C JUMP JUMPDEST DUP7 DUP6 MSTORE PUSH1 0x9 DUP4 MSTORE DUP6 DUP6 KECCAK256 DUP5 DUP7 MSTORE DUP4 MSTORE DUP6 DUP6 KECCAK256 SLOAD SWAP1 PUSH2 0x3E66 JUMP JUMPDEST SWAP5 DUP4 MSTORE PUSH1 0x8 DUP2 MSTORE DUP4 DUP4 KECCAK256 SWAP2 DUP4 MSTORE MSTORE KECCAK256 SSTORE CODESIZE DUP1 PUSH2 0x3EBB JUMP JUMPDEST PUSH4 0x4E487B71 PUSH1 0xE0 SHL DUP7 MSTORE PUSH1 0x11 PUSH1 0x4 MSTORE PUSH1 0x24 DUP7 REVERT JUMPDEST PUSH4 0x4E487B71 PUSH1 0xE0 SHL DUP9 MSTORE PUSH1 0x11 PUSH1 0x4 MSTORE PUSH1 0x24 DUP9 REVERT JUMPDEST POP DUP1 ISZERO ISZERO PUSH2 0x3EB6 JUMP JUMPDEST POP POP POP POP POP JUMP JUMPDEST SWAP2 PUSH1 0x24 GT PUSH2 0x4124 JUMPI DUP2 BALANCE SWAP1 PUSH1 0x4 ADD CALLDATALOAD PUSH1 0x0 DUP2 DUP4 GT ISZERO PUSH2 0x411F JUMPI POP PUSH2 0x4089 DUP2 DUP4 PUSH2 0x3C0A JUMP JUMPDEST PUSH1 0x1 PUSH1 0x1 PUSH1 0xA0 SHL SUB SWAP1 SWAP4 AND PUSH1 0x0 SWAP1 DUP2 MSTORE PUSH1 0xA PUSH1 0x20 MSTORE PUSH1 0x40 SWAP1 KECCAK256 SLOAD DUP1 ISZERO DUP1 ISZERO SWAP2 SWAP1 DUP3 DUP1 PUSH2 0x410B JUMPI JUMPDEST ISZERO PUSH2 0x40C0 JUMPI POP POP POP PUSH1 0x3 SWAP2 LT ISZERO SWAP3 JUMP JUMPDEST DUP3 PUSH2 0x40EF JUMPI JUMPDEST POP POP ISZERO PUSH2 0x40D5 JUMPI PUSH1 0x2 SWAP2 LT ISZERO SWAP3 JUMP JUMPDEST PUSH1 0x17 SLOAD DUP2 GT ISZERO PUSH2 0x40E7 JUMPI PUSH1 0x4 SWAP2 LT ISZERO SWAP3 JUMP JUMPDEST PUSH1 0x1 SWAP2 LT ISZERO SWAP3 JUMP JUMPDEST SWAP1 SWAP2 POP PUSH1 0x5 DUP3 MUL SWAP2 DUP3 DIV PUSH1 0x5 EQ OR ISZERO PUSH2 0x338C JUMPI DUP2 GT CODESIZE DUP1 PUSH2 0x40C6 JUMP JUMPDEST POP PUSH2 0x4118 PUSH1 0x16 SLOAD DUP4 PUSH2 0x366C JUMP JUMPDEST DUP5 GT PUSH2 0x40B0 JUMP JUMPDEST PUSH2 0x4089 JUMP JUMPDEST POP POP PUSH1 0x0 SWAP1 PUSH1 0x0 SWAP1 PUSH1 0x0 SWAP1 JUMP JUMPDEST PUSH1 0x1A SLOAD SWAP1 SWAP2 SWAP1 PUSH1 0x1 PUSH1 0x1 PUSH1 0xA0 SHL SUB SWAP1 DUP2 AND DUP1 ISZERO PUSH2 0x3180 JUMPI PUSH1 0x20 SWAP1 PUSH1 0x40 MLOAD PUSH2 0x417F DUP2 PUSH2 0xD77 DUP6 DUP3 ADD SWAP5 TIMESTAMP DUP11 DUP8 SWAP2 PUSH1 0x54 SWAP4 SWAP2 DUP4 MSTORE PUSH1 0x20 DUP4 ADD MSTORE PUSH1 0x1 PUSH1 0x1 PUSH1 0x60 SHL SUB NOT SWAP1 PUSH1 0x60 SHL AND PUSH1 0x40 DUP3 ADD MSTORE ADD SWAP1 JUMP JUMPDEST MLOAD SWAP1 KECCAK256 SWAP3 ADD MLOAD AND SWAP2 PUSH32 0x70AFDC8E41469E3529709D2C5289CA9593A88F93EE8D999B31A9E9FBF1558478 PUSH1 0x0 DUP1 LOG4 JUMP JUMPDEST SWAP1 PUSH1 0x0 SWAP2 DUP3 MSTORE PUSH1 0x3 SWAP2 PUSH1 0x20 DUP4 DUP2 MSTORE PUSH1 0x40 DUP3 KECCAK256 SWAP4 PUSH1 0x1 DUP1 PUSH1 0xA0 SHL SUB DUP1 DUP6 MLOAD AND SWAP1 PUSH1 0x1 PUSH1 0x1 PUSH1 0x60 SHL SUB PUSH1 0xA0 SHL SWAP2 DUP3 DUP9 SLOAD AND OR DUP8 SSTORE PUSH1 0x1 SWAP2 DUP3 DUP9 ADD SWAP2 DUP6 DUP9 ADD MLOAD AND SWAP1 DUP3 SLOAD AND OR SWAP1 SSTORE PUSH1 0x2 DUP7 ADD SWAP3 PUSH1 0x40 DUP7 ADD MLOAD SWAP4 DUP5 MLOAD PUSH1 0x1 PUSH1 0x1 PUSH1 0x40 SHL SUB SWAP6 DUP7 DUP3 GT PUSH2 0x445A JUMPI DUP2 SWAP1 PUSH2 0x4226 DUP3 PUSH2 0x4220 DUP7 SLOAD PUSH2 0x3119 JUMP JUMPDEST DUP7 PUSH2 0x3336 JUMP JUMPDEST DUP5 SWAP1 PUSH1 0x1F DUP4 GT PUSH1 0x1 EQ PUSH2 0x44A1 JUMPI DUP10 SWAP3 PUSH2 0x4496 JUMPI JUMPDEST POP POP PUSH1 0x0 NOT DUP3 DUP8 SHL SHR NOT AND SWAP1 DUP5 SHL OR SWAP1 SSTORE JUMPDEST PUSH1 0x60 DUP7 ADD MLOAD DUP4 DUP9 ADD SSTORE PUSH1 0x4 DUP8 ADD PUSH1 0x80 DUP8 ADD MLOAD PUSH1 0x5 DUP2 LT ISZERO PUSH2 0x4482 JUMPI DUP2 SLOAD PUSH1 0xA0 DUP10 ADD MLOAD PUSH1 0xD DUP2 LT ISZERO PUSH2 0x446E JUMPI PUSH2 0xFF00 PUSH1 0xFF SWAP2 PUSH1 0x8 SHL AND SWAP3 AND SWAP1 PUSH2 0xFFFF NOT AND OR OR SWAP1 SSTORE PUSH1 0x5 DUP8 ADD PUSH1 0xC0 DUP8 ADD MLOAD DUP1 MLOAD SWAP1 DUP7 DUP3 GT PUSH2 0x445A JUMPI DUP2 SWAP1 PUSH2 0x42B0 DUP3 PUSH2 0x4220 DUP7 SLOAD PUSH2 0x3119 JUMP JUMPDEST DUP5 SWAP1 PUSH1 0x1F DUP4 GT PUSH1 0x1 EQ PUSH2 0x43FC JUMPI DUP10 SWAP3 PUSH2 0x43F1 JUMPI JUMPDEST POP POP PUSH1 0x0 NOT DUP3 DUP8 SHL SHR NOT AND SWAP1 DUP5 SHL OR SWAP1 SSTORE JUMPDEST PUSH1 0xE0 DUP7 ADD MLOAD PUSH1 0x6 DUP9 ADD SSTORE PUSH2 0x4300 PUSH2 0x100 DUP8 ADD MLOAD ISZERO ISZERO PUSH1 0x7 DUP10 ADD SWAP1 PUSH1 0xFF DUP1 NOT DUP4 SLOAD AND SWAP2 ISZERO ISZERO AND OR SWAP1 SSTORE JUMP JUMPDEST PUSH1 0x8 DUP8 ADD SWAP5 PUSH2 0x120 DUP8 ADD MLOAD SWAP1 DUP2 MLOAD SWAP6 DUP7 GT PUSH2 0x43DD JUMPI PUSH2 0x4329 DUP7 PUSH2 0x4323 DUP10 SLOAD PUSH2 0x3119 JUMP JUMPDEST DUP10 PUSH2 0x3336 JUMP JUMPDEST DUP3 PUSH1 0x1F DUP8 GT PUSH1 0x1 EQ PUSH2 0x436D JUMPI POP SWAP5 DUP1 SWAP4 DUP2 SWAP4 PUSH2 0x140 SWAP9 SWAP7 SWAP4 PUSH1 0x9 SWAP11 SWAP9 SWAP6 PUSH2 0x4362 JUMPI JUMPDEST POP POP SHL SWAP3 PUSH1 0x0 NOT SWAP2 SHL SHR NOT AND OR SWAP1 SSTORE JUMPDEST ADD MLOAD SWAP2 ADD SSTORE JUMP JUMPDEST ADD MLOAD SWAP4 POP CODESIZE DUP1 PUSH2 0x434B JUMP JUMPDEST DUP8 DUP3 MSTORE DUP1 DUP3 KECCAK256 SWAP5 SWAP7 SWAP6 SWAP4 SWAP3 SWAP2 PUSH1 0x1F NOT DUP8 AND SWAP2 JUMPDEST DUP3 DUP3 LT PUSH2 0x43C6 JUMPI POP POP SWAP2 DUP6 SWAP4 SWAP2 PUSH2 0x140 SWAP9 SWAP7 PUSH1 0x9 SWAP11 SWAP9 SWAP7 SWAP5 LT PUSH2 0x43AC JUMPI JUMPDEST POP POP POP POP DUP2 SHL ADD SWAP1 SSTORE PUSH2 0x435B JUMP JUMPDEST ADD MLOAD SWAP1 PUSH1 0xF8 DUP5 PUSH1 0x0 NOT SWAP3 SHL AND SHR NOT AND SWAP1 SSTORE CODESIZE DUP1 DUP1 DUP1 PUSH2 0x439E JUMP JUMPDEST DUP1 DUP10 DUP7 SWAP9 DUP3 SWAP5 SWAP8 DUP8 ADD MLOAD DUP2 SSTORE ADD SWAP8 ADD SWAP5 ADD SWAP1 PUSH2 0x4380 JUMP JUMPDEST PUSH4 0x4E487B71 PUSH1 0xE0 SHL DUP2 MSTORE PUSH1 0x41 PUSH1 0x4 MSTORE PUSH1 0x24 SWAP1 REVERT JUMPDEST ADD MLOAD SWAP1 POP CODESIZE DUP1 PUSH2 0x42C4 JUMP JUMPDEST DUP5 DUP11 MSTORE DUP6 DUP11 KECCAK256 DUP8 SWAP5 POP SWAP2 SWAP1 PUSH1 0x1F NOT DUP5 AND DUP12 JUMPDEST DUP9 DUP3 DUP3 LT PUSH2 0x4444 JUMPI POP POP DUP5 GT PUSH2 0x442C JUMPI JUMPDEST POP POP POP DUP2 SHL ADD SWAP1 SSTORE PUSH2 0x42D6 JUMP JUMPDEST ADD MLOAD PUSH1 0x0 NOT DUP4 DUP10 SHL PUSH1 0xF8 AND SHR NOT AND SWAP1 SSTORE CODESIZE DUP1 DUP1 PUSH2 0x441F JUMP JUMPDEST DUP4 DUP6 ADD MLOAD DUP7 SSTORE DUP11 SWAP8 SWAP1 SWAP6 ADD SWAP5 SWAP4 DUP5 ADD SWAP4 ADD PUSH2 0x440E JUMP JUMPDEST PUSH4 0x4E487B71 PUSH1 0xE0 SHL DUP9 MSTORE PUSH1 0x41 PUSH1 0x4 MSTORE PUSH1 0x24 DUP9 REVERT JUMPDEST PUSH4 0x4E487B71 PUSH1 0xE0 SHL DUP10 MSTORE PUSH1 0x21 PUSH1 0x4 MSTORE PUSH1 0x24 DUP10 REVERT JUMPDEST PUSH4 0x4E487B71 PUSH1 0xE0 SHL DUP8 MSTORE PUSH1 0x21 PUSH1 0x4 MSTORE PUSH1 0x24 DUP8 REVERT JUMPDEST ADD MLOAD SWAP1 POP CODESIZE DUP1 PUSH2 0x423A JUMP JUMPDEST DUP5 DUP11 MSTORE DUP6 DUP11 KECCAK256 DUP8 SWAP5 POP SWAP2 SWAP1 PUSH1 0x1F NOT DUP5 AND DUP12 JUMPDEST DUP9 DUP3 DUP3 LT PUSH2 0x44E9 JUMPI POP POP DUP5 GT PUSH2 0x44D1 JUMPI JUMPDEST POP POP POP DUP2 SHL ADD SWAP1 SSTORE PUSH2 0x424C JUMP JUMPDEST ADD MLOAD PUSH1 0x0 NOT DUP4 DUP10 SHL PUSH1 0xF8 AND SHR NOT AND SWAP1 SSTORE CODESIZE DUP1 DUP1 PUSH2 0x44C4 JUMP JUMPDEST DUP4 DUP6 ADD MLOAD DUP7 SSTORE DUP11 SWAP8 SWAP1 SWAP6 ADD SWAP5 SWAP4 DUP5 ADD SWAP4 ADD PUSH2 0x44B3 JUMP JUMPDEST PUSH1 0xFF AND PUSH1 0xFF DUP2 EQ PUSH2 0x338C JUMPI PUSH1 0x1 ADD SWAP1 JUMP INVALID DUP10 CODESIZE 0xBD 0xAA 0xFB DUP14 DUP12 LOG1 SIGNEXTEND 0x24 OR MSTORE 0x2E 0xEB 0x22 0xE7 MSTORE8 0x5D DUP10 0xD5 INVALID DUP1 0xD1 MSIZE BLOCKHASH 0xDA INVALID 0xB0 0x1F PUSH18 0x85ECA26469706673582212209467C3C15A2F ADDRESS 0xCA 0xA8 SELFDESTRUCT 0xC9 EXP DUP13 SMOD PUSH24 0x45818F879B05FD4E66997280A499766B7D64736F6C634300 ADDMOD SGT STOP CALLER "},"methodIdentifiers":{"activateEmergencyStop(string)":"ea02ffac","addContractProtection(address,uint256)":"2609be4e","aiOracle()":"31b221cd","contractAverageDeposit(address)":"f6c9446a","contractDepositCount(address)":"1b480467","deactivateEmergencyStop()":"02a517ab","emergencyStop()":"63a599a4","executeOwnerOverride(bytes32,string)":"9c38944b","freezeDuration()":"440991bd","frozenTransactions(bytes32)":"ccc470cb","gasPriceThreshold()":"892a51c5","getProtectionLevel(address)":"bc00fd67","getStats()":"c59d4847","getThreatDetails(bytes32)":"9950e052","isAddressSuspicious(address)":"054bd9de","isContractProtected(address)":"c0c9b949","largeWithdrawalMultiplier()":"40034b7a","lastInteractionBlock(address)":"ccd12cd2","lastWithdrawalAmount(address)":"dfde44cf","lastWithdrawalTime(address)":"4de5120e","maxCallDepth()":"7994e28a","maxWithdrawalAmount()":"e976d431","minBalanceThreshold()":"7914d864","owner()":"8da5cb5b","patternAnalysisWindow()":"17f83e5c","priceOracle()":"2630c12f","protectedCall(address,bytes)":"1d3323b6","protectedContracts(address)":"1ec01d71","rapidWithdrawalThreshold()":"c5aae677","receiveAISimulationResult(bytes32,bool,uint256,string,string)":"116d4ac5","removeContractProtection(address)":"4838b5b6","renounceOwnership()":"715018a6","setAIOracle(address)":"1aa632b3","setFreezeDuration(uint256)":"6ca2aa95","setGasPriceThreshold(uint256)":"40af6ad4","setLargeWithdrawalMultiplier(uint256)":"6616de77","setMaxCallDepth(uint256)":"46b76ccc","setMaxWithdrawalAmount(uint256)":"25303a73","setMinBalanceThreshold(uint256)":"b5338586","setPatternAnalysisWindow(uint256)":"11c33d49","setPriceOracle(address)":"530e784f","setRapidWithdrawalThreshold(uint256)":"ce11d0ae","setSuspiciousCallThreshold(uint256)":"8fa50574","simulateWithdrawal(address,bytes)":"db658215","simulationResults(bytes32)":"eafcd1ae","suspiciousAddressCount(address)":"ab470715","suspiciousCallThreshold()":"54349ed0","threatDetections(bytes32)":"ce1e2d9e","totalLossPrevented()":"3da846aa","totalThreatsDetected()":"2c64b846","totalThreatsMitigated()":"6e2d919f","transferOwnership(address)":"f2fde38b","userAverageDeposit(address,address)":"a7fd17f3","userDepositCount(address,address)":"e8497055"}}}}}