{
  "_format": "hh-sol-artifact-1",
  "contractName": "TestVulnerable",
  "sourceName": "contracts/TestVulnerable.sol",
  "abi": [
    {
      "inputs": [
        {
          "internalType": "address",
          "name": "",
          "type": "address"
        }
      ],
      "name": "balances",
      "outputs": [
        {
          "internalType": "uint256",
          "name": "",
          "type": "uint256"
        }
      ],
      "stateMutability": "view",
      "type": "function"
    },
    {
      "inputs": [],
      "name": "deposit",
      "outputs": [],
      "stateMutability": "payable",
      "type": "function"
    },
    {
      "inputs": [],
      "name": "getBalance",
      "outputs": [
        {
          "internalType": "uint256",
          "name": "",
          "type": "uint256"
        }
      ],
      "stateMutability": "view",
      "type": "function"
    },
    {
      "inputs": [
        {
          "internalType": "uint256",
          "name": "_amount",
          "type": "uint256"
        }
      ],
      "name": "safeWithdraw",
      "outputs": [],
      "stateMutability": "nonpayable",
      "type": "function"
    },
    {
      "inputs": [
        {
          "internalType": "uint256",
          "name": "_amount",
          "type": "uint256"
        }
      ],
      "name": "withdraw",
      "outputs": [],
      "stateMutability": "nonpayable",
      "type": "function"
    }
  ],
  "bytecode": "0x60808060405234610016576102e2908161001c8239f35b600080fdfe60806040818152600436101561001457600080fd5b600091823560e01c90816312065fe01461018d5750806327e235e31461014f5780632e1a7d4d146100f7578063b0fd035b146100965763d0e30db01461005957600080fd5b816003193601126100925733825281602052812080549034820180921161007e575580f35b634e487b7160e01b83526011600452602483fd5b5080fd5b5034610092578160203660031901126100f4578080806100f19460043590338352826020526100ca828285205410156101a7565b3383528260205282206100de828254610289565b9055335af16100eb6101ea565b5061024b565b80f35b80fd5b50346100925760203660031901126100925761014a6004359133845283602052610126838286205410156101a7565b6101398480808087335af16100eb6101ea565b338452836020528320918254610289565b905580f35b5034610092576020366003190112610092576004356001600160a01b03811690819003610189578282916020945280845220549051908152f35b8280fd5b839034610092578160031936011261009257602090478152f35b156101ae57565b60405162461bcd60e51b8152602060048201526014602482015273496e73756666696369656e742062616c616e636560601b6044820152606490fd5b3d156102465767ffffffffffffffff903d8281116102305760405192601f8201601f19908116603f01168401908111848210176102305760405282523d6000602084013e565b634e487b7160e01b600052604160045260246000fd5b606090565b1561025257565b60405162461bcd60e51b815260206004820152600f60248201526e151c985b9cd9995c8819985a5b1959608a1b6044820152606490fd5b9190820391821161029657565b634e487b7160e01b600052601160045260246000fdfea264697066735822122017f30c272084ee3077061fb6b9bcf13067b85a35f8d37acffccf8758b038fd3064736f6c63430008130033",
  "linkReferences": {},
  "deployedLinkReferences": {}
}