{
  "_format": "hh-sol-artifact-1",
  "contractName": "VulnerableBank",
  "sourceName": "contracts/VulnerableBank.sol",
  "abi": [
    {
      "inputs": [
        {
          "internalType": "address",
          "name": "_immunityLayer",
          "type": "address"
        }
      ],
      "stateMutability": "nonpayable",
      "type": "constructor"
    },
    {
      "inputs": [
        {
          "internalType": "address",
          "name": "",
          "type": "address"
        }
      ],
      "name": "balances",
      "outputs": [
        {
          "internalType": "uint256",
          "name": "",
          "type": "uint256"
        }
      ],
      "stateMutability": "view",
      "type": "function"
    },
    {
      "inputs": [],
      "name": "contractOwner",
      "outputs": [
        {
          "internalType": "address",
          "name": "",
          "type": "address"
        }
      ],
      "stateMutability": "view",
      "type": "function"
    },
    {
      "inputs": [],
      "name": "deposit",
      "outputs": [],
      "stateMutability": "payable",
      "type": "function"
    },
    {
      "inputs": [],
      "name": "getBalance",
      "outputs": [
        {
          "internalType": "uint256",
          "name": "",
          "type": "uint256"
        }
      ],
      "stateMutability": "view",
      "type": "function"
    },
    {
      "inputs": [],
      "name": "immunityLayer",
      "outputs": [
        {
          "internalType": "address",
          "name": "",
          "type": "address"
        }
      ],
      "stateMutability": "view",
      "type": "function"
    },
    {
      "inputs": [
        {
          "internalType": "uint256",
          "name": "_amount",
          "type": "uint256"
        }
      ],
      "name": "safeWithdraw",
      "outputs": [],
      "stateMutability": "nonpayable",
      "type": "function"
    },
    {
      "inputs": [
        {
          "internalType": "address",
          "name": "_immunityLayer",
          "type": "address"
        }
      ],
      "name": "setImmunityLayer",
      "outputs": [],
      "stateMutability": "nonpayable",
      "type": "function"
    },
    {
      "inputs": [
        {
          "internalType": "uint256",
          "name": "_amount",
          "type": "uint256"
        }
      ],
      "name": "withdraw",
      "outputs": [],
      "stateMutability": "nonpayable",
      "type": "function"
    }
  ],
  "bytecode": "0x60803461007c57601f6104f338819003918201601f19168301916001600160401b038311848410176100815780849260209460405283398101031261007c57516001600160a01b0381169081900361007c5760018060a01b0319908160005416176000553390600154161760015560405161045b90816100988239f35b600080fd5b634e487b7160e01b600052604160045260246000fdfe608060408181526004908136101561001657600080fd5b600092833560e01c90816312065fe0146102c1575080631730121c1461029957806327e235e31461025f5780632e1a7d4d146101ee57806377fcf07b1461017357838163b0fd035b146100ff57508063ce606ee0146100d25763d0e30db01461007e57600080fd5b826003193601126100ce57825461009f906001600160a01b031615156102db565b338352600260205282208054913483018093116100bb57505580f35b634e487b7160e01b845260119052602483fd5b8280fd5b8382346100fb57816003193601126100fb5760015490516001600160a01b039091168152602090f35b5080fd5b828185346100fb5760203660031901126100fb578180610170948193359061013160018060a01b0384541615156102db565b338352600260205261014882828520541015610320565b3383526002602052822061015d828254610402565b9055335af161016a610363565b506103c4565b80f35b5090346100ce5760203660031901126100ce5780356001600160a01b0381811693918490036101ea576001541633036101ba57505081546001600160a01b03191617815580f35b906020606492519162461bcd60e51b8352820152600a60248201526927b7363c9037bbb732b960b11b6044820152fd5b8480fd5b5090346100ce5760203660031901126100ce57825490359161025a9161021e906001600160a01b031615156102db565b338452600260205261023583828620541015610320565b6102488480808087335af161016a610363565b33845260026020528320918254610402565b905580f35b5090346100ce5760203660031901126100ce57356001600160a01b038116908190036100ce57828291602094526002845220549051908152f35b8382346100fb57816003193601126100fb57905490516001600160a01b039091168152602090f35b8490346100fb57816003193601126100fb57602090478152f35b156102e257565b60405162461bcd60e51b8152602060048201526016602482015275125b5b5d5b9a5d1e481b185e595c881b9bdd081cd95d60521b6044820152606490fd5b1561032757565b60405162461bcd60e51b8152602060048201526014602482015273496e73756666696369656e742062616c616e636560601b6044820152606490fd5b3d156103bf5767ffffffffffffffff903d8281116103a95760405192601f8201601f19908116603f01168401908111848210176103a95760405282523d6000602084013e565b634e487b7160e01b600052604160045260246000fd5b606090565b156103cb57565b60405162461bcd60e51b815260206004820152600f60248201526e151c985b9cd9995c8819985a5b1959608a1b6044820152606490fd5b9190820391821161040f57565b634e487b7160e01b600052601160045260246000fdfea26469706673582212200d9084c2db7a9c84d02c8c397d61e84385ad6f78e93cc49af734b460f468d23c64736f6c63430008130033",
  "linkReferences": {},
  "deployedLinkReferences": {}
}