{
  "_format": "hh-sol-artifact-1",
  "contractName": "FlashLoanSimulator",
  "sourceName": "contracts/mocks/MockMalicious.sol",
  "abi": [
    {
      "inputs": [
        {
          "internalType": "address",
          "name": "_target",
          "type": "address"
        }
      ],
      "stateMutability": "nonpayable",
      "type": "constructor"
    },
    {
      "inputs": [],
      "name": "executeFlashLoanAttack",
      "outputs": [],
      "stateMutability": "nonpayable",
      "type": "function"
    },
    {
      "inputs": [],
      "name": "target",
      "outputs": [
        {
          "internalType": "address",
          "name": "",
          "type": "address"
        }
      ],
      "stateMutability": "view",
      "type": "function"
    },
    {
      "stateMutability": "payable",
      "type": "receive"
    }
  ],
  "bytecode": "0x60803461007457601f61026638819003918201601f19168301916001600160401b038311848410176100795780849260209460405283398101031261007457516001600160a01b0381169081900361007457600080546001600160a01b0319169190911790556040516101d690816100908239f35b600080fd5b634e487b7160e01b600052604160045260246000fdfe6080604090808252600480361015610022575b505050361561002057600080fd5b005b600091823560e01c908163d4b839921461017c575063da74027d036100125734610178578160031936011261017857815b6005811061005f578280f35b82548451629032ff60e51b60208083019182528583529267ffffffffffffffff926001600160a01b0390911691908089018181108582111761016557895251879283929083905af1903d1561015f573d81811161014c57875191601f8201601f19908116603f0116830190811183821017610139578852815285833d92013e5b15610109575060001981146100f657600101610053565b634e487b7160e01b835260118252602483fd5b8260649186519162461bcd60e51b8352820152600b60248201526a10d85b1b0819985a5b195960aa1b6044820152fd5b634e487b7160e01b885260418752602488fd5b634e487b7160e01b875260418652602487fd5b506100df565b634e487b7160e01b895260418852602489fd5b5080fd5b83903461017857816003193601126101785790546001600160a01b03168152602090f3fea2646970667358221220c674b9ce33b92876e2ea598d6b70d54d93e7c6481f337c83915f5925dbab9d3a64736f6c63430008130033",
  "linkReferences": {},
  "deployedLinkReferences": {}
}