{
  "_format": "hh-sol-artifact-1",
  "contractName": "MockMalicious",
  "sourceName": "contracts/mocks/MockMalicious.sol",
  "abi": [
    {
      "inputs": [
        {
          "internalType": "address",
          "name": "_target",
          "type": "address"
        }
      ],
      "stateMutability": "nonpayable",
      "type": "constructor"
    },
    {
      "inputs": [],
      "name": "attackCount",
      "outputs": [
        {
          "internalType": "uint256",
          "name": "",
          "type": "uint256"
        }
      ],
      "stateMutability": "view",
      "type": "function"
    },
    {
      "inputs": [
        {
          "internalType": "uint256",
          "name": "_amount",
          "type": "uint256"
        }
      ],
      "name": "executeReentrancy",
      "outputs": [],
      "stateMutability": "nonpayable",
      "type": "function"
    },
    {
      "inputs": [],
      "name": "maxAttacks",
      "outputs": [
        {
          "internalType": "uint256",
          "name": "",
          "type": "uint256"
        }
      ],
      "stateMutability": "view",
      "type": "function"
    },
    {
      "inputs": [
        {
          "internalType": "uint256",
          "name": "_max",
          "type": "uint256"
        }
      ],
      "name": "setMaxAttacks",
      "outputs": [],
      "stateMutability": "nonpayable",
      "type": "function"
    },
    {
      "inputs": [],
      "name": "simulateAttack",
      "outputs": [],
      "stateMutability": "nonpayable",
      "type": "function"
    },
    {
      "inputs": [
        {
          "internalType": "uint256",
          "name": "_amount",
          "type": "uint256"
        }
      ],
      "name": "startReentrancyAttack",
      "outputs": [],
      "stateMutability": "nonpayable",
      "type": "function"
    },
    {
      "inputs": [],
      "name": "target",
      "outputs": [
        {
          "internalType": "contract IVulnerableBank",
          "name": "",
          "type": "address"
        }
      ],
      "stateMutability": "view",
      "type": "function"
    },
    {
      "stateMutability": "payable",
      "type": "receive"
    }
  ],
  "bytecode": "0x60803461007957601f61033a38819003918201601f19168301916001600160401b0383118484101761007e5780849260209460405283398101031261007957516001600160a01b03811690819003610079576005600255600080546001600160a01b0319169190911790556040516102a590816100958239f35b600080fd5b634e487b7160e01b600052604160045260246000fdfe60808060405260043610156100ac575b50361561001b57600080fd5b600154600254811080610096575b61002f57005b6100389061024a565b6001556000805481906001600160a01b0316803b15610093578190602460405180958193632e1a7d4d60e01b83523460048401525af1908115610087575061007c57005b61008590610220565b005b604051903d90823e3d90fd5b50fd5b506000546001600160a01b031631341115610029565b600090813560e01c908163407c28211461018b5750806354d764be1461016b578063617a09d71461017057806384c8a54f1461016b578063a37573d61461014d578063d2cacac21461012b5763d4b839920361000f5734610128578060031936011261012857546040516001600160a01b039091168152602090f35b80fd5b503461012857806003193601126101285761014760015461024a565b60015580f35b50346101285780600319360112610128576020600254604051908152f35b6101ab565b50346101285760203660031901126101285760043560025580f35b9050346101a757816003193601126101a7576020906001548152f35b5080fd5b3461021b57602036600319011261021b5760006001819055805481906001600160a01b0316803b15610093578190602460405180948193632e1a7d4d60e01b835260043560048401525af1801561021057610204575080f35b61020d90610220565b80f35b6040513d84823e3d90fd5b600080fd5b67ffffffffffffffff811161023457604052565b634e487b7160e01b600052604160045260246000fd5b60001981146102595760010190565b634e487b7160e01b600052601160045260246000fdfea2646970667358221220f42af2d16b1a29779715e1500991c99f330b3d2d635933fab054c0749a3ce18164736f6c63430008130033",
  "linkReferences": {},
  "deployedLinkReferences": {}
}