{
  "_format": "hh-sol-artifact-1",
  "contractName": "ReentrancyTester",
  "sourceName": "contracts/mocks/MockMalicious.sol",
  "abi": [
    {
      "inputs": [
        {
          "internalType": "address",
          "name": "_immunityLayer",
          "type": "address"
        }
      ],
      "stateMutability": "nonpayable",
      "type": "constructor"
    },
    {
      "inputs": [],
      "name": "immunityLayer",
      "outputs": [
        {
          "internalType": "address",
          "name": "",
          "type": "address"
        }
      ],
      "stateMutability": "view",
      "type": "function"
    },
    {
      "inputs": [],
      "name": "testReentrancy",
      "outputs": [],
      "stateMutability": "nonpayable",
      "type": "function"
    }
  ],
  "bytecode": "0x60803461007457601f6102ec38819003918201601f19168301916001600160401b038311848410176100795780849260209460405283398101031261007457516001600160a01b0381169081900361007457600080546001600160a01b03191691909117905560405161025c90816100908239f35b600080fd5b634e487b7160e01b600052604160045260246000fdfe608080604052600436101561001357600080fd5b600090813560e01c9081631730121c14610186575063f4006b861461003757600080fd5b34610183578060031936011261018357805460408051630e9991db60e11b60208201818152306024840152604483019390935260006064808401919091528252926001600160a01b0392601f19928692839290861691839061009a6084826101ae565b51925af16100a66101e6565b501561014a578392838093815416926100f76040519160208301948552826100eb306024830160609160018060a01b0316815260406020820152600060408201520190565b039081018352826101ae565b51925af16101036101e6565b501561010c5780f35b60405162461bcd60e51b81526020600482015260166024820152751499595b9d1c985b98de4818d85b1b0819985a5b195960521b6044820152606490fd5b60405162461bcd60e51b8152602060048201526011602482015270119a5c9cdd0818d85b1b0819985a5b1959607a1b6044820152606490fd5b80fd5b9050346101aa57816003193601126101aa5790546001600160a01b03168152602090f35b5080fd5b90601f8019910116810190811067ffffffffffffffff8211176101d057604052565b634e487b7160e01b600052604160045260246000fd5b3d15610221573d9067ffffffffffffffff82116101d05760405191610215601f8201601f1916602001846101ae565b82523d6000602084013e565b60609056fea2646970667358221220875e2aa1f4944e4c0aab30c743ae97a4be8cb9996c36ac531d0029f0fc4e403364736f6c63430008130033",
  "linkReferences": {},
  "deployedLinkReferences": {}
}